:020000040000FA
:10000000800D0020DD010000E501000089010000F5
:1000100000000000000000000000000000000000E0
:10002000000000000000000000000000E9010000E6
:100030000000000000000000EB010000ED010000E6
:10004000EF010000EF010000EF010000EF010000F0
:10005000EF01000091130000EF010000EF0100002C
:10006000EF0100005D2F0000EF010000EF01000034
:10007000CD300000FD300000EF010000EF01000076
:10008000EF010000EF01000069190000E51A00000F
:10009000EF010000EF010000D5330000EF01000088
:1000A000EF010000EF010000EF010000EF01000090
:1000B000EF010000B9080000EF0100004D2400002E
:1000C00000F002F800F050F80CA030C808382418EE
:1000D0002D18A246671EAB4654465D46AC4201D180
:1000E00000F042F87E460F3E0FCCB6460126334262
:1000F00000D0FB1AA246AB4633431847E8D80000AD
:1001000008D90000103A02D378C878C1FAD852074B
:1001100001D330C830C101D504680C6070470000BD
:100120000023002400250026103A01D378C1FBD813
:10013000520700D330C100D50B60704710B5642959
:1001400002D100F09DF810BD782902D100F0CEF860
:1001500010BD732902D100F0ACFA10BD002010BD13
:100160001FB51FBD10B510BD00F0E8FA1146FFF72E
:10017000F7FF04F097F900F000FB03B4FFF7F2FF7C
:1001800003BC00F007FB000004207146084202D0C7
:10019000EFF3098001E0EFF308807146004A104751
:1001A0002919000070B505460C46164602E00FCC32
:1001B0000FC5103E102EFAD2082E02D303CC03C571
:1001C000083E042E07D301CC01C5361F03E0217879
:1001D0002970641C6D1C761EF9D270BD07488047DB
:1001E00007480047FEE7FEE7FEE7FEE7FEE7FEE71B
:1001F00004480549034A054B70470000C92D00001B
:10020000C100000080090020800D0020800900202E
:100210000FB4054910B503AA029800F04FFA10BCBC
:1002200008BC04B0184700000004002070B50C465C
:100230000546012A05D02878800600D5EA69002302
:1002400002E0012305E05B1C934202D2E05C00283F
:10025000F9D1A869E618C01AA861286AC0182862EE
:100260002846C046C04604E06A682078A968641C35
:100270009047B442F8D32846C046C04670BD00003F
:10028000F7B5002575291068009914A611D0C0464D
:10029000C046002802DA404211A608E00099096829
:1002A0008A0701D50FA602E0490704D50EA601254D
:1002B00001E0C046C046009F0024243704E000F05F
:1002C00011FA30313955641C0028F8D12B463246DA
:1002D0002146009800F082F9FEBD000000000000F9
:1002E0002D0000002B0000002000000070B5044627
:1002F0000D4621461068C046C0462188090502D532
:100300000F4A7A4402E00E4A7A440E322346002114
:10031000243305E006070009360F965D5E54491C3C
:100320000028F7D120780023000705D5702D03D0D1
:10033000002901D002231132204600F04FF970BD90
:10034000A2D60000F3B50446002081B0206220460A
:10035000E168884700287DD0252802D06268A1681E
:1003600083E0454F00257F442046E16888472028E8
:10037000064608DB312E06D2B8192038007800284E
:1003800001D00543F0E7A80701D5042085430020EC
:10039000E0610746A0612A2E0AD0304603F005FA34
:1003A000002827D0B8000019303E0090866119E07F
:1003B0000298BA00121902C8916102902046E168C1
:1003C0008847012F064617D1E06900281FDA202050
:1003D00085431CE000980A218069484300998019F0
:1003E000303888612046E1688847064603F0DDF929
:1003F0000028EFD1012F0AD02E2E08D12046E16827
:1004000088470646202005437F1C022FC3DBA069D6
:10041000002803DA4042A06101200543E80701D02B
:1004200010208543002E24D030464138192803D8A7
:100430000120C00205432036204625603146029A3D
:100440001546FFF77BFE00280CD0012807D0ED1DD4
:10045000E80800E00DE0C0000830029077E72D1DAD
:10046000029574E762683046A1689047206A401C94
:100470006CE7206AFEBD000066D60000002203097A
:100480008B422CD3030A8B4211D300239C464EE0AF
:1004900003460B433CD4002243088B4231D303096B
:1004A0008B421CD3030A8B4201D394463FE0C3091D
:1004B0008B4201D3CB01C01A524183098B4201D335
:1004C0008B01C01A524143098B4201D34B01C01A20
:1004D000524103098B4201D30B01C01A5241C30898
:1004E0008B4201D3CB00C01A524183088B4201D307
:1004F0008B00C01A524143088B4201D34B00C01AF3
:100500005241411A00D201465241104670475DE007
:10051000CA0F00D04942031000D34042534000228A
:100520009C4603098B422DD3030A8B4212D3FC2233
:10053000890112BA030A8B420CD3890192118B42B2
:1005400008D3890192118B4204D389013AD09211C8
:1005500000E08909C3098B4201D3CB01C01A524183
:1005600083098B4201D38B01C01A524143098B424C
:1005700001D34B01C01A524103098B4201D30B0135
:10058000C01A5241C3088B4201D3CB00C01A52415A
:1005900083088B4201D38B00C01A5241D9D2430841
:1005A0008B4201D34B00C01A5241411A00D201467E
:1005B000634652415B10104601D34042002B00D5E8
:1005C0004942704763465B1000D3404201B50020AA
:1005D000C046C04602BD704770477047FFB504462D
:1005E0000D4681B0243000902168880604D5102281
:1005F000E0699143216000E00120A84201DD471B32
:1006000000E000270498A1697A191018081AA0615F
:100610002078C00602D42046C046C046002608E026
:1006200003986268A168805D9047206A401C761C30
:10063000206204988642F3DB2078C0060AD5204663
:10064000C046C04606E06268A16830209047206A34
:10065000401C206238467F1E0028F4DC07E000982A
:100660006268A168405D9047206A401C206228466D
:100670006D1E0028F3DC2046C046C04620780006E8
:1006800002D5022005B0F0BD0120FBE710B543699B
:10069000002B02D0C046C04601E0FFF7C7FD012095
:1006A00010BD1278014624310A7000224A700122DE
:1006B000ECE711680022D243E8E70000084B70B570
:1006C0000D467B4400F027F80446284603F01EFD43
:1006D000002802D00020C04370BD204670BD00003D
:1006E000273B000001468008081A02091018020A78
:1006F0001018020C1018C008820012185200891A33
:1007000001E0401C0A390A29FBD2704701694A1CE2
:1007100002610878704700B58FB002910021059101
:100720000549019379440391114604906846FFF707
:1007300009FE0FB000BD0000E5FFFFFF754600F0A9
:1007400025F8AE46050069465346C008C0008546F8
:1007500018B020B5FFF74CFD60BC00274908B6462D
:100760000026C0C5C0C5C0C5C0C5C0C5C0C5C0C5C0
:10077000C0C5403D49008D46704710B50446C0468F
:10078000C0462046FFF7F9FC10BD00000048704746
:100790001C09002001491820ABBEFEE7260002001C
:1007A00070470000CB0709480222002B02D00368E3
:1007B000934303608B0702D58368934383604907A3
:1007C00002D5C1689143C1607047000080000E40AF
:1007D000CB0709480222002B02D0036813430360B1
:1007E0008B0702D5836813438360490702D5C1682C
:1007F0001143C1607047000080000E40F8B52B4CDB
:1008000000262078401CC0B22070022800D126703B
:10081000274D28680127384328602178002922D0F5
:1008200023480022FB031146803800F04FF82F6167
:100830001F4801218038FFF7CBFF1E48A905016042
:10084000A6602868891408432860A0680028FCD0A6
:10085000174C0121803C2046FFF7A4FFE06B80B2DB
:1008600002F0AAFFF8BD1248012300229B031146A3
:10087000803800F02BF82F610D4801218038FFF7F8
:10088000A7FF01200B4940070860A6602968801473
:1008900001432960A0680028FCD0054C0121803C60
:1008A0002046FFF77FFFA06BF8BD0000C8030020C3
:1008B00080000E4000E100E002490120886002490A
:1008C00008617047C803002080000E4030B505481D
:1008D0000468054D2C400C43144304604168436098
:1008E00030BD000080000E40F3FBFFFF10B500227A
:1008F0000421024800F0A9FD10BD00004041005055
:1009000010B501221102034800F09FFD002000F005
:1009100003F810BD404000500249002800D00120DB
:10092000086270474042005010B50122110202488F
:1009300000F08BFD10BD00008040005010B5124843
:10094000836A01210022114CC06A002B06D00028C6
:1009500001D0032000E00220607404E0002801D0F0
:10096000617400E062740848C0308068002801D0DB
:10097000617500E06275617C05A0FFF749FC617D4F
:1009800008A0FFF745FC10BD4042005000090020C0
:10099000636861726765207374617465203D20250A
:1009A00064200A00706F77657220676F6F64202083
:1009B000203D202564200A0010B50A4C01210022A8
:1009C0008902204600F041FD01210022C902204693
:1009D00000F03BFD034800220421C03000F035FD4B
:1009E00010BD0000404000500248016AC20111439E
:1009F00001627047000200500EB509490EC900910E
:100A00000192810F8A00029369468A58054951185C
:100A10004A68C306DB0E0120984002434A600EBDBF
:100A200070D9000000020050F0B585B00C460746B2
:100A3000FFF7DAFF5548544E0168002F13D0042207
:100A400011430160102000F08DF90120C0040290D4
:100A50004F48042503904F484F49201888420DD82D
:100A6000002004901CE0012211430160104600F0B8
:100A700079F90020022503960290ECE7474848499F
:100A80002018884203D801206400049008E04548FB
:100A9000444920184942884249D80320A4000490C0
:100AA0000026F64300200090019021E0294603989B
:100AB000FFF7E4FC3C493D4A4118914217D202221B
:100AC000344B014651435B1CCF185B429F420AD80E
:100AD000A14201D90B1B00E0631AB34203D21E00EE
:100AE0000095019203D03249521C8A42E8D96D1C0C
:100AF000212DDBD904980299800308430099012233
:100B000049029202891A08430199891E08431F4924
:100B10000862042000F026F904990098491C41431A
:100B20000398FFF7ABFC0199484305B0F0BD002FD7
:100B30000FD0204915480162042000F013F91EA0CF
:100B4000006800901148016A0013014203D00020A0
:100B5000EBE71A49EEE7080300D50D4E880301D5EF
:100B60003046E2E70804800F6A46105CCA05890433
:100B7000C90E891CD20D4143B008921C5043FFF7A7
:100B80007DFC8000D1E70000001BB7000002005090
:100B900000805101FF1E0AFAFFE0F5057F0F05FDF9
:100BA0007FF0FA02C08782FEFF95E7FFFFB9DB0006
:100BB00001020000324C0800010202042E44000031
:100BC00002490A6802430A607047000000020050B0
:100BD00010B502F0B1F80448006941060348006806
:100BE00000D5400810BD00000002005000000020A9
:100BF00010B502F0A1F80448006901060348006836
:100C000000D5400810BD0000000200500000002088
:100C1000F8B51C4D0446EE68102006401A48844280
:100C200002D81A48844200D2044628680427384370
:100C30002860102000F096F82869072108432861F1
:100C4000A86900090001A861E868C00705D0610033
:100C50000020FFF7E9FE044608E001206100C0041F
:100C6000FFF7E2FEEE680446102006400121022054
:100C700000F00EF8002E02D12868B8432860600802
:100C8000F8BD00000002005000A24A0440787D0137
:100C9000F3B5114C81B0E5680F461020054020687F
:100CA000042630432060102000F05CF82069072102
:100CB00008432061A069000900013843A061206950
:100CC000884301990843206102F036F8002D02D1D3
:100CD0002068B0432060FEBD00020050F0B51A4B02
:100CE00086B01C460834F0CC009401ACE0C418CBAC
:100CF00005940493840A23061B0E0ED003039B0F56
:100D00009B0004ADEB58114D5B19E5B28405E40E70
:100D1000A5401C68AC4314431C60420E520710D01F
:100D20008200920F92006B469A58084B083BD218EB
:100D300003015B0FC001C00E834010689843084355
:100D4000106006B0F0BD000058D900001802005035
:100D5000034A116938239943014311617047000028
:100D60000002005010B504460749084B05E00A464A
:100D7000491E002A01DC002010BDDA68204690439D
:100D8000F5D1012010BD000080F5200000020050C8
:100D9000F8B507461B4CFF2015460E4620607D2106
:100DA000C900194802F012F8552020607D21C900C1
:100DB000154802F00BF8032020607D21C90012487D
:100DC00002F004F8802020607D21C9000E4801F067
:100DD000FDFF27607D21C9000B4801F0F7FF266069
:100DE0007D21C900084801F0F1FF25607D21C9007F
:100DF000054801F0EBFFB819401983304042C0B2FA
:100E00002060F8BD00001540000001400248006865
:100E1000024908607047000000E100E00C0000207B
:100E20000348006820210843024908607047000019
:100E30000C00002000E100E000B5FFF7E7FF0249E9
:100E4000FF20086000BD000080E100E0F8B5044626
:100E500000200090FFF7F0FF13480178134F0022A5
:100E60000B01F858DB195E689D68DB6800280CD020
:100E7000A560E36041C401200022009008013A50BF
:100E8000C01942608260C26008E0491C521CC9B2AD
:100E9000D2B2202900D30021202AE1D302480170D8
:100EA000FFF7BEFF0098F8BD1000002008040020E6
:100EB00010B5FFF7C1FF0020084B024601015A5050
:100EC000C9184A608A60CA60401CC0B22028F5D3A5
:100ED00003480270FFF7A4FF10BD000008040020C3
:100EE00010000020F8B51C4615460E460746FFF7D1
:100EF000A3FF0F4800780F4A00210301D358002BAD
:100F00000AD0401C491CC0B2C9B2202800D300201E
:100F10002029F2D3002406E0000117508018466013
:100F20008560C4600124FFF77BFF2046F8BD000008
:100F30001000002008040020F8B501F033FB7F20EA
:100F4000C00200F097F9224C2071224800F092F97B
:100F5000A0712048001D00F08DF9274680B2803F27
:100F60001C4E386420791C360F280CD2002507E06F
:100F7000304600F07FF9A900C9196D1C361D886440
:100F80002079A842F4D800F07BFF0025002807D084
:100F900000F088FF002803D000F05CFF002813D188
:100FA0000DA0FFF735F9104939640A482571A5717C
:100FB000001D00F08DF97F202179C00200F088F932
:100FC000A179044800F084F908480560F8BD0000E4
:100FD0000009002004F80300496E697420464D2082
:100FE000706172616D210A002E2200000001005024
:100FF000F8B501F0D7FA7F21C9022448224E2222F7
:10100000C26041600121016101690029FCD10168D0
:10101000490603D501684022114301601C4F002599
:101020003C46803407E0A800C019816C304600F0CF
:101030004FF96D1C361D2079A842F4D800F020FF2E
:10104000114E0025183E002809D000F02BFF002883
:1010500005D000F0FFFE002801D0396C03E00D49F7
:1010600039642571A571304600F032F97F2021796D
:10107000C00200F02DF90448A1791C3800F028F9CD
:1010800005480560F8BD000020F8030000C00050CE
:10109000800800202E220000000100500448016951
:1010A0000448002901D0002100E00121C1747047EB
:1010B000804200500009002010B500221021034892
:1010C00000F0C3F9FFF7EAFF10BD000080400050B8
:1010D0000249002800D001204862704700420050B9
:1010E00010B500F031FE02F0DFFC02F041FE084CCA
:1010F0000649204601F06AFE02F02EFC012002F0B3
:10110000DFFC0449204601F061FE10BD8813000099
:101110000000014050C3000010B509490446497E53
:10112000082907D0072905D002F022FD204602F049
:10113000E5FE10BD02F0E6FC204602F0B5FE10BD53
:10114000A008002010B5104C01222021204600F0FC
:101150007CF901221021204600F077F9012220219C
:101160000A4800F072F901225102204600F06DF9A0
:1011700006480021C03001614161054901204861F4
:101180000020FFF7A5FF10BD004000504041005077
:101190004043005010B5094C00220121204600F0C8
:1011A00054F901220021204600F042F901220449AD
:1011B0002020086061691143616110BDC04000508A
:1011C00000E100E070B502F0A5FD0D4C0D4D21468B
:1011D000284601F0FBFDFFF783FF2146284601F07A
:1011E000F5FD0948407E072804D0082805D000F006
:1011F0008FFD70BD02F084FD70BD02F077FD70BD03
:101200003075000000000140A008002010B502F079
:101210005FFC02F0E3FC02F07DFD0A490A4801F0A0
:10122000D5FDFFF75DFF0948407E072804D0082858
:1012300005D000F06DFD10BD02F062FD10BD02F0A2
:1012400055FD10BD8813000000000140A0080020DB
:1012500010B5002002F042FC02F0C0FC02F0F8FDE4
:1012600010BD00000248016801221143016070476F
:1012700000C0005005490022CA6048608A60012011
:10128000086108690028FCD18868704700C00050D8
:1012900005490022CA6048608A6001200861086927
:1012A0000028FCD18868704700C00050F8B50E4691
:1012B0000746002407E00320A50000052818FFF7D3
:1012C000E7FF7851641CB442F5D30020F8BD00005C
:1012D000054A2123D360506091600120106110699C
:1012E0000028FCD17047000000C00050F3B581B069
:1012F000074600240E4D16E0A60003200005301816
:10130000B9592122EA606860A9600121296129692F
:101310000029FCD1FFF7BCFFB959884202D0002058
:10132000C043FEBD641C02988442E5D30020FEBD8C
:1013300000C0005010B5064C0122D102204600F03A
:1013400084F8012103228902204600F07EF810BDB6
:101350000040005010B50122D1020A4800F075F893
:10136000094A0123D3620949002000BF401C88427A
:10137000FBDB0020D06200BF401C8842FBDBD36255
:1013800010BD00000041005000430050400D03001C
:1013900070B52248016AC9070FD001250562204CAB
:1013A000204EA16800200A46793A182A06D22570F4
:1013B000A06020712061E070307670BD0A46183A56
:1013C000602A1BD2FF21A0602D31174801F03AFEA0
:1013D000307E28280AD01D2808D02069401C2061B2
:1013E0000A28EAD3C007E8D0E57070BD20690F284D
:1013F000FBD2401C20610F28F6D070BD2278002A55
:101400000AD00A4B22799954521CD1B22171202959
:1014100002D32071A5702070A06070BDC040005044
:101420003803002000090020580000209207002007
:1014300010B58369140E8C4023438361C369120283
:10144000120A8A401343C36110BDF0B5002301277F
:101450003C469C400C4208D005685C000326A64030
:10146000B5431646A640354305605B1C102BEFD3F1
:10147000F0BD000070B51F4D0024A878002812D0E0
:101480001DA0FEF7C5FE00F07BFC0021A9701F49DE
:10149000497E012901D0022901D11D2801D1042949
:1014A00000D1002070BDE9780029FAD018A0FEF71D
:1014B000AFFEE878401EE87014486030007E2428B3
:1014C00013D006DC1D280AD020280CD022280FD1EA
:1014D00007E026280BD028280AD1292408E01E245A
:1014E00006E0232404E0212402E0252400E0272450
:1014F000204670BD3803002069725F646174615FCB
:1015000072785F6F6B203D20310A0000A008002038
:101510006C6F6E6770726573733A25640A00000021
:10152000F8B50024464800F0C7FC00283CD00A214A
:10153000434801F087FD4348C168002903D0806912
:10154000002802D002E0012400E002243C4E0027E3
:101550000C3E7078002807D0012812D03A4D02289E
:1015600023D004282AD142E0002C1DD03448347006
:101570001421083801F066FD34A0FEF749FE012071
:1015800070703078A04219D12D48083800F094FCD2
:10159000002809D031A0FEF73BFE2948344908381D
:1015A00001F050FD02207070F8BD3078A04207D0E5
:1015B000410041182F4808180078E8757770F8BD89
:1015C0001F48083800F078FC0028F8D02AA0FEF761
:1015D0001FFE1B482649083801F034FD04207070B6
:1015E00030784100411823480818407808E03078E6
:1015F000A04209D0410041181E4877700818807831
:10160000E87501202874F8BD0D48083800F054FC36
:101610000028F8D00A481649083801F013FD0420C4
:101620007070042C01D0052C06D13078410041188F
:10163000104808184078E8750FA0FEF7E9FDF8BDDE
:10164000A003002080420050A0080020474F544FC4
:10165000204A4954544552210A000000474F544F34
:101660002050524553535F444F574E210A0000000B
:10167000DC0500004AD900004B4559204350212A7F
:101680002A2A2A2A2A0A000038B5094D284600F0DD
:10169000E7FA284600F0E9FA002401231A46214619
:1016A0002846009400F01CFB02480482047538BDF3
:1016B000000002400806002038B5094D284600F019
:1016C000CFFA284600F0D1FA002401231A46214619
:1016D0002846009400F004FB02480482047538BDDB
:1016E0000000124008060020FFB51C4C81B01646D1
:1016F0000746207D0028FCD1194D284600F0CFFA7E
:10170000002809D117480178490705D40178042237
:101710001143017005B0F0BDA774029820600498D1
:10172000606026810A9860810026A681E6810820F3
:10173000E074268201202075284600F091FA0123EA
:10174000002219462846009600F0CAFA284600F002
:1017500091FA207D0028FCD1DCE70000080600207B
:10176000000012407000002070B51948FFF744F9DE
:10177000184800F0FBFE184C0121204600F07FFACB
:101780001649204600F08EFA0120154C8004206096
:101790000221122000F016FE0D48401CFFF72CF924
:1017A0000C48401C00F0E2FE0E4D0121284600F0DE
:1017B00066FA0D49284600F075FA0120C004206041
:1017C0000221132000F0FEFDFFF7B4FD70BD000004
:1017D000080000400800000400000240400D030023
:1017E00000E100E000001240A0860100FFB51C4CA3
:1017F00081B016460746207D0028FCD1194D2846A9
:1018000000F04DFA002809D117480178890705D45E
:10181000017802221143017005B0F0BDA77402984F
:1018200020600498606026810A9860810026A68165
:10183000E6810820E074268201202075284600F009
:101840000FFA0123002219462846009600F048FAB4
:10185000284600F00FFA207D0028FCD1DCE70000CC
:1018600008060020000002407000002010B5294C3E
:101870002046FFF7C1F80721002209022046FFF7A2
:101880002DFA264C0121244AC906204601F034FBDA
:10189000206861050843206008152149086001217E
:1018A000092000F06DFD2068A10508432060642137
:1018B0001C4801F0C7FB1B486421083001F0C2FB43
:1018C00018486421183001F0BDFB1648642120300F
:1018D00001F0B8FB13486421483001F0B3FB114814
:1018E0006421283001F0AEFB0E486421303001F055
:1018F000A9FB0C486421383001F0A4FB094864219D
:10190000103001F09FFB07486421403001F09AFB42
:1019100010BD00000300C05E102700000001014060
:1019200000E100E018000020044603A0FEF770FC70
:10193000204603F0D7F9FEE7496E20486172642023
:101940004661756C742048616E646C65720A0000B3
:1019500010B504490020487002480A210C3001F0FB
:1019600071FB10BD94030020F8B5584EF0680127B4
:1019700000905749B80408607069C043C00726D07A
:10198000544CE17C0098814210D0208A401C208277
:10199000208A5149884209D950480178890703D4DF
:1019A0000178022211430170FFF76EFE0098410793
:1019B000490F33D1C01050210025030001F0E8FE8B
:1019C0000C0B144A190B2F0B2E560B60822E30462F
:1019D00000F046F976E041480178890772D4027830
:1019E00002210A4302706DE01820E0742582A17C78
:1019F00038E010213A4801F0E9F92089002861D047
:101A00002820E074258220680178304600F066F9CD
:101A1000A781009552E0304600F062F9F8BDA08938
:101A2000218981420BD92821E17425822168095C32
:101A3000304600F053F9A189491CA181E9E760898A
:101A400000283FD01020E07425820123002219468F
:101A50000095E0E76089002834D04020E0742582BA
:101A6000A17C3943304600F039F9D2E7608900287B
:101A700028D0E174258260890128CAD000971DE032
:101A80002046E489426800924389A3421AD94289D8
:101A9000121B022A00D15821C1740021054601827F
:101AA000304600F0F9F800990855E889401CE881B3
:101AB0006889001B0228E1D1002000900123002248
:101AC0001146A8E7FFF7E0FDF8BD00000000024066
:101AD00080E200E00806002088130000700000206B
:101AE00000000140F8B5594DE868012600905849BA
:101AF000F00408606869C043C00726D0554CE17CFB
:101B00000098554F81420FD0208A401C2082208AA5
:101B10005249884208D93878400703D438780421DC
:101B200008433870FFF7C8FD00984107490F31D1CD
:101B3000C21028210020130001F02AFE0C0B1349CB
:101B40001C0B2D0B2C570B65842C284600F088F8B5
:101B500078E03878400775D4387804210843387025
:101B600070E01821E17406462082A17C284600F02E
:101B7000B5F81FE02289002A64D0E174074620826C
:101B800020680178284600F0A9F8A6812BE02846B5
:101B900000F0A6F8F8BDA289238993420CD9E1741C
:101BA000064620822068815C284600F097F8A189CB
:101BB000491CA181009622E06189002942D01021B0
:101BC000E17420820123002219460090DFE7618939
:101BD000002937D04021E17407462082A17C2846A5
:101BE000314300F07BF8009709E06189002929D092
:101BF0005021E174208261890129DBD10090012309
:101C000000221146C3E7E789616800916189B94202
:101C100018D96189C91B022912D05021E174002012
:101C20002082284600F038F801460098C155E08926
:101C3000401CE0816089C01B0228BBD10020DDE789
:101C40005821EBE7FFF738FDF8BD00000000124017
:101C500080E200E0080600207000002088130000E9
:101C6000416901221143416170470168802291431B
:101C700001607047016880221143016070470222B1
:101C80000029416901D0114300E09143416141695C
:101C900004221143416170478068C0B27047C06838
:101CA0007047000070B50C4D044628680A22890070
:101CB0005043FEF7E3FB0A21401DFEF7DFFB401E09
:101CC000206121684022114321608100091D28689C
:101CD000FEF7D4FB70BD000000000020816070475B
:101CE00030B50024039D002900D02024002A01D013
:101CF00010210C43002B01D008210C43002D01D0F2
:101D000004210C4301683C2291432143016030BD12
:101D100010B5012251020348FFF797FB024900204A
:101D2000486210BD404000504042005010B50122B2
:101D300051020348FFF789FB02490120486210BDA8
:101D4000404000504042005010B50122510203486B
:101D5000FFF77BFB02490120486210BD4040005064
:101D60004042005010B5012211020348FFF76DFBFD
:101D700002490120086210BDC0400050C04200501E
:101D8000F8B500202B4D2C4F02460346802601213A
:101D9000AC5C0F2C00D93043082900D24008521CFB
:101DA000491CC9B2D2B20829F2D9F8545B1C0020F0
:101DB000DBB2042BEBD3204901200C394870387872
:101DC000FF251E4CF535122802D00C2812D02FE02A
:101DD000787834282CD11848BA78002108304B0084
:101DE000CB181B185B78934211D0491CC9B20B2940
:101DF000F5D31DE07878F3281AD10F48BA7800217E
:101E00002C304B00CB181B185B7893420CD14A0046
:101E10008A18865C0AA0FEF7FBF9267629460C484C
:101E200001F010F93046F8BD491CC9B20B29E8D3BE
:101E30000020F8BD92070020440300200009002084
:101E400069725F6B65795F6E756D3A25640A000093
:101E500058000020054988790F2804D8097988425C
:101E600001D80120704700207047000000090020C1
:101E700002488069C000C00F704700000040154054
:101E800005480649006C40180549884201D80120E0
:101E9000704700207047000080080020D2DDFFFF5F
:101EA00002080000034800790F2801D8012070477C
:101EB000002070470009002004490068C96A814277
:101EC00001D30120704700207047000080080020E7
:101ED000F0B585B06846FEF7B9FF002824D0009819
:101EE00007270125C54C012805D002281CD10198DF
:101EF00001287DD0AEE0C2A0029A0199FEF788F9D0
:101F00000198082812D009280ED00026072812D0E0
:101F1000042809D00D2825D0062829D0202803D14F
:101F200001220021FEF734FF05B0F0BD0298002821
:101F3000FAD12F20E1E0C0A00299FEF769F90298DA
:101F4000002806D0C0B2E074FFF7E6F866750120FD
:101F500005E03046E674FFF7DFF86575002001F014
:101F6000AFFDE1E71A20E075B9A0FEF751F9DBE714
:101F7000029806280AD10621E171BCA0FEF748F9B3
:101F80003246E6761D21702001F04CFE02980728AB
:101F900005D13946E771B5A0FEF73AF9E676029821
:101FA0000226022805D1E6713146E576AFA0FEF79C
:101FB0002FF9029804280AD1E5712A46E5761D21F9
:101FC000702001F02FFEA9A00299FEF721F90298D6
:101FD000052806D10320E071E576A4A00299FEF75A
:101FE00017F90298112808D10520E071E67600E083
:101FF00028E09EA00299FEF70BF9029812280BD157
:102000000420E0713246E6761D21702001F00AFEC0
:1020100096A00299FEF7FCF802980B2804D10B2138
:10202000E17192A0FEF7F4F80298092803D008287D
:1020300001D0162895D10C20E0718CA00299FEF7F2
:10204000E7F871E7029800288BD12279E178012026
:1020500001F0E8FD0198032889D10298032807D1EF
:102060000C20E07587A0FEF7D3F801980328E8D18B
:102070000298022807D10B20E07584A0FEF7C8F86B
:1020800001980328DDD10298152807D181A0FEF719
:10209000BFF80920E07501980328D2D102981628CC
:1020A00007D181A0FEF7B4F80A20E0750198032853
:1020B000C7D10298172807D17EA0FEF7A9F80820FB
:1020C000E07501980328BCD10298182806D17DA09C
:1020D000FEF79EF8E77501980328B2D102983128DF
:1020E0000AD032280BD056280BD00D280BD00E2842
:1020F0000BD0C1280BD012E01720E07514E7162092
:10210000FBE71020F9E71120F7E71220F5E770A0B0
:10211000FEF77EF80D20E0750198032891D1029812
:10212000C22807D16CA0FEF773F80E20E075019865
:10213000032886D10298C82807D16AA0FEF768F85C
:102140001320E07501980328D8D10298C92807D137
:1021500066A0FEF75DF81420E07501980328CDD144
:102160000298CB2807D164A0FEF752F81520E0753D
:1021700001980328C2D10298622804D0632809D0AC
:1021800064280ED018E0002262210320FEF700FE32
:102190005DA00CE0002263210320FEF7F9FD5EA0A4
:1021A00005E0002264210320FEF7F2FD5FA0FEF7A8
:1021B0002FF801980328A1D10298CA289ED1207F28
:1021C000002814D100F00CFA5EA0FEF721F8039865
:1021D0000009607703980007000FA07725775DA0BE
:1021E0000399FEF715F8A17F5FA0FEF711F87D2196
:1021F0004901624800F026FF96E60000A008002092
:102200004D53475F34475F5359535F5354415445CF
:102210005F494E443A6D73672E706172616D302074
:102220003D2025782C206D73672E706172616D31B1
:10223000203D202578200A00307830372C206D731F
:10224000672E706172616D31203D202578200A0073
:10225000494E5F4B45595F5455524E4F46465F3489
:10226000475F4D4F55444C45200A000030783036CA
:102270002C206D73672E706172616D31203D2025B9
:1022800078200A00564F4C2D0A000000564F4C2B68
:102290000A000000466F7572475F574946495F4321
:1022A00048414E4E454C0A0042545F4348414E4E11
:1022B000454C0A00415558494E5F4348414E4E45F2
:1022C0004C0A0000464D5F4348414E4E454C0A00C3
:1022D000696E736964650A006F7574736964650A71
:1022E00000000000464D2055500A0000464D204495
:1022F0004F574E0A00000000464D204C4F4E4720DD
:1023000050524553530A00006D6963206B65792074
:1023100070726573730A00006D6963206B657920C4
:102320006C6F6E672070726573730A006D6963204D
:102330006B6579206C6F6E672072656C6561736583
:102340000A00000053554220424F415244204F4E54
:102350000A0000006D73672E706172616D31203D5F
:10236000202564200A000000706C61795F6D6F6445
:1023700065203D202564200A000000006000002048
:102380008307FF22DB0E9A408907090E9940002837
:102390000BDA0007000F0838830808489B0018185C
:1023A000C36993430B43C3617047830804489B0090
:1023B0001818036893430B430360704700ED00E077
:1023C00000E400E08307FF22DB0E9A408907090E34
:1023D000994000280BDA0007000F083883080848E6
:1023E0009B001818C36993430B43C361704783086C
:1023F00004489B001818036893430B43036070471D
:1024000000ED00E000E400E010B505A0FDF700FFDE
:1024100000F060FE0121074800F010FF002010BD11
:1024200070746520756172743020696E6974210A58
:10243000000000000000054010B501220421024800
:10244000FFF703F810BD0000804000500348C16A48
:10245000890701D50221C162704700000080004059
:1024600010B5FFF7D1FF00F0F7FD01F0C3F8FFF75B
:102470007BF910BDF8B50420FEF7A2FB1020FEF793
:1024800071FC00210720FEF703FC0120FEF798FBFA
:102490000120FEF767FC1D48FEF7BAFB1820FEF787
:1024A00057FC1B4C2046FEF7A7FA651C2846FEF792
:1024B000A3FAA61C3046FEF79FFA164F3846FEF7E1
:1024C0009BFA1548FEF798FA1348401CFEF794FA59
:1024D0001248FEF791FA1248FEF78EFA1148FEF7FD
:1024E0008BFA002211462046FEF7F8FB0022114627
:1024F0002846FEF7F3FB002211463046FEF7EEFBBE
:10250000002211463846FEF7E9FBF8BD00A24A0456
:10251000103D805708000080080000401400C053A0
:102520000200805E0100206310B500F02DF8FFF777
:10253000A1FF00F047FD01F06FFE0B49002008608D
:1025400000F068FD01F030FDFEF7FCFDFFF788FFAD
:10255000FFF78CF900F020FDFEF7AAFC01F092FED7
:10256000FEF7C4F910BD0000000100500521020E65
:10257000090751188B680122824013438B608868D9
:10258000904388607047000010B559210448162216
:1025900088230160026003600468002CF9D010BD3C
:1025A0000001005010B5592104481622882301600B
:1025B000026003600468002CF9D010BD00010050D7
:1025C00006498A691202FCD408600A2804D1886985
:1025D0000002FCD40D200860704700000040154048
:1025E00010B50448006C0104C2B2090E722001F05B
:1025F00019FB10BD8008002070B50F4C01206076DB
:102600000025257225756572657501F04FFB7D21EA
:10261000C9000A4800F016FD2146257708482039F0
:1026200008640846803005710576E576FEF784FC7F
:10263000FFF7D6FF70BD0000A0080020200000209A
:102640002E22000010B5012291030348FEF7FDFE83
:10265000002000F0A7FC10BD40400050F0B5FE4C3B
:1026600087B0E27D00211C261725607E012713001C
:1026700001F08EF83057191D57888A578F9193951E
:1026800027254B5257372B31A8A4A14239888A9766
:1026900099291D57192727252531572B5737A1422F
:1026A000394B52578C5701283BD0042332E0012884
:1026B00003D0042835D002232CE0A77631E006238E
:1026C00028E0052326E0072261E0072801D008233F
:1026D00020E01D231EE0072801D009231AE01E2355
:1026E00018E00A2316E0052802D0072802D018E0D7
:1026F0000B230FE019230DE0052802D0072802D094
:102700000FE00C2306E01A2304E00D23A37607282C
:1027100007D11B23A37604E00E23A376072800D15C
:10272000A676002A02D00022E2752774CA4BCA4D51
:102730009C466035A27E9B7C06932B7905935B1E9D
:102740000193EB790293AB7900932B46803B1B6C92
:1027500004936346DB7C2E460393403E130001F056
:1027600017F81F5D357795F8F7F6F5F4F3F2F1F009
:10277000EFEEEDECEBEAE9E8E75EE6E5E4E3E2E163
:10278000E0DF5D000F23C5E71023C3E70322A27635
:10279000C9E71122FBE71222F9E71422F7E7132217
:1027A000F5E71522F3E71622F1E7A576BBE7062841
:1027B000B9D11822EBE70728F9D1F6E70728B2D1FB
:1027C0001B22E4E70728AED1A676ACE7012000F093
:1027D000E9FB022060762772A7740520E0740120CF
:1027E00000F0E8FB0120FEF773FC0120FEF794F8EF
:1027F000677201F055FA9949994800F023FC642169
:10280000984800F01FFCFEF701FD002060740246AE
:102810001621702001F006FAFEF79CFDD2E101209E
:1028200000F0C0FB0320607627720120FEF750FC09
:10283000677201F035FA8949894800F003FC642188
:10284000884800F0FFFB0020607401F04BFAB9E10A
:1028500000221521702001F0E5F900225521032006
:10286000FEF796FA01F0A0FBFEF7F2FC67747E49D2
:102870007C4800F0E7FB0420607600202072207581
:10288000607501F013FA002020779BE1002121728E
:10289000217F002914D0032812D013227121032094
:1028A00001F0C0F9E17C0022072001F0BBF9A07F14
:1028B00001280BD002284DD0032813D0042820D0A3
:1028C000002215210320FEF763FA09E000221521FA
:1028D0000320FEF75DFA00221121702001F0A2F919
:1028E00005200AE0002216210320FEF751FA0022FB
:1028F0001021702001F096F90620607601F0F2F9BF
:102900003DE0002217210320FEF742FA00221221A7
:10291000702001F087F90820607601F0E7F92EE0D9
:1029200027E141E1EBE004E1D5E0DCE047E1BBE099
:1029300083E031E02EE029E02AE07BE077E067E009
:102940006CE062E05EE05AE053E04FE028E034E003
:1029500028E018E0072060760A202076EF71002238
:102960001321702001F05EF9002218210320FEF7E8
:102970000FFA02F00BFA01F0C3F9FFF731FEE07C29
:10298000FEF7CAFB1EE102F03FF8F8E7082004E07A
:10299000072002E0062000E0052002F09BF8EEE7A9
:1029A000082006E00020607503981028EAD2401C39
:1029B000C0B2E074FEF7B0FB0DE003980028E1D050
:1029C000401EC0B2E074FEF7A7FBE07C002802D1F5
:1029D000677501F075F8E27C04210320FEF7D8F951
:1029E000E17C0022072001F01DF9EBE000220D211F
:1029F00001E000220E210320FEF7CAF9E2E00022E6
:102A00005621F8E700223121F5E700223221F2E7D2
:102A1000069802280AD00220A07403E00698012834
:102A200004D0A77401F0E7FFFEF7CCFBCAE0002258
:102A30005021E0E700222121DDE7002060720BA099
:102A4000FDF7E6FB0020FDF767FF607E042819D044
:102A5000072825D0B6E00000A0080020B80B000031
:102A60003000002038000020881300000A5455521E
:102A70004E204F4646203447204D4F55444C450A82
:102A8000000000000020FEF723FB002000F092FA77
:102A9000002000F087FA6776002001F00DF991E040
:102AA0000020FEF715FB8DE00298012802D00428D3
:102AB0000FD087E00420E8710020954A68718B00F0
:102AC0009B18491CC9B298640F29F8D39148106427
:102AD00078E0EF7176E00298012802D003280BD04D
:102AE00070E0032006E00298012802D0022803D0FB
:102AF00068E00220E87165E0EF71777162E0072815
:102B000060D185490498884202D881490A3001E0A1
:102B100080487F4908647D21777109017F4800F072
:102B200091FA7B48006C01F0F1FEFFF759FD7CA0A3
:102B30001CE0072846D1774904980A31884204D31B
:102B4000049973480A39016403E0734870490A30F4
:102B500008647D2177710901704800F073FA6C48B0
:102B6000006C01F0D3FEFFF73BFD6FA0FDF750FBBB
:102B700028E00598002825D00098002801D0401EA4
:102B800000E00198A87100066149800D4018806C32
:102B9000086401F0BBFEFFF723FD7D217771090179
:102BA0005E4800F04FFA0DE0059800280AD0019920
:102BB0000098884201DA401CE4E70020E2E70022A6
:102BC0004F2118E70020A076607E030000F0E0FDB2
:102BD000084747474747474705475648FFF76CF9B7
:102BE000002811D07D21C900524800F02BFA207E28
:102BF000002809D0401E0006000E207604D10022D5
:102C000055210320FEF7C4F84448FFF755F9002882
:102C100006D07079002803D000207071FEF7E8F923
:102C2000E879030000F0B4FD051B1B041D281B0000
:102C3000374C3949206C884201D80A3000E03548C9
:102C40002064FFF7CDFC206C01F060FE002806D068
:102C5000EF717D2177710901304800F0F3F907B079
:102C6000F0BD2B4C2B49206C0A31884201D30A3825
:102C7000E6E729480A30E3E7FFF7B2FC244C206C72
:102C800001F044FE002828D07D20000100F072FDF4
:102C90006979206C89000919886468790E2801D245
:102CA000401C68711C49206C88421AD968792871C7
:102CB000002804D0A06C20640020A87101E0154811
:102CC00020647D217771C900144800F0BBF9FFF73B
:102CD00087FC206C01F01AFE17E00F49206C884237
:102CE00002D80A302064BAE768792871002804D035
:102CF000A06C20640020A87101E006482064FFF762
:102D00006FFC206C01F002FE7771EF71A7E7000005
:102D1000800800202E220000262A000050000020FB
:102D2000464D2055500A0000464D20444F574E0A4C
:102D30000000000048000020F8B51C4D2869440739
:102D40001BA000680090296A640F2813014201D07B
:102D5000002016E0080301D5164800E016488A0353
:102D60000FD40A04920F6B469B5CCA058904D20DEE
:102D7000C90E891C8008921C59435043FDF77EFB05
:102D800080000E4E022CB06002D00D49A000085801
:102D9000A9690907090F491CFDF770FB0949306053
:102DA0004A108018FDF76AFB7060F8BD0002005001
:102DB0000102020400805101001BB7000000002046
:102DC000BC4D000040420F0070470000F8B50C46B3
:102DD000074600F05DF80546002000902648294689
:102DE0000068FDF74BFB461C0020386078612349E2
:102DF0008D4205D87D20C000844205D2044606E0FD
:102E0000642C01D2642402E08C4200D90C461C4898
:102E10008D4207D82946FDF731FB01467D20C000D1
:102E2000604317E0174A954203D90722ED08009244
:102E30000CE0154A954203D90322AD08009205E043
:102E4000124A954202D901226D080092FA2CE1D271
:102E500020466843FDF712FB78600121009889073E
:102E600008433860002E02D000BF761EFCD13868BF
:102E70008001FCD4F8BD00000000002040420F009B
:102E800000CA9A3B0090D0030048E8010024F400F7
:102E900010B588B00446202211496846FDF782F932
:102EA000104911488C4202D14069000A0CE00F49D8
:102EB0008C4202D14069000B06E00D4940698C420A
:102EC00001D1000C00E0000D4007400F022804D0A3
:102ED00080006946085808B010BD06480068FAE747
:102EE00088D90000000001400002005000010140AC
:102EF0000000114000000020F7B517460646FFF716
:102F0000C7FF044600254008B84201D2022014E061
:102F10000F498C4202D90725E4080AE00D498C428A
:102F200002D90325A40804E00B498C4201D90125EC
:102F3000044639462046FDF7A1FA0199294331603C
:102F400070606D1C684301462046FDF797FAFEBD90
:102F50000090D0030048E8010024F4000A490878F2
:102F6000401CC0B208700A2805D30020087007482A
:102F7000C16A491CC16206490868401C08600549CD
:102F800001208860704700001400002080080020A5
:102F9000400300200001014010B5FEF7FBF800F0EF
:102FA000F1FF10BD0249002800D00120886370475E
:102FB000404200500249002800D00120886070473C
:102FC000804200500F484168420411434160002193
:102FD0000520000741630163C26B01231B071A43ED
:102FE000C263826B084B1A43826333220748120183
:102FF000426001603021C16081600549416109067C
:10300000016170474040005033880000400000508C
:103010001100440010B5FDF773FCFDF7CDFCFEF781
:103020004BF8FEF79FFEFDF77FFC05490120086283
:10303000FFF702FA0020FFF7BDFFFFF703FB10BD0B
:1030400080420050034AD36A4360D26A511801603B
:10305000704700008008002010B50AA0FDF7D8F8DE
:1030600000F050F800F062F80C4801680CA0FDF781
:10307000CFF80FA0FDF7CCF80121134800F0DEF8DF
:10308000002010BD7472616E736665722075617286
:103090007420696E6974210A00000000000000209D
:1030A0000A0A435055204020256420487A0A00002F
:1030B0000A554152542053616D706C652050726FF7
:1030C0006772616D0A0000000000154010B500F045
:1030D000CDF810BD05200007C268012109040A438C
:1030E000C260C2688A43C260034802494162032148
:1030F000C1607047660000300000054010B500F068
:1031000035F810BD05200007C268012149040A43B3
:10311000C260C2688A43C260034802494162032117
:10312000C16070476F0200300000154005200007A5
:10313000C268012189040A43C260C2688A43C2602E
:103140000848074941620321C16007480021817591
:1031500001768176C17541760121C1767047000004
:1031600066000030004015407607002070B5234C03
:103170000121204600F046F8E169C9070FD0206818
:103180001F4CC0B2A27900250121130000F000FB02
:103190000805080F161A1D202725FF282BD070BD03
:1031A000552802D0FF28FAD017E0022013E00428A7
:1031B00001D103200FE0FF281DD00EE08028FAD1B6
:1031C000042008E02070052005E06070062002E081
:1031D0000028F0D10720A07170BDA57170BDFF2837
:1031E00009D06278002321780120FDF77BFEFF20C3
:1031F00020706070F1E7A17170BD00000000154003
:10320000740000204A0501D5682282610A0503D5B1
:10321000426901231A4342618A0401D5064A826148
:103220004A0401D5426C4264090403D58021C1617E
:10323000816B8163704700000100000142680A430E
:103240004260074B012212030649984201D10A60ED
:103250007047054B9842FAD101204003086070473F
:103260000000054000E100E000001540F8B5324DD7
:10327000E869002401212846FFF7C4FFE869C00778
:1032800002D028460068C4B22C4D0026E8782C4FA6
:10329000030000F07DFA05040C181D3814002146C7
:1032A00028A0FCF7B5FF5A2C3CD1012029E021468B
:1032B00028A0FCF7ADFFA52C03D0FF2CF5D0EE70B5
:1032C00030E002201DE06C71AC602E71032018E02C
:1032D0006A792879521E904222493A7809DA0C23F9
:1032E0005A4312188C54A9680919401CA960287106
:1032F00018E00C235A4310180C54A8680019A86051
:103300000420E8700EE0214617A0FCF781FFA868B2
:10331000C143491C18A0A960FCF77AFFEE70387809
:10332000401C3870044881697122114203D0092180
:103330008902FFF767FFF8BD000005407400002018
:1033400004040020494E44455820303A2025780A8C
:1033500000000000494E44455820313A2025780AA3
:103360000000000044080020494E44455820343AEB
:103370002025780A000000005243523A2025780A9E
:103380000000000010B5052000070269FF2101318F
:103390000A43026102698A4302610B4C02202060E9
:1033A0000A48E0621020206107484030C1694206A7
:1033B0001143C1610648FFF7D9F84B2109022046A5
:1033C00000F040F910BD00000000074001080000B7
:1033D0000800000810B500F0C5F810BD10B50FA02A
:1033E000FCF716FF1DA0FCF713FF0CA0FCF710FF65
:1033F0002AA0FCF70DFF39A0FCF70AFF47A0FCF755
:1034000007FF06A0FCF704FF54484168102211434F
:10341000416053499004086010BD00002B2D2D2DF4
:103420002D2D2D2D2D2D2D2D2D2D2D2D2D2D2D2DCC
:103430002D2D2D2D2D2D2D2D2D2D2D2D2D2D2D2DBC
:103440002D2D2D2D2D2D2D2D2D2D2D2D2D2D2D2DAC
:103450002D2D2D2D2D2D2D2D2B0A00007C202055BE
:1034600053434920554152542046756E6374696F29
:103470006E205465737420202020202020202020DE
:10348000202020202020202020202020202020203C
:1034900020202020202020207C0A00007C202044A6
:1034A00065736372697074696F6E203A2020202002
:1034B000202020202020202020202020202020200C
:1034C00020202020202020202020202020202020FC
:1034D00020202020202020207C0A00007C2020208A
:1034E000205468652073616D706C6520636F64653E
:1034F0002077696C6C207072696E7420696E7075CB
:10350000742063686172206F6E207465726D696EDD
:10351000616C2020202020207C0A00007C202020BC
:1035200020506C6561736520656E74657220616EF4
:103530007920746F207374617274202020202028F9
:1035400050726573732027302720746F2065786967
:1035500074292020202020207C0A00000000074041
:1035600000E100E070B52148C16BC90739D1406B5B
:103570001F4CC0B2E27800250121130000F008F9C9
:1035800008050910131A1D202430FF2829D1E170E5
:1035900027E0552802D0FF2823D021E0022011E0A7
:1035A00003280FD001E0802802D0FF28EFD017E0D9
:1035B000042007E02070052004E06070062001E090
:1035C000A0700720E0700CE0FF28E0D0A3786278BC
:1035D00021780220FDF786FCFF2020706070A0702B
:1035E000E570024910204031486270BD000007407C
:1035F0008000002010B5FFF7C5FE0648016806A050
:10360000FCF706FE08A0FCF703FEFFF7E7FE00202C
:1036100010BD0000000000200A0A43505520402041
:10362000256420487A0A00000A5553434920554131
:1036300052542053616D706C652050726F677261D7
:103640006D0A0000F0B50646474885B00D46864233
:1036500002D04648864202D1FDF7BAFA01E0FDF7F2
:10366000C7FA29460290FCF709FF04460146029872
:10367000FCF704FF471B611C0298FCF7FFFE281AA9
:10368000874200D3641C01200004844205D310202B
:1036900004250090800101903CE00121890301256F
:1036A00008466843A04203D26D1C042DF8D901E0FE
:1036B000042D00D9042529462046FCF7DFFE03909F
:1036C00000200027FF430090062401902146039824
:1036D000FCF7D4FE01218902884205D908460399E6
:1036E000A2028A1A511C07E00146039A6143521A4A
:1036F000411C039B6143C91A8A4201D3401C00E06C
:103700001146B94203D20F000094019002D0641C0C
:10371000102CDBD93068C008C00030600220306057
:103720001348F06210203061009901988A0201214B
:10373000401E89020004511A08432902FF39013949
:103740000843B060F06D0121C9070843F0652946C0
:103750000298FCF793FE0099FCF790FE0199FCF7A4
:103760008DFE05B0F0BD000000000740004007409E
:10377000010800000022054B04E00021491C994289
:10378000FCD3521C8242F8D370470000102700007F
:1037900030B47446641E2578641CAB4200D21D46CA
:1037A000635D5B00E31830BC184730380A2801D24B
:1037B000012070470020704770B51C4D0022AB7887
:1037C000194C5B1CDBB21146AB70082B03D90023EC
:1037D000AB700123EB70AB789E00154B9851E878E5
:1037E00000281FD088001858491C8218C9B208291F
:1037F000F8D3D1080D4A00200C328300D3588B42F5
:1038000003D8401CC0B20B28F7D3002801D0401EBB
:10381000C0B2207407A0A160FCF7FAFC217C0BA0C9
:10382000FCF7F6FC70BD000000090020C803002072
:10383000C407002073616D706C655F6261745F64C2
:103840006174613A2025640A0000000073616D70A4
:103850006C655F6261746C6576656C3A2025640AFC
:10386000000000000020401CC0B20528FBD37047B8
:10387000074A0121516311635160064A002802D0B2
:103880000020906100E0916101488030C163704781
:103890000042005040430050F3B5002481B005467B
:1038A00026460FE06000295CFD2914D0FE290DD0CA
:1038B000FF2906D04119002302229A200096FDF725
:1038C00095FF641C02988442ECDBFEBD0849094860
:1038D000FFF77CFAF5E7471900967A78B91C0023C0
:1038E0009A20FDF783FF7878401C40080419E8E728
:1038F0008813000000000140F3B5002481B00546A4
:1039000026460FE06000295CFD2914D0FE290DD069
:10391000FF2906D041190023022298200096FDF7C6
:1039200065FF641C02988442ECDBFEBD084909482F
:10393000FFF74CFAF5E7471900967A78B91C00238F
:103940009820FDF753FF7878401C40080419E8E7F9
:10395000881300000000014070B500F043F800F04B
:103960004BF813A0FCF754FC184C194DA07C01280F
:1039700002D002280BD014E000F048F82946154880
:10398000FFF7BAFF29461448FFF786FF09E02946EA
:103990001248FFF781FF00F039F829461048FFF779
:1039A000ABFFE07C00F0AEF800F030F870BD000036
:1039B0006472765F353832355F496E69742A2A2A17
:1039C0002A2A2A2A2A2A2A2A0A000000A0080020D5
:1039D0002B0F00009E9C0000F25F0000487E00005C
:1039E000F4BA000010B5002204210248FDF72DFDB5
:1039F00010BD00004041005010B501210022C90255
:103A00000148FDF722FD10BDC040005038B502212D
:103A10002448FFF741FF00242249234602220839A7
:103A20009A200094FDF7E2FE1E4900230222891F1E
:103A30009A200094FDF7DAFE1A4900230222091F9A
:103A40009A200094FDF7D2FE164900230222891E17
:103A50009A200094FDF7CAFE02211248FFF74CFF9E
:103A6000104900230222083998200094FDF7BEFE79
:103A70000C4900230222891F98200094FDF7B6FE0E
:103A8000084900230222091F98200094FDF7AEFE8A
:103A9000044900230222891E98200094FDF7A6FE07
:103AA00038BD0000E05F000010B50122910203481C
:103AB000FDF7CBFC002000F003F810BDC040005023
:103AC0000249002800D0012088627047C04200509F
:103AD00010B5012000F002F810BD000010B504463A
:103AE000012211030548FDF7B0FC0548002C01D068
:103AF000012100E00021016310BD0000C040005022
:103B0000C0420050F8B5044610282BD803211648AF
:103B1000FFF7C2FEA00024181448002521180E4605
:103B20002B4605229A200095FDF760FE0F480023E2
:103B3000553021180C4605229A200095FDF756FEB7
:103B400003210948FFF7D8FE3146002305229820BB
:103B50000095FDF74BFE2146002305229820009595
:103B6000FDF744FEF8BD0000E45F0000E401002022
:103B7000F8B5044610282BD803211648FFF78CFE11
:103B8000A00024181448002521180E462B460522B3
:103B90009A200095FDF72AFE0F4800235530211882
:103BA0000C4605229A200095FDF720FE03210948C6
:103BB000FFF7A2FE31460023052298200095FDF76D
:103BC00015FE21460023052298200095FDF70EFEE4
:103BD000F8BD0000E45F00008E020020F8B50BA0E5
:103BE000FCF716FBFEF7A2F800240D4D2646E00078
:103BF000411900964A68295800239420FDF774FD66
:103C0000641CE4B2062CF2D3F8BD00004164635F8B
:103C100070636D313836325F496E69740A00000096
:103C2000E84D0000F8B507461B4CFF2015460E4630
:103C300020637D21C9001948FFF7C8F8552020638B
:103C40007D21C9001548FFF7C1F8032020637D21BD
:103C5000C9001248FFF7BAF8802020637D21C9000F
:103C60000E48FFF7B3F827637D21C9000B48FFF723
:103C7000ADF826637D21C9000848FFF7A7F8256342
:103C80007D21C9000548FFF7A1F8B8194019833014
:103C90004042C0B22063F8BD000007400000014070
:103CA000014901204861704700420050014900204D
:103CB0004861704700420050084A08498032084B6A
:103CC000002801D0002000E001204863086348601C
:103CD000D06398618860C86070470000004200505F
:103CE0004043005010B5FEF713F810BD10B5172073
:103CF00000F0B2F9012000F0DBF9FEF717F810BD73
:103D000010B5212000F0A8F9022000F0D1F9FEF74B
:103D10000DF810BD10B5E82000F09EF9082000F065
:103D2000C7F9FEF703F810BD0549012048630022DA
:103D30000A63486002498031C8630249886170475C
:103D40000042005040430050074A01215163116373
:103D5000002802D00020506000E05160024880300E
:103D6000C1630248816170470042005040430050E7
:103D700010B510A0FCF74CFA012251031448FDF7CE
:103D800064FB14490120486313491448FFF71EF8E7
:103D9000134C1449A07C012802D0022802D004E070
:103DA000114800E0114800F023F8E07C00F07CF8B6
:103DB00010BD00006472765F333235315F496E6941
:103DC000742A2A2A2A2A2A2A2A2A2A2A0A000000A7
:103DD000C0400050C0420050881300000000014065
:103DE000A00800206B0400001E4E0000F4560000E6
:103DF000F3B5002481B0054626460FE06000295C3B
:103E0000FD2915D0FE290DD0FF2906D04119002328
:103E1000022294200096FDF7E9FC641C029884427B
:103E2000ECDBFEBD7D21C9000848FEF7CFFFF4E7BB
:103E3000471900967A78B91C00239420FDF7D6FC28
:103E40007878401C40080419E7E7000000000140B2
:103E5000F8B5002000F028F8012251030D48FDF7C5
:103E6000F4FA0D4C012565630C4E0D4F3146384672
:103E7000FEF7ACFF0B493846FEF7A8FF0020606351
:103E800031463846FEF7A2FF06493846FEF79EFF48
:103E90006563F8BDC0400050C04200508813000068
:103EA00000000140B80B000038B50446032110485B
:103EB000FFF79EFFA00024180E48002521182B466E
:103EC000052294200095FDF791FC03210848FFF797
:103ED0008FFF0848002355302118052294200095B3
:103EE000FDF784FC07210448FFF782FF38BD00007E
:103EF000184E000090000020CA5F000038B504464C
:103F000003211048FFF774FFA00024180E48002575
:103F100021182B46052294200095FDF767FC03210C
:103F20000848FFF765FF084800235530211805228F
:103F300094200095FDF75AFC07210448FFF758FF2D
:103F400038BD0000184E00003A010020CA5F000092
:103F50000349002801D0002000E00120886070475C
:103F60000042005005490120486308634860034A45
:103F700000218032D16302498861704700420050BD
:103F80004043005010B5074C002208212046FDF7A1
:103F90005CFA002240212046FDF757FAFDF7D8FCD5
:103FA00010BD00008040005070B51E4C01229103EE
:103FB0002046FDF74AFA0122D50329462046FDF79F
:103FC00044FA012251032046FDF73FFA0122110372
:103FD0002046FDF73AFA012202212046FDF735FA84
:103FE000012204212046FDF730FA0E48012229461D
:103FF0008030FDF72AFA012240210B48FDF725FA0F
:1040000009490120C0318860486308634860074A55
:10401000D063064AC03290618860C8608863C86314
:1040200070BD0000004000504041005080420050F0
:104030000349002801D0002000E00120C863704738
:10404000004200500349002801D0002000E0012078
:10405000886370470042005038B514490024487006
:10406000891C4870891C4870891C487023460222AC
:10407000891F94200094FDF737FB0C49002302228E
:10408000891C94200094FDF72FFB0849002302228D
:10409000091D94200094FDF727FB04490023022208
:1040A000891D94200094FDF71FFB38BD8800002077
:1040B00038B5402108430A4900244870891C4870DB
:1040C00023460222891E94200094FDF70DFB04492B
:1040D00000230222891C94200094FDF705FB38BDC3
:1040E00084000020074A0121002802D000205063EC
:1040F00000E051631163516002488030C16302489F
:104100008161704700420050404300500020C0438E
:104110007047000010B5074920220A7000224A703B
:10412000030A8B70C8700A71034B0122052000F04E
:1041300017FC10BDC0030020B307002010B51E4AB5
:104140002223137000235370002801D002205070E6
:10415000002903D05078012108435070174B0822E2
:104160001549022000F0FCFB1448134C0178183C60
:10417000C907C90F61714178CA09E2718A07D20F74
:10418000C9072272C90F6172C1788278090211438E
:1041900049BA21610279227342796273C079606100
:1041A00007A0FCF735F8617A09A0FCF731F8217B0C
:1041B0000BA0FCF72DF810BDC0030020B3070020B2
:1041C0007265616420667265713A2025640A000098
:1041D00049732076616C69643A2025640A00000006
:1041E000525353493A2025640A00000000B50346A3
:1041F000FEF7E6F9184600BD1CB5002000900190BE
:10420000142069460870012201AB104600F0A8FB9B
:10421000694608791CBD000010B5174C2046FCF714
:10422000EBFB032252040C212046FCF757FD134CF4
:10423000002240212046FDF708F900228021204677
:10424000FDF703F905200007816B0902090A816364
:10425000816B112212061143816360680121890577
:104260000843606060684900084360600448016872
:1042700001221143016010BD1CFE23564040005036
:1042800080000E4010B5FEF78DF9FCF7EBFF7F20A4
:10429000C00200F02BFA002802DA03A0FBF7B8FFF7
:1042A0000B490020086010BD4661696C656420748C
:1042B0006F20736574204461746120466C6173687B
:1042C00020626173652061646472657373210A0002
:1042D0000001005070B50C4605460121222000F077
:1042E00037F804E0E8B200F007F82070641C6D1E97
:1042F000F8D200F075F870BDF0B50024134B0746F6
:10430000224626460125DE629D62012000F050FD16
:10431000022000F04DFDDD62012000F049FD996AA8
:1043200060000843521CD2B2C4B2082AEBD3DE624A
:10433000002F09D09E62022000F03AFDDD620120CC
:1043400000F036FD2046F0BD9D62F4E700420050CB
:1043500070B51B4B01260A460446DE62304600F06B
:1043600027FD00259D62012000F022FDDD62D007BF
:10437000B443C00F04430722DD62012000F018FDA2
:104380002046D040C007C00F9862012000F010FD09
:10439000DE62012000F00CFD521EEDD5DD629E6252
:1043A000022000F005FDDE62012000F001FD986AA8
:1043B000002804D0FFF756FA02A0FBF729FF70BDD2
:1043C000004200502064696520696E207374617238
:1043D000742066756E6374696F6E200A00000000B9
:1043E00000B5084A0023D362022000F0E1FC93628A
:1043F000012000F0DDFC0123D362184600F0D8FC58
:10440000936200BD0042005070B50C460546002185
:104410002220FFF79DFF03E02078641C00F006F8DF
:104420006D1EF9D2FFF7DCFF70BD000070B50722EA
:104430000026134B04460125DE62012000F0B8FC83
:104440002046D040C007C00F9862022000F0B0FCA8
:10445000DD62012000F0ACFC521EEDD5DE629D62F3
:10446000022000F0A5FCDD62012000F0A1FC986AAA
:10447000002804D0FFF7F6F902A0FBF7C9FE70BDD3
:10448000004200502064696520696E20777269746B
:104490006520627974652066756E6374696F6E203D
:1044A0000A0000000026FEF73FF8FEF7A5F86EA010
:1044B000FBF7AEFE6EA271A173A0FBF7A9FE784CCC
:1044C00000272546803520347648FDF7F5FC002886
:1044D00000D02F767448FDF7EFFC00283CD07D21FA
:1044E00009017148FEF7AEFDFCF788F9FCF7D6FD2F
:1044F000FCF724FAE17C6DA0FBF78AFEE87C00283B
:1045000010D0687C012802D002280BD104E00120E1
:10451000FFF798FD002003E00020FFF793FD012046
:10452000FFF786FD287C00280DD0022814D26349AD
:10453000A868096888420FD9E07C08280CD9E87C73
:10454000002807D008E0607E0228F0D9E87C002827
:1045500002D0ECE71C20E0755948FDF7ADFC0028BF
:1045600035D0FF21F5315648FEF76CFD207A002842
:1045700002D000F08FFB01E000F038FB5148FDF75E
:104580009BFC002801D0FFF791FB607E042815D129
:104590004D48FDF791FC002841D04C4801210163B2
:1045A000416341600020FCF793FD0020FEF702FD0F
:1045B0000020FEF7F7FC6774012060764448FDF7A1
:1045C0007BFC002803D0277742A0FBF721FE207C4C
:1045D000002807D027740120FFF7BAFC6421414866
:1045E000FEF730FD3F48FDF767FC002802D00020B1
:1045F000FFF7AEFC207D002808D027750020FFF7CC
:104600005FFA7D21C9003848FEF71CFD3648FDF7EA
:1046100053FC002815D0607D00280FD011E0002E3B
:1046200006D02A4901200863486348600026C5E790
:1046300026480763476347600126BFE70120FFF76D
:104640003FFAE07D00280BD1FCF714FFE07500284D
:1046500006D1FCF765FFE07D002801D1FDF738FCAD
:10466000FDF7FCFF30E700000A6D61696E0A00008B
:1046700031363A35393A3133000000004A756C2042
:104680003233203230323000636F6D70696C6520D8
:1046900074696D653A2025732025730D0A000000AA
:1046A000800800205800002028000020766F6C75DC
:1046B0006D65203D202564200A000000D403002001
:1046C0002000002030000020380000200042005070
:1046D0006000002053554220424F415244204F4633
:1046E000460A000068000020400000207CB5044617
:1046F00002216846FCF7DAFD0025ED43002803DAC5
:1047000015A0FBF785FD17E00098C00704D10198BC
:10471000A04201D100207CBD16480168102211433F
:104720000160009802214008400000900194684612
:10473000FCF7DCFD002801DA28467CBD7F21C90298
:104740000DA0FBF765FDFDF793FB0028FBD00120D2
:10475000052109078860DDE70A5265616420557309
:10476000657220436F6E666967206661696C656477
:10477000210A000000C000500A536574204461748F
:104780006120466C617368206261736520617320EB
:10479000307825782E0A000010B50521012000F0A0
:1047A00003F91F210A4800F0FFF809480921401CBD
:1047B00000F0FAF80321074800F0F6F80548102148
:1047C000401C00F0F1F8002000F04EF810BD000091
:1047D000021300000314000010B505490020087002
:1047E00000F024F803A0FBF713FDFFF7D5FF10BD81
:1047F000A8030020504F5745522055500A00000092
:1048000010B50848017800290AD000210170054937
:104810001120183108700122034B104600F0A0F857
:1048200010BD0000A8030020B307002070B50C4D98
:104830002878002812D12846012418300470D0218D
:104840004170052181700146064B0822032000F0CB
:1048500087F8FF20F530FEF78DFF2C7070BD00004B
:10486000A8030020B3070020F8B515221202112674
:104870001A4C951C360200280DD0194F022815D06D
:104880000421104600F090F82146284600F08CF8EC
:10489000012130461AE00421104600F085F8214637
:1048A000284600F081F80221304613E00021284616
:1048B00000F07AF80121304600F076F80520094929
:1048C000800200F071F806480749401E00F06CF8BD
:1048D0000A21384600F068F8F8BD000001FF00002A
:1048E00002140000B01D00002823000010B504468B
:1048F0000021054800F058F8A1060120890E800328
:1049000000F052F810BD000001400000F8B5124E52
:104910000125FF24B5702D347570FFF7FBFB642073
:10492000FEF728FF00270D4D08E0FF20F53000F0CE
:104930003FFA022C02DA012028713770641E03D37B
:10494000FFF75AFCC007F0D001210020FFF7F6FB6B
:10495000B770707AF8BD0000A8030020C0080020DE
:10496000F8B51E4614460D46074600F033F82946B2
:10497000384600F00DF800F02DF8002C03D0314639
:10498000204600F001F8F8BD10B5FFF7A3FC10BDFC
:1049900010B5FFF739FD10BD08B569460120FFF7D6
:1049A000F3FF6846007808BD10B5094A122313705A
:1049B00000235370030A9370D070080A107151716C
:1049C00000231A4602490620FFF7CAFF10BD000067
:1049D000C003002070B5FA24650002E0284600F00C
:1049E000E7F92146641EE4B2002903D0FFF7D4FFA3
:1049F0000006F3D570BD10B500231A46C22102206F
:104A0000FCF770FA10BD0000F8B5314C607E052847
:104A10001ED006282BD0254601266035072835D024
:104A2000082814D1072060760A202076EE71002233
:104A300013217020FFF7F6F8002218210320FCF75D
:104A4000A7F900F0A3F9FDF7CBFDFFF759F9F8BD81
:104A5000002216210320FCF79BF906206076FFF761
:104A600041F9002210217020FFF7DCF8F8BD002288
:104A700017210320FCF78CF9082060760022122110
:104A80007020FFF7CFF8FFF731F9F8BD607A002703
:104A9000002811D0FFF7B4FEEF710022152103208A
:104AA000FCF776F905206076002211217020FFF7CF
:104AB000B9F8FFF717F9F8BDFFF7A2FEEF71002272
:104AC00011217020FFF7AEF866761B20E075F8BD67
:104AD000A0080020F8B5444C617E81421BD02546D9
:104AE00007220A230126603508290BD0062925D084
:104AF000052944D007290ED10027052860D00628B3
:104B00001FD149E005282DD006283DD0072802D125
:104B100002E0FFF7E7F8F8BD62762376EE71002237
:104B200013217020FFF77EF8002218210320FCF7E4
:104B30002FF900F02BF9FFF7E3F8F8BD052820D195
:104B400010E00828F9D1002217210320FCF720F9F2
:104B500008206076002212217020FFF763F8FFF72B
:104B6000C5F8F8BD002215210320FCF711F9052036
:104B70006076002211217020FFF754F8C9E706285B
:104B800002D00728DDD1C7E7002216210320FCF759
:104B9000FFF806206076BCE7002216210320FCF710
:104BA000F7F806206076FFF79DF8607A002803D0BA
:104BB000FFF726FEEF71E7E7FFF722FEEF710EE049
:104BC000607A002803D0FFF71BFEEF71CAE7FFF7FA
:104BD00017FEEF71002211217020FFF723F866768F
:104BE0001B20E075F8BD0000A008002010B50348A8
:104BF000007A002801D100F003F810BDA0080020C1
:104C000070B5224A0024D0790123214902280DD011
:104C100005280BD0072809D0082807D00A2805D076
:104C20000B704D78002D02D04C7001E00C704B7071
:104C3000527E082A15D0072A17D0012A19D0022837
:104C40001BD0012819D0032817D0042819D0052813
:104C500017D0062801D0072802D14878FFF774F84A
:104C600070BD0120FFF760F870BD0120FFF77AF9F1
:104C700070BD0020FFF720F870BD4878FFF732FACA
:104C800070BD4878FEF7F4FD70BD0000A00800205C
:104C90000504002010B512498878052801D2401C6F
:104CA00000E001208870C0B20300FEF771FD060726
:104CB00004080C1014070120FFF714FA10BD01209E
:104CC000FEF7D6FD10BD0120FFF73EF810BD012014
:104CD000FFF72AF810BD0120FFF744F910BD0000CE
:104CE0000504002010B50446016810A0FBF790FAF7
:104CF00011A06168FBF78CFA12A0A168FBF788FA93
:104D000013A0E168FBF784FA14A02169FBF780FA8D
:104D100015A06169FBF77CFA16A0A169FBF778FA88
:104D200017A0E169FBF774FA10BD00007230202073
:104D30003D20307825780A00723120203D203078DF
:104D400025780A00723220203D20307825780A002C
:104D5000723320203D20307825780A0072313220CD
:104D60003D20307825780A006C7220203D20307874
:104D700025780A00706320203D20307825780A00CD
:104D8000707372203D20307825780A0010B5FFF747
:104D900023FD3F20FFF7AAFD0448006CFFF7B6FD96
:104DA000FF202D30FEF7E6FC10BD0000800800203B
:104DB000002100E0491C8142FCD37047001BB70072
:104DC0000080000000E0480410270000006CDC02B6
:104DD00000000000000000000080510101000200FE
:104DE0000300040020102607DC4D00000200000034
:104DF000DE4D000002000000E04D00000200000057
:104E0000E24D000002000000E44D0000020000003E
:104E1000E64D00000200000000007F8C001E000034
:104E20007F000211011100000000000000000311CA
:104E30002A0025180D10020000007F0002800000EB
:104E40007F00220300007F00020000007F8C001E14
:104E5000FD051C0000000000FD052800000000000A
:104E6000FD05340000000000FD05400000000000CA
:104E7000001FFD05240020C49C00FD05307FFFFFBE
:104E8000FF0000007F8C001CFD156C7FFFFFFF0002
:104E90000000000000000000000000000000000012
:104EA00000007F8C001DFD15087FFFFFFF00000044
:104EB00000000000000000000000000000000000F2
:104EC0007F8C001EFD0510000000000000007F8C9C
:104ED0000023FD0514000000010000007F8C00117C
:104EE000FD15587FFFFFFF000000000000000000DC
:104EF000000000000000000000007F8C0012FD1583
:104F000044FF845916FF845916FF84591670462BA6
:104F10003B9D850DE20000007F8C0013FD15304F96
:104F20009DF9354F9DF9354F9DF935B61962EAD592
:104F30005555560000007F8C0013FD155805B75CD1
:104F40001FFA48A3E105B75C1FB61962EAD55555AB
:104F5000560000007F8C0014FD15087B1DFA7E842E
:104F6000E205827B1DFA7E7B11D2FE89ABBC030079
:104F700000007F8C0014FD151C4F9DF9354F9DF9E5
:104F8000354F9DF935B61962EAD5555556000000E2
:104F90007F8C0014FD15587FAA61B480559E4C7F0C
:104FA000AA61B47FAA535E80AB1FEA0000007F8C29
:104FB0000014FD156C000C2780000C2780000C27C6
:104FC000807B11D2FE89ABBC030000007F8C0015F2
:104FD000FD15087FFFFFFF82307A5A7BA107EA7F29
:104FE00070A334811CB6640000007F8C0015FD1591
:104FF0001C7FFFFFFF000000000000000000000019
:1050000000000000000000007F8C0015FD15307FBF
:105010009F7DA68060825A7F9F7DA67F9F351880E6
:10502000C073980000007F8C0015FD15447FAA36E0
:10503000C68055C93A7FAA36C67FA9FD6D80AB1FD1
:10504000C40000007F8C0015FD15587FFFFFFF0096
:105050000000000000000000000000000000000050
:1050600000007F8C0015FD156C7FFFFFFF00000026
:105070000000000000000000000000000000000030
:105080007F8C0016FD15087FFFFFFF000000000069
:1050900000000000000000000000000000007F8C05
:1050A0000016FD151C2D6A866F0000000000000030
:1050B0000000000000000000000000007F8C0016CF
:1050C000FD15307FFFFFFF00000000000000000022
:1050D000000000000000000000007F8C0016FD159D
:1050E00044008052DA008052DA008052DA742E8C4A
:1050F0005C95A19BDE0000007F8C0016FD1558001A
:105100008052DA008052DA008052DA742E8C5C957C
:10511000A19BDE0000007F8C0016FD156C7FFFFF59
:10512000FF00000000000000000000000000000080
:10513000000000007F8C0017FD15087FFFFFFF00B7
:10514000000000000000000000000000000000005F
:1051500000007F8C0017FD151C7FFFFFFF00000083
:10516000000000000000000000000000000000003F
:105170007F8C0017FD15307FFFFFFF00000000004F
:1051800000000000000000000000000000007F8C14
:105190000017FD15447FFFFFFF0000000000000026
:1051A0000000000000000000000000007F8C0017DD
:1051B000FD15587FFFFFFF00000000000000000009
:1051C000000000000000000000007F8C0017FD15AB
:1051D0006C7FFFFFFF0000000000000000000000E7
:1051E00000000000000000007F8C0018FD1508087A
:1051F00000000000000000000000000000000000AF
:105200000000000000007F8C0018FD151C7FFFFFD0
:10521000FF0000000000000000000000000000008F
:10522000000000007F8C0018FD15307FFFFFFF009D
:10523000000000000000000000000000000000006E
:1052400000007F8C0018FD15447FFFFFFF00000069
:10525000000000000000000000000000000000004E
:105260007F8C0018FD15587FFFFFFF000000000035
:1052700000000000000000000000000000007F8C23
:105280000018FD156C7FFFFFFF000000000000000C
:105290000000000000000000000000007F8C0019EA
:1052A000FD15087FFFFFFF00000000000000000068
:1052B000000000000000000000007F8C0019FD15B8
:1052C0001C7FFFFFFF000000000000000000000046
:1052D00000000000000000007F8C0019FD15307FE9
:1052E000FFFFFF00000000000000000000000000C1
:1052F0000000000000007F8C0019FD15447FFFFFB7
:10530000FF0000000000000000000000000000009E
:10531000000000007F8C0019FD15587FFFFFFF0083
:10532000000000000000000000000000000000007D
:1053300000007F8C0019FD156C7FFFFFFF0000004F
:10534000000000000000000000000000000000005D
:105350007F8C001AFD15087FFFFFFF000000000092
:1053600000000000000000000000000000007F8C32
:10537000001AFD151C7FFFFFFF0000000000000069
:105380000000000000000000000000007F8C001AF8
:10539000FD15307FFFFFFF0000000000000000004F
:1053A000000000000000000000007F8C001AFD15C6
:1053B00044080000000000000000000000000000A1
:1053C00000000000000000007F8C001AFD0558005E
:1053D000E2C46B0000007F8C001AFD156C01538F36
:1053E000CC005538EA0002468600000000000000AC
:1053F000000000007F8C001BFD1508FF8147AEF701
:105400005CECB9FD4268A70000000000000000004D
:1054100000007F8C001BFD291C0006D3720002BB1C
:1054200006000369C5000000000000000000000045
:1054300000F9DABC21FC588B890000000000000054
:10544000000000007F8C001BFD29440006D3720081
:1054500002BB06000369C500000000000000000058
:10546000000000F9DABC21FC588B89000000000024
:105470000000000000007F8C001DFD051C00221DA7
:10548000950000007F8C001DFD0520087A079D0017
:1054900000007F8C001DFD05240732AE18000000BF
:1054A0007F8C001DFD052C008000000000007F8C1B
:1054B000001DFD0534400000000000007F8C001D31
:1054C000FD0538400000000000007F8C001DFD0538
:1054D00040008000000000007F8C001DFD0544009E
:1054E0000000000000007F8C001DFD05480000004A
:1054F000000000007F8C001DFD0558000000010029
:1055000000007F8C001DFD055C004026E7000000C8
:105510007F8C001DFD0560004026E70000007F8CA9
:10552000001DFD0564000000000000007F8C001DD0
:10553000FD0568000000000000007F8C001DFD05D7
:1055400074000000000000007F8C001DFD05780045
:105550000000000000007F8C001DFD057C00800025
:10556000000000007F8C001EFD0508008000000088
:1055700000007F8C001EFD050C00000000000000F4
:105580007F8C001EFD0514008000000000007F8C51
:10559000001EFD0518000000000000007F8C001EAA
:1055A000FD051C000000000000007F8C001EFD05B2
:1055B00020000000000000007F8C001EFD0524007C
:1055C0000000000000007F8C001EFD052800000088
:1055D000000000007F8C001EFD052C0080000000F4
:1055E00000007F8C001EFD05300000000000000060
:1055F0007F8C001EFD0534000000000000007F8C41
:10560000001EFD0538000000000000007F8C001E19
:10561000FD053C000000000000007F8C001EFD0521
:1056200040000000000000007F8C001EFD054401CA
:1056300041857F0000007F8C001EFD0548014185EB
:105640007F0000007F8C001EFD0550400000000020
:1056500000007F8C001EFD0554040D42FE0000007A
:105660007F8C001EFD0558040000000000007F8CA8
:10567000001FFD051400CEC08A0000007F8C001FB3
:10568000FD05180A0AAED20000007F8C001FFD0540
:105690001C000369D00000007F8C001FFD05204026
:1056A0000000000000007F8C001FFD052875F551EB
:1056B0002E0000007F8C001FFD052C0000576200AB
:1056C00000007F8C0023FD05140000000100000095
:1056D0007F00000007000820550700007F00000041
:1056E0003D303E3000007F000001020000007F00DE
:1056F00003002A1100007F000211011100000000C8
:105700000000000003112A0025180D1002000000FF
:105710007F00028000007F00220300007F00020063
:1057200000007F8C001EFD051C0000000000FD0530
:10573000280000000000FD05340000000000FD0509
:10574000400000000000001FFD05240020C49C0054
:10575000FD05307FFFFFFF0000007F8C001CFD1562
:105760006C7FFFFFFF000000000000000000000051
:1057700000000000000000007F8C001DFD15087F68
:10578000FFFFFF000000000000000000000000001C
:105790000000000000007F8C001EFD0510000000CE
:1057A000000000007F8C0023FD05140000000100B4
:1057B00000007F8C0011FD15587FFFFFFF000000E7
:1057C00000000000000000000000000000000000D9
:1057D0007F8C0012FD1544FF845916FF845916FF73
:1057E00084591670462B3B9D850DE20000007F8C8E
:1057F0000013FD15304F9DF9354F9DF9354F9DF93B
:1058000035B61962EAD55555560000007F8C001355
:10581000FD155805B75C1FFA48A3E105B75C1FB634
:105820001962EAD55555560000007F8C0014FD150D
:10583000087B1DFA7E84E205827B1DFA7E7B11D2F5
:10584000FE89ABBC030000007F8C0014FD151C4FCB
:105850009DF9354F9DF9354F9DF935B61962EAD559
:105860005555560000007F8C0014FD15587FFFFF32
:10587000FF00000000000000000000000000000029
:10588000000000007F8C0014FD156C7FFFFFFF00FF
:105890000000000000000000000000000000000008
:1058A00000007F8C0015FD15087FFFFFFF00000042
:1058B00000000000000000000000000000000000E8
:1058C0007F8C0015FD151C7FFFFFFF00000000000E
:1058D00000000000000000000000000000007F8CBD
:1058E0000015FD15307FFFFFFF00000000000000E5
:1058F0000000000000000000000000007F8C001588
:10590000FD15447FFFFFFF000000000000000000C5
:10591000000000000000000000007F8C0015FD1555
:10592000587FFFFFFF80F25B797E1EDA367F538857
:105930009281555BBE0000007F8C0015FD156C7FC9
:1059400077CC69808833977F77CC697F7783F281C2
:105950000FD6400000007F8C0016FD15087F77CC25
:1059600069808833977F77CC697F7783F2810FD600
:10597000400000007F8C0016FD151C50C335D3007D
:105980000000000000000000000000000000000017
:1059900000007F8C0016FD15307FFFFFFF81092B73
:1059A0003C7DF713527F4275D18171A4FA0000004B
:1059B0007F8C0016FD1544008052DA008052DA0018
:1059C0008052DA742E8C5C95A19BDE0000007F8CE7
:1059D0000016FD1558008052DA008052DA0080521D
:1059E000DA742E8C5C95A19BDE0000007F8C001683
:1059F000FD156C7FFFFFFF000000000000000000AD
:105A0000000000000000000000007F8C0017FD1562
:105A1000087FFFFFFF000000000000000000000002
:105A200000000000000000007F8C0017FD151C7FA7
:105A3000FFFFFF0000000000000000000000000069
:105A40000000000000007F8C0017FD15307FFFFF75
:105A5000FF00000000000000000000000000000047
:105A6000000000007F8C0017FD15447FFFFFFF0042
:105A70000000000000000000000000000000000026
:105A800000007F8C0017FD15587FFFFFFF0000000E
:105A90000000000000000000000000000000000006
:105AA0007F8C0017FD156C7FFFFFFF0000000000DA
:105AB00000000000000000000000000000007F8CDB
:105AC0000018FD150808092D250000000000000041
:105AD0000000000000000000000000007F8C0018A3
