:020000040000FA
:10000000880E0020D1010000D90100007D01000010
:1000100000000000000000000000000000000000E0
:10002000000000000000000000000000DD010000F2
:100030000000000000000000DF010000E1010000FE
:10004000E3010000E3010000E3010000E301000020
:10005000E3010000F50E0000E3010000E3010000F1
:10006000E3010000E9220000E3010000E3010000D9
:100070007D260000AD260000E3010000E301000042
:10008000E3010000E301000039140000B515000091
:10009000E3010000E3010000FD280000E30100008F
:1000A000E3010000E3010000E3010000E3010000C0
:1000B000E30100006D070000E3010000C91C00001F
:1000C00000F002F800F04BF80CA030C808382418F3
:1000D0002D18A246671EAB4654465D46AC4201D180
:1000E00000F03DF87E460F3E0FCCB6460126334267
:1000F00000D0FB1AA246AB4633431847E8C50000C0
:1001000008C60000103A02D378C878C1FAD852075E
:1001100001D330C830C101D504680C6070470000BD
:100120000023002400250026103A01D378C1FBD813
:10013000520700D330C100D50B60704710B5642959
:1001400002D100F06DF810BD782902D100F09EF8C0
:1001500010BD002010BD1FB51FBD10B510BD00F0B3
:10016000A5FA1146FFF7F7FF03F0D0F900F0BDFA4A
:1001700003B4FFF7F2FF03BC00F0C4FA0420714699
:10018000084202D0EFF3098001E0EFF308807146E6
:10019000004A1047F913000070B505460C46164694
:1001A00002E00FCC0FC5103E102EFAD2082E02D35B
:1001B00003CC03C5083E042E07D301CC01C5361F6E
:1001C00003E021782970641C6D1C761EF9D270BD85
:1001D0000748804707480047FEE7FEE7FEE7FEE7DF
:1001E000FEE7FEE704480549034A054B7047000057
:1001F00055210000C1000000880A0020880E002060
:10020000880A00200FB4054910B503AA029800F02F
:100210000DFA10BC08BC04B01847000038020020DA
:10022000F7B5002575291068009914A611D0C046AD
:10023000C046002802DA404211A608E00099096889
:100240008A0701D50FA602E0490704D50EA60125AD
:1002500001E0C046C046009F0024243704E000F0BF
:10026000F9F930313955641C0028F8D12B46324653
:100270002146009800F082F9FEBD00000000000059
:100280002D0000002B0000002000000070B5044687
:100290000D4621461068C046C0462188090502D592
:1002A0000F4A7A4402E00E4A7A440E322346002175
:1002B000243305E006070009360F965D5E54491C9D
:1002C0000028F7D120780023000705D5702D03D032
:1002D000002901D002231132204600F04FF970BDF1
:1002E00002C40000F3B50446002081B0206220461D
:1002F000E168884700287DD0252802D06268A1687F
:1003000083E0454F00257F442046E1688847202848
:10031000064608DB312E06D2B819203800780028AE
:1003200001D00543F0E7A80701D50420854300204C
:10033000E0610746A0612A2E0AD0304602F0BBFCDD
:10034000002827D0B8000019303E0090866119E0DF
:100350000298BA00121902C8916102902046E16821
:100360008847012F064617D1E06900281FDA2020B0
:1003700085431CE000980A21806948430099801950
:10038000303888612046E1688847064602F093FCD1
:100390000028EFD1012F0AD02E2E08D12046E16887
:1003A00088470646202005437F1C022FC3DBA06937
:1003B000002803DA4042A06101200543E80701D08C
:1003C00010208543002E24D030464138192803D808
:1003D0000120C00205432036204625603146029A9E
:1003E0001546FFF7ABFE00280CD0012807D0ED1D05
:1003F000E80800E00DE0C0000830029077E72D1D0E
:10040000029574E762683046A1689047206A401CF4
:100410006CE7206AFEBD0000C6C30000002203098D
:100420008B422CD3030A8B4211D300239C464EE00F
:1004300003460B433CD4002243088B4231D30309CB
:100440008B421CD3030A8B4201D394463FE0C3097D
:100450008B4201D3CB01C01A524183098B4201D395
:100460008B01C01A524143098B4201D34B01C01A80
:10047000524103098B4201D30B01C01A5241C308F8
:100480008B4201D3CB00C01A524183088B4201D367
:100490008B00C01A524143088B4201D34B00C01A53
:1004A0005241411A00D201465241104670475DE068
:1004B000CA0F00D04942031000D3404253400022EB
:1004C0009C4603098B422DD3030A8B4212D3FC2294
:1004D000890112BA030A8B420CD3890192118B4213
:1004E00008D3890192118B4204D389013AD0921129
:1004F00000E08909C3098B4201D3CB01C01A5241E4
:1005000083098B4201D38B01C01A524143098B42AC
:1005100001D34B01C01A524103098B4201D30B0195
:10052000C01A5241C3088B4201D3CB00C01A5241BA
:1005300083088B4201D38B00C01A5241D9D24308A1
:100540008B4201D34B00C01A5241411A00D20146DE
:10055000634652415B10104601D34042002B00D548
:100560004942704763465B1000D3404201B500200A
:10057000C046C04602BD704770477047FFB504468D
:100580000D4681B0243000902168880604D51022E1
:10059000E0699143216000E00120A84201DD471B92
:1005A00000E000270498A1697A191018081AA061C0
:1005B0002078C00602D42046C046C046002608E087
:1005C00003986268A168805D9047206A401C761C91
:1005D000206204988642F3DB2078C0060AD52046C4
:1005E000C046C04606E06268A16830209047206A95
:1005F000401C206238467F1E0028F4DC07E000988B
:100600006268A168405D9047206A401C20622846CD
:100610006D1E0028F3DC2046C046C0462078000648
:1006200002D5022005B0F0BD0120FBE7084B70B5F4
:100630000D467B4400F027F80446284602F05CFF94
:10064000002802D00020C04370BD204670BD0000CD
:10065000C92E000001468008081A02091018020A73
:100660001018020C1018C008820012185200891AC3
:1006700001E0401C0A390A29FBD2704701694A1C73
:1006800002610878704700B58FB002910021059192
:100690000549019379440391114604906846FFF798
:1006A00021FE0FB000BD0000E5FFFFFF754600F022
:1006B00025F8AE46050069465346C008C000854689
:1006C00018B020B5FFF78EFD60BC00274908B6467C
:1006D0000026C0C5C0C5C0C5C0C5C0C5C0C5C0C551
:1006E000C0C5403D49008D46704710B50446C04620
:1006F000C0462046FFF73CFD10BD00000048704793
:10070000280A002001491820ABBEFEE7260002009F
:1007100070470000CB0709480222002B02D0036873
:10072000934303608B0702D5836893438360490733
:1007300002D5C1689143C1607047000080000E403F
:10074000CB0709480222002B02D003681343036041
:100750008B0702D5836813438360490702D5C168BC
:100760001143C1607047000080000E4010B50A4878
:1007700001210161094A810511600069064C803C34
:10078000206B81B206A0FFF73DFDE06B81B20EA0A9
:10079000FFF738FD10BD000080000E4080E100E052
:1007A000436F6E76657273696F6E20726573756CD8
:1007B00074206F66206368616E6E656C2031323A1A
:1007C0002030782558200A00436F6E766572736971
:1007D0006F6E20726573756C74206F66206368613C
:1007E0006E6E656C2031353A2030782558200A002D
:1007F00030B505480468054D2C400C431443046093
:100800004168436030BD000080000E40F3FBFFFFF5
:100810000248016AC20111430162704700020050A0
:100820000EB509490EC900910192810F8A00029309
:1008300069468A58054951184A68C306DB0E0120EB
:10084000984002434A600EBD70C60000000200508E
:10085000F0B585B00C460746FFF7DAFF5548544E11
:100860000168002F13D0042211430160102000F012
:100870008DF90120C00402904F48042503904F4891
:100880004F49201888420DD8002004901CE0012216
:1008900011430160104600F079F90020022503960B
:1008A0000290ECE7474848492018884203D80120C5
:1008B0006400049008E045484449201849428842B1
:1008C00049D80320A40004900026F643002000909D
:1008D000019021E029460398FFF7A0FD3C493D4ADD
:1008E0004118914217D20222344B014651435B1CFE
:1008F000CF185B429F420AD8A14201D90B1B00E0EE
:10090000631AB34203D21E000095019203D032490C
:10091000521C8A42E8D96D1C212DDBD9049802991A
:10092000800308430099012249029202891A084370
:100930000199891E08431F490862042000F026F926
:1009400004990098491C41430398FFF767FD0199FA
:10095000484305B0F0BD002F0FD020491548016273
:10096000042000F013F91EA0006800901148016AED
:100970000013014203D00020EBE71A49EEE7080319
:1009800000D50D4E880301D53046E2E70804800FFC
:100990006A46105CCA058904C90E891CD20D414300
:1009A000B008921C5043FFF739FD8000D1E70000EA
:1009B000001BB7000002005000805101FF1E0AFA20
:1009C000FFE0F5057F0F05FD7FF0FA02C08782FE8C
:1009D000FF95E7FFFFB9DB0001020000324C080081
:1009E000010202042E44000002490A6802430A6020
:1009F000704700000002005010B501F063FB04488E
:100A0000006941060348006800D5400810BD000099
:100A1000000200500000002010B501F053FB044814
:100A2000006901060348006800D5400810BD0000B9
:100A30000002005000000020F8B51C4D0446EE688E
:100A4000102006401A48844202D81A48844200D234
:100A500004462868042738432860102000F096F8E0
:100A60002869072108432861A86900090001A861D5
:100A7000E868C00705D061000020FFF7E9FE0446E2
:100A800008E001206100C004FFF7E2FEEE680446C2
:100A9000102006400121022000F00EF8002E02D1A5
:100AA0002868B84328606008F8BD000000020050C4
:100AB00000A24A0440787D01F3B5114C81B0E5688D
:100AC0000F46102005402068042630432060102087
:100AD00000F05CF82069072108432061A069000943
:100AE00000013843A06120698843019908432061CF
:100AF00001F0E8FA002D02D12068B0432060FEBD6D
:100B000000020050F0B51A4B86B01C460834F0CCF9
:100B1000009401ACE0C418CB05940493840A230626
:100B20001B0E0ED003039B0F9B0004ADEB58114D21
:100B30005B19E5B28405E40EA5401C68AC43144380
:100B40001C60420E520710D08200920F92006B463A
:100B50009A58084B083BD21803015B0FC001C00E26
:100B60008340106898430843106006B0F0BD000051
:100B700058C6000018020050034A116938239943EF
:100B800001431161704700000002005010B5044697
:100B90000749084B05E00A46491E002A01DC0020EF
:100BA00010BDDA6820469043F5D1012010BD000049
:100BB00080F5200000020050F8B507461B4CFF20CE
:100BC00015460E4620607D21C900194801F0C4FA7F
:100BD000552020607D21C900154801F0BDFA032091
:100BE00020607D21C900124801F0B6FA8020206003
:100BF0007D21C9000E4801F0AFFA27607D21C900B0
:100C00000B4801F0A9FA26607D21C900084801F0CF
:100C1000A3FA25607D21C900054801F09DFAB819A5
:100C2000401983304042C0B22060F8BD000015403A
:100C30000000014002480068024908607047000057
:100C400000E100E00C000020034800682021084378
:100C500002490860704700000C00002000E100E03D
:100C600000B5FFF7E7FF0249FF20086000BD000064
:100C700080E100E0F8B5044600200090FFF7F0FFA7
:100C800013480178134F00220B01F858DB195E68F6
:100C90009D68DB6800280CD0A560E36041C401209A
:100CA0000022009008013A50C01942608260C26080
:100CB00008E0491C521CC9B2D2B2202900D300213D
:100CC000202AE1D302480170FFF7BEFF0098F8BD6B
:100CD000100000204002002010B5FFF7C1FF0020E7
:100CE000084B024601015A50C9184A608A60CA601E
:100CF000401CC0B22028F5D303480270FFF7A4FFC0
:100D000010BD00004002002010000020F8B51C4675
:100D100015460E460746FFF7A3FF0F4800780F4A17
:100D200000210301D358002B0AD0401C491CC0B23B
:100D3000C9B2202800D300202029F2D3002406E0E5
:100D400000011750801846608560C4600124FFF7D9
:100D50007BFF2046F8BD000010000020400200206C
:100D600010B505A0FFF74EFA01F08CFC01210748F1
:100D700001F03CFD002010BD64656275672075615F
:100D8000727420696E6974210A0000000000054039
:100D90000249002800D001204862704700420050FC
:100DA00010B502F0B3F802F009FA0549054801F060
:100DB000D3F901F0FBFF012002F0B4F810BD0000F0
:100DC000881300000000014010B5044602F0CCF882
:100DD000204602F091FA10BD10B5104C01222021DE
:100DE000204600F0DAF801221021204600F0D5F864
:100DF000012220210A4800F0D0F8012251022046A9
:100E000000F0CBF806480021C0300161416105497E
:100E1000012048610020FFF7BBFF10BD00400050DB
:100E2000404100504043005010B5094C00220121C0
:100E3000204600F0B2F801220021204600F0A0F880
:100E4000012204492020086061691143616110BDDD
:100E5000C040005000E100E070B502F083F90D4C95
:100E60000D4D2146284601F077F9FFF799FF2146FD
:100E7000284601F071F90948007D062804D00728AA
:100E800005D002F057F970BD02F064F970BD02F0B0
:100E900059F970BD30750000000001400C0A0020B7
:100EA00010B502F05FF902F045F802F093F8052161
:100EB000094801F051F9FFF773FF084840790A2803
:100EC00004D0082805D002F035F910BD02F042F92F
:100ED00010BD02F037F910BD000001400C0A0020DF
:100EE00010B5002002F02CF802F074F802F0D8F9E6
:100EF00010BD000030B51F48016AC9070ED001229D
:100F000002621D4900208B681C46793C182C06D2D1
:100F10000A70886048710861C870087130BD1C464D
:100F2000183C602C15D2886013480B790469601C4A
:100F3000252B08D01A2B06D008610A28EED3C0074B
:100F4000ECD0CA7030BD0F2CFCD208610F28F8D04D
:100F500030BD0C78002C0AD0084D4C792B55641C00
:100F6000E3B24B71202B02D348718A7008708860FD
:100F700030BD0000C0400050C8010020CA09002058
:100F800010B58369140E8C4023438361C369120238
:100F9000120A8A401343C36110BDF0B50023012734
:100FA0003C469C400C4208D005685C000326A640E5
:100FB000B5431646A640354305605B1C102BEFD3A6
:100FC000F0BD000070B51D4D0024A878002812D097
:100FD0001BA0FFF717F900F003FC0021A9701D49C1
:100FE000097D012901D0022901D11A2801D1032943
:100FF00000D1002070BDE9780029FAD016A0FFF7D3
:1010000001F9E878401EE87028791A38030001F0E9
:1010100045FE0C0912120D120B120F1211120712BB
:10102000262408E01B2406E0202404E01E2402E01D
:10103000222400E02424204670BD0000C8010020C6
:1010400069725F646174615F72785F6F6B203D20CD
:10105000310A00000C0A00206C6F6E6770726573B5
:10106000733A25640A000000F8B50024404800F0F7
:1010700017FC002836D00A213D4801F0B5FA3D485A
:10108000C168002903D08069002802D002E0012451
:1010900000E00224364E00270C3E7078002807D06E
:1010A00001280FD0344D02281DD0042824D139E066
:1010B000002C17D02E4834701421083801F094FA0F
:1010C000012070703078A04216D12948083800F00D
:1010D000E7FB002806D026482849083801F084FAA2
:1010E00002207070F8BD3078A04207D0410041184E
:1010F000234808180078E8747770F8BD1C48083851
:1011000000F0CEFB0028F8D019481C49083801F03F
:101110006BFA0420707030784100411818480818A4
:10112000407808E03078A04209D0410041181448C6
:10113000777008188078E87401202873F8BD0C488F
:10114000083800F0ADFB0028F8D009480B490838F2
:1011500001F04AFA04207070042C01D0052CEDD166
:10116000307841004118064808184078E874F8BD06
:1011700030020020804200500C0A0020DC050000F4
:101180004AC6000038B5094D284600F0D1FA284675
:1011900000F0D3FA002401231A4621462846009481
:1011A00000F006FB02480482047538BD00000240CE
:1011B0004004002038B5094D284600F0B9FA284609
:1011C00000F0BBFA002401231A4621462846009469
:1011D00000F0EEFA02480482047538BD00001240A7
:1011E00040040020FFB51C4C81B016460746207D08
:1011F0000028FCD1194D284600F0B9FA002809D181
:1012000017480178490705D4017804221143017079
:1012100005B0F0BDA7740298206004986060268134
:101220000A9860810026A681E6810820E074268263
:1012300001202075284600F07BFA01230022194680
:101240002846009600F0B4FA284600F07BFA207D8C
:101250000028FCD1DCE70000400400200000124020
:101260005000002070B51848FFF7DAFA174800F070
:10127000C1FD174C0121204600F069FA15492046AE
:1012800000F078FA0120144C800420600221122022
:1012900000F0F8FC0C48401CFFF7C2FA0B48401C59
:1012A00000F0A8FD0D4D0121284600F050FA0C4930
:1012B000284600F05FFA0120C004206002211320BC
:1012C00000F0E0FC70BD00000800004008000004D1
:1012D00000000240400D030000E100E00000124069
:1012E000A0860100FFB51C4C81B016460746207D44
:1012F0000028FCD1194D284600F039FA002809D100
:1013000017480178890705D401780222114301703A
:1013100005B0F0BDA7740298206004986060268133
:101320000A9860810026A681E6810820E074268262
:1013300001202075284600F0FBF901230022194600
:101340002846009600F034FA284600F0FBF9207D8C
:101350000028FCD1DCE7000040040020000002402F
:101360005000002010B51F4C2046FFF759FA072106
:10137000002209022046FFF7C5FB1C4C01211A4A36
:10138000C906204600F07EFF206861050843206002
:101390000815174908600121092000F051FC206858
:1013A000A105084320606421124801F01DF911488D
:1013B0006421083001F018F90E486421103001F062
:1013C00013F90C486421183001F00EF90948642122
:1013D000283001F009F907486421203001F004F9B0
:1013E00010BD00000300C05E102700000001014096
:1013F00000E100E018000020044603A0FEF702FF11
:10140000204602F033FAFEE7496E204861726420FC
:101410004661756C742048616E646C65720A0000E8
:1014200010B504490020487002480A210C3001F030
:10143000DBF810BD24020020F8B5584EF0680127F3
:1014400000905749B80408607069C043C00726D0AF
:10145000544CE17C0098814210D0208A401C2082AC
:10146000208A5149884209D950480178890703D414
:101470000178022211430170FFF784FE00984107B2
:10148000490F33D1C01050210025030001F006FCA4
:101490000C0B144A190B2F0B2E560B60822E304664
:1014A00000F046F976E041480178890772D4027865
:1014B00002210A4302706DE01820E0742582A17CAD
:1014C00038E010213A4800F047FE2089002861D01A
:1014D0002820E074258220680178304600F066F903
:1014E000A781009552E0304600F062F9F8BDA0896E
:1014F000218981420BD92821E17425822168095C68
:10150000304600F053F9A189491CA181E9E76089BF
:1015100000283FD01020E0742582012300221946C4
:101520000095E0E76089002834D04020E0742582EF
:10153000A17C3943304600F039F9D2E760890028B0
:1015400028D0E174258260890128CAD000971DE067
:101550002046E489426800924389A3421AD942890D
:10156000121B022A00D15821C174002105460182B4
:10157000304600F0F9F800990855E889401CE881E8
:101580006889001B0228E1D100200090012300227D
:101590001146A8E7FFF7F6FDF8BD00000000024085
:1015A00080E200E04004002088130000500000208A
:1015B00000000140F8B5594DE868012600905849EF
:1015C000F00408606869C043C00726D0554CE17C30
:1015D0000098554F81420FD0208A401C2082208ADB
:1015E0005249884208D93878400703D43878042112
:1015F00008433870FFF7DEFD00984107490F31D1ED
:10160000C21028210020130001F048FB0C0B1349E5
:101610001C0B2D0B2C570B65842C284600F088F8EA
:1016200078E03878400775D438780421084338705A
:1016300070E01821E17406462082A17C284600F063
:10164000B5F81FE02289002A64D0E17407462082A1
:1016500020680178284600F0A9F8A6812BE02846EA
:1016600000F0A6F8F8BDA289238993420CD9E17451
:10167000064620822068815C284600F097F8A18900
:10168000491CA181009622E06189002942D01021E5
:10169000E17420820123002219460090DFE761896E
:1016A000002937D04021E17407462082A17C2846DA
:1016B000314300F07BF8009709E06189002929D0C7
:1016C0005021E174208261890129DBD1009001233E
:1016D00000221146C3E7E789616800916189B94238
:1016E00018D96189C91B022912D05021E174002048
:1016F0002082284600F038F801460098C155E0895C
:10170000401CE0816089C01B0228BBD10020DDE7BE
:101710005821EBE7FFF74EFDF8BD00000000124036
:1017200080E200E040040020500000208813000008
:101730004169012211434161704701688022914350
:1017400001607047016880221143016070470222E6
:101750000029416901D0114300E091434161416991
:1017600004221143416170478068C0B27047C0686D
:101770007047000070B50C4D044628680A228900A5
:101780005043FEF74BFE0A21401DFEF747FE401E68
:10179000206121684022114321608100091D2868D1
:1017A000FEF73CFE70BD0000000000208160704725
:1017B00030B50024039D002900D02024002A01D048
:1017C00010210C43002B01D008210C43002D01D027
:1017D00004210C4301683C2291432143016030BD48
:1017E000F8B50020284D294F0246034680260121E6
:1017F000AC5C0F2C00D93043082900D24008521CA1
:10180000491CC9B2D2B20829F2D9F8545B1C002095
:10181000DBB2042BEBD31D4C01200C3C60703878FC
:10182000122802D00C2812D02BE07878342828D146
:101830001648BA78002108304B00CB181B185B788B
:10184000934211D0491CC9B20B29F5D319E078781D
:10185000F32816D10D48BA7800212C304B00CB1854
:101860001B185B78934208D14A008A18855C08A04F
:10187000FEF7C8FC25712846F8BD491CC9B20B29E2
:10188000ECD30020F8BD0000CA090020D4010020DC
:1018900069725F6B65795F6E756D3A25640A000049
:1018A00004490068896A814201D301207047002001
:1018B00070470000EC090020F0B585B001A8FFF7E3
:1018C000D9F9002824D0019806260B270125AC4C15
:1018D000012805D002281BD1029801287ED0C1E042
:1018E000A8A0039A0299FEF78DFC0298082811D04F
:1018F000092814D0072838D0042809D00D284CD046
:10190000062854D0202803D104220021FFF754F9DF
:1019100005B0F0BD03980028FAD12C20AEE0039862
:101920000128F5D1964D6B46203DE98B0804000E49
:101930005870CAB21A702178012902D0C009C001BA
:10194000587059780920FFF737F9298B6B4608043E
:10195000000E5870CAB21A706178032902D0602153
:101960000840587059780920D0E794A00399FEF7F1
:1019700049FC03980026002806D0C0B2E073FFF7A8
:1019800023FA6674012005E03046E673FFF71CFA7F
:101990006574002001F0C6FABAE70020FFF7F8F9F5
:1019A000002000F061FD002000F0C2FCB0E70398C9
:1019B000062804D13146667186A0FEF723FC039801
:1019C000072804D10721617182A0FEF71BFC039850
:1019D000022806D1022161717EA000E03AE0FEF704
:1019E00011FC0398042804D10146657179A0FEF723
:1019F00009FC0398052805D10320607175A003999F
:101A0000FEF700FC0398112805D10520607171A034
:101A10000399FEF7F7FB0398122805D104206071A3
:101A20006CA00399FEF7EEFB03980B2804D139460E
:101A3000677168A0FEF7E6FB0398092803D0082821
:101A400001D01628A8D10C20607162A00399FEF77E
:101A5000D9FB5DE7039800289ED12279E178012027
:101A600001F0DCFA0298032896D10398032804D0E9
:101A7000022805D0152805D013E00C20E07447E7B4
:101A8000E77445E7002001F04DFA2574657101F017
:101A900051FB56A0FEF7B6FB0920E074029803281C
:101AA00084D103980A2716280DD1002001F03AFAB4
:101AB0002574667101F03EFB51A0FEF7A3FBE774AD
:101AC00002980328C5D10398082617280DD10020B5
:101AD00001F028FA2574667101F034FB4BA0FEF783
:101AE00091FBE67402980328B3D1039818280DD10E
:101AF000002001F017FA2574677101F02BFBE674E2
:101B000046A0FEF77FFB02980328A2D10398312854
:101B100006D0322806D0562806D0C12806D00DE0BF
:101B20001720ABE71620A9E71020A7E73EA0FEF795
:101B300069FB0D20E074029803288AD10398C2281B
:101B400007D13BA0FEF75EFB0E20E074029803284D
:101B500095D10398CA2892D1A07D002801D101F027
:101B6000A7FAA57503980009E0750398002800D02E
:101B70000120E0757D214901304800F035FDC7E6C0
:101B80000C0A00204D53475F34475F5359535F534E
:101B9000544154455F494E443A6D73672E706172EB
:101BA000616D30203D2025782C206D73672E70618B
:101BB00072616D31203D202578200A003078303761
:101BC0002C206D73672E706172616D31203D202570
:101BD00078200A00307830362C206D73672E7061C3
:101BE00072616D31203D202578200A00466F7572A4
:101BF000475F574946495F4348414E4E454C0A00AE
:101C000042545F4348414E4E454C0A0041555849A5
:101C10004E5F4348414E4E454C0A0000464D5F43DF
:101C200048414E4E454C0A00696E736964650A006E
:101C30006F7574736964650A00000000400000203D
:101C40008307FF22DB0E9A408907090E994000287E
:101C50000BDA0007000F0838830808489B001818A3
:101C6000C36993430B43C3617047830804489B00D7
:101C70001818036893430B430360704700ED00E0BE
:101C800000E400E08307FF22DB0E9A408907090E7B
:101C9000994000280BDA0007000F0838830808482D
:101CA0009B001818C36993430B43C36170478308B3
:101CB00004489B001818036893430B430360704764
:101CC00000ED00E000E400E00348C16A890701D5A7
:101CD0000221C162704700000080004010B5FFF78C
:101CE0003FF800F08BFC00F019FFFFF7BBFA10BDC6
:101CF000F8B50420FEF778FE1020FEF747FF00211C
:101D00000720FEF7D9FE0320FEF76EFE0320FEF744
:101D10003DFF2248FEF790FE1820FEF72DFF204CD5
:101D20002046FEF77DFD651C2846FEF779FDA61CC2
:101D30003046FEF775FD1B4F3846FEF771FD1A4819
:101D4000FEF76EFD1848401CFEF76AFD1748FEF7C7
:101D500067FD1748FEF764FD1648FEF761FD16485B
:101D6000FEF75EFD002211462046FEF7CBFE002264
:101D700011462846FEF7C6FE002211463046FEF701
:101D8000C1FE002211463846FEF7BCFE0322520473
:101D90000C210648FEF7B6FEF8BD000000A24A047A
:101DA000103D805708000080080000401CFE2356AC
:101DB0001400C0530200805E0100206310B500F0E3
:101DC00027F8FFF795FF00F0A3FB09490020086002
:101DD00000F0F6FB01F0E6FAFEF7FEFFFFF77EFFEC
:101DE000FFF7C0FA00F09EFAFEF776FF10BD000084
:101DF000000100500521020E090751188B680122CD
:101E0000824013438B60886890438860704700006D
:101E100010B559210448162288230160026003602E
:101E20000468002CF9D010BD0001005006498A69F1
:101E30001202FCD408600A2804D188690002FCD48C
:101E40000D200860704700000000054070B5084C88
:101E5000012020750025A5712574657401F022F913
:101E60007D21C900034800F0BFFBA57570BD0000CF
:101E70000C0A002020000020F8B58D4C0427E17CDE
:101E8000207D012500260B0000F008FF2D24181CE2
:101E9000244C4E24525557593C3A484A24423E401D
:101EA00024242446444C4E1C24183C3C3A3A4024FA
:101EB0003E2442244644484A24502400012809D0A4
:101EC000677507E0012804D0032803D0022060755D
:101ED00000E06575002901D0E67425737448627DC1
:101EE000817BC07B130000F0D9FE14DA2C49649684
:101EF000A3ACBFC2C5C8CBD3CEDCDF9B999FA1DA10
:101F00000620E4E70520E2E70720E0E70820DEE717
:101F10000920DCE70A20DAE70B20D8E70C20D6E717
:101F20000D20D4E70E20D2E70F20D0E7032000E0F9
:101F300010206075D0E71120FBE71320F9E712208D
:101F4000F7E7012000F0F4F902202075A571A573D0
:101F50000820E073012000F087FA0120FEF718FF47
:101F600001F09AF85349544800F03EFB642153486D
:101F700000F03AFBFEF794FF667390E00022152113
:101F8000702001F04BF8002255210320FEF714FECB
:101F900001F008FAFEF7A4FF65734949474800F0CD
:101FA00023FB2575A6712674667401F07BF8A6756F
:101FB00075E0A671A07D002808D0207E012805D0FC
:101FC00002281ED0032808D0042810D00022152192
:101FD0000320FEF7F1FD277506E0002216210320FD
:101FE000FEF7EAFD0520207501F0A4F857E0002275
:101FF00017210320FEF7E0FD0720207501F0A2F86D
:102000004DE0002218210320FEF7D6FD06202075A2
:1020100001F0A8F843E001F01DFB40E0072000E0DC
:10202000102001F05DFB3AE01220FAE71320F8E7F8
:102030006674102833D2401CC0B2E073FEF7C4FEB1
:102040000CE000282BD0401EC0B2E073FEF7BCFEAF
:10205000E07B002802D1657400F064FFE27B04217C
:102060000320FEF7A9FD1AE000220D21F8E7002267
:102070000E21F5E700225621F2E700223121EFE799
:1020800000223221ECE7022909D00220A07302E0ED
:10209000012904D0A57301F0D5FAFEF7DDFE6675BF
:1020A000F8BD00225021DBE700222121D8E7000003
:1020B0000C0A0020B80B000028000020300000208F
:1020C00088130000F8B51C4D286944071BA0006860
:1020D0000090296A640F2813014201D0002016E005
:1020E000080301D5164800E016488A030FD40A04F5
:1020F000920F6B469B5CCA058904D20DC90E891CE0
:102100008008921C59435043FEF788F980000E4E18
:10211000022CB06002D00D49A0000858A969090737
:10212000090F491CFEF77AF9094930604A108018F6
:10213000FEF774F97060F8BD00020050010202045D
:1021400000805101001BB70000000020143900007E
:1021500040420F0070470000F8B50C46074600F0FB
:102160005DF8054600200090264829460068FEF7E5
:1021700055F9461C00203860786123498D4205D806
:102180007D20C000844205D2044606E0642C01D2C2
:10219000642402E08C4200D90C461C488D4207D8CA
:1021A0002946FEF73BF901467D20C000604317E059
:1021B000174A954203D90722ED0800920CE0154A10
:1021C000954203D90322AD08009205E0124A9542D8
:1021D00002D901226D080092FA2CE1D22046684310
:1021E000FEF71CF9786001210098890708433860E0
:1021F000002E02D000BF761EFCD138688001FCD4CE
:10220000F8BD00000000002040420F0000CA9A3BC9
:102210000090D0030048E8010024F40010B588B015
:102220000446202211496846FDF7B6FF10491148BF
:102230008C4202D14069000A0CE00F498C4202D165
:102240004069000B06E00D4940698C4201D1000C49
:1022500000E0000D4007400F022804D080006946CE
:10226000085808B010BD06480068FAE788C60000A4
:102270000000014000020050000101400000114038
:1022800000000020F7B517460646FFF7C7FF0446D3
:1022900000254008B84201D2022014E00F498C42C8
:1022A00002D90725E4080AE00D498C4202D903252A
:1022B000A40804E00B498C4201D9012504463946A3
:1022C0002046FEF7ABF801992943316070606D1C20
:1022D000684301462046FEF7A1F8FEBD0090D003FA
:1022E0000048E8010024F4000A490878401CC0B204
:1022F00008700A2805D3002008700748816A491C25
:10230000816206490868401C086005490120886010
:102310007047000014000020EC090020D0010020CC
:102320000001014010B5FEF77FFD01F029F810BD56
:102330000249002800D001208863704740420050C5
:1023400010B50446012211020248FEF726FE02489B
:10235000046210BDC0400050C042005070B5164825
:102360001E250446455F20340121E078222D02DA43
:10237000217088431DE008432946104A2239E07045
:1023800091420DD807212170DF210840E0702846D6
:102390007921FEF74DF821790909090108432071D7
:1023A0001F208001854205DD06202070E078202175
:1023B0000843E07070BD0000EC0900209E0700009B
:1023C00010B5002000F050F804490020886303494C
:1023D000403908620120FFF7B3FF10BD40420050B2
:1023E000094A13690948002BC17806D00523837078
:1023F000FB231940C170002004E0042383701943BB
:10240000C170012050607047804200500C0A0020CB
:10241000144B10B5182218469A5E2030C178222A33
:1024200004DA03224270FD22114018E00224214305
:10243000C1701E241C5F1F239B019C4208DC0A24E0
:102440004470BF242140C17001790907090F01714F
:102450009A4205DD09214170C17840221143C170C3
:1024600010BD0000EC0900200249002800D0012026
:102470008860704780420050F8B5234E05460346F9
:102480000C2200213046FEF7B3F91F4C803420683F
:1024900001273843206039463046FEF751F927615D
:1024A0002068F902084320602069C007FCD00120A1
:1024B0002061164A29460020CB0704D083009B19CF
:1024C0001B684700D353401C4908C0B21028F3D3FF
:1024D0002069C007FCD020680121C9028843206020
:1024E00000213046EB0704D08B001B181B684E0000
:1024F0009353491C6D08C9B21029F3D301212161FE
:10250000FEF708F9F8BD000000000E40EC090020BD
:102510000D48416842041143416000210520000735
:10252000416301635201C263084A8263332208484F
:102530001201426001603021C16081600549416142
:1025400009060161704700004040005000880010FB
:10255000400000501100440070B5012215022946C8
:102560001648FEF71AFD154C002280341021204633
:10257000FEF713FD114801222946C030FEF70DFD7C
:10258000012229462046FEF708FDA9000B4D002236
:1025900040352846FEF701FD01210022C9022846E8
:1025A000FEF7FBFC012204212046FEF7F6FC012287
:1025B00091032846FEF7F1FC70BD0000004000507A
:1025C00010B5FFF7C9FFFFF7FBFE00F075FF0448E9
:1025D0000021C170017103490120086210BD000093
:1025E0000C0A002080420050034A936A4360926ABA
:1025F0005118016070470000EC09002010B50CA0D4
:10260000FDF700FE00F056F800F068F80E4801688B
:102610000EA0FDF7F7FD11A0FDF7F4FD012115480F
:1026200000F0E4F80121144800F0E0F8002010BDAB
:102630007472616E73666572207561727420696E62
:102640006974210A00000000000000200A0A4350BB
:1026500055204020256420487A0A00000A5541523E
:10266000542053616D706C652050726F6772616D9C
:102670000A000000004015400000154010B500F0B1
:10268000CDF810BD05200007C268012109040A43E6
:10269000C260C2688A43C2600348024941620321A2
:1026A000C1607047660000300000054010B500F0C2
:1026B00035F810BD05200007C268012149040A430E
:1026C000C260C2688A43C260034802494162032172
:1026D000C16070476F020030000015400520000700
:1026E000C268012189040A43C260C2688A43C26089
:1026F0000848074941620321C160074800218175EC
:1027000001768176C17541760121C176704700005E
:102710006600003000401540AE09002070B5234C23
:102720000121204600F046F8E169C9070FD0206872
:102730001F4CC0B2E27800250121130000F0AEFA70
:102740000805080F161A1D202725FF282BD070BD5D
:10275000552802D0FF28FAD017E0022013E0042801
:1027600001D103200FE0FF281DD00EE08028FAD110
:10277000042008E02070052005E06070062002E0DB
:102780000028F0D10720E07070BDE57070BDFF2813
:1027900009D06278002321780120FEF7B7FAFF20E4
:1027A00020706070F1E7E17070BD0000000015401E
:1027B000540000204A0501D5682282610A0503D52C
:1027C000426901231A4342618A0401D5064A8261A3
:1027D0004A0401D5426C4264090403D58021C161D9
:1027E000816B8163704700000100000142680A4369
:1027F0004260074B012212030649984201D10A6048
:102800007047054B9842FAD1012040030860704799
:102810000000054000E100E00000154070B51D4ECD
:1028200001213046FFF7C6FF1B4C01212046FFF770
:10283000C1FFF0690025C007184B002818D0306888
:10284000C0B2302800D1DD60596801229202914265
:102850000ED213499A68885498681249884201D167
:10286000002001E09868401C98605868401C58603F
:10287000E069C0050DD50C4AE069C00709D02068A1
:1028800099785054491CC8B298708C28F4D99D701E
:10289000F2E770BD000005400040154054000020E4
:1028A00058040020FF0300005808002010B5052040
:1028B00000070269FF2101310A43026102698A436C
:1028C00002610B4C022020600A48E0621020206167
:1028D00007484030C16942061143C1610648FFF70D
:1028E00089FA4B210902204600F040F910BD000092
:1028F00000000740010800000800000810B500F0C3
:10290000C5F810BD10B50FA0FDF77CFC1DA0FDF7AC
:1029100079FC0CA0FDF776FC2AA0FDF773FC39A02A
:10292000FDF770FC47A0FDF76DFC06A0FDF76AFC03
:102930005448416810221143416053499004086093
:1029400010BD00002B2D2D2D2D2D2D2D2D2D2D2DA0
:102950002D2D2D2D2D2D2D2D2D2D2D2D2D2D2D2DA7
:102960002D2D2D2D2D2D2D2D2D2D2D2D2D2D2D2D97
:102970002D2D2D2D2D2D2D2D2D2D2D2D2D2D2D2D87
:102980002B0A00007C2020555343492055415254C6
:102990002046756E6374696F6E20546573742020D1
:1029A0002020202020202020202020202020202027
:1029B0002020202020202020202020202020202017
:1029C0007C0A00007C20204465736372697074691E
:1029D0006F6E203A20202020202020202020202040
:1029E00020202020202020202020202020202020E7
:1029F00020202020202020202020202020202020D7
:102A00007C0A00007C202020205468652073616DC2
:102A1000706C6520636F64652077696C6C207072E0
:102A2000696E7420696E7075742063686172206FBE
:102A30006E207465726D696E616C202020202020EC
:102A40007C0A00007C20202020506C65617365208A
:102A5000656E74657220616E7920746F2073746185
:102A60007274202020202028507265737320273034
:102A70002720746F20657869742920202020202069
:102A80007C0A00000000074000E100E070B521482A
:102A9000C16BC90739D1406B1F4CC0B2E278002529
:102AA0000121130000F0FAF808050910131A1D207F
:102AB0002430FF2829D1E17027E0552802D0FF28D3
:102AC00023D021E0022011E003280FD001E080286C
:102AD00002D0FF28EFD017E0042007E02070052087
:102AE00004E06070062001E0A0700720E0700CE0B8
:102AF000FF28E0D0A378627821780220FEF706F95B
:102B0000FF2020706070A070E570024910204031F5
:102B1000486270BD000007406400002010B5FFF758
:102B2000C5FE0648016806A0FDF76CFB08A0FDF78E
:102B300069FBFFF7E7FE002010BD00000000002049
:102B40000A0A435055204020256420487A0A000094
:102B50000A5553434920554152542053616D706CBE
:102B6000652050726F6772616D0A0000F0B506460D
:102B7000474885B00D46864202D04648864202D17B
:102B8000FDF73AFF01E0FDF747FF29460290FDF708
:102B900045FC044601460298FDF740FC471B611CBA
:102BA0000298FDF73BFC281A874200D3641C0120E1
:102BB0000004844205D31020042500908001019078
:102BC0003CE001218903012508466843A04203D265
:102BD0006D1C042DF8D901E0042D00D904252946E7
:102BE0002046FDF71BFC039000200027FF430090C8
:102BF0000624019021460398FDF710FC012189026B
:102C0000884205D908460399A2028A1A511C07E096
:102C10000146039A6143521A411C039B6143C91A3E
:102C20008A4201D3401C00E01146B94203D20F0092
:102C30000094019002D0641C102CDBD93068C008CD
:102C4000C0003060022030601348F0621020306114
:102C5000009901988A020121401E89020004511A3C
:102C600008432902FF3901390843B060F06D0121A2
:102C7000C9070843F06529460298FDF7CFFB009984
:102C8000FDF7CCFB0199FDF7C9FB05B0F0BD0000D5
:102C900000000740004007400108000030B47446BF
:102CA000641E2578641CAB4200D21D46635D5B0048
:102CB000E31830BC184730380A2801D20120704789
:102CC00000207047074A0121516311635160064A91
:102CD000002802D00020906100E09161014880301E
:102CE000C16370470042005040430050F3B50024D8
:102CF00081B0054626460FE06000295CFD2914D00E
:102D0000FE290DD0FF2906D0411900230222982068
:102D10000096FEF7E7FA641C02988442ECDBFEBDE5
:102D200008490948FFF718FAF5E7471900967A7835
:102D3000B91C00239820FEF7D5FA7878401C40088B
:102D40000419E8E78813000000000140F3B50024EF
:102D500081B0054626460FE06000295CFD2914D0AD
:102D6000FE290DD0FF2906D04119002302229A2006
:102D70000096FEF7B7FA641C02988442ECDBFEBDB5
:102D800008490948FFF7E8F9F5E7471900967A7806
:102D9000B91C00239A20FEF7A5FA7878401C400859
:102DA0000419E8E7881300000000014010B500F0A6
:102DB0004BF800F053F806A0FDF724FA00F018F8DD
:102DC0000A48C07B00F0D0F800F052F810BD0000B7
:102DD0006472765F353832355F496E69742A2A2A03
:102DE0002A2A2A2A2A2A2A2A0A0000000C0A002053
:102DF00010B50F48807B01280DD002280AD10D4C58
:102E00000D482146FFF772FF00F032F821460B48CB
:102E1000FFF79CFF10BD00F02BF8064C0848363435
:102E20002146FFF793FF21460648FFF75FFF10BDDD
:102E30000C0A00202B0F0000DC6A0000F4A7000041
:102E4000328900001A4C000010B50022042102480B
:102E5000FEF7A3F810BD00004041005010B501215D
:102E60000022C9020148FEF798F810BDC04000508A
:102E700038B502212448FFF739FF002422492346B0
:102E80000222083998200094FEF72CFA1E490023EC
:102E90000222891F98200094FEF724FA1A49002381
:102EA0000222091F98200094FEF71CFA16490023FD
:102EB0000222891E98200094FEF714FA022112487B
:102EC000FFF744FF10490023022208399A2000949A
:102ED000FEF708FA0C4900230222891F9A20009469
:102EE000FEF700FA084900230222091F9A200094E5
:102EF000FEF7F8F9044900230222891E9A20009463
:102F0000FEF7F0F938BD0000084C000010B50122B2
:102F100091020348FEF741F8002000F003F810BDCD
:102F2000C04000500249002800D00120886270474C
:102F3000C042005010B5012000F002F810BD0000A2
:102F400010B50446012211030548FEF726F805488E
:102F5000002C01D0012100E00021016310BD000020
:102F6000C0400050C0420050F8B5044610282BD88D
:102F700003211648FFF7BAFEA000241814480025C4
:102F800021180E462B46052298200095FEF7AAF937
:102F90000F480023553021180C4605229820009533
:102FA000FEF7A0F903210948FFF7D0FE31460023C0
:102FB00005229A200095FEF795F921460023052267
:102FC0009A200095FEF78EF9F8BD00000C4C000029
:102FD0001E010020F8B50BA0FDF714F900240E4DDA
:102FE0002646E000411900964A682958002394209B
:102FF000FEF7F8F8641CE4B2062CF2D300F09AF85D
:10300000F8BD00004164635F70636D313836325F34
:10301000496E69740A00000040390000F8B507469F
:103020001B4CFF2015460E4620637D21C900194820
:10303000FFF792F8552020637D21C9001548FFF75E
:103040008BF8032020637D21C9001248FFF784F824
:10305000802020637D21C9000E48FFF77DF827639B
:103060007D21C9000B48FFF777F826637D21C90051
:103070000848FFF771F825637D21C9000548FFF76F
:103080006BF8B819401983304042C0B22063F8BDD4
:1030900000000740000001400149012048617047DD
:1030A0000042005001490020486170470042005032
:1030B00010B5144841790B00FFF7F0FD0F231212F1
:1030C00012151518181E231B2323230923008079AA
:1030D000002802D00022122110E0002211210DE070
:1030E000002215210AE00022162107E00022142107
:1030F00004E00022182101E0002217217120FFF7CF
:103100008DFF10BD0C0A0020084A08498032084B88
:10311000002801D0002000E00120486308634860D7
:10312000D06398618860C86070470000004200501A
:103130004043005010B5E82000F078F9042000F07A
:10314000A1F910BD10B5002000F070F9012000F0C9
:1031500099F910BD10B5002000F068F9022000F0C8
:1031600091F910BD10B5E82000F060F9082000F0DA
:1031700089F910BD05490120486300220A634860AF
:1031800002498031C863024988617047004200509B
:1031900040430050074A012151631163002802D0C7
:1031A0000020506000E0516002488030C163024856
:1031B00081617047004200504043005010B511A09B
:1031C000FDF720F8012251031548FDF7E6FE1549E9
:1031D0000120486314491548FEF7BEFF144CA07B3C
:1031E000012802D0022803D007E01249124802E069
:1031F00010491248683900F023F8E07B00F07CF8B1
:1032000010BD00006472765F333235315F496E69FC
:10321000742A2A2A2A2A2A2A2A2A2A2A0A00000062
:10322000C0400050C0420050881300000000014020
:103230000C0A0020D3040000763900001C43000073
:10324000F3B5002481B0054626460FE06000295CF6
:10325000FD2915D0FE290DD0FF2906D041190023E4
:10326000022294200096FEF73DF8641C02988442E6
:10327000ECDBFEBD7D21C9000848FEF76DFFF4E7D9
:10328000471900967A78B91C00239420FEF72AF893
:103290007878401C40080419E7E70000000001406E
:1032A000F8B5002000F028F8012251030D48FDF781
:1032B00074FE0D4C012565630C4E0D4F31463846AA
:1032C000FEF74AFF0B493846FEF746FF00206063D1
:1032D00031463846FEF740FF06493846FEF73CFFC8
:1032E0006563F8BDC0400050C04200508813000024
:1032F00000000140B80B000038B504460321104817
:10330000FFF79EFFA00024180E48002521182B4629
:10331000052294200095FDF7E5FF03210848FFF7FB
:103320008FFF08480023553021180522942000956E
:10333000FDF7D8FF07210448FFF782FF38BD0000E2
:103340007039000074000020F24B0000034900288F
:1033500001D0002000E0012088607047004200504A
:1033600005490120486308634860034A0021803210
:10337000D1630249886170470042005040430050C9
:1033800010B5074C002208212046FDF706FE00225A
:1033900040212046FDF701FEFEF742F810BD000077
:1033A0008040005070B51E4C012291032046FDF76D
:1033B000F4FD0122D50329462046FDF7EEFD01224A
:1033C00051032046FDF7E9FD012211032046FDF7D8
:1033D000E4FD012202212046FDF7DFFD0122042148
:1033E0002046FDF7DAFD0E48012229468030FDF720
:1033F000D4FD012240210B48FDF7CFFD09490120F2
:10340000C0318860486308634860074AD063064A51
:10341000C03290618860C86088630020C86370BD56
:1034200000400050404100508042005038B51449DF
:1034300000244870891C4870891C4870891C487099
:1034400023460222891F94200094FDF7CBFE0C49ED
:1034500000230222891C94200094FDF7C3FE084932
:1034600000230222091D94200094FDF7BBFE0449AD
:1034700000230222891D94200094FDF7B3FE38BD7D
:103480006C00002038B5402108430A4900244870E8
:10349000891C487023460222891E94200094FDF75F
:1034A000A1FE044900230222891C94200094FDF708
:1034B00099FE38BD6800002010B509200003FEF712
:1034C000DBFFFEF74BFFFEF7A3FFFEF789FF10BD02
:1034D000074A0121002802D00020506300E0516318
:1034E0001163516002488030C163024881617047B6
:1034F00000420050404300500020C043704700B5D8
:103500000346FEF793FC184600BD00000025FEF7B9
:1035100055FCFEF79BFC41A0FCF774FE414F424C6A
:1035200000264248FEF7BCF900282FD0FF21F531D4
:103530003E48FFF759F8A079002802D000F06EF954
:1035400001E000F015F93A48FEF7AAF9002801D089
:10355000FFF7A8FD207D012812D13648FEF7A0F91B
:1035600000283BD001203863786378600020FDF7A5
:103570000FFC0020FEF778FF0020FEF7D9FE6673EF
:103580002D48FEF78DF9002800D0A675207B002875
:1035900007D026730120FFF7D9FE64212748FFF7E3
:1035A00023F82648FEF77CF9002802D00020FFF718
:1035B000CDFE207C002808D026740020FFF7B2FC46
:1035C0007D21C9001E48FFF70FF81D48FEF768F976
:1035D000002813D0607C00280DD00FE0002D05D00E
:1035E00001203863786378600025C9E73E637E6315
:1035F0007E600125C4E70120FFF794FCFDF7E2FCA3
:10360000E074002806D1FDF72FFDE07C002801D1F1
:10361000FEF752F9FEF730FC83E700000A6D61699E
:103620006E0A0000004200500C0A0020200000201A
:10363000280000203000002040000020480000202A
:103640003800002010B500231A46C2210220FDF7E1
:103650005DFB10BD70B5214C207D042824D00528C9
:103660002CD00425062813D0072810D1A07D0028CF
:103670000ED006202075002213217020FFF7CEFC0B
:10368000002218210320FDF797FAFFF763FD70BDB4
:10369000002215210320FDF78FFA25750022112144
:1036A0007020FFF7BBFC06E0002216210320FDF787
:1036B00083FA05202075FFF73DFD70BD002217211C
:1036C0000320FDF779FA07202075002212217020CF
:1036D000FFF7A4FCFFF736FD70BD00000C0A0020C8
:1036E000F8B5224C217D814216D0042705250729F3
:1036F0000BD00726052910D004292ED006290BD17E
:10370000042809D005280CD129E0042819D005285F
:1037100002D124E0FFF70EFDF8BD042811D00628E1
:10372000FAD00728F8D1002217210320FDF744FA28
:103730002675002212217020FFF770FCFFF702FDB2
:10374000F8BD002215210320FDF736FA2775002267
:1037500011217020FFF762FCDCE70528DFD1002291
:1037600016210320FDF728FA2575D3E70C0A00205F
:1037700010B503488079002801D100F003F810BD8E
:103780000C0A002010B52348002340790122224969
:1037900002280DD005280BD0072809D0082807D00B
:1037A0000A2805D00A704C78002C06D04B7005E032
:1037B0000B704A70022819D000E04A70012815D019
:1037C000032813D0042815D0052813D0062815D0B7
:1037D000072813D0082815D0092813D00A2815D097
:1037E0000D2802D10020FFF78FFC10BD4878FFF7AD
:1037F0006FFE10BD4878FFF765FA10BD4878FFF7F7
:10380000C9FC10BD0120FFF7B5FC10BD0120FFF77A
:10381000A7FD10BD0C0A00203C02002010B5124983
:103820008878052801D2401C00E001208870C0B2D1
:103830000300FFF733FA060704080C1014070120F1
:10384000FFF746FE10BD0120FFF73CFA10BD012036
:10385000FFF7A0FC10BD0120FFF78CFC10BD01207C
:10386000FFF77EFD10BD00003C02002010B50446AD
:10387000016810A0FCF7C6FC11A06168FCF7C2FC4F
:1038800012A0A168FCF7BEFC13A0E168FCF7BAFC2B
:1038900014A02169FCF7B6FC15A06169FCF7B2FC25
:1038A00016A0A169FCF7AEFC17A0E169FCF7AAFC21
:1038B00010BD0000723020203D20307825780A00AD
:1038C000723120203D20307825780A007232202085
:1038D0003D20307825780A00723320203D20307852
:1038E00025780A00723132203D20307825780A0090
:1038F0006C7220203D20307825780A0070632020EB
:103900003D20307825780A00707372203D20307891
:1039100025780A00001BB7000080000000E0480482
:1039200010270000006CDC02000000000000000016
:10393000008051010100020003000400201026074E
:103940003439000002000000363900000200000097
:1039500038390000020000003A390000020000007F
:103960003C390000020000003E3900000200000067
:1039700000007F8C001E00007F000211011100007A
:1039800000000000000003112A0025180D1002009D
:1039900000007F00028000007F00220300007F0003
:1039A000020000007F8C001EFD051C0000000000CE
:1039B000FD05280000000000FD05340000000000A7
:1039C000FD05400000000000001FFD05240020C48C
:1039D0009C00FD05307FFFFFFF0000007F8C001C76
:1039E000FD0B6C7FFFFFFF00000000000000FD0BDF
:1039F00076000000000000000000000000007F8C46
:103A0000001DFD0B087FFFFFFF000000000000000D
:103A1000FD0B12000000000000000000000000008C
:103A20007F8C001EFD0510000000000000007F8C50
:103A30000023FD0514000000010000007F8C001130
:103A4000FD0B587FFFFFFF00000000000000FD0B92
:103A500062000000000000000000000000007F8CF9
:103A60000012FD0B44FF845916FF845916FF840091
:103A7000FD0B4E591670462B3B9D850DE200000054
:103A80007F8C0013FD0B3001BB7CF401BB7CF40187
:103A9000BB00FD0B3A7CF46237C54FB4A2819200A3
:103AA00000007F8C0013FD0B584F9DF935B0620666
:103AB000CB4F9D00FD0B62F93549E69D16D5555556
:103AC000560000007F8C0014FD0B087CB6A4BC835C
:103AD000495B447CB600FD0B12A4BC7CB12C1E8655
:103AE00087C5490000007F8C0014FD0B1C05B75CE6
:103AF0001F05B75C1F05B700FD0B265C1F49E69D3F
:103B000016D55555560000007F8C0014FD0B587FCC
:103B1000FFFFFF00000000000000FD0B620000003E
:103B2000000000000000000000007F8C0014FD0B6E
:103B30006C7FFFFFFF00000000000000FD0B76001F
:103B40000000000000000000000000007F8C001555
:103B5000FD0B087FFFFFFF00000000000000FD0BD1
:103B600012000000000000000000000000007F8C38
:103B70000015FD0B1C7FFFFFFF0000000000000090
:103B8000FD0B260000000000000000000000000007
:103B90007F8C0015FD0B307FFFFFFF000000000051
:103BA0000000FD0B3A0000000000000000000000D3
:103BB00000007F8C0015FD0B447FFFFFFF0000001D
:103BC00000000000FD0B4E0000000000000000009F
:103BD000000000007F8C0015FD0B587FFFFFFF8069
:103BE000A59DA27EB700FD0B6220FA7FA225108062
:103BF000B9584D0000007F8C0015FD0B6C7F9604BA
:103C0000378069FBC97F9600FD0B7604377F95D816
:103C10005780D39FD00000007F8C0016FD0B087FDB
:103C20009604378069FBC97F9600FD0B1204377F2D
:103C300095D85780D39FD00000007F8C0016FD0BD5
:103C40001C7F77CC69808833977F7700FD0B26CC6B
:103C5000697F7783F2810FD6400000007F8C0016C9
:103C6000FD0B307F77CC69808833977F7700FD0B21
:103C70003ACC697F7783F2810FD6400000007F8CB9
:103C80000016FD0B440021875F0021875F002100A3
:103C9000FD0B4E875F7A1481B28B50DF1E0000004F
:103CA0007F8C0016FD0B580021875F0021875F0085
:103CB0002100FD0B62875F7A1481B28B50DF1E00FA
:103CC00000007F8C0016FD0B6C78572CEC8B3C832E
:103CD000E5733300FD0B76A8B374C37C1B94752A7F
:103CE0005F0000007F8C0017FD0B087F327C9D82F7
:103CF00037EB837C7300FD0B12BFCB7DC8147D8432
:103D000059C3970000007F8C0017FD0B1C7FFFFF3D
:103D1000FF00000000000000FD0B26000000000076
:103D200000000000000000007F8C0017FD0B307FBA
:103D3000FFFFFF00000000000000FD0B3A00000044
:103D4000000000000000000000007F8C0017FD0B49
:103D5000447FFFFFFF00000000000000FD0B4E004D
:103D60000000000000000000000000007F8C001731
:103D7000FD0B587FFFFFFF00000000000000FD0B5F
:103D800062000000000000000000000000007F8CC6
:103D90000017FD0B6C7FFFFFFF000000000000001C
:103DA000FD0B760000000000000000000000000095
:103DB0007F8C0018FD0B0808048200000000000042
:103DC0000000FD0B120000000000000000000000D9
:103DD00000007F8C0018FD0B1C7FFFFFFF00000020
:103DE00000000000FD0B26000000000000000000A5
:103DF000000000007F8C0018FD0B307FFFFFFF00EC
:103E0000000000000000FD0B3A0000000000000070
:103E10000000000000007F8C0018FD0B447FFFFFB6
:103E2000FF00000000000000FD0B4E00000000003D
:103E300000000000000000007F8C0018FD0B587F80
:103E4000FFFFFF00000000000000FD0B620000000B
:103E5000000000000000000000007F8C0018FD0B37
:103E60006C7FFFFFFF00000000000000FD0B7600EC
:103E70000000000000000000000000007F8C00191E
:103E8000FD0B087FFFFFFF00000000000000FD0B9E
:103E900012000000000000000000000000007F8C05
:103EA0000019FD0B1C7FFFFFFF0000000000000059
:103EB000FD0B2600000000000000000000000000D4
:103EC0007F8C0019FD0B307FFFFFFF00000000001A
:103ED0000000FD0B3A0000000000000000000000A0
:103EE00000007F8C0019FD0B447FFFFFFF000000E6
:103EF00000000000FD0B4E0000000000000000006C
:103F0000000000007F8C0019FD0B587FFFFFFF00B1
:103F1000000000000000FD0B620000000000000037
:103F20000000000000007F8C0019FD0B6C7FFFFF7C
:103F3000FF00000000000000FD0B76000000000004
:103F400000000000000000007F8C001AFD0B087FBD
:103F5000FFFFFF00000000000000FD0B120000004A
:103F6000000000000000000000007F8C001AFD0B24
:103F70001C7FFFFFFF00000000000000FD0B26007B
:103F80000000000000000000000000007F8C001A0C
:103F9000FD0B307FFFFFFF00000000000000FD0B65
:103FA0003A000000000000000000000000007F8CCC
:103FB000001AFD0B44080000000000000000000093
:103FC000FD0B4E000000000000000000000000009B
:103FD0007F8C001AFD055800E2C46B0000007F8C46
:103FE000001AFD0B6C00221D9500443213000D00D9
:103FF000FD0B76A686000000000000000000000017
:104000007F8C001BFD0B08FF8147AEF9DABC21FD58
:104010004200FD0B1268A700000000000000000035
:1040200000007F8C001BFD0B1C0006D3720002BB3E
:1040300006000300FD0B2669C5000000000000001B
:104040000000FD0B3000000000F9DABC21FC580034
:10405000FD0B3A8B8900000000000000000000000A
:104060007F8C001BFD0B440006D3720002BB0600D0
:104070000300FD0B4E69C5000000000000000000B9
:10408000FD0B5800000000F9DABC21FC5800FD0BC4
:10409000628B8900000000000000000000007F8C9F
:1040A000001DFD051C0006D3720000007F8C001D62
:1040B000FD05201C1BF0410000007F8C001DFD054C
:1040C00024040C37140000007F8C001DFD052C001B
:1040D0008000000000007F8C001DFD0534400000C2
:1040E000000000007F8C001DFD053840000000002E
:1040F00000007F8C001DFD054000800000000000D6
:104100007F8C001DFD0544000000000000007F8C36
:10411000001DFD0548000000000000007F8C001D10
:10412000FD0558000000010000007F8C001DFD050A
:104130005C004026E70000007F8C001DFD0560004C
:104140004026E70000007F8C001DFD056400000094
:10415000000000007F8C001DFD05680000000000CD
:1041600000007F8C001DFD057400000000000000B1
:104170007F8C001DFD0578000000000000007F8C92
:10418000001DFD057C008000000000007F8C001EEB
:10419000FD0508008000000000007F8C001EFD056A
:1041A0000C000000000000007F8C001EFD051400C4
:1041B0008000000000007F8C001EFD05180000003C
:1041C000000000007F8C001EFD051C0000000000A8
:1041D00000007F8C001EFD05200000000000000094
:1041E0007F8C001EFD0524000000000000007F8C75
:1041F000001EFD0528000000000000007F8C001E4E
:10420000FD052C008000000000007F8C001EFD05D5
:1042100030000000000000007F8C001EFD0534000F
:104220000000000000007F8C001EFD05380000002B
:10423000000000007F8C001EFD053C000000000017
:1042400000007F8C001EFD05400000000000000003
:104250007F8C001EFD0544028185080000007F8CD4
:10426000001EFD0548028185080000007F8C001EAD
:10427000FD0550400000000000007F8C001EFD0581
:1042800054040000000000007F8C001EFD0558044F
:104290000000000000007F8C001FFD051400CEC050
:1042A0008A0000007F8C001FFD05180A0AAED200AC
:1042B00000007F8C001FFD051C000369D00000007A
:1042C0007F8C001FFD0520400000000000007F8C57
:1042D000001FFD052875F5512E0000007F8C001F82
:1042E000FD052C000057620000007F8C0023FD05B7
:1042F00014000000010000007F00000007000820FB
:10430000550700007F0000003D303E3000007F0078
:104310000001020000007F0003002A1100007F005E
:1043200002110111000000000000000003112A002A
:1043300025180D10020000007F00028000007F00A1
:10434000220300007F00020000007F8C001EFD059C
:104350001C0000000000FD05280000000000FD0515
:10436000340000000000FD05400000000000001FB8
:10437000FD05240020C49C00FD05307FFFFFFF00E9
:1043800000007F8C001CFD156C7FFFFFFF0000000C
:10439000000000000000000000000000000000001D
:1043A0007F8C001DFD15087FFFFFFF00000000004F
:1043B00000000000000000000000000000007F8CF2
:1043C000001EFD0510000000000000007F8C00238F
:1043D000FD0514000000010000007F8C0011FD1598
:1043E000587FFFFFFF0000000000000000000000F9
:1043F00000000000000000007F8C0012FD1544FF4B
:10440000845916FF845916FF84591670462B3B9D1C
:10441000850DE20000007F8C0013FD153005B75CB0
:104420001F05B75C1F05B75C1F49E69D16D555559E
:10443000560000007F8C0013FD15584F9DF935B0D4
:104440006206CB4F9DF93549E69D16D55555560068
:1044500000007F8C0014FD15084F9DF935B06206F1
:10446000CB4F9DF93549E69D16D5555556000000B0
:104470007F8C0014FD151C05B75C1F05B75C1F057C
:10448000B75C1F49E69D16D55555560000007F8C38
:104490000014FD15587FFFFFFF0000000000000022
:1044A0000000000000000000000000007F8C0014ED
:1044B000FD156C7FFFFFFF00000000000000000002
:1044C000000000000000000000007F8C0015FD15BA
:1044D000087FFFFFFF000000000000000000000058
:1044E00000000000000000007F8C0015FD151C7FFF
:1044F000FFFFFF00000000000000000000000000BF
:104500000000000000007F8C0015FD15307FFFFFCC
:10451000FF0000000000000000000000000000009C
:10452000000000007F8C0015FD15447FFFFFFF0099
:10453000000000000000000000000000000000007B
:1045400000007F8C0015FD15587FFFFFFF807EE285
:10455000DE7F04F7E07F9AD96480C78F0F000000E8
:104560007F8C0015FD156C7F68B33080974CD07F31
:1045700068B3307F6859C5812DE6C70000007F8C85
:104580000016FD15087F68B33080974CD07F68B364
:10459000307F6859C5812DE6C70000007F8C00166A
:1045A000FD151C7F68B33080974CD07F68B3307F97
:1045B0006859C5812DE6C70000007F8C0016FD15E7
:1045C000307F68B33080974CD07F68B3307F6859B4
:1045D000C5812DE6C70000007F8C0016FD15440044
:1045E00021875F0021875F0021875F7A1481B28B6A
:1045F00050DF1E0000007F8C0016FD15580021873B
:104600005F0021875F0021875F7A1481B28B50DFC2
:104610001E0000007F8C0016FD156C78572CEC8B6B
:104620003C83E57333A8B374C37C1B94752A5F0085
:1046300000007F8C0017FD15087F8A7E8681E0E4EC
:10464000597CC9DB7B7E1F1BA783ABA5FE00000046
:104650007F8C0017FD151C7FFFFFFF00000000008E
:1046600000000000000000000000000000007F8C3F
:104670000017FD15307FFFFFFF0000000000000065
:104680000000000000000000000000007F8C001708
:10469000FD15447FFFFFFF00000000000000000048
:1046A000000000000000000000007F8C0017FD15D6
:1046B000587FFFFFFF000000000000000000000026
:1046C00000000000000000007F8C0017FD156C7FCB
:1046D000FFFFFF00000000000000000000000000DD
:1046E0000000000000007F8C0018FD150808019DE7
:1046F0005E0000000000000000000000000000005C
:10470000000000007F8C0018FD151C7FFFFFFF00DC
:104710000000000000000000000000000000000099
:1047200000007F8C0018FD15307FFFFFFF000000A8
:104730000000000000000000000000000000000079
:104740007F8C0018FD15447FFFFFFF000000000074
:1047500000000000000000000000000000007F8C4E
:104760000018FD15587FFFFFFF000000000000004B
:104770000000000000000000000000007F8C001816
:10478000FD156C7FFFFFFF0000000000000000002F
:10479000000000000000000000007F8C0019FD15E3
:1047A000087FFFFFFF000000000000000000000085
:1047B00000000000000000007F8C0019FD151C7F28
:1047C000FFFFFF00000000000000000000000000EC
:1047D0000000000000007F8C0019FD15307FFFFFF6
:1047E000FF000000000000000000000000000000CA
:1047F000000000007F8C0019FD15447FFFFFFF00C3
:1048000000000000000000000000000000000000A8
:1048100000007F8C0019FD15587FFFFFFF0000008E
:104820000000000000000000000000000000000088
:104830007F8C0019FD156C7FFFFFFF00000000005A
:1048400000000000000000000000000000007F8C5D
:10485000001AFD15087FFFFFFF00000000000000A8
:104860000000000000000000000000007F8C001A23
:10487000FD151C7FFFFFFF0000000000000000008E
:10488000000000000000000000007F8C001AFD15F1
:10489000307FFFFFFF00000000000000000000006C
:1048A00000000000000000007F8C001AFD15440885
:1048B00000000000000000000000000000000000F8
:1048C0000000000000007F8C001AFD055800E2C4C3
:1048D0006B0000007F8C001AFD156C00221D9500F6
:1048E000443213000DA68600000000000000000006
:1048F00000007F8C001BFD1508FF8147AEF9DABC74
:1049000021FD2D2601000000000000000000000035
:104910007F8C001BFD291C0006D3720002BB060021
:104920000369C5000000000000000000000000F95D
:10493000DABC21FC588B8900000000000000000058
:1049400000007F8C001BFD29440006D3720002BBCF
:1049500006000369C5000000000000000000000020
:1049600000F9DABC21FC588B89000000000000002F
:10497000000000007F8C001DFD051C0006D37200A6
:1049800000007F8C001DFD05201C1BF04100000075
:104990007F8C001DFD0524040C37140000007F8C63
:1049A000001DFD052C008000000000007F8C001D14
:1049B000FD0534400000000000007F8C001DFD0557
:1049C00038400000000000007F8C001DFD05400005
:1049D0008000000000007F8C001DFD0544000000E9
:1049E000000000007F8C001DFD0548000000000055
:1049F00000007F8C001DFD05580000000100000034
:104A00007F8C001DFD055C004026E70000007F8CC8
:104A1000001DFD0560004026E70000007F8C001DA2
:104A2000FD0564000000000000007F8C001DFD05F6
:104A300068000000000000007F8C001DFD05740070
:104A40000000000000007F8C001DFD0578000000C4
:104A5000000000007F8C001DFD057C008000000030
:104A600000007F8C001EFD05080080000000000093
:104A70007F8C001EFD050C000000000000007F8CF4
:104A8000001EFD0514008000000000007F8C001E49
:104A9000FD0518000000000000007F8C001EFD05D1
:104AA0001C000000000000007F8C001EFD0520009F
:104AB0000000000000007F8C001EFD0524000000A7
:104AC000000000007F8C001EFD0528000000000093
:104AD00000007F8C001EFD052C00800000000000FF
:104AE0007F8C001EFD0530000000000000007F8C60
:104AF000001EFD0534000000000000007F8C001E39
:104B0000FD0538000000000000007F8C001EFD0540
:104B10003C000000000000007F8C001EFD054000EE
:104B20000000000000007F8C001EFD0544038A2B5E
:104B3000AD0000007F8C001EFD0548038A2BAD00F0
:104B400000007F8C001EFD055040000000000000AA
:104B50007F8C001EFD0554040000000000007F8CC7
:104B6000001EFD0558040000000000007F8C001F9F
:104B7000FD051400CEC08A0000007F8C001FFD05DB
:104B8000180A0AAED20000007F8C001FFD051C0031
:104B90000369D00000007F8C001FFD05204000004D
:104BA000000000007F8C001FFD052875F5512E00C8
:104BB00000007F8C001FFD052C00005762000000E4
:104BC0007F8C0023FD0514000000010000007F0021
:104BD000000007000820550700007F0000003D305E
:104BE0003E3000007F000001020000007F00030053
:104BF0002A1100007F8C00231400150016001701F5
:104C00006005610B6308640200007F0000007F8C78
:104C1000000B6005610B6308640200007F00030263
:104C20000111000000000000000000007F000302EE
:104C3000FE05000000000000000000007F000312DD
:104C4000000000000000000000007F00480C000091
:104C50007F640001FD790800FE004000FC000000B8
:104C6000FC000000FC000000FC000000FC00000054
:104C7000FC000000FC000000FC500000FC000000F4
:104C8000FC000000FC000000FC000000FC00000034
:104C9000FC000000FC000000FC000000FC00000024
:104CA000FC000000FC000000FC000000FC00000014
:104CB000FC000000FC00000082009300FC00008467
:104CC000C902BC84C102BD8F00FFEE08FC38100091
:104CD0000002FD79088402040684C303DB0240025B
:104CE000C3024803DD00FF109A00FC0000E410122C
:104CF000CD024002BD886013DC025802BC02D30022
:104D00001084C902BC10001A030270000484C90296
:104D1000BD0C2018490260000184C102BC8451030B
:104D2000DE08FC0C980278000384C240E0026800B0
:104D300002845903ED08FC2C99022800030211FF9C
:104D4000FC024802BCE01012CEF01C52CF0000035F
:104D5000FD7908F01C52D0F01C52D1F01F52D286BF
:104D6000A102D3802780EA84830445E00000008408
:104D70008260E0845303DE845103F5F01C72D4F0AA
:104D80001C72D584CA40E0F01C72D6F01F72D78620
:104D9000A102CE802780EB84830445E010200084AC
:104DA0005B03ED845903FDF01C52CFF01C52D0F090
:104DB0001C52D1F01F52D286A102D3802780EA84F0
:104DC000830446E0000000848260E0000004FD7976
:104DD00008845303F5845103EEF01C72D4F01C7266
:104DE000D5F01C72D6F01F72D786A102D88027801A
:104DF000EB845B03FD845903DF84830446E2578020
:104E00000084C902BD848260E0F01C72D9F01C727B
:104E1000DAF01C72DBF01F72DC86A102DD802780D5
:104E2000EB84830447E0000000848240E0845B035D
:104E3000DF845903F6F01C52DEF01C52DF84CA6096
:104E4000E0F01C52E0F01F52E1000005FD790886F9
:104E5000A102D8802780EA84830447E010200084E0
:104E60005303EE845103FEF01C72D9F01C72DAF089
:104E70001C72DBF01F72DC86A102DD802780EB84D0
:104E8000830448E0000000848240E0845B03F684F1
:104E90005903EFF01C52DEF01C52DFF01C52E0F020
:104EA0001F52E186A102E2802780EA845303FE8438
:104EB0005103E784830448E257800084C902BD841B
:104EC0008240E0F01C52E3000006FD7908F01C521D
:104ED000E4F01C52E5F01F52E686A102E78027802D
:104EE000EA84830449E0000000848260E084530384
:104EF000E7845103F7F01C72E8F01C72E984CA40A1
:104F0000E0F01C72EAF01F72EB86A102E2802780BB
:104F1000EB84830449E0102000845B03EFF01C5213
:104F2000E3F01C52E4F01C52E5F01F52E686A102A9
:104F3000E7802780EA845303F7845103FF848304C6
:104F40004AE0000000000007FD7908848240E0F09C
:104F50001C52E8F01C52E9F01C52EAF01F52EB869A
:104F6000A102EC802780EA8483044A845303FF660D
:104F700088C000EE80C00002CB00106288A000EA6A
:104F800080A00002D300108847008009070821088C
:104F9000FC08530D00103884CB04060860085184C7
:104FA000800200E400008186C902EE884720800D5F
:104FB0000010088482040700FC0000004220D7840F
:104FC000DB0405000008FD790808FC183186A10201
:104FD000EDE410200000FE20D8886C000002800064
:104FE0000084A10449E400000084A1044A84C904A7
:104FF00047E0000000EC0000818847008284A104A3
:105000004810001A01E800000002D30014880700CD
:10501000810C200848027000068449034784590324
:105020004FE25791B402780005848220E010001A04
:105030000302280002025002BCF01C31B5F01C3102
:10504000B6000009FD7908F01C31B7F01F31B8E453
:105050000011BB802780E1F40011B9F41D31BAF4CE
:105060001C31BCF41F31BD86A101B4806780E90208
:10507000CB001084830377E010000008000A21842D
:105080004B0347F01C71B5F01C71B6F01C71B7F002
:105090001F71B8E40011BB802780E3F40011B9F45C
:1050A0001D71BAF41C71BCF41F71BD86A101DC80B6
:1050B0006780EB02C3001084C3037F08000A00006E
:1050C000000AFD7908845B034FE4100000E0102023
:1050D00000EA6D800002CB0010EE6DA00002C3005C
:1050E00010884700820907091008FC48330D00109A
:1050F0001884C3036D0860483084DB036C86D101DB
:10510000E284800407E400008086C101E34D472269
:10511000008048008108FC3C130D00103084A2047C
:105120000884DA04020062212E86D901E50D001000
:105130002086C101E186C901E00844061100000B88
:10514000FD790800FE213202A3001908FC3C5184BD
:10515000CA040286D901E486A101DFE48040008808
:1051600040008108FC28710228000102830019E434
:1051700000020088C8008084C9036E86D901DE86DB
:10518000D101DD0D0010080844667284A204098470
:1051900059036A8449036B00FC0000E4100082ECB0
:1051A0001020008847008008FC0830E25791BE8438
:1051B000C902BD84C3036E848260E000000CFD79E7
:1051C00008F01C71BFF01C71C0F01C71C1F01F71A0
:1051D000C2E40011C5802780E3F40011C3F41D71FF
:1051E000C4F41C71C6F41F71C786C301B284CA20FF
:1051F000E086A101BE806780EB02C30010848303B8
:105200008FE0102000F01C31BFF01C31C0F01C31C9
:10521000C1F01F31C2E40011C5802780E1F4001104
:10522000C3F41D31C4F41C31C6F41F31C708000A91
:1052300001806780E902C3001000000DFD79088439
:10524000C3039F08000A00E41031F0E0100000EAF8
:1052500073800002CB0010EE73600002D300108850
:105260000700800947082108FC08530D0010388406
:10527000CB039C0860085184800407E4000081840B
:10528000A004084D4720008048008186D101F686A1
:10529000C101F784DB039B0D00103008FC3C138434
:1052A0005B036A844B036B84DA04030062218B8600
:1052B000D901F90D00102000000EFD790886C1010A
:1052C000F586C901F40844061100FE218F02A300EF
:1052D0001908FC3C5184CA040386D901F886A1014F
:1052E000F3E48060008840008108FC287184A004F9
:1052F00009E410200088C8008084C9039D86D90174
:10530000F286D101F10D00100808446672027000A7
:105310000AE4100082EC10200088470080845903C2
:105320005708FC0830E25791C884C902BD84C30302
:105330009D848260E000000FFD7908F01C71C9F0C7
:105340001C71CA02780009F01C71CBF01F71CCE40B
:105350000011CF802780E3F40011CDF41D71CEF44D
:105360001C71D0F41F71D1E00011D4806780E3F08C
:105370000011D2F01D71D3F01C71D5F01F71D6E46D
:105380000011D9802780E3F40011D7F41D71D8F4FF
:105390001C71DAF41F71DB86C301B1844903658097
:1053A0006780EB02C30010848303A7E01031C88438
:1053B000CA20E0000010FD7908F01C31C9F01C3152
:1053C000CAF01C31CBF01F31CCE40011CF80278014
:1053D000E1F40011CDF41D31CEF41C31D0F41F31B5
:1053E000D1E00011D4806780E1F00011D2F01D31CE
:1053F000D3F01C31D5F01F31D6E40011D9802780BD
:10540000E1F40011D7F41D31D8F41C31DAF41F3166
:10541000DB08000A01806780E902C3001084C3032F
:10542000AF08000A00E41031E6E0100000EA7180E5
:1054300000000011FD790802CB0010EE716000023F
:10544000D30010880700800947082108FC08530D85
:1054500000103884CB038C0860085184800407E472
:1054600000008184A004084D47200084DB038B806A
:1054700048008186D901EC86C101ED0D0010380885
:10548000FC3C12845B0357844B036584D204040004
:105490006221FF86D101EF0D00102086C101EB864D
:1054A000C901EA084406110270000600FE22040049
:1054B0000012FD790802A3001908FC3C7184CA049B
:1054C0000486D101EE86A101E902700006E4808025
:1054D0000088400081E66EF1B2E26FE0004D4011BD
:1054E000FA484000008840135F88001362E271F1BF
:1054F000B1E673E000484011FC08FC28514D400023
:10550000008800136184A00409E01020008888004E
:105510008084C9038D86D901E886D101E70D00108A
:10552000080844667288401364E410008200001387
:10553000FD7908EC1020008847008008FC083184C1
:105540008103A7E0000081E675E000484011FB4DB3
:105550004000008800136084CB038D86CB01B384A8
:105560004903378860136384C1035F84C9036008FB
:10557000FC083184D1036284D9036110001A22022D
:10558000C3001008FC481284C103640C2008118673
:10559000A101A7E257800002DB001084DA20E0F0CE
:1055A0001C31A8F01C31A902780005000014FD7917
:1055B00008F01C31AAF01F31ABE40011AE80278047
:1055C000E1F40011ACF41D31ADF41C31AF84510392
:1055D0003FF41F31B086A101A7806780E910001851
:1055E0000202C30010E0102000F01C51A8F01C5172
:1055F000A9F01C51AAF01F51ABE40011AE80278026
:10560000E2F40011ACF41D51ADF41C51AFF41F5184
:10561000B008FC1870806780EA02D3001084CA04C6
:105620000D84C2040A08FC5831000015FD790808F1
:10563000000A0084CA040C08000A21E410119DE04D
:10564000102000EA65200002CB0010EE6500008803
:105650000700800947082184DA040B84CB032984DE
:105660004B03378453033F025802BC02D300100897
:10567000FC08530D0010380860085184800407E4CA
:1056800000008184A004084D4720008048008186E6
:10569000D101A386C101A484DB03280D00103008CA
:1056A000FC3C1384DA0405000016FD790800622230
:1056B0007E86D901A60D00102086C101A286C901EF
:1056C000A10844061100FE228202A3001908FC3C36
:1056D0005184CA040586D901A586A101A0E480A051
:1056E000008840008108FC287184A00409E410208F
:1056F0000088C8008284C9032A0D00104886D90199
:105700009F86C1019E0844667086D902C0845103F9
:105710002D8449032C00FC0000E4104080EC102094
:105720000088470080000017FD7908048169218402
:10573000A0040AE410200084A0040C84CB032A886F
:1057400040008110001A03E40000008840008084BB
:10575000C8040D0C200809844103BF86C102C1841E
:105760008102BC848200E086C902C2E000129884F3
:105770008240E08482040FF01C5299F01C529AF08F
:105780001C529BF01F529CE400129F802780E2F481
:1057900000129DF41D529EF41C52A0F41F52A18FC2
:1057A000780000000018FD7908806780E102D300CE
:1057B000100C1D5144086446500D00101808446632
:1057C0007084C26100E01012A2F01C32A3F01C32FF
:1057D000A4F01C32A5F01F32A6E40012A980278095
:1057E000E1F40012A7F41D32A8F41C32AAF41F320F
:1057F000AB845903B7806780E9E00012AC84826112
:1058000000848260E0F01C72ADF01C72AEF01C727D
:10581000AFF01F72B0E40012B3802780E3F40012EF
:10582000B1000019FD7908F41D72B2F41C72B4863F
:10583000C102B5E081F2B6F41F608086A102B78094
:105840006780EB8482040EF01C0000F01C12B8F09C
:105850001C12B9F01F12BAE40012BD802780E0F4D8
:105860000012BBE081C081F41D12BCF41C12BEF416
:105870001F12BF844B032C8807008108FC2D198060
:105880006780E802D300108EFD02BC10001A01866A
:10589000D102C086C902C186C102C2E257B29800D5
:1058A000001AFD790886A102998453032D845B03B5
:1058B000B78451032F845903CF8482041084430397
:1058C000BF848240E08441032E848260E0F01C406B
:1058D00000F01C529AF01C529BF01F529CE40012E4
:1058E0009F802780E2F400129DF41D529EF41C520A
:1058F000A0F41F52A186A102A2806780EA8453030C
:105900002F8EFD02BD8F30000002DB00100C1C1139
:105910006C086466710D0010300844465100001B8D
:10592000FD790884CA4100E0102000F01C12A3F0A9
:105930001C12A4F01C12A5F01F12A6E40012A980EC
:105940002780E0F40012A7F41D12A8F41C12AAF498
:105950001F12AB845103C7806780E8E00012AC845B
:10596000824100848240E0F01C52ADF01C52AEF047
:105970001C52AFF01F52B0E40012B3802780E2F453
:105980000012B1F41D52B2F41C52B486C902B5E043
:105990008212B6F41F408186A102B700001CFD7977
:1059A00008806780EA84820411F01C6000F01C7299
:1059B000B8F01C72B9F01F72BAE40012BD802780E3
:1059C000E3F40012BBF41D72BCF41C72BEF41F722F
:1059D000BFE0822080806780EB8807008008FC0D94
:1059E0001802D300100C6008408443032E84810207
:1059F000BC02A30010E40000000283001802A30010
:105A00001088471323E40000008847132486C90246
:105A10009584C10323845303C700001DFD790884C6
:105A20005B03CF024003260211FFF800FF114E0076
:105A3000FC00000240032786C9029584C1032400AC
:105A4000FF114E00FC000086C901FD84CB03D0028B
:105A5000C8032784CA040002C803240240032602A4
:105A6000480323025003D084CA040100FF238A00A4
:105A7000FC000084A102BCE66460000228000085EE
:105A80005A008084A002000228000102CB00148486
:105A9000A0020002D3001400001EFD790808FC00DB
:105AA00031884712BC08FC005084A1032408FC265E
:105AB0007A08FC06F8E657A00086C9029684C3035C
:105AC000D184D303D2884712BD024003D400FF1112
:105AD0004E00FC0000024003D384C103D286C902F9
