:020000040000FA
:10000000900E0020D1010000D90100007D01000008
:1000100000000000000000000000000000000000E0
:10002000000000000000000000000000DD010000F2
:100030000000000000000000DF010000E1010000FE
:10004000E3010000E3010000E3010000E301000020
:10005000E3010000450F0000E3010000E3010000A0
:10006000E30100006D210000E3010000E301000056
:100070000D2500003D250000E3010000E301000024
:10008000E3010000E30100000514000081150000F9
:10009000E3010000E30100008D270000E301000000
:1000A000E3010000E3010000E3010000E3010000C0
:1000B000E3010000BD070000E3010000E51B0000B4
:1000C00000F002F800F04BF80CA030C808382418F3
:1000D0002D18A246671EAB4654465D46AC4201D180
:1000E00000F03DF87E460F3E0FCCB6460126334267
:1000F00000D0FB1AA246AB4633431847C8CE0000D7
:10010000E8CE0000103A02D378C878C1FAD8520776
:1001100001D330C830C101D504680C6070470000BD
:100120000023002400250026103A01D378C1FBD813
:10013000520700D330C100D50B60704710B5642959
:1001400002D100F095F810BD782902D100F0C6F870
:1001500010BD002010BD1FB51FBD10B510BD00F0B3
:10016000CDFA1146FFF7F7FF03F0F0F800F0E5FADB
:1001700003B4FFF7F2FF03BC00F0ECFA0420714671
:10018000084202D0EFF3098001E0EFF308807146E6
:10019000004A1047C513000070B505460C461646C8
:1001A00002E00FCC0FC5103E102EFAD2082E02D35B
:1001B00003CC03C5083E042E07D301CC01C5361F6E
:1001C00003E021782970641C6D1C761EF9D270BD85
:1001D0000748804707480047FEE7FEE7FEE7FEE7DF
:1001E000FEE7FEE704480549034A054B7047000057
:1001F000D91F0000C1000000900A0020900E0020CE
:10020000900A00200FB4054910B503AA029800F027
:1002100035FA10BC08BC04B0184700000C020020DE
:1002200070B5044685690068C10601D5302600E036
:100230002026C00707D070BD62683046A16890478D
:10024000206A401C20626D1EF6D570BD70B5044654
:1002500085690078C00707D170BD6268A168202059
:100260009047206A401C20626D1EF6D570BD0000CC
:10027000F7B5002575291068009914A611D0C0465D
:10028000C046002802DA404211A608E00099096839
:100290008A0701D50FA602E0490704D50EA601255D
:1002A00001E0C046C046009F0024243704E000F06F
:1002B000F9F930313955641C0028F8D12B46324603
:1002C0002146009800F082F9FEBD00000000000009
:1002D0002D0000002B0000002000000070B5044637
:1002E0000D4621461068C046C0462188090502D542
:1002F0000F4A7A4402E00E4A7A440E322346002125
:10030000243305E006070009360F965D5E54491C4C
:100310000028F7D120780023000705D5702D03D0E1
:10032000002901D002231132204600F04FF970BDA0
:1003300092CC0000F3B50446002081B02062204634
:10034000E168884700287DD0252802D06268A1682E
:1003500083E0454F00257F442046E16888472028F8
:10036000064608DB312E06D2B8192038007800285E
:1003700001D00543F0E7A80701D5042085430020FC
:10038000E0610746A0612A2E0AD0304602F0DBFB6E
:10039000002827D0B8000019303E0090866119E08F
:1003A0000298BA00121902C8916102902046E168D1
:1003B0008847012F064617D1E06900281FDA202060
:1003C00085431CE000980A21806948430099801900
:1003D000303888612046E1688847064602F0B3FB62
:1003E0000028EFD1012F0AD02E2E08D12046E16837
:1003F00088470646202005437F1C022FC3DBA069E7
:10040000002803DA4042A06101200543E80701D03B
:1004100010208543002E24D030464138192803D8B7
:100420000120C00205432036204625603146029A4D
:100430001546FFF783FE00280CD0012807D0ED1DDC
:10044000E80800E00DE0C0000830029077E72D1DBD
:10045000029574E762683046A1689047206A401CA4
:100460006CE7206AFEBD000056CC000000220309A4
:100470008B422CD3030A8B4211D300239C464EE0BF
:1004800003460B433CD4002243088B4231D303097B
:100490008B421CD3030A8B4201D394463FE0C3092D
:1004A0008B4201D3CB01C01A524183098B4201D345
:1004B0008B01C01A524143098B4201D34B01C01A30
:1004C000524103098B4201D30B01C01A5241C308A8
:1004D0008B4201D3CB00C01A524183088B4201D317
:1004E0008B00C01A524143088B4201D34B00C01A03
:1004F0005241411A00D201465241104670475DE018
:10050000CA0F00D04942031000D34042534000229A
:100510009C4603098B422DD3030A8B4212D3FC2243
:10052000890112BA030A8B420CD3890192118B42C2
:1005300008D3890192118B4204D389013AD09211D8
:1005400000E08909C3098B4201D3CB01C01A524193
:1005500083098B4201D38B01C01A524143098B425C
:1005600001D34B01C01A524103098B4201D30B0145
:10057000C01A5241C3088B4201D3CB00C01A52416A
:1005800083088B4201D38B00C01A5241D9D2430851
:100590008B4201D34B00C01A5241411A00D201468E
:1005A000634652415B10104601D34042002B00D5F8
:1005B0004942704763465B1000D3404201B50020BA
:1005C000C046C04602BD704770477047FFB504463D
:1005D0000D4681B0243000902168880604D5102291
:1005E000E0699143216000E00120A84201DD471B42
:1005F00000E000270498A1697A191018081AA06170
:100600002078C00602D42046FFF70AFE002608E044
:1006100003986268A168805D9047206A401C761C40
:10062000206204988642F3DB2078C0060AD5204673
:10063000FFF7F6FD06E06268A16830209047206A67
:10064000401C206238467F1E0028F4DC07E000983A
:100650006268A168405D9047206A401C206228467D
:100660006D1E0028F3DC2046FFF7F0FD2078000621
:1006700002D5022005B0F0BD0120FBE7084B70B5A4
:100680000D467B4400F027F80446284602F054FE4D
:10069000002802D00020C04370BD204670BD00007D
:1006A000B92C000001468008081A02091018020A35
:1006B0001018020C1018C008820012185200891A73
:1006C00001E0401C0A390A29FBD2704701694A1C23
:1006D00002610878704700B58FB002910021059142
:1006E0000549019379440391114604906846FFF748
:1006F00021FE0FB000BD0000E5FFFFFF754600F0D2
:1007000025F8AE46050069465346C008C000854638
:1007100018B020B5FFF766FD60BC00274908B64653
:100720000026C0C5C0C5C0C5C0C5C0C5C0C5C0C500
:10073000C0C5403D49008D46704710B50446C046CF
:10074000C0462046FFF714FD10BD0000004870476A
:100750002C0A002001491820ABBEFEE7260002004B
:1007600070470000CB0709480222002B02D0036823
:10077000934303608B0702D58368934383604907E3
:1007800002D5C1689143C1607047000080000E40EF
:10079000CB0709480222002B02D0036813430360F1
:1007A0008B0702D5836813438360490702D5C1686C
:1007B0001143C1607047000080000E4010B50A4828
:1007C00001210161094A810511600069064C803CE4
:1007D000206B81B206A0FFF715FDE06B81B20EA081
:1007E000FFF710FD10BD000080000E4080E100E02A
:1007F000436F6E76657273696F6E20726573756C88
:1008000074206F66206368616E6E656C2031323AC9
:100810002030782558200A00436F6E766572736920
:100820006F6E20726573756C74206F6620636861EB
:100830006E6E656C2031353A2030782558200A00DC
:1008400030B505480468054D2C400C431443046042
:100850004168436030BD000080000E40F3FBFFFFA5
:100860000248016AC2011143016270470002005050
:100870000EB509490EC900910192810F8A000293B9
:1008800069468A58054951184A68C306DB0E01209B
:10089000984002434A600EBD50CF00000002005055
:1008A000F0B585B00C460746FFF7DAFF5548544EC1
:1008B0000168002F13D0042211430160102000F0C2
:1008C0008DF90120C00402904F48042503904F4841
:1008D0004F49201888420DD8002004901CE00122C6
:1008E00011430160104600F079F9002002250396BB
:1008F0000290ECE7474848492018884203D8012075
:100900006400049008E04548444920184942884260
:1009100049D80320A40004900026F643002000904C
:10092000019021E029460398FFF7A0FD3C493D4A8C
:100930004118914217D20222344B014651435B1CAD
:10094000CF185B429F420AD8A14201D90B1B00E09D
:10095000631AB34203D21E000095019203D03249BC
:10096000521C8A42E8D96D1C212DDBD904980299CA
:10097000800308430099012249029202891A084320
:100980000199891E08431F490862042000F026F9D6
:1009900004990098491C41430398FFF767FD0199AA
:1009A000484305B0F0BD002F0FD020491548016223
:1009B000042000F013F91EA0006800901148016A9D
:1009C0000013014203D00020EBE71A49EEE70803C9
:1009D00000D50D4E880301D53046E2E70804800FAC
:1009E0006A46105CCA058904C90E891CD20D4143B0
:1009F000B008921C5043FFF739FD8000D1E700009A
:100A0000001BB7000002005000805101FF1E0AFACF
:100A1000FFE0F5057F0F05FD7FF0FA02C08782FE3B
:100A2000FF95E7FFFFB9DB0001020000324C080030
:100A3000010202042E44000002490A6802430A60CF
:100A4000704700000002005010B501F07DFA044824
:100A5000006941060348006800D5400810BD000049
:100A6000000200500000002010B501F06DFA0448AB
:100A7000006901060348006800D5400810BD000069
:100A80000002005000000020F8B51C4D0446EE683E
:100A9000102006401A48844202D81A48844200D2E4
:100AA00004462868042738432860102000F096F890
:100AB0002869072108432861A86900090001A86185
:100AC000E868C00705D061000020FFF7E9FE044692
:100AD00008E001206100C004FFF7E2FEEE68044672
:100AE000102006400121022000F00EF8002E02D155
:100AF0002868B84328606008F8BD00000002005074
:100B000000A24A0440787D01F3B5114C81B0E5683C
:100B10000F46102005402068042630432060102036
:100B200000F05CF82069072108432061A0690009F2
:100B300000013843A061206988430199084320617E
:100B400001F002FA002D02D12068B0432060FEBD02
:100B500000020050F0B51A4B86B01C460834F0CCA9
:100B6000009401ACE0C418CB05940493840A2306D6
:100B70001B0E0ED003039B0F9B0004ADEB58114DD1
:100B80005B19E5B28405E40EA5401C68AC43144330
:100B90001C60420E520710D08200920F92006B46EA
:100BA0009A58084B083BD21803015B0FC001C00ED6
:100BB0008340106898430843106006B0F0BD000001
:100BC00038CF000018020050034A116938239943B6
:100BD00001431161704700000002005010B5044647
:100BE0000749084B05E00A46491E002A01DC00209F
:100BF00010BDDA6820469043F5D1012010BD0000F9
:100C000080F5200000020050F8B507461B4CFF207D
:100C100015460E4620607D21C900194801F0DEF915
:100C2000552020607D21C900154801F0D7F9032027
:100C300020607D21C900124801F0D0F98020206099
:100C40007D21C9000E4801F0C9F927607D21C90046
:100C50000B4801F0C3F926607D21C900084801F066
:100C6000BDF925607D21C900054801F0B7F9B81923
:100C7000401983304042C0B22060F8BD00001540EA
:100C80000000014002480068024908607047000007
:100C900000E100E00C000020034800682021084328
:100CA00002490860704700000C00002000E100E0ED
:100CB00000B5FFF7E7FF0249FF20086000BD000014
:100CC00080E100E0F8B5044600200090FFF7F0FF57
:100CD00013480178134F00220B01F858DB195E68A6
:100CE0009D68DB6800280CD0A560E36041C401204A
:100CF0000022009008013A50C01942608260C26030
:100D000008E0491C521CC9B2D2B2202900D30021EC
:100D1000202AE1D302480170FFF7BEFF0098F8BD1A
:100D2000100000205002002010B5FFF7C1FF002086
:100D3000084B024601015A50C9184A608A60CA60CD
:100D4000401CC0B22028F5D303480270FFF7A4FF6F
:100D500010BD00005002002010000020F8B51C4615
:100D600015460E460746FFF7A3FF0F4800780F4AC7
:100D700000210301D358002B0AD0401C491CC0B2EB
:100D8000C9B2202800D300202029F2D3002406E095
:100D900000011750801846608560C4600124FFF789
:100DA0007BFF2046F8BD000010000020500200200C
:100DB00010B505A0FFF726FA01F0ACFB01210748AA
:100DC00001F05CFC002010BD6465627567207561F0
:100DD000727420696E6974210A00000000000540E9
:100DE0000249002800D001204862704700420050AC
:100DF00010B501F0B3FF02F0EBF80549054801F02A
:100E0000EDF801F01BFF012001F0B4FF10BD000060
:100E1000881300000000014010B5044601F0CCFF2B
:100E2000204602F073F910BD10B5104C01222021AC
:100E3000204600F0CCF801221021204600F0C7F82F
:100E4000012220210A4800F0C2F801225102204666
:100E500000F0BDF806480021C0300161416105493C
:100E6000012048610020FFF7BBFF10BD004000508B
:100E7000404100504043005010B5094C0022012170
:100E8000204600F0A4F801220021204600F092F84C
:100E9000012204492020086061691143616110BD8D
:100EA000C040005000E100E070B5082002F0D0F929
:100EB0000C4C0D4D2146284601F090F8FFF798FFA5
:100EC0002146284601F08AF8084840790A2805D0CA
:100ED000082805D0042002F0BBF970BD0220FAE713
:100EE0000120F8E7A0860100000001401C0A002054
:100EF00010B5082002F0ACF901F044FF01F092FFB8
:100F00000521094801F06AF8FFF772FF07484079A8
:100F10000A2805D0082805D0042002F099F910BD50
:100F20000220FAE70120F8E7000001401C0A002037
:100F300010B5002001F02CFF01F074FF02F0BAF8A8
:100F400010BD000030B51848016AC9070DD0012452
:100F500004621648002381680A46793A182A05D2A5
:100F60000470836003710361C37030BD0A46183A90
:100F7000602A08D283600169491C01610A29F4D9F9
:100F8000C470036130BD0278002A0AD0084D02798E
:100F9000A954521CD1B20171202902D3037184706B
:100FA0000370836030BD0000C0400050B4010020D9
:100FB000DA09002010B58369140E8C402343836145
:100FC000C3691202120A8A401343C36110BDF0B50F
:100FD000002301273C469C400C4208D005685C0079
:100FE0000326A640B5431646A640354305605B1C64
:100FF000102BEFD3F0BD000070B50A4C0025A0788F
:10100000002806D008A0FFF7FDF800F02BFCA57023
:1010100070BDE078002803D0E57008A0FFF7F2F873
:10102000002070BDB401002069725F646174615F6B
:1010300072785F6F6B203D20310A00004C6F6E6745
:1010400050726573730A0000F8B50024404800F040
:1010500065FC002836D00A213D4801F00DFA3D48D4
:10106000C168002903D08069002802D002E0012471
:1010700000E00224364D00270C3DA878002807D058
:1010800001280FD0344E02281DD0042824D139E085
:10109000002C17D02E486C701421083801F0ECF9A0
:1010A0000120A8706878A04216D12948083800F0BD
:1010B00035FC002806D026482849083801F0DCF91C
:1010C0000220A870F8BD6878A04207D041004118FE
:1010D0002348081800782870AF70F8BD1C480838FD
:1010E00000F01CFC0028F8D019481C49083801F011
:1010F000C3F90420A87068784100411818480818FE
:10110000407808E06878A04209D0410041181448AE
:10111000AF7008188078287001203073F8BD0C4833
:10112000083800F0FBFB0028F8D009480B490838C4
:1011300001F0A2F90420A870042C01D0052CEDD1F7
:101140006878410041180648081840782870F8BDB2
:1011500004020020804200501C0A0020DC05000030
:101160002CCF000038B5094D284600F0C7FA2846B4
:1011700000F0C9FA002401231A46214628460094AB
:1011800000F0FCFA02480482047538BD00000240F9
:101190005004002038B5094D284600F0AFFA284623
:1011A00000F0B1FA002401231A4621462846009493
:1011B00000F0E4FA02480482047538BD00001240D1
:1011C00050040020FFB51C4C81B016460746207D18
:1011D0000028FCD1194D284600F0AFFA002809D1AB
:1011E00017480178490705D401780422114301709A
:1011F00005B0F0BDA7740298206004986060268155
:101200000A9860810026A681E6810820E074268283
:1012100001202075284600F071FA012300221946AA
:101220002846009600F0AAFA284600F071FA207DC0
:101230000028FCD1DCE70000500400200000124030
:101240004000002070B51848FFF712FB174800F067
:1012500021FE174C0121204600F05FFA1549204677
:1012600000F06EFA0120144C80042060022112204C
:1012700000F082FB0C48401CFFF7FAFA0B48401CB8
:1012800000F008FE0D4D0121284600F046FA0C49F9
:10129000284600F055FA0120C004206002211320E6
:1012A00000F06AFB70BD0000080000400800000468
:1012B00000000240400D030000E100E00000124089
:1012C000A0860100FFB51C4C81B016460746207D64
:1012D0000028FCD1194D284600F02FFA002809D12A
:1012E00017480178890705D401780222114301705B
:1012F00005B0F0BDA7740298206004986060268154
:101300000A9860810026A681E6810820E074268282
:1013100001202075284600F0F1F90123002219462A
:101320002846009600F02AFA284600F0F1F9207DC0
:101330000028FCD1DCE7000050040020000002403F
:101340004000002010B51A4C2046FFF791FA072103
:10135000002209022046FFF7FDFB174C0121154A28
:10136000C906204600F0D0FE2068610508432060D1
:101370000815124908600121092000F0DBFA2068F5
:10138000A1050843206064210D4801F075F80C4860
:101390006421083001F070F809486421103001F030
:1013A0006BF807486421183001F066F810BD0000A2
:1013B0000300C05E102700000001014000E100E0D2
:1013C00018000020044603A0FEF71CFF204602F090
:1013D00055FEFEE7496E2048617264204661756CD7
:1013E000742048616E646C65720A000010B504498F
:1013F0000020887002480A210C3001F03DF810BD31
:10140000F8010020F8B5584EF068012700905749C0
:10141000B80408607069C043C00726D0544CE17C12
:101420000098814210D0208A401C2082208A514995
:10143000884209D950480178890703D401780222EB
:1014400011430170FFF78EFE00984107490F33D119
:10145000C01050210025030001F068FB0C0B144A5A
:10146000190B2F0B2E560B60822E304600F046F9DA
:1014700076E041480178890772D4027802210A4354
:1014800002706DE01820E0742582A17C38E0102104
:101490003A4800F0A3FD2089002861D02820E0749C
:1014A000258220680178304600F066F9A781009512
:1014B00052E0304600F062F9F8BDA08921898142EE
:1014C0000BD92821E17425822168095C304600F09F
:1014D00053F9A189491CA181E9E7608900283FD01F
:1014E0001020E07425820123002219460095E0E7D0
:1014F0006089002834D04020E0742582A17C3943E3
:10150000304600F039F9D2E76089002828D0E1742C
:10151000258260890128CAD000971DE02046E48911
:10152000426800924389A3421AD94289121B022AB7
:1015300000D15821C174002105460182304600F0D7
:10154000F9F800990855E889401CE8816889001B72
:101550000228E1D100200090012300221146A8E7D3
:10156000FFF700FEF8BD00000000024080E200E04E
:1015700050040020881300004000002000000140BB
:10158000F8B5594DE868012600905849F004086004
:101590006869C043C00726D0554CE17C0098554F80
:1015A00081420FD0208A401C2082208A52498842E2
:1015B00008D93878400703D43878042108433870B4
:1015C000FFF7E8FD00984107490F31D1C2102821EB
:1015D0000020130001F0AAFA0C0B13491C0B2D0B71
:1015E0002C570B65842C284600F088F878E0387872
:1015F000400775D4387804210843387070E018210A
:10160000E17406462082A17C284600F0B5F81FE070
:101610002289002A64D0E17407462082206801787C
:10162000284600F0A9F8A6812BE0284600F0A6F88D
:10163000F8BDA289238993420CD9E1740646208221
:101640002068815C284600F097F8A189491CA18197
:10165000009622E06189002942D01021E1742082A5
:101660000123002219460090DFE76189002937D065
:101670004021E17407462082A17C2846314300F0D6
:101680007BF8009709E06189002929D05021E17495
:10169000208261890129DBD10090012300221146BB
:1016A000C3E7E789616800916189B94218D9618906
:1016B000C91B022912D05021E17400202082284643
:1016C00000F038F801460098C155E089401CE081DF
:1016D0006089C01B0228BBD10020DDE75821EBE761
:1016E000FFF758FDF8BD00000000124080E200E066
:1016F00050040020400000208813000041690122AE
:101700001143416170470168802291430160704735
:10171000016880221143016070470222002941695B
:1017200001D0114300E0914341614169042211431A
:10173000416170478068C0B27047C0687047000060
:1017400070B50C4D044628680A2289005043FEF704
:101750008DFE0A21401DFEF789FE401E2061216892
:101760004022114321608100091D2868FEF77EFE9A
:1017700070BD0000000000208160704730B500247B
:10178000039D002900D02024002A01D010210C4301
:10179000002B01D008210C43002D01D004210C4363
:1017A00001683C2291432143016030BD70B51B4C60
:1017B0001B4D617928780E290AD0002827D0F028FF
:1017C00015D0F12819D0F32805D0F4281FD108E04E
:1017D000F1281ED1F3E713A0FEF714FD01F090FDF0
:1017E00015E014A0FEF70EFD01F02AFD0FE015A094
:1017F000FEF708FD02F09CF909E016A0FEF702FDD5
:1018000060790E2806D000F0D9F800F08BFB00209C
:10181000287070BD00F04CFBF9E700001C0A0020A6
:10182000F801002070617269206B65792073700A7D
:101830000000000070617269206B65792063700A96
:1018400000000000706F776572206B6579207370FF
:101850000A000000706F776572206B6579206370F5
:101860000A000000F8B50020264D274F0246034627
:1018700080260121AC5C0F2C00D93043082900D20E
:101880004008521C491CC9B2D2B20829F2D9F854F6
:101890005B1C0020DBB2042BEBD31B4901200C396D
:1018A00048703878122802D00C2811D027E07878B8
:1018B000342824D11448BA78002108304B001B1872
:1018C0005B78934210D0491CC9B20B29F6D316E0BD
:1018D0007878F32813D10C48BA78002120304B00D7
:1018E0001B185B78934206D14A00845C07A0FEF780
:1018F00089FC2046F8BD491CC9B20B29EFD3002052
:10190000F8BD0000DA090020C001002069725F6B99
:1019100065795F6E756D3A25640A000004490068B8
:10192000896A814201D3012070470020704700007E
:10193000FC0900208307FF22DB0E9A408907090E6D
:10194000994000280BDA0007000F08388308084880
:101950009B001818C36993430B43C3617047830806
:1019600004489B001818036893430B4303607047B7
:1019700000ED00E000E400E08307FF22DB0E9A4068
:101980008907090E994000280BDA0007000F083874
:10199000830808489B001818C36993430B43C3612D
:1019A0007047830804489B001818036893430B434F
:1019B0000360704700ED00E000E400E010B5002295
:1019C0001521702001F052FA002255210320FFF763
:1019D0001BF901F0F1FBFFF7ABFA04480121417359
:1019E0000349044800F048FD10BD00001C0A002017
:1019F0008813000030000020F8B53C4E04467069A2
:101A0000C007C00FE061B0694007400FE06000F020
:101A10009FF9306A364D0002000F2860306A0003DB
:101A2000000F6860306A0127C004C00FA860306AE8
:101A30000005000FE860306A8006800F2861306A78
:101A40000007000F686100F083F9F0698002800FE1
:101A5000A861F0690003000FE861F0694004400FDD
:101A60002862F0690005000F6862F0694006400FC7
:101A7000A862F0690007000FE86228680A2148435D
:101A8000696840187D21090140182060A8680A2172
:101A90004843E9684018606028690A214843696939
:101AA0004018A060E0690028A86904D00A214843D2
:101AB000E969401809E00A214843E96940182061B2
:101AC000152804D3022114382162206100E0276226
:101AD000286A0A214843696A40186061A86A0A2195
:101AE0004843E96A4018A061F8BD0000008000404A
:101AF0001002002030B5394A5169CB07DB0FC361B2
:101B000091694907490FC160116909020C0F3449F5
:101B10000C6014692403240F4C601469E50401244B
:101B2000ED0F8D6015692D052D0FCD601569AD0682
:101B3000AD0F0D6115692D072D0F4D61D568AD02F3
:101B4000AD0F8D61D5682D032D0FCD61D5686D0466
:101B50006D0F0D62D5682D052D0F4D62D5686D0690
:101B60006D0F8D62D2681207120FCA620A680A25C9
:101B70006A434D6852197D252D01521902608A6809
:101B80000A256A43CD68521942600A690A256A43E8
:101B90004D69521982608A69002B04D00A235A4386
:101BA000CB69D21809E00A235A43CB69D2180261E3
:101BB000152A04D30223143A0362026100E004628E
:101BC0000A6A0A235A434B6AD21842618A6A0A2374
:101BD000C96A5A435118816130BD0000008000403D
:101BE000100200200348C16A890701D50221C162A1
:101BF000704700000080004070B515467D220E46FB
:101C000012010A21801AFEF731FC0C04000504437E
:101C10000A213046FEF72AFC000320430C0204434D
:101C20000A212846FEF722FC000120430C4604430B
:101C300000F08EF80148046270BD00000080004092
:101C4000F8B50E4606991D00144602D1022900D1AE
:101C500014300A21FEF70AFC0F04000507430A218D
:101C60003046FEF703FC00030E02384306430A2108
:101C70002046FEF7FBFB0001304301430C4600F019
:101C800067F80648002D416904D0012211434161E3
:101C9000C461F8BD49084900F9E700000080004030
:101CA000F8B516467D220F4612011D460A21801AFC
:101CB000FEF7DCFB0C04000504430A213846FEF75E
:101CC000D5FB000320430C0204430A213046FEF7F3
:101CD000CDFB000120430C46044300F039F86907AE
:101CE0000248490F81610461F8BD00000080004096
:101CF000F8B50E4606991D00144602D1022900D1FE
:101D000014300A21FEF7B2FB0F04000507430A2135
:101D10003046FEF7ABFB00030E02384306430A21B0
:101D20002046FEF7A3FB0001304301430C4600F0C0
:101D30000FF80648002D416904D00122114341618A
:101D4000C460F8BD49084900F9E700000080004080
:101D50000548002141604168C903FCD40349416042
:101D60004168C903FCD570470080004065A90000A8
:101D700010B5FFF71DF800F089FB00F017FEFFF724
:101D800061FA10BDF8B50420FEF756FE1020FEF7EC
:101D900025FF00210720FEF7B7FE0320FEF74CFECB
:101DA0000320FEF71BFF2248FEF76EFE1820FEF709
:101DB0000BFF204C2046FEF75BFD651C2846FEF716
:101DC00057FDA61C3046FEF753FD1B4F3846FEF765
:101DD0004FFD1A48FEF74CFD1848401CFEF748FD21
:101DE0001748FEF745FD1748FEF742FD1648FEF777
:101DF0003FFD1648FEF73CFD002211462046FEF747
:101E0000A9FE002211462846FEF7A4FE0022114634
:101E10003046FEF79FFE002211463846FEF79AFE36
:101E2000032252040C210648FEF794FEF8BD000080
:101E300000A24A04103D80570800008008000040BE
:101E40001CFE23561400C0530200805E0100206374
:101E500010B559200E4C1622882120602260216086
:101E60002368002BF9D0FFF78DFF00F093FA0020D4
:101E7000206000F0F3FA01F09FF9FEF7D5FFFFF7BD
:101E800077FFFFF75FFA00F08FF9FEF74DFF10BD07
:101E9000000100500521020E090751188B6801222C
:101EA000824013438B6088689043886070470000CD
:101EB00070B5104C002565710120A071A07305203C
:101EC000E073012000F012FA0120FEF789FF01F013
:101ED00029F80949094800F0CFFA6421084800F0C0
:101EE000CBFAFFF705F8657300221621702000F089
:101EF000BDFF70BD1C0A0020B80B000028000020A8
:101F00003000002006498A691202FCD408600A28C1
:101F100004D188690002FCD40D20086070470000DD
:101F20000000054010B506480E2141710021817165
:101F300000F0FEFF7D21C900024800F09DFA10BDAF
:101F40001C0A002020000020F8B51C4D2869440719
:101F50001BA000680090296A640F2813014201D079
:101F6000002016E0080301D5164800E016488A0351
:101F70000FD40A04920F6B469B5CCA058904D20DEC
:101F8000C90E891C8008921C59435043FEF76EFA13
:101F900080000E4E022CB06002D00D49A0000858FF
:101FA000A9690907090F491CFEF760FA0949306061
:101FB0004A108018FEF75AFA7060F8BD000200500F
:101FC0000102020400805101001BB7000000002044
:101FD0002441000040420F0070470000F8B50C4655
:101FE000074600F05DF80546002000902648294687
:101FF0000068FEF73BFA461C0020386078612349F0
:102000008D4205D87D20C000844205D2044606E0FA
:10201000642C01D2642402E08C4200D90C461C4896
:102020008D4207D82946FEF721FA01467D20C000DF
:10203000604317E0174A954203D90722ED08009242
:102040000CE0154A954203D90322AD08009205E041
:10205000124A954202D901226D080092FA2CE1D26F
:1020600020466843FEF702FA78600121009889074C
:1020700008433860002E02D000BF761EFCD13868BD
:102080008001FCD4F8BD00000000002040420F0099
:1020900000CA9A3B0090D0030048E8010024F400F5
:1020A00010B588B00446202211496846FEF774F83E
:1020B000104911488C4202D14069000A0CE00F49D6
:1020C0008C4202D14069000B06E00D4940698C4208
:1020D00001D1000C00E0000D4007400F022804D0A1
:1020E00080006946085808B010BD06480068FAE745
:1020F00068CF0000000001400002005000010140D4
:102100000000114000000020F7B517460646FFF713
:10211000C7FF044600254008B84201D2022014E05F
:102120000F498C4202D90725E4080AE00D498C4288
:1021300002D90325A40804E00B498C4201D90125EA
:10214000044639462046FEF791F90199294331604A
:1021500070606D1C684301462046FEF787F9FEBD9E
:102160000090D0030048E8010024F4000A490878F0
:10217000401CC0B208700A2805D300200870074828
:10218000816A491C816206490868401C086005494B
:10219000012088607047000014000020FC09002026
:1021A000BC0100200001014010B5FEF765FE00F003
:1021B000F1FF10BD10B50446012211020248FEF7DE
:1021C00006FF0248046210BDC0400050C0420050EB
:1021D00070B516481E250446455F20340121E0787D
:1021E000222D02DA217088431DE008432946104A57
:1021F0002239E07091420DD807212170DF2108407B
:10220000E07028467921FEF73BF921790909090197
:10221000084320711F208001854205DD06202070C3
:10222000E07820210843E07070BD0000FC09002028
:102230009E07000010B5002000F058F80849012062
:102240008863074900204039086205498031886366
:102250000349403148600120FFF7ACFF10BD00008A
:1022600040420050094A13690948002BC17806D042
:1022700005238370FB231940C170002004E0042370
:1022800083701943C1700120506070478042005034
:102290001C0A0020144B10B5182218469A5E2030F4
:1022A000C178222A04DA03224270FD22114018E08C
:1022B00002242143C1701E241C5F1F239B019C42EA
:1022C00008DC0A244470BF242140C1700179090749
:1022D000090F01719A4205DD09214170C178402240
:1022E0001143C17010BD0000FC0900200249002804
:1022F00000D001208860704780420050F8B5234E1E
:10230000054603460C2200213046FEF799FA1F4C81
:102310008034206801273843206039463046FEF774
:1023200037FA27612068F902084320602069C00756
:10233000FCD001202061164A29460020CB0704D09A
:1023400083009B191B684700D353401C4908C0B247
:102350001028F3D32069C007FCD020680121C902EE
:102360008843206000213046EB0704D08B001B1807
:102370001B684E009353491C6D08C9B21029F3D352
:1023800001212161FEF7EEF9F8BD000000000E40CA
:10239000FC0900200D4841684204114341600021BE
:1023A00005200007416301635201C263084A82634A
:1023B000332208481201426001603021C16081600F
:1023C0000549416109060161704700004040005025
:1023D000008800104000005011004400F8B50122B0
:1023E000150229461C48FEF7F2FD1B4C00228034E2
:1023F00010212046FEF7EBFD2946174D0122C0357E
:102400002846FEF7E4FD144E0121403600228902E1
:102410003046FEF7DCFD01210022C9023046FEF7FE
:10242000D6FD0122970339462846FEF7D0FD00224B
:1024300080212846FEF7CBFD012204212046FEF72D
:10244000C6FD012239463046FEF7C1FD01220221B8
:102450002046FEF7BCFDF8BD0040005010B5FFF768
:10246000BDFFFFF7E7FE00F03FFF02480021C1700B
:10247000017110BD1C0A0020034A936A4360926AEE
:102480005118016070470000FC09002010B50CA035
:10249000FDF7B8FE00F056F800F068F80E48016845
:1024A0000EA0FDF7AFFE11A0FDF7ACFE012115480F
:1024B00000F0E4F80121144800F0E0F8002010BD1D
:1024C0007472616E73666572207561727420696ED4
:1024D0006974210A00000000000000200A0A43502D
:1024E00055204020256420487A0A00000A554152B0
:1024F000542053616D706C652050726F6772616D0E
:102500000A000000004015400000154010B500F022
:10251000CDF810BD05200007C268012109040A4357
:10252000C260C2688A43C260034802494162032113
:10253000C1607047660000300000054010B500F033
:1025400035F810BD05200007C268012149040A437F
:10255000C260C2688A43C2600348024941620321E3
:10256000C16070476F020030000015400520000771
:10257000C268012189040A43C260C2688A43C260FA
:102580000848074941620321C1600748002181755D
:1025900001768176C17541760121C17670470000D0
:1025A0006600003000401540BE09002070B5234C85
:1025B0000121204600F046F8E169C9070FD02068E4
:1025C0001F4CC0B2E27800250121130000F0AEFAE2
:1025D0000805080F161A1D202725FF282BD070BDCF
:1025E000552802D0FF28FAD017E0022013E0042873
:1025F00001D103200FE0FF281DD00EE08028FAD182
:10260000042008E02070052005E06070062002E04C
:102610000028F0D10720E07070BDE57070BDFF2884
:1026200009D06278002321780120FEF797FBFF2074
:1026300020706070F1E7E17070BD0000000015408F
:10264000440000204A0501D5682282610A0503D5AD
:10265000426901231A4342618A0401D5064A826114
:102660004A0401D5426C4264090403D58021C1614A
:10267000816B8163704700000100000142680A43DA
:102680004260074B012212030649984201D10A60B9
:102690007047054B9842FAD101204003086070470B
:1026A0000000054000E100E00000154070B51D4E3F
:1026B00001213046FFF7C6FF1B4C01212046FFF7E2
:1026C000C1FFF0690025C007184B002818D03068FA
:1026D000C0B2302800D1DD605968012292029142D7
:1026E0000ED213499A68885498681249884201D1D9
:1026F000002001E09868401C98605868401C5860B1
:10270000E069C0050DD50C4AE069C00709D0206812
:1027100099785054491CC8B298708C28F4D99D708F
:10272000F2E770BD00000540004015404400002065
:1027300068040020FF0300006808002010B5052091
:1027400000070269FF2101310A43026102698A43DD
:1027500002610B4C022020600A48E06210202061D8
:1027600007484030C16942061143C1610648FFF77E
:1027700091FB4B210902204600F040F910BD0000FA
:1027800000000740010800000800000810B500F034
:10279000C5F810BD10B50FA0FDF734FD1DA0FDF765
:1027A00031FD0CA0FDF72EFD2AA0FDF72BFD39A071
:1027B000FDF728FD47A0FDF725FD06A0FDF722FD4A
:1027C0005448416810221143416053499004086005
:1027D00010BD00002B2D2D2D2D2D2D2D2D2D2D2D12
:1027E0002D2D2D2D2D2D2D2D2D2D2D2D2D2D2D2D19
:1027F0002D2D2D2D2D2D2D2D2D2D2D2D2D2D2D2D09
:102800002D2D2D2D2D2D2D2D2D2D2D2D2D2D2D2DF8
:102810002B0A00007C202055534349205541525437
:102820002046756E6374696F6E2054657374202042
:102830002020202020202020202020202020202098
:102840002020202020202020202020202020202088
:102850007C0A00007C20204465736372697074698F
:102860006F6E203A202020202020202020202020B1
:102870002020202020202020202020202020202058
:102880002020202020202020202020202020202048
:102890007C0A00007C202020205468652073616D34
:1028A000706C6520636F64652077696C6C20707252
:1028B000696E7420696E7075742063686172206F30
:1028C0006E207465726D696E616C2020202020205E
:1028D0007C0A00007C20202020506C6561736520FC
:1028E000656E74657220616E7920746F20737461F7
:1028F00072742020202020285072657373202730A6
:102900002720746F206578697429202020202020DA
:102910007C0A00000000074000E100E070B521489B
:10292000C16BC90739D1406B1F4CC0B2E27800259A
:102930000121130000F0FAF808050910131A1D20F0
:102940002430FF2829D1E17027E0552802D0FF2844
:1029500023D021E0022011E003280FD001E08028DD
:1029600002D0FF28EFD017E0042007E020700520F8
:1029700004E06070062001E0A0700720E0700CE029
:10298000FF28E0D0A378627821780220FEF7E6F9EC
:10299000FF2020706070A070E57002491020403167
:1029A000486270BD000007405400002010B5FFF7DA
:1029B000C5FE0648016806A0FDF724FC08A0FDF747
:1029C00021FCFFF7E7FE002010BD00000000002002
:1029D0000A0A435055204020256420487A0A000006
:1029E0000A5553434920554152542053616D706C30
:1029F000652050726F6772616D0A0000F0B506467F
:102A0000474885B00D46864202D04648864202D1EC
:102A1000FEF71AF801E0FEF727F829460290FDF7C5
:102A200025FD044601460298FDF720FD471B611C69
:102A30000298FDF71BFD281A874200D3641C012071
:102A40000004844205D310200425009080010190E9
:102A50003CE001218903012508466843A04203D2D6
:102A60006D1C042DF8D901E0042D00D90425294658
:102A70002046FDF7FBFC039000200027FF43009059
:102A80000624019021460398FDF7F0FC01218902FC
:102A9000884205D908460399A2028A1A511C07E008
:102AA0000146039A6143521A411C039B6143C91AB0
:102AB0008A4201D3401C00E01146B94203D20F0004
:102AC0000094019002D0641C102CDBD93068C0083F
:102AD000C0003060022030601348F0621020306186
:102AE000009901988A020121401E89020004511AAE
:102AF00008432902FF3901390843B060F06D012114
:102B0000C9070843F06529460298FDF7AFFC009914
:102B1000FDF7ACFC0199FDF7A9FC05B0F0BD000084
:102B200000000740004007400108000030B4744630
:102B3000641E2578641CAB4200D21D46635D5B00B9
:102B4000E31830BC184730380A2801D201207047FA
:102B500000207047074A0121516311635160064A02
:102B6000002802D00020906100E09161014880308F
:102B7000C16370470042005040430050F3B5002449
:102B800081B0054626460FE06000295CFD2914D07F
:102B9000FE290DD0FF2906D04119002302229820DA
:102BA0000096FEF78FFB641C02988442ECDBFEBDAE
:102BB00008490948FFF712FAF5E7471900967A78AD
:102BC000B91C00239820FEF77DFB7878401C400854
:102BD0000419E8E78813000000000140F3B5002461
:102BE00081B0054626460FE06000295CFD2914D01F
:102BF000FE290DD0FF2906D04119002302229A2078
:102C00000096FEF75FFB641C02988442ECDBFEBD7D
:102C100008490948FFF7E2F9F5E7471900967A787D
:102C2000B91C00239A20FEF74DFB7878401C400821
:102C30000419E8E7881300000000014010B500F017
:102C40005BF800F063F80DA0FDF7DCFA002000F05F
:102C50009FF8124C10492046FFF7C0F9012000F000
:102C600097F80F492046FFF7B9F900F01DF80D4815
:102C7000C07B00F0A1F800F053F810BD6472765FDD
:102C8000353832355F496E69742A2A2A2A2A2A2A57
:102C90002A2A2A2A0A00000050C30000000001402E
:102CA000204E00001C0A002010B50D480D4C807B02
:102CB00001280CD0022809D121460B48FFF75EFFFE
:102CC00000F02EF821460948FFF788FF10BD214685
:102CD0000748FFF753FF00F023F821460548F3E7C4
:102CE0001C0A0020610F0000E67200006AB00000BC
:102CF00024540000A891000010B5002204210248CD
:102D0000FEF765F910BD00004041005010B50121EB
:102D10000022C9020148FEF75AF910BDC040005018
:102D200038B503210C48FFF729FF00240A49234640
:102D30000422891D98200094FEF7C4FA0321064856
:102D4000FFF74CFF044900230422891D9A200094B8
:102D5000FEF7B8FA38BD00001654000010B5012285
:102D600091020348FEF733F9002000F003F810BD8C
:102D7000C04000500249002800D0012088627047FE
:102D8000C042005010B5012000F002F810BD000054
:102D900010B50446012211030548FEF718F905484D
:102DA000002C01D0012100E00021016310BD0000D2
:102DB000C0400050C0420050F8B5044610282BD83F
:102DC00003211648FFF7DAFEA00024181448002556
:102DD00021180E462B46052298200095FEF772FA20
:102DE0000F480023553021180C46052298200095E5
:102DF000FEF768FA03210948FFF7F0FE3146002389
:102E000005229A200095FEF75DFA2146002305224F
:102E10009A200095FEF756FAF8BD00001054000005
:102E20000A010020F8B50BA0FDF7ECF900240E4DC7
:102E30002646E000411900964A682958002394204C
:102E4000FEF7C0F9641CE4B2062CF2D3042000F0B3
:102E5000FFF9F8BD4164635F70636D313836325FEE
:102E6000496E69740A00000050410000F8B5074639
:102E70001B4CFF2015460E4620637D21C9001948D2
:102E8000FFF7ACF8552020637D21C9001548FFF7F6
:102E9000A5F8032020637D21C9001248FFF79EF8A2
:102EA000802020637D21C9000E48FFF797F8276333
:102EB0007D21C9000B48FFF791F826637D21C900E9
:102EC0000848FFF78BF825637D21C9000548FFF707
:102ED00085F8B819401983304042C0B22063F8BD6C
:102EE000000007400000014010B50122D1020A484D
:102EF000FEF76DF8094A0123D3620949002000BF9B
:102F0000401C8842FBDB0020D06200BF401C88428E
:102F1000FBDBD36210BD00000041005000430050B5
:102F2000204E0000014901204861704700420050D6
:102F3000014900204861704700420050084A084992
:102F40008032084B002801D0002000E001204863B7
:102F500008634860D06398618860C860704700006B
:102F6000004200504043005010B5042000F070F9BA
:102F700010BD10B5012000F06BF910BD10B5022096
:102F800000F066F910BD00000549012048630022E9
:102F90000A63486002498031C8630249886170470A
:102FA0000042005040430050074A01215163116321
:102FB000002802D00020506000E0516002488030BC
:102FC000C163024881617047004200504043005095
:102FD00010B511A0FDF716F9012251031548FDF7B0
:102FE000F6FF15490120486314491548FEF7F6FF1E
:102FF000144CA07B012802D0022803D007E012491C
:10300000124802E010491248683900F023F8E07BCA
:1030100000F07CF810BD00006472765F3332353109
:103020005F496E69742A2A2A2A2A2A2A2A2A2A2ADF
:103030000A000000C0400050C04200508813000049
:10304000000001401C0A0020D3040000864100005B
:103050002C4B0000F3B5002481B0054626460FE056
:103060006000295CFD2915D0FE290DD0FF2906D06E
:1030700041190023022294200096FEF723F9641CD4
:1030800002988442ECDBFEBD7D21C9000848FEF7B2
:10309000A5FFF4E7471900967A78B91C002394201D
:1030A000FEF710F97878401C40080419E7E70000A3
:1030B00000000140F8B5002000F028F8012251037B
:1030C0000D48FDF784FF0D4C012565630C4E0D4F37
:1030D00031463846FEF782FF0B493846FEF77EFF41
:1030E0000020606331463846FEF778FF06493846CF
:1030F000FEF774FF6563F8BDC0400050C042005049
:103100008813000000000140B80B000038B50446E9
:1031100003211048FFF79EFFA00024180E48002549
:1031200021182B46052294200095FEF7CBF80321A9
:103130000848FFF78FFF0848002355302118052263
:1031400094200095FEF7BEF807210448FFF782FFA0
:1031500038BD0000804100006000002002540000E3
:103160000349002801D0002000E00120886070475A
:103170000042005005490120486308634860034A43
:1031800000218032D16302498861704700420050BB
:103190004043005010B5074C002208212046FDF79F
:1031A00016FF002240212046FDF711FFFEF71EF911
:1031B00010BD00008040005070B51E4C01229103EC
:1031C0002046FDF704FF0122D50329462046FDF7DE
:1031D000FEFE012251032046FDF7F9FE01221103F4
:1031E0002046FDF7F4FE012202212046FDF7EFFE06
:1031F000012204212046FDF7EAFE0E48012229465D
:103200008030FDF7E4FE012240210B48FDF7DFFE90
:1032100009490120C0318860486308634860074A53
:10322000D063064AC03290618860C860886300201D
:10323000C86370BD004000504041005080420050C3
:1032400010B5002221210320FDF7DEFC10BD000097
:1032500038B50446014610A0FCF7D4FF40200443D3
:10326000124821464470851C6C7011A0FCF7CAFFFF
:10327000697816A0FCF7C6FF002423460222A91E87
:1032800094200094FDF79EFF0023022229469420FB
:103290000094FDF797FF38BD70636D5F6368616EE2
:1032A0006E656C203D2025780A0000005800002043
:1032B00070636D313836325F6368616E6E656C5F66
:1032C0004C5B315D203D2025780A000070636D3134
:1032D0003836325F6368616E6E656C5F525B315D7C
:1032E000203D2025780A000010B509200003FFF7D3
:1032F00005F8FEF76DFFFEF7CDFFFEF7B3FF10BD3B
:1033000010B5002250210320FDF77EFC10BD000007
:10331000074A0121002802D00020506300E05163D9
:103320001163516002488030C16302488161704777
:1033300000420050404300500020C043704700B599
:103340000346FEF7DFFD184600BD000088B00127E8
:1033500000203E463D460690FEF77AFDFEF7E2FD70
:10336000FDA0FCF74FFFFE4CFE48FEF7D7FA002801
:1033700025D0FF21F531FB48FFF77EF8A079002822
:1033800003D00120607100F0A5FCF748FEF7C6FAF3
:10339000002801D0FFF7CCFD60790E280FD1F3484B
:1033A000FEF7BCFA002829D0F149012008634863E0
:1033B00048600020FDF714FD0020FEF797FF207BFA
:1033C000002808D0002020730120FFF7C9FE6421E7
:1033D000E848FFF751F8E748FEF7A0FA002802D0C6
:1033E0000020FFF7BDFE01A8FDF76CFC00287DD092
:1033F0000198012814D0022878D13BE106980028D2
:1034000006D0DB490120086348634860002005E0DE
:10341000D749002008634863486001200690CEE742
:103420000498C2B20398C1B20298C0B2FFF71EFD61
:10343000D1A0039A0299FCF7E5FE029808280FD163
:1034400003980028D8D10146D9A0FCF7DBFE0398E9
:103450000022C1B20298C0B2FFF708FD0020A0719F
:10346000029809282AD103980128C5D1BC486B4687
:103470002038C08B0104090E5970C2B21A7020782E
:10348000012802D0C809C001587059780920FDF7F9
:10349000BBFBB3482038028B1004010E6846417014
:1034A000D2B202706078032803D0602001406846E1
:1034B0004170684641780920FDF7A6FB029807286D
:1034C00003D1C1A00399FCF79DFE0298042803D103
:1034D000C3A00399FCF796FE02980F2813D1039816
:1034E000192807D109206071C3A000E0C1E0039949
:1034F000FCF788FE0398172805D108206071BEA04C
:103500000399FCF77FFE02980D2805D10020FDF7F6
:1035100067FC0020FEF7EAFE0298062850D10398C7
:10352000062804D106216171B9A0FCF76BFE03984F
:10353000072804D107216171B5A0FCF763FE039849
:10354000022804D102216171B1A0FCF75BFE03984F
:10355000042805D101206071ADA00399FCF752FE4B
:103560000398052805D103206071A9A00399FCF7F1
:1035700049FE0398112805D105206071A4A0039984
:10358000FCF740FE0398122805D104206071A0A02A
:103590000399FCF737FE03980B2804D10B216171C6
:1035A0009BA0FCF72FFE0398092803D0082801D020
:1035B000162805D10C20607195A00399FCF722FE16
:1035C0000298112805D10498C1B20398C0B200F046
:1035D00027FD0298122805D10498C1B20398C0B201
:1035E00000F09AFC0298132805D10498C1B2039800
:1035F000C0B200F0BBFC0298142805D10498C1B2F7
:103600000398C0B200F0DEFC0298152805D104989A
:10361000C1B20398C0B200F02DFC0298162805D163
:103620000498C1B20398C0B200F0A2FB0298172818
:1036300005D10498C1B20398C0B200F0C1FB029852
:10364000182805D10498C1B20398C0B200F0E4FB79
:103650000298192801D100F039FC02981A2801D1EA
:1036600000F060FB0298202803D101220021FDF721
:10367000CBFA2DE10298032802D103985528F8D0FF
:103680000498C2B20398C1B20298C0B2FDF7BCFA66
:103690000298012807D103980028EAD12279E1781D
:1036A0000120FFF7E3FB0298032853D10398032876
:1036B0000DD1E07B00284DD0401EC0B2E073FDF775
:1036C000ABFB59A0FCF79EFD0298032842D103985A
:1036D00002280DD1E07B10283CD2401CC0B2E07320
:1036E000FDF79AFB56A0FCF78DFD0298032831D117
:1036F0000398152807D10120607158A0FCF782FDBE
:103700000298032826D10398162807D10620607155
:1037100057A0FCF777FD029803281BD103981728C0
:1037200007D10820607157A0FCF76CFD02980328B0
:1037300010D10398182807D10A20607151A0FCF716
:1037400061FD0298032805D10398C02803D1FFF733
:10375000CBFB9FE0BCE0A3E00A6D61696E0A00004C
:103760001C0A00202000002028000020300000203B
:1037700000420050380000204D53475F34475F53EC
:1037800059535F53544154455F494E443A6D7367F2
:103790002E706172616D30203D2025782C206D7374
:1037A000672E706172616D31203D202578200A00FE
:1037B000307830382C206D73672E706172616D31F6
:1037C000203D202578200A00307830372C206D737A
:1037D000672E706172616D31203D202578200A00CE
:1037E000307830342C206D73672E706172616D31CA
:1037F000203D202578200A00307830462C206D733B
:10380000672E706172616D31203D202578200A009D
:10381000307830362C206D73672E706172616D3197
:10382000203D202578200A0048616C5F4461705F6C
:103830004C6F61645F766F6C5F6164640A000000C6
:1038400048616C5F4461705F4C6F61645F766F6C60
:103850005F7265647563650A00000000466F7572EB
:10386000475F574946495F4348414E4E454C0A0021
:10387000466F7572475F42545F4348414E4E454C18
:103880000A000000415558494E5F4348414E4E459D
:103890004C0A000028A0FCF7B5FC0298032817D1B9
:1038A0000398C12805D127A0FCF7ACFC0298032897
:1038B0000ED10398C22805D124A0FCF7A3FC0298DE
:1038C000032805D10398C32802D123A0FCF79AFC52
:1038D00000F0D8F8FDF7B8FBFDF768FF0598000386
:1038E000000FB84207D10F2F02D27F1CFFB200E0B9
:1038F000002700F071F805984003000FB0420BD18B
:103900000F2E02D2761CF6B200E00026FFF7ECFC88
:1039100000F08AF900F05CF805980002000FA84258
:1039200005D10F2D02D26D1CEDB200E000250598E7
:10393000401C059018E50000666D20726573657483
:103940000A000000696E736964650A006F7574731C
:103950006964650A000000006175746F73696465CD
:103960000A00000000B50A4841790A480B00FFF739
:10397000DDF80B0D0909090909090907070B0D00F5
:10398000012102E0042100E00521016000BD0000EA
:103990001C0A00204802002010B5FFF7E3FF0B4C83
:1039A00003CC083C814210D00300FFF7BFF8060C9F
:1039B000040707070A0CFFF7DCFA04E0FFF7D4FA64
:1039C00001E0FFF7DBFA2068606010BD48020020CC
:1039D00010B5FFF7E1FF10BDF8B51F48E722C17829
:1039E000837800251D4C0A40042B01D0A56321E0FB
:1039F0001A4E03780127C03E072B02D0062B07D0B2
:103A000019E0A7633762F762EF22114008220BE04A
:103A100043780A2B02D0092B09D00CE0A76335624A
:103A2000F562F722114010221143C17003E0A56333
:103A30003562F762C270C1780948074A0378127983
:103A4000994202D143789A4204D001704270012019
:103A5000FFF70CFAF8BD00001C0A0020C04200501D
:103A60004002002010B500231A46C1210220FDF7B4
:103A700075F910BD10B500231A46C2210220FDF7CA
:103A80006DF910BD10B5FDF7B7FA01222749030003
:103A9000FFF74CF80E100814181C2420282C3010A6
:103AA000343C47100A7348790E2804D0FDF786FF8E
:103AB000FEF738FA10BDFEF7FBF910BD0A7300F0EF
:103AC00037F810BD0A7300F0A7F810BD0A7300F0B4
:103AD0009BF810BD0A7300F06FF810BD0A7300F078
:103AE00083F810BD0A7300F077F810BD0A7300F078
:103AF00083F810BD0A7300F067F810BD0A73887B65
:103B00000128FAD08A73FFF7ADFF07E00A73887BBC
:103B10000228F2D002208873FFF7ACFFFDF7C4F94A
:103B200010BD0A7300F040F810BD00001C0A002010
:103B300010B51C4C60790300FEF7F8FF0B25101040
:103B40001010101919070719250000231622032148
:103B50000220FDF703F90022102110E000231722B4
:103B600003210220FDF7FAF80022122107E00023CA
:103B7000152203210220FDF7F1F800221121702007
:103B8000FFF774F910BD0023172203210220FDF76F
:103B9000E5F8002212217020FFF768F90820607113
:103BA00010BD00001C0A002010B5002321220321B3
:103BB0000220FDF7D3F810BD10B500230D2203211C
:103BC0000220FDF7CBF810BD10B5002331220321F0
:103BD0000220FDF7C3F810BD10B5002356220321C3
:103BE0000220FDF7BBF810BD10B500230E22032103
:103BF0000220FDF7B3F810BD10B5002332220321D7
:103C00000220FDF7ABF810BD10B5032200231146CA
:103C10000220FDF7A3F810BD10B5022200230321F6
:103C20001046FDF79BF810BD10B5034880790028B9
:103C300001D100F003F810BD1C0A002010B5234884
:103C4000002340790122224902280DD005280BD0FB
:103C5000072809D0082807D00A2805D00A704C7810
:103C6000002C06D04B7005E00B704A70022819D06A
:103C700000E04A70012815D0032813D0042815D07D
:103C8000052813D0062815D0072813D0082815D0EA
:103C9000092813D00A2815D00D2802D10020FFF7DB
:103CA0004DF910BD4878FFF733FB10BD4878FEF79B
:103CB00051FF10BD4878FFF777F910BD0120FFF7DD
:103CC00063F910BD0120FFF755FA10BD1C0A002052
:103CD0004202002010B512498878052801D2401C04
:103CE00000E001208870C0B20300FEF71FFF060746
:103CF00004080C1014070120FFF70AFB10BD012077
:103D0000FEF728FF10BD0120FFF74EF910BD01207E
:103D1000FFF73AF910BD0120FFF72CFA10BD0000A3
:103D20004202002000B589B06846FDF765FE0198A3
:103D30007D21C2B200980901401AC1B21520FCF7DA
:103D400063FF0398C2B20298C1B21620FCF75CFF71
:103D50000598C2B20498C1B21720FCF755FF079826
:103D6000C2B20698C1B21820FCF74EFF09B000BDE0
:103D700070B58CB0044603A8FDF73EFE049E039D7B
:103D80000097019723463246294605A00297FCF783
:103D900039FA224631462846FDF72EFF0CB070BD99
:103DA0000925642F253032642F25303264202530D8
:103DB00032643A253032643A253032640A00000019
:103DC000F0B591B004460D4603A8FDF715FE0B981B
:103DD0000C900A9F099E684670C00DA90EC906A0E6
:103DE000FCF710FA0C9800903B46324629462046D4
:103DF000FDF726FF11B0F0BD0925642F2530326490
:103E00002F2530326420253032643A253032643A2E
:103E1000253032640A000000F0B591B004460F4628
:103E200003A8FDF7E9FDF807079DC00F0294089E5F
:103E30000C90019600950DA90EC97F0805A0FCF70E
:103E4000E1F922463146284600970C9BFDF7F8FE23
:103E500011B0F0BD0925642F253032642F25303292
:103E60006420253032643A253032643A2530326499
:103E70000A00000070B58CB005460C4603A8FDF79B
:103E8000BBFD7D2000012D18059E0097019733464C
:103E90002946224605A00297FCF7B4F93246284687
:103EA0002146FDF7A9FE0CB070BD00000925642F66
:103EB000253032642F2530326420253032643A2593
:103EC0003032643A253032640A00000000B589B00F
:103ED0006846FDF70FFE01987D21C2B200980901E6
:103EE000401AC1B21120FCF78FFE0398C2B20298AB
:103EF000C1B21220FCF788FE0598C2B20498C1B284
:103F00001320FCF781FE0798C2B20698C1B21420B4
:103F1000FCF77AFE09B000BDF0B58FB004460F463D
:103F200005A8FDF7E7FD03A866C800920191324697
:103F30002946234605A0FCF765F93B462246314653
:103F40002846FDF7ADFE0FB0F0BD00000925642F37
:103F5000253032642F2530326420253032643A25F2
:103F60003032643A253032640A000000F0B591B076
:103F700004460D4603A8FDF7BDFD0B980C900A9F63
:103F8000099E684670C00DA90EC906A0FCF73AF953
:103F90000C9800903B46324629462046FDF7A8FE85
:103FA00011B0F0BD0925642F253032642F25303241
:103FB0006420253032643A253032643A2530326448
:103FC0000A000000F0B591B004460F4603A8FDF7C3
:103FD00091FDF807079DC00F0294089E0C90019672
:103FE00000950DA90EC97F0805A0FCF70BF9224624
:103FF0003146284600970C9BFDF77AFE11B0F0BDC4
:104000000925642F253032642F2530326420253075
:1040100032643A253032643A253032640A000000B6
:10402000F0B58DB005460C4603A8FDF763FD7D2075
:1040300000012D1802990198069F059E019102909A
:1040400029463346224605A0FCF7DCF83B463246BB
:1040500028462146FDF724FE0DB0F0BD0925642F4A
:10406000253032642F2530326420253032643A25E1
:104070003032643A253032640A00000010B504463C
:10408000016810A0FCF7BEF811A06168FCF7BAF84F
:1040900012A0A168FCF7B6F813A0E168FCF7B2F82B
:1040A00014A02169FCF7AEF815A06169FCF7AAF825
:1040B00016A0A169FCF7A6F817A0E169FCF7A2F821
:1040C00010BD0000723020203D20307825780A0095
:1040D000723120203D20307825780A00723220206D
:1040E0003D20307825780A00723320203D2030783A
:1040F00025780A00723132203D20307825780A0078
:104100006C7220203D20307825780A0070632020D2
:104110003D20307825780A00707372203D20307879
:1041200025780A00001BB7000080000000E048046A
:1041300010270000006CDC020000000000000000FE
:104140000080510101000200030004002010260736
:10415000444100000200000046410000020000004F
:1041600048410000020000004A4100000200000037
:104170004C410000020000004E410000020000001F
:1041800000007F8C001E00007F0002110111000062
:1041900000000000000003112A0025180D10020085
:1041A00000007F00028000007F00220300007F00EB
:1041B000020000007F8C001EFD051C0000000000B6
:1041C000FD05280000000000FD053400000000008F
:1041D000FD05400000000000001FFD05240020C474
:1041E0009C00FD05307FFFFFFF0000007F8C001C5E
:1041F000FD0B6C7FFFFFFF00000000000000FD0BC7
:1042000076000000000000000000000000007F8C2D
:10421000001DFD0B087FFFFFFF00000000000000F5
:10422000FD0B120000000000000000000000000074
:104230007F8C001EFD0510000000000000007F8C38
:104240000023FD0514000000010000007F8C001118
:10425000FD0B587FFFFFFF00000000000000FD0B7A
:1042600062000000000000000000000000007F8CE1
:104270000012FD0B44FF845916FF845916FF840079
:10428000FD0B4E591670462B3B9D850DE20000003C
:104290007F8C0013FD0B3001BB7CF401BB7CF4016F
:1042A000BB00FD0B3A7CF46237C54FB4A28192008B
:1042B00000007F8C0013FD0B584F9DF935B062064E
:1042C000CB4F9D00FD0B62F93549E69D16D555553E
:1042D000560000007F8C0014FD0B087CB6A4BC8344
:1042E000495B447CB600FD0B12A4BC7CB12C1E863D
:1042F00087C5490000007F8C0014FD0B1C05B75CCE
:104300001F05B75C1F05B700FD0B265C1F49E69D26
:1043100016D55555560000007F8C0014FD0B587FB4
:10432000FFFFFF00000000000000FD0B6200000026
:10433000000000000000000000007F8C0014FD0B56
:104340006C7FFFFFFF00000000000000FD0B760007
:104350000000000000000000000000007F8C00153D
:10436000FD0B087FFFFFFF00000000000000FD0BB9
:1043700012000000000000000000000000007F8C20
:104380000015FD0B1C7FFFFFFF0000000000000078
:10439000FD0B2600000000000000000000000000EF
:1043A0007F8C0015FD0B307FFFFFFF000000000039
:1043B0000000FD0B3A0000000000000000000000BB
:1043C00000007F8C0015FD0B447FFFFFFF00000005
:1043D00000000000FD0B4E00000000000000000087
:1043E000000000007F8C0015FD0B587FFFFFFF8051
:1043F000A59DA27EB700FD0B6220FA7FA22510804A
:10440000B9584D0000007F8C0015FD0B6C7F9604A1
:10441000378069FBC97F9600FD0B7604377F95D8FE
:104420005780D39FD00000007F8C0016FD0B087FC3
:104430009604378069FBC97F9600FD0B1204377F15
:1044400095D85780D39FD00000007F8C0016FD0BBD
:104450001C7F77CC69808833977F7700FD0B26CC53
:10446000697F7783F2810FD6400000007F8C0016B1
:10447000FD0B307F77CC69808833977F7700FD0B09
:104480003ACC697F7783F2810FD6400000007F8CA1
:104490000016FD0B440021875F0021875F0021008B
:1044A000FD0B4E875F7A1481B28B50DF1E00000037
:1044B0007F8C0016FD0B580021875F0021875F006D
:1044C0002100FD0B62875F7A1481B28B50DF1E00E2
:1044D00000007F8C0016FD0B6C78572CEC8B3C8316
:1044E000E5733300FD0B76A8B374C37C1B94752A67
:1044F0005F0000007F8C0017FD0B087F327C9D82DF
:1045000037EB837C7300FD0B12BFCB7DC8147D8419
:1045100059C3970000007F8C0017FD0B1C7FFFFF25
:10452000FF00000000000000FD0B2600000000005E
:1045300000000000000000007F8C0017FD0B307FA2
:10454000FFFFFF00000000000000FD0B3A0000002C
:10455000000000000000000000007F8C0017FD0B31
:10456000447FFFFFFF00000000000000FD0B4E0035
:104570000000000000000000000000007F8C001719
:10458000FD0B587FFFFFFF00000000000000FD0B47
:1045900062000000000000000000000000007F8CAE
:1045A0000017FD0B6C7FFFFFFF0000000000000004
:1045B000FD0B76000000000000000000000000007D
:1045C0007F8C0018FD0B080804820000000000002A
:1045D0000000FD0B120000000000000000000000C1
:1045E00000007F8C0018FD0B1C7FFFFFFF00000008
:1045F00000000000FD0B260000000000000000008D
:10460000000000007F8C0018FD0B307FFFFFFF00D3
:10461000000000000000FD0B3A0000000000000058
:104620000000000000007F8C0018FD0B447FFFFF9E
:10463000FF00000000000000FD0B4E000000000025
:1046400000000000000000007F8C0018FD0B587F68
:10465000FFFFFF00000000000000FD0B62000000F3
:10466000000000000000000000007F8C0018FD0B1F
:104670006C7FFFFFFF00000000000000FD0B7600D4
:104680000000000000000000000000007F8C001906
:10469000FD0B087FFFFFFF00000000000000FD0B86
:1046A00012000000000000000000000000007F8CED
:1046B0000019FD0B1C7FFFFFFF0000000000000041
:1046C000FD0B2600000000000000000000000000BC
:1046D0007F8C0019FD0B307FFFFFFF000000000002
:1046E0000000FD0B3A000000000000000000000088
:1046F00000007F8C0019FD0B447FFFFFFF000000CE
:1047000000000000FD0B4E00000000000000000053
:10471000000000007F8C0019FD0B587FFFFFFF0099
:10472000000000000000FD0B62000000000000001F
:104730000000000000007F8C0019FD0B6C7FFFFF64
:10474000FF00000000000000FD0B760000000000EC
:1047500000000000000000007F8C001AFD0B087FA5
:10476000FFFFFF00000000000000FD0B1200000032
:10477000000000000000000000007F8C001AFD0B0C
:104780001C7FFFFFFF00000000000000FD0B260063
:104790000000000000000000000000007F8C001AF4
:1047A000FD0B307FFFFFFF00000000000000FD0B4D
:1047B0003A000000000000000000000000007F8CB4
:1047C000001AFD0B4408000000000000000000007B
:1047D000FD0B4E0000000000000000000000000083
:1047E0007F8C001AFD055800E2C46B0000007F8C2E
:1047F000001AFD0B6C00221D9500443213000D00C1
:10480000FD0B76A6860000000000000000000000FE
:104810007F8C001BFD0B08FF8147AEF9DABC21FD40
:104820004200FD0B1268A70000000000000000001D
:1048300000007F8C001BFD0B1C0006D3720002BB26
:1048400006000300FD0B2669C50000000000000003
:104850000000FD0B3000000000F9DABC21FC58001C
:10486000FD0B3A8B890000000000000000000000F2
:104870007F8C001BFD0B440006D3720002BB0600B8
:104880000300FD0B4E69C5000000000000000000A1
:10489000FD0B5800000000F9DABC21FC5800FD0BAC
:1048A000628B8900000000000000000000007F8C87
:1048B000001DFD051C0006D3720000007F8C001D4A
:1048C000FD05201C1BF0410000007F8C001DFD0534
:1048D00024040C37140000007F8C001DFD052C0003
:1048E0008000000000007F8C001DFD0534400000AA
:1048F000000000007F8C001DFD0538400000000016
:1049000000007F8C001DFD054000800000000000BD
:104910007F8C001DFD0544000000000000007F8C1E
:10492000001DFD0548000000000000007F8C001DF8
:10493000FD0558000000010000007F8C001DFD05F2
:104940005C004026E70000007F8C001DFD05600034
:104950004026E70000007F8C001DFD05640000007C
:10496000000000007F8C001DFD05680000000000B5
:1049700000007F8C001DFD05740000000000000099
:104980007F8C001DFD0578000000000000007F8C7A
:10499000001DFD057C008000000000007F8C001ED3
:1049A000FD0508008000000000007F8C001EFD0552
:1049B0000C000000000000007F8C001EFD051400AC
:1049C0008000000000007F8C001EFD051800000024
:1049D000000000007F8C001EFD051C000000000090
:1049E00000007F8C001EFD0520000000000000007C
:1049F0007F8C001EFD0524000000000000007F8C5D
:104A0000001EFD0528000000000000007F8C001E35
:104A1000FD052C008000000000007F8C001EFD05BD
:104A200030000000000000007F8C001EFD053400F7
:104A30000000000000007F8C001EFD053800000013
:104A4000000000007F8C001EFD053C0000000000FF
:104A500000007F8C001EFD054000000000000000EB
:104A60007F8C001EFD0544028185080000007F8CBC
:104A7000001EFD0548028185080000007F8C001E95
:104A8000FD0550400000000000007F8C001EFD0569
:104A900054040000000000007F8C001EFD05580437
:104AA0000000000000007F8C001FFD051400CEC038
:104AB0008A0000007F8C001FFD05180A0AAED20094
:104AC00000007F8C001FFD051C000369D000000062
:104AD0007F8C001FFD0520400000000000007F8C3F
:104AE000001FFD052875F5512E0000007F8C001F6A
:104AF000FD052C000057620000007F8C0023FD059F
:104B000014000000010000007F00000007000820E2
:104B1000550700007F0000003D303E3000007F0060
:104B20000001020000007F0003002A1100007F0046
:104B300002110111000000000000000003112A0012
:104B400025180D10020000007F00028000007F0089
:104B5000220300007F00020000007F8C001EFD0584
:104B60001C0000000000FD05280000000000FD05FD
:104B7000340000000000FD05400000000000001FA0
:104B8000FD05240020C49C00FD05307FFFFFFF00D1
:104B900000007F8C001CFD156C7FFFFFFF000000F4
:104BA0000000000000000000000000000000000005
:104BB0007F8C001DFD15087FFFFFFF000000000037
:104BC00000000000000000000000000000007F8CDA
:104BD000001EFD0510000000000000007F8C002377
:104BE000FD0514000000010000007F8C0011FD1580
:104BF000587FFFFFFF0000000000000000000000E1
:104C000000000000000000007F8C0012FD1544FF32
:104C1000845916FF845916FF84591670462B3B9D04
:104C2000850DE20000007F8C0013FD153001BB7C78
:104C3000F401BB7CF401BB7CF46237C54FB4A281A4
:104C4000920000007F8C0013FD15584F9DF935B080
:104C50006206CB4F9DF93549E69D16D55555560050
:104C600000007F8C0014FD15087CB6A4BC83495B52
:104C7000447CB6A4BC7CB12C1E8687C549000000CC
:104C80007F8C0014FD151C05B75C1F05B75C1F0564
:104C9000B75C1F49E69D16D55555560000007F8C20
:104CA0000014FD15587FFFFFFF000000000000000A
:104CB0000000000000000000000000007F8C0014D5
:104CC000FD156C7FFFFFFF000000000000000000EA
:104CD000000000000000000000007F8C0015FD15A2
:104CE000087FFFFFFF000000000000000000000040
:104CF00000000000000000007F8C0015FD151C7FE7
:104D0000FFFFFF00000000000000000000000000A6
:104D10000000000000007F8C0015FD15307FFFFFB4
:104D2000FF00000000000000000000000000000084
:104D3000000000007F8C0015FD15447FFFFFFF0081
:104D40000000000000000000000000000000000063
:104D500000007F8C0015FD15587FFFFFFF0000004D
:104D60000000000000000000000000000000000043
:104D70007F8C0015FD156C7FFFFFFF000000000019
:104D800000000000000000000000000000007F8C18
:104D90000016FD15087FFFFFFF0000000000000067
:104DA0000000000000000000000000007F8C0016E2
:104DB000FD151C7FFFFFFF00000000000000000049
:104DC000000000000000000000007F8C0016FD15B0
:104DD000307FFFFFFF000000000000000000000027
:104DE00000000000000000007F8C0016FD15447FCD
:104DF000FFFFFF00000000000000000000000000B6
:104E00000000000000007F8C0016FD15587FFFFF9A
:104E1000FF00000000000000000000000000000093
:104E2000000000007F8C0016FD156C7FFFFFFF0067
:104E30000000000000000000000000000000000072
:104E400000007F8C0017FD15087FFFFFFF000000AA
:104E50000000000000000000000000000000000052
:104E60007F8C0017FD151C7FFFFFFF000000000076
:104E700000000000000000000000000000007F8C27
:104E80000017FD15307FFFFFFF000000000000004D
:104E90000000000000000000000000007F8C0017F0
:104EA000FD15447FFFFFFF00000000000000000030
:104EB000000000000000000000007F8C0017FD15BE
:104EC000587FFFFFFF00000000000000000000000E
:104ED00000000000000000007F8C0017FD156C7FB3
:104EE000FFFFFF00000000000000000000000000C5
:104EF0000000000000007F8C0018FD15080800006D
:104F000000000000000000000000000000000000A1
:104F1000000000007F8C0018FD151C7FFFFFFF00C4
:104F20000000000000000000000000000000000081
:104F300000007F8C0018FD15307FFFFFFF00000090
:104F40000000000000000000000000000000000061
:104F50007F8C0018FD15447FFFFFFF00000000005C
:104F600000000000000000000000000000007F8C36
:104F70000018FD15587FFFFFFF0000000000000033
:104F80000000000000000000000000007F8C0018FE
:104F9000FD156C7FFFFFFF00000000000000000017
:104FA000000000000000000000007F8C0019FD15CB
:104FB000087FFFFFFF00000000000000000000006D
:104FC00000000000000000007F8C0019FD151C7F10
:104FD000FFFFFF00000000000000000000000000D4
:104FE0000000000000007F8C0019FD15307FFFFFDE
:104FF000FF000000000000000000000000000000B2
:10500000000000007F8C0019FD15447FFFFFFF00AA
:105010000000000000000000000000000000000090
:1050200000007F8C0019FD15587FFFFFFF00000076
:105030000000000000000000000000000000000070
:105040007F8C0019FD156C7FFFFFFF000000000042
:1050500000000000000000000000000000007F8C45
:10506000001AFD15087FFFFFFF0000000000000090
:105070000000000000000000000000007F8C001A0B
:10508000FD151C7FFFFFFF00000000000000000076
:10509000000000000000000000007F8C001AFD15D9
:1050A000307FFFFFFF000000000000000000000054
:1050B00000000000000000007F8C001AFD1544086D
:1050C00000000000000000000000000000000000E0
:1050D0000000000000007F8C001AFD055800E2C4AB
:1050E0006B0000007F8C001AFD156C00221D9500DE
:1050F000443213000DA686000000000000000000EE
:1051000000007F8C001BFD1508FF8147AEF9DABC5B
:1051100021FD4268A7000000000000000000000020
:105120007F8C001BFD291C0006D3720002BB060009
:105130000369C5000000000000000000000000F945
:10514000DABC21FC588B8900000000000000000040
:1051500000007F8C001BFD29440006D3720002BBB7
:1051600006000369C5000000000000000000000008
:1051700000F9DABC21FC588B890000000000000017
:10518000000000007F8C001DFD051C0006D372008E
:1051900000007F8C001DFD05201C1BF0410000005D
:1051A0007F8C001DFD0524040C37140000007F8C4B
:1051B000001DFD052C008000000000007F8C001DFC
:1051C000FD0534400000000000007F8C001DFD053F
:1051D00038400000000000007F8C001DFD054000ED
:1051E0008000000000007F8C001DFD0544000000D1
:1051F000000000007F8C001DFD054800000000003D
:1052000000007F8C001DFD0558000000010000001B
:105210007F8C001DFD055C004026E70000007F8CB0
:10522000001DFD0560004026E70000007F8C001D8A
:10523000FD0564000000000000007F8C001DFD05DE
:1052400068000000000000007F8C001DFD05740058
:105250000000000000007F8C001DFD0578000000AC
:10526000000000007F8C001DFD057C008000000018
:1052700000007F8C001EFD0508008000000000007B
:105280007F8C001EFD050C000000000000007F8CDC
:10529000001EFD0514008000000000007F8C001E31
:1052A000FD0518000000000000007F8C001EFD05B9
:1052B0001C000000000000007F8C001EFD05200087
:1052C0000000000000007F8C001EFD05240000008F
:1052D000000000007F8C001EFD052800000000007B
:1052E00000007F8C001EFD052C00800000000000E7
:1052F0007F8C001EFD0530000000000000007F8C48
:10530000001EFD0534000000000000007F8C001E20
:10531000FD0538000000000000007F8C001EFD0528
:105320003C000000000000007F8C001EFD054000D6
:105330000000000000007F8C001EFD0544028185F6
:10534000080000007F8C001EFD05480281850800D2
:1053500000007F8C001EFD05504000000000000092
:105360007F8C001EFD0554040000000000007F8CAF
:10537000001EFD0558040000000000007F8C001F87
:10538000FD051400CEC08A0000007F8C001FFD05C3
:10539000180A0AAED20000007F8C001FFD051C0019
:1053A0000369D00000007F8C001FFD052040000035
:1053B000000000007F8C001FFD052875F5512E00B0
:1053C00000007F8C001FFD052C00005762000000CC
:1053D0007F8C0023FD0514000000010000007F0009
:1053E000000007000820550700007F0000003D3046
:1053F0003E3000007F000001020000007F0003003B
:105400002A1100007F8C00231400150016001701DC
:1054100000007F8C000B00007F0000006005610B26
:105420006308640200007F00030201110000000015
:105430000000000000007F000302FE0500000000E5
:105440000000000000007F000312000000000000C8
:10545000000000007F00480C00007F640001FD791F
:105460000800FE004000FC000000FC000000FC0002
:105470000000FC000000FC000000FC000000FC003C
:105480000000FC500000FC000000FC000000FC00DC
:105490000000FC000000FC000000FC000000FC001C
:1054A0000000FC000000FC000000FC000000FC000C
:1054B0000000FC000000FC000000FC000000FC00FC
:1054C000000082009300FC000084C902BC84C10279
:1054D000BD8F00FFEE08FC3810000002FD79088443
:1054E00002040684C303DB024002C3024803DD005A
:1054F000FF109A00FC0000E41012CD024002BD88AB
:105500006013DC025802BC02D3001084C902BC1034
:10551000001A030270000484C902BD0C201849025D
:1055200060000184C102BC845103DE08FC0C9802B7
:1055300078000384C240E002680002845903ED0849
:10554000FC2C99022800030211FFFC024802BCE077
:105550001012CEF01C52CF000003FD7908F01C524F
:10556000D0F01C52D1F01F52D286A102D3802780E6
:10557000EA84830445E0000000848260E0845303F1
:10558000DE845103F5F01C72D4F01C72D584CA403D
:10559000E0F01C72D6F01F72D786A102CE80278061
:1055A000EB84830445E0102000845B03ED84590301
:1055B000FDF01C52CFF01C52D0F01C52D1F01F5203
:1055C000D286A102D3802780EA84830446E00000CB
:1055D00000848260E0000004FD7908845303F584B0
:1055E0005103EEF01C72D4F01C72D5F01C72D6F090
:1055F0001F72D786A102D8802780EB845B03FD84CD
:105600005903DF84830446E257800084C902BD84C5
:105610008260E0F01C72D9F01C72DAF01C72DBF0D0
:105620001F72DC86A102DD802780EB84830447E0C3
:10563000000000848240E0845B03DF845903F6F0BD
:105640001C52DEF01C52DF84CA60E0F01C52E0F015
:105650001F52E1000005FD790886A102D88027804D
:10566000EA84830447E0102000845303EE8451034E
:10567000FEF01C72D9F01C72DAF01C72DBF01F72A3
:10568000DC86A102DD802780EB84830448E00000F3
:1056900000848240E0845B03F6845903EFF01C52DF
:1056A000DEF01C52DFF01C52E0F01F52E186A10236
:1056B000E2802780EA845303FE845103E784830455
:1056C00048E257800084C902BD848240E0F01C5249
:1056D000E3000006FD7908F01C52E4F01C52E5F0EE
:1056E0001F52E686A102E7802780EA84830449E00E
:1056F000000000848260E0845303E7845103F7F0E4
:105700001C72E8F01C72E984CA40E0F01C72EAF0F6
:105710001F72EB86A102E2802780EB84830449E0BC
:10572000102000845B03EFF01C52E3F01C52E4F005
:105730001C52E5F01F52E686A102E7802780EA842A
:105740005303F7845103FF8483044AE00000000000
:105750000007FD7908848240E0F01C52E8F01C52FA
:10576000E9F01C52EAF01F52EB86A102EC80278080
:10577000EA8483044A845303FF6688C000EE80C035
:105780000002CB00106288A000EA80A00002D300D3
:1057900010884700800907082108FC08530D0010F5
:1057A0003884CB04060860085184800200E40000BD
:1057B0008186C902EE884720800D0010088482048B
:1057C0000700FC0000004220D784DB04050000082D
:1057D000FD790808FC183186A102EDE410200000D4
:1057E000FE20D8886C00000280000084A10449E4F7
:1057F00000000084A1044A84C90447E0000000ECD2
:105800000000818847008284A1044810001A01E842
:1058100000000002D30014880700810C2008480211
:10582000700006844903478459034FE25791B4023C
:10583000780005848220E010001A0302280002028A
:105840005002BCF01C31B5F01C31B6000009FD79E6
:1058500008F01C31B7F01F31B8E40011BB8027807D
:10586000E1F40011B9F41D31BAF41C31BCF41F315C
:10587000BD86A101B4806780E902CB001084830358
:1058800077E010000008000A21844B0347F01C71E8
:10589000B5F01C71B6F01C71B7F01F71B8E40011BF
:1058A000BB802780E3F40011B9F41D71BAF41C71B8
:1058B000BCF41F71BD86A101DC806780EB02C300D0
:1058C0001084C3037F08000A0000000AFD790884E1
:1058D0005B034FE4100000E0102000EA6D8000023E
:1058E000CB0010EE6DA00002C300108847008209B3
:1058F00007091008FC48330D00101884C3036D0815
:1059000060483084DB036C86D101E284800407E4C4
:1059100000008086C101E34D4722008048008108D5
:10592000FC3C130D00103084A2040884DA04020049
:1059300062212E86D901E50D00102086C101E18685
:10594000C901E00844061100000BFD790800FE21A2
:105950003202A3001908FC3C5184CA040286D90112
:10596000E486A101DFE48040008840008108FC2833
:10597000710228000102830019E400020088C800B7
:105980008084C9036E86D901DE86D101DD0D001049
:10599000080844667284A204098459036A8449038E
:1059A0006B00FC0000E4100082EC1020008847002F
:1059B0008008FC0830E25791BE84C902BD84C3034D
:1059C0006E848260E000000CFD7908F01C71BFF06D
:1059D0001C71C0F01C71C1F01F71C2E40011C580C0
:1059E0002780E3F40011C3F41D71C4F41C71C6F4E4
:1059F0001F71C786C301B284CA20E086A101BE80A0
:105A00006780EB02C300108483038FE0102000F056
:105A10001C31BFF01C31C0F01C31C1F01F31C2E499
:105A20000011C5802780E1F40011C3F41D31C4F4D6
:105A30001C31C6F41F31C708000A01806780E902E3
:105A4000C3001000000DFD790884C3039F08000AFD
:105A500000E41031F0E0100000EA73800002CB0097
:105A600010EE73600002D300108807008009470819
:105A70002108FC08530D00103884CB039C086008F3
:105A80005184800407E400008184A004084D47206D
:105A9000008048008186D101F686C101F784DB03CE
:105AA0009B0D00103008FC3C13845B036A844B039D
:105AB0006B84DA04030062218B86D901F90D001092
:105AC0002000000EFD790886C101F586C901F408A1
:105AD00044061100FE218F02A3001908FC3C5184EA
