:020000040000FA
:10000000800E0020DD010000E501000089010000F4
:1000100000000000000000000000000000000000E0
:10002000000000000000000000000000E9010000E6
:100030000000000000000000EB010000ED010000E6
:10004000EF010000EF010000EF010000EF010000F0
:10005000EF01000029140000EF010000EF01000093
:10006000EF01000089370000EF010000EF01000000
:10007000F938000029390000EF010000EF0100000D
:10008000EF010000EF010000011A00007D1B0000DD
:10009000EF010000EF010000013C0000EF01000053
:1000A000EF010000EF010000EF010000EF01000090
:1000B000EF010000B9080000EF010000E52B00008F
:1000C00000F002F800F050F80CA030C808382418EE
:1000D0002D18A246671EAB4654465D46AC4201D180
:1000E00000F042F87E460F3E0FCCB6460126334262
:1000F00000D0FB1AA246AB4633431847E0E30000AA
:1001000000E40000103A02D378C878C1FAD8520748
:1001100001D330C830C101D504680C6070470000BD
:100120000023002400250026103A01D378C1FBD813
:10013000520700D330C100D50B60704710B5642959
:1001400002D100F09DF810BD782902D100F0CEF860
:1001500010BD732902D100F0ACFA10BD002010BD13
:100160001FB51FBD10B510BD00F0E8FA1146FFF72E
:10017000F7FF04F0B3FE00F000FB03B4FFF7F2FF5B
:1001800003BC00F007FB000004207146084202D0C7
:10019000EFF3098001E0EFF308807146004A104751
:1001A000C119000070B505460C46164602E00FCC9A
:1001B0000FC5103E102EFAD2082E02D303CC03C571
:1001C000083E042E07D301CC01C5361F03E0217879
:1001D0002970641C6D1C761EF9D270BD07488047DB
:1001E00007480047FEE7FEE7FEE7FEE7FEE7FEE71B
:1001F00004480549034A054B70470000F5350000E7
:10020000C1000000800A0020800E0020800A00202B
:100210000FB4054910B503AA029800F04FFA10BCBC
:1002200008BC04B0184700000004002070B50C465C
:100230000546012A05D02878800600D5EA69002302
:1002400002E0012305E05B1C934202D2E05C00283F
:10025000F9D1A869E618C01AA861286AC0182862EE
:100260002846C046C04604E06A682078A968641C35
:100270009047B442F8D32846C046C04670BD00003F
:10028000F7B5002575291068009914A611D0C0464D
:10029000C046002802DA404211A608E00099096829
:1002A0008A0701D50FA602E0490704D50EA601254D
:1002B00001E0C046C046009F0024243704E000F05F
:1002C00011FA30313955641C0028F8D12B463246DA
:1002D0002146009800F082F9FEBD000000000000F9
:1002E0002D0000002B0000002000000070B5044627
:1002F0000D4621461068C046C0462188090502D532
:100300000F4A7A4402E00E4A7A440E322346002114
:10031000243305E006070009360F965D5E54491C3C
:100320000028F7D120780023000705D5702D03D0D1
:10033000002901D002231132204600F04FF970BD90
:100340009AE10000F3B50446002081B02062204607
:10035000E168884700287DD0252802D06268A1681E
:1003600083E0454F00257F442046E16888472028E8
:10037000064608DB312E06D2B8192038007800284E
:1003800001D00543F0E7A80701D5042085430020EC
:10039000E0610746A0612A2E0AD0304603F01BFE1A
:1003A000002827D0B8000019303E0090866119E07F
:1003B0000298BA00121902C8916102902046E168C1
:1003C0008847012F064617D1E06900281FDA202050
:1003D00085431CE000980A218069484300998019F0
:1003E000303888612046E1688847064603F0F3FD0F
:1003F0000028EFD1012F0AD02E2E08D12046E16827
:1004000088470646202005437F1C022FC3DBA069D6
:10041000002803DA4042A06101200543E80701D02B
:1004200010208543002E24D030464138192803D8A7
:100430000120C00205432036204625603146029A3D
:100440001546FFF77BFE00280CD0012807D0ED1DD4
:10045000E80800E00DE0C0000830029077E72D1DAD
:10046000029574E762683046A1689047206A401C94
:100470006CE7206AFEBD00005EE100000022030977
:100480008B422CD3030A8B4211D300239C464EE0AF
:1004900003460B433CD4002243088B4231D303096B
:1004A0008B421CD3030A8B4201D394463FE0C3091D
:1004B0008B4201D3CB01C01A524183098B4201D335
:1004C0008B01C01A524143098B4201D34B01C01A20
:1004D000524103098B4201D30B01C01A5241C30898
:1004E0008B4201D3CB00C01A524183088B4201D307
:1004F0008B00C01A524143088B4201D34B00C01AF3
:100500005241411A00D201465241104670475DE007
:10051000CA0F00D04942031000D34042534000228A
:100520009C4603098B422DD3030A8B4212D3FC2233
:10053000890112BA030A8B420CD3890192118B42B2
:1005400008D3890192118B4204D389013AD09211C8
:1005500000E08909C3098B4201D3CB01C01A524183
:1005600083098B4201D38B01C01A524143098B424C
:1005700001D34B01C01A524103098B4201D30B0135
:10058000C01A5241C3088B4201D3CB00C01A52415A
:1005900083088B4201D38B00C01A5241D9D2430841
:1005A0008B4201D34B00C01A5241411A00D201467E
:1005B000634652415B10104601D34042002B00D5E8
:1005C0004942704763465B1000D3404201B50020AA
:1005D000C046C04602BD704770477047FFB504462D
:1005E0000D4681B0243000902168880604D5102281
:1005F000E0699143216000E00120A84201DD471B32
:1006000000E000270498A1697A191018081AA0615F
:100610002078C00602D42046C046C046002608E026
:1006200003986268A168805D9047206A401C761C30
:10063000206204988642F3DB2078C0060AD5204663
:10064000C046C04606E06268A16830209047206A34
:10065000401C206238467F1E0028F4DC07E000982A
:100660006268A168405D9047206A401C206228466D
:100670006D1E0028F3DC2046C046C04620780006E8
:1006800002D5022005B0F0BD0120FBE710B543699B
:10069000002B02D0C046C04601E0FFF7C7FD012095
:1006A00010BD1278014624310A7000224A700122DE
:1006B000ECE711680022D243E8E70000084B70B570
:1006C0000D467B4400F027F80446284604F03AFA29
:1006D000002802D00020C04370BD204670BD00003D
:1006E0005F45000001468008081A02091018020A36
:1006F0001018020C1018C008820012185200891A33
:1007000001E0401C0A390A29FBD2704701694A1CE2
:1007100002610878704700B58FB002910021059101
:100720000549019379440391114604906846FFF707
:1007300009FE0FB000BD0000E5FFFFFF754600F0A9
:1007400025F8AE46050069465346C008C0008546F8
:1007500018B020B5FFF74CFD60BC00274908B6462D
:100760000026C0C5C0C5C0C5C0C5C0C5C0C5C0C5C0
:10077000C0C5403D49008D46704710B50446C0468F
:10078000C0462046FFF7F9FC10BD00000048704746
:10079000200A002001491820ABBEFEE72600020017
:1007A00070470000CB0709480222002B02D00368E3
:1007B000934303608B0702D58368934383604907A3
:1007C00002D5C1689143C1607047000080000E40AF
:1007D000CB0709480222002B02D0036813430360B1
:1007E0008B0702D5836813438360490702D5C1682C
:1007F0001143C1607047000080000E40F8B52B4CDB
:1008000000262078401CC0B22070022800D126703B
:10081000274D28680127384328602178002922D0F5
:1008200023480022FB031146803800F04FF82F6167
:100830001F4801218038FFF7CBFF1E48A905016042
:10084000A6602868891408432860A0680028FCD0A6
:10085000174C0121803C2046FFF7A4FFE06B80B2DB
:1008600003F0C0FBF8BD1248012300229B03114690
:10087000803800F02BF82F610D4801218038FFF7F8
:10088000A7FF01200B4940070860A6602968801473
:1008900001432960A0680028FCD0054C0121803C60
:1008A0002046FFF77FFFA06BF8BD0000C8030020C3
:1008B00080000E4000E100E002490120886002490A
:1008C00008617047C803002080000E4030B505481D
:1008D0000468054D2C400C43144304604168436098
:1008E00030BD000080000E40F3FBFFFF10B500227A
:1008F0000421024800F0F5FD10BD00004041005009
:1009000010B501221102034800F0EBFD002000F0B9
:1009100003F810BD404000500249002800D00120DB
:10092000086270474042005010B50122110202488F
:1009300000F0D7FD10BD00008040005010B51248F7
:10094000836A01210022114CC06A002B06D00028C6
:1009500001D0032000E00220607404E0002801D0F0
:10096000617400E062740848C0308068002801D0DB
:10097000617500E06275617C05A0FFF749FC617D4F
:1009800008A0FFF745FC10BD404200500C090020B4
:10099000636861726765207374617465203D20250A
:1009A00064200A00706F77657220676F6F64202083
:1009B000203D202564200A0010B50A4C01210022A8
:1009C0008902204600F08DFD01210022C902204647
:1009D00000F087FD034800220421C03000F081FDB3
:1009E00010BD0000404000500248016AC20111439E
:1009F00001627047000200500EB509490EC900910E
:100A00000192810F8A00029369468A58054951185C
:100A10004A68C306DB0E0120984002434A600EBDBF
:100A200068E4000000020050F0B585B00C460746AF
:100A3000FFF7DAFF5548544E0168002F13D0042207
:100A400011430160102000F08DF90120C0040290D4
:100A50004F48042503904F484F49201888420DD82D
:100A6000002004901CE0012211430160104600F0B8
:100A700079F90020022503960290ECE7474848499F
:100A80002018884203D801206400049008E04548FB
:100A9000444920184942884249D80320A4000490C0
:100AA0000026F64300200090019021E0294603989B
:100AB000FFF7E4FC3C493D4A4118914217D202221B
:100AC000344B014651435B1CCF185B429F420AD80E
:100AD000A14201D90B1B00E0631AB34203D21E00EE
:100AE0000095019203D03249521C8A42E8D96D1C0C
:100AF000212DDBD904980299800308430099012233
:100B000049029202891A08430199891E08431F4924
:100B10000862042000F026F904990098491C41431A
:100B20000398FFF7ABFC0199484305B0F0BD002FD7
:100B30000FD0204915480162042000F013F91EA0CF
:100B4000006800901148016A0013014203D00020A0
:100B5000EBE71A49EEE7080300D50D4E880301D5EF
:100B60003046E2E70804800F6A46105CCA05890433
:100B7000C90E891CD20D4143B008921C5043FFF7A7
:100B80007DFC8000D1E70000001BB7000002005090
:100B900000805101FF1E0AFAFFE0F5057F0F05FDF9
:100BA0007FF0FA02C08782FEFF95E7FFFFB9DB0006
:100BB00001020000324C0800010202042E44000031
:100BC00002490A6802430A607047000000020050B0
:100BD00010B502F0C7FC04480069410603480068EC
:100BE00000D5400810BD00000002005000000020A9
:100BF00010B502F0B7FC044800690106034800681C
:100C000000D5400810BD0000000200500000002088
:100C1000F8B51C4D0446EE68102006401A48844280
:100C200002D81A48844200D2044628680427384370
:100C30002860102000F096F82869072108432861F1
:100C4000A86900090001A861E868C00705D0610033
:100C50000020FFF7E9FE044608E001206100C0041F
:100C6000FFF7E2FEEE680446102006400121022054
:100C700000F00EF8002E02D12868B8432860600802
:100C8000F8BD00000002005000A24A0440787D0137
:100C9000F3B5114C81B0E5680F461020054020687F
:100CA000042630432060102000F05CF82069072102
:100CB00008432061A069000900013843A061206950
:100CC000884301990843206102F04CFC002D02D1B9
:100CD0002068B0432060FEBD00020050F0B51A4B02
:100CE00086B01C460834F0CC009401ACE0C418CBAC
:100CF00005940493840A23061B0E0ED003039B0F56
:100D00009B0004ADEB58114D5B19E5B28405E40E70
:100D1000A5401C68AC4314431C60420E520710D01F
:100D20008200920F92006B469A58084B083BD218EB
:100D300003015B0FC001C00E834010689843084355
:100D4000106006B0F0BD000050E400001802005032
:100D5000034A116938239943014311617047000028
:100D60000002005010B504460749084B05E00A464A
:100D7000491E002A01DC002010BDDA68204690439D
:100D8000F5D1012010BD000080F5200000020050C8
:100D9000F8B507461B4CFF2015460E4620607D2106
:100DA000C900194802F028FC552020607D21C900A7
:100DB000154802F021FC032020607D21C900124863
:100DC00002F01AFC802020607D21C9000E4802F04C
:100DD00013FC27607D21C9000B4802F00DFC266042
:100DE0007D21C900084802F007FC25607D21C9006B
:100DF000054802F001FCB819401983304042C0B2E6
:100E00002060F8BD00001540000001400248006865
:100E1000024908607047000000E100E00C0000207B
:100E20000348006820210843024908607047000019
:100E30000C00002000E100E000B5FFF7E7FF0249E9
:100E4000FF20086000BD000080E100E0F8B5044626
:100E500000200090FFF7F0FF13480178134F0022A5
:100E60000B01F858DB195E689D68DB6800280CD020
:100E7000A560E36041C401200022009008013A50BF
:100E8000C01942608260C26008E0491C521CC9B2AD
:100E9000D2B2202900D30021202AE1D302480170D8
:100EA000FFF7BEFF0098F8BD1000002014040020DA
:100EB00010B5FFF7C1FF0020084B024601015A5050
:100EC000C9184A608A60CA60401CC0B22028F5D3A5
:100ED00003480270FFF7A4FF10BD000014040020B7
:100EE00010000020F8B51C4615460E460746FFF7D1
:100EF000A3FF0F4800780F4A00210301D358002BAD
:100F00000AD0401C491CC0B2C9B2202800D300201E
:100F10002029F2D3002406E0000117508018466013
:100F20008560C4600124FFF77BFF2046F8BD000008
:100F30001000002014040020F8B501F0FFFE7F200F
:100F4000C00200F0E3F9374D2871374800F0DEF9B0
:100F5000A8713548001D00F0D9F981B228468038C3
:100F6000016431487C3000F0D1F9EE1DF936F073A0
:100F70002D4F28791C370F280ED2002409E038465F
:100F800000F0C4F92749A20080395118641C3F1DA4
:100F900088642879A042F2D800F0BEFF214C0127D6
:100FA000403C002807D000F0C9FF002803D000F023
:100FB0009DFF00280AD11DA0FFF72AF919481F49F3
:100FC0008038016400202871A8716771164DF07B8C
:100FD0008035282810D8134F0024803F08E0284689
:100FE00000F094F93919FF316131641CC8712D1D6D
:100FF000F07BA042F3D810E01420F073094A0020DF
:101000000FA1803A1518FF350B786135EB71F37B32
:10101000401C491C8342F5D867710E4900200860C6
:10102000F8BD00000C09002004F80300496E697443
:1010300020464D20706172616D210A002E22000051
:1010400031383637353230353333355F6B696D2E95
:101050007765690000010050F8B501F06FFE7F214F
:10106000C9022F482D4F2222C26041600121016137
:1010700001690029FCD10168490603D501684022B5
:1010800011430160274E00253446803407E0A80054
:101090008019816C384600F067F96D1C3F1D20797E
:1010A000A842F4D800F038FF1C4D183D2F1F00282F
:1010B00009D000F043FF002805D000F017FF0028FA
:1010C00001D0316C04E01849002031642071A07116
:1010D000284600F049F97F202179C00200F044F948
:1010E000A179384600F040F90C4C104F6434F97B7C
:1010F000201F00F039F9002508E07019FF30613039
:10110000C179204600F030F9241D6D1CF87BA842FF
:10111000F3D8074900200860F8BD000020F803005C
:1011200000C000508C0800202E2200000C0A002075
:1011300000010050044801690448002901D0002141
:1011400000E00121C1747047804200500C0900206A
:1011500010B500221021034800F0C3F9FFF7EAFFA1
:1011600010BD0000804000500249002800D001203E
:10117000486270470042005010B500F031FE03F0A5
:10118000B5F803F013FB084C0649204602F034FA88
:1011900003F004F8012003F0B5F80449204602F0FA
:1011A0002BFA10BD881300000000014050C300005E
:1011B00010B509490446497E082907D0072905D0FA
:1011C00003F0F8F8204603F0B7FB10BD03F0BCF8BD
:1011D000204603F087FB10BDAC08002010B5104C72
:1011E00001222021204600F07CF901221021204616
:1011F00000F077F9012220210A4800F072F901225B
:101200005102204600F06DF906480021C03001610E
:1012100041610549012048610020FFF7A5FF10BD8D
:1012200000400050404100504043005010B5094C70
:1012300000220121204600F054F90122002120461D
:1012400000F042F90122044920200860616911433D
:10125000616110BDC040005000E100E070B503F0D6
:1012600077FA0D4C0D4D2146284602F0C5F9FFF7DF
:1012700083FF2146284602F0BFF90948407E07282F
:1012800004D0082805D000F08FFD70BD03F056FA99
:1012900070BD03F049FA70BD3075000000000140D8
:1012A000AC08002010B503F035F803F0B9F803F0EE
:1012B0004FFA0A490A4802F09FF9FFF75DFF094813
:1012C000407E072804D0082805D000F06DFD10BD31
:1012D00003F034FA10BD03F027FA10BD50C300002C
:1012E00000000140AC08002010B5002003F018F801
:1012F00003F096F803F0CAFA10BD00000248016836
:10130000012211430160704700C0005005490022CE
:10131000CA6048608A600120086108690028FCD121
:101320008868704700C0005005490022CA604860C4
:101330008A600120086108690028FCD1886870472C
:1013400000C00050F8B50E460746002407E0032011
:10135000A50000052818FFF7E7FF7851641CB44288
:10136000F5D30020F8BD0000054A2123D36050606A
:1013700091600120106110690028FCD170470000C5
:1013800000C00050F3B581B0074600240E4D16E0B2
:10139000A600032000053018B9592122EA606860D0
:1013A000A9600121296129690029FCD1FFF7BCFF4F
:1013B000B959884202D00020C043FEBD641C029887
:1013C0008442E5D30020FEBD00C0005010B5064C9D
:1013D0000122D102204600F084F801210322890273
:1013E000204600F07EF810BD0040005010B50122EC
:1013F000D1020A4800F075F8094A0123D36209496D
:10140000002000BF401C8842FBDB0020D06200BFF0
:10141000401C8842FBDBD36210BD0000004100503D
:1014200000430050400D030070B52248016AC9070F
:101430000FD001250562204C204EA16800200A46ED
:10144000793A182A06D22570A06020712061E070D8
:10145000307670BD0A46183A602A1BD2FF21A06080
:101460002D31174802F004FA307E70280AD0652822
:1014700008D02069401C20610A28EAD3C007E8D0C0
:10148000E57070BD20690F28FBD2401C20610F2839
:10149000F6D070BD2278002A0AD00A4B22799954DE
:1014A000521CD1B22171202902D32071A570207065
:1014B000A06070BDC0400050380300200C0900201F
:1014C000580000209E07002010B58369140E8C4040
:1014D00023438361C3691202120A8A401343C36122
:1014E00010BDF0B5002301273C469C400C4208D0BB
:1014F00005685C000326A640B5431646A640354362
:1015000005605B1C102BEFD3F0BD000070B51F4DC4
:101510000024A878002812D01DA0FEF779FE00F064
:101520007BFC0021A9701F49497E012901D00229B5
:1015300001D1652801D1042900D1002070BDE978CE
:101540000029FAD018A0FEF763FEE878401EE87084
:1015500014486030007E6C2813D006DC65280AD061
:1015600068280CD06A280FD107E06E280BD07028AD
:101570000AD1712408E0662406E06B2404E06924A3
:1015800002E06D2400E06F24204670BD3803002087
:1015900069725F646174615F72785F6F6B203D2078
:1015A000310A0000AC0800206C6F6E6770726573C2
:1015B000733A25640A000000F8B50024464800F09C
:1015C000C7FC00283CD00A21434802F051F94348A7
:1015D000C168002903D08069002802D002E00124FC
:1015E00000E002243C4E00270C3E7078002807D013
:1015F000012812D03A4D022823D004282AD142E0F3
:10160000002C1DD0344834701421083802F030F911
:1016100034A0FEF7FDFD012070703078A04219D192
:101620002D48083800F094FC002809D031A0FEF7BE
:10163000EFFD29483449083802F01AF90220707089
:10164000F8BD3078A04207D0410041182F48081853
:101650000078E8757770F8BD1F48083800F078FC0E
:101660000028F8D02AA0FEF7D3FD1B4826490838E9
:1016700002F0FEF8042070703078410041182348D1
:101680000818407808E03078A04209D0410041189D
:101690001E48777008188078E87501202874F8BD16
:1016A0000D48083800F054FC0028F8D00A481649C4
:1016B000083802F0DDF804207070042C01D0052CED
:1016C00006D1307841004118104808184078E87574
:1016D0000FA0FEF79DFDF8BDA00300208042005042
:1016E000AC080020474F544F204A495454455221DA
:1016F0000A000000474F544F2050524553535F4457
:101700004F574E210A000000DC05000042E40000B3
:101710004B4559204350212A2A2A2A2A2A0A000006
:1017200038B5094D284600F0E7FA284600F0E9FAF6
:10173000002401231A4621462846009400F01CFB91
:1017400002480482047538BD0000024014060020DF
:1017500038B5094D284600F0CFFA284600F0D1FAF6
:10176000002401231A4621462846009400F004FB79
:1017700002480482047538BD00001240140600209F
:10178000FFB51C4C81B016460746207D0028FCD1D1
:10179000194D284600F0CFFA002809D117480178E2
:1017A000490705D4017804221143017005B0F0BD4A
:1017B000A774029820600498606026810A9860816E
:1017C0000026A681E6810820E0742682012020758B
:1017D000284600F091FA0123002219462846009677
:1017E00000F0CAFA284600F091FA207D0028FCD1CA
:1017F000DCE700001406002000001240700000200A
:1018000070B51948FFF7F8F8184801F07BFA184C42
:101810000121204600F07FFA1649204600F08EFA9A
:101820000120154C800420600221122000F044FEAB
:101830000D48401CFFF7E0F80C48401C01F062FA2C
:101840000E4D0121284600F066FA0D49284600F0A9
:1018500075FA0120C00420600221132000F02CFE44
:10186000FFF7B4FD70BD0000080000400800000450
:1018700000000240400D030000E100E000001240C3
:10188000A0860100FFB51C4C81B016460746207D9E
:101890000028FCD1194D284600F04DFA002809D146
:1018A00017480178890705D4017802221143017095
:1018B00005B0F0BDA774029820600498606026818E
:1018C0000A9860810026A681E6810820E0742682BD
:1018D00001202075284600F00FFA01230022194646
:1018E0002846009600F048FA284600F00FFA207DBE
:1018F0000028FCD1DCE700001406002000000240B4
:101900007000002010B5294C2046FFF775F807211C
:10191000002209022046FFF7E1F9264C0121244A62
:10192000C906204601F0FEFE2068610508432060DC
:101930000815214908600121092000F09BFD20685D
:10194000A1050843206064211C4801F091FF1B4859
:101950006421083001F08CFF18486421183001F030
:1019600087FF16486421203001F082FF134864216C
:10197000483001F07DFF11486421283001F078FFE4
:101980000E486421303001F073FF0C486421383078
:1019900001F06EFF09486421103001F069FF07482B
:1019A0006421403001F064FF10BD00000300C05E00
:1019B000102700000001014000E100E018000020B5
:1019C000044603A0FEF724FC204603F001FFFEE7D7
:1019D000496E2048617264204661756C74204861CC
:1019E0006E646C65720A000010B5044900204870EE
:1019F00002480A210C3001F03BFF10BD9403002087
:101A0000F8B5584EF068012700905749B8040860AF
:101A10007069C043C00726D0544CE17C00988142D5
:101A200010D0208A401C2082208A5149884209D93E
:101A300050480178890703D40178022211430170CC
:101A4000FFF76EFE00984107490F33D1C0105021B7
:101A50000025030002F0B2FA0C0B144A190B2F0BED
:101A60002E560B60822E304600F046F976E0414853
:101A70000178890772D4027802210A4302706DE06E
:101A80001820E0742582A17C38E010213A4801F04A
:101A9000B3FD2089002861D02820E07425822068C9
:101AA0000178304600F066F9A781009552E0304693
:101AB00000F062F9F8BDA089218981420BD9282163
:101AC000E17425822168095C304600F053F9A18950
:101AD000491CA181E9E7608900283FD01020E0740B
:101AE00025820123002219460095E0E7608900283D
:101AF00034D04020E0742582A17C3943304600F088
:101B000039F9D2E76089002828D0E17425826089FC
:101B10000128CAD000971DE02046E489426800925F
:101B20004389A3421AD94289121B022A00D15821A3
:101B3000C174002105460182304600F0F9F8009991
:101B40000855E889401CE8816889001B0228E1D11A
:101B500000200090012300221146A8E7FFF7E0FDD6
:101B6000F8BD00000000024080E200E01406002002
:101B7000881300007000002000000140F8B5594DA6
:101B8000E868012600905849F00408606869C0437D
:101B9000C00726D0554CE17C0098554F81420FD0AC
:101BA000208A401C2082208A5249884208D93878ED
:101BB000400703D43878042108433870FFF7C8FD84
:101BC00000984107490F31D1C2102821002013008D
:101BD00002F0F4F90C0B13491C0B2D0B2C570B6561
:101BE000842C284600F088F878E03878400775D4CF
:101BF000387804210843387070E01821E1740646F3
:101C00002082A17C284600F0B5F81FE02289002A36
:101C100064D0E1740746208220680178284600F0ED
:101C2000A9F8A6812BE0284600F0A6F8F8BDA28905
:101C3000238993420CD9E174064620822068815C96
:101C4000284600F097F8A189491CA181009622E05E
:101C50006189002942D01021E174208201230022F1
:101C600019460090DFE76189002937D04021E174EF
:101C700007462082A17C2846314300F07BF800977C
:101C800009E06189002929D05021E174208261890D
:101C90000129DBD10090012300221146C3E7E78927
:101CA000616800916189B94218D96189C91B02290B
:101CB00012D05021E17400202082284600F038F82C
:101CC00001460098C155E089401CE0816089C01B35
:101CD0000228BBD10020DDE75821EBE7FFF738FDF4
:101CE000F8BD00000000124080E200E01406002071
:101CF00070000020881300004169012211434161F6
:101D0000704701688022914301607047016880221A
:101D100011430160704702220029416901D011433B
:101D200000E09143416141690422114341617047E0
:101D30008068C0B27047C0687047000070B50C4D35
:101D4000044628680A2289005043FEF797FB0A21BF
:101D5000401DFEF793FB401E206121684022114385
:101D600021608100091D2868FEF788FB70BD000016
:101D7000000000208160704730B50024039D0029D9
:101D800000D02024002A01D010210C43002B01D0C8
:101D900008210C43002D01D004210C4301683C2292
:101DA00091432143016030BD10B501225102034827
:101DB000FFF797FB02490020486210BD40400050E9
:101DC0004042005010B5012251020348FFF789FB41
:101DD00002490120486210BD40400050404200507E
:101DE00010B5012251020348FFF77BFB0249012095
:101DF000486210BD404000504042005010B50122E2
:101E000011020348FFF76DFB02490120086210BD73
:101E1000C0400050C0420050F8B500202B4D2C4F60
:101E20000246034680260121AC5C0F2C00D93043CA
:101E3000082900D24008521C491CC9B2D2B2082954
:101E4000F2D9F8545B1C0020DBB2042BEBD3204901
:101E500001200C3948703878FF251E4CF5351228C2
:101E600002D00C2812D02FE0787834282CD11848D2
:101E7000BA78002108304B00CB181B185B789342CE
:101E800011D0491CC9B20B29F5D31DE07878F3288D
:101E90001AD10F48BA7800212C304B00CB181B18F0
:101EA0005B7893420CD14A008A18865C0AA0FEF740
:101EB000AFF9267629460C4801F0DAFC3046F8BD29
:101EC000491CC9B20B29E8D30020F8BD9E070020A9
:101ED000440300200C09002069725F6B65795F6E16
:101EE000756D3A25640A000058000020054988797C
:101EF0000F2804D80979884201D8012070470020B2
:101F0000704700000C09002002488069C000C00F23
:101F1000704700000040154005480649006C401815
:101F20000549884201D80120704700207047000011
:101F30008C080020D2DDFFFF020800000348007972
:101F40000F2801D801207047002070470C0900209D
:101F500004490068C96A814201D30120704700200A
:101F6000704700008C080020F0B585B06846FEF789
:101F70006DFF002826D0009807270125DB4C01289B
:101F800005D002281ED1019801287DD0DAE0D8A022
:101F9000029A0199FEF73CF90198082814D0092803
:101FA00010D00026072814D004280BD00D2827D0E5
:101FB00006282BD0102868D0202803D10122002128
:101FC000FEF7E6FE05B0F0BD02980028FAD17720B2
:101FD0000BE1D5A00299FEF71BF90298002806D064
:101FE000C0B2E074FFF7E4F86675012005E0304602
:101FF000E674FFF7DDF86575002002F083F9E1E78C
:102000001A20E075CEA0FEF703F9DBE70298062858
:102010000AD10621E171D1A0FEF7FAF83246E67640
:102020001D21702002F020FA0298072805D13946B8
:10203000E771CAA0FEF7ECF8E676029802260228BD
:1020400005D1E6713146E576C4A0FEF7E1F80298C5
:1020500004280AD1E5712A46E5761D21702002F098
:1020600003FABEA00299FEF7D3F80298052806D11C
:102070000320E071E576B9A00299FEF7C9F802984D
:10208000112809D1052001E054E02AE0E071E6764C
:10209000B2A00299FEF7BCF8029812280BD10420D6
:1020A000E0713246E6761D21702002F0DDF9ABA02A
:1020B0000299FEF7ADF802980B2804D10B21E171CB
:1020C000A6A0FEF7A5F80298092803D0082801D099
:1020D000162894D10C20E071A0A00299FEF798F880
:1020E00070E70298030001F069FF0A06070D151B4F
:1020F00006060606200665E77C480022C030817A85
:10210000182004E079480022A0304178192002F01C
:10211000E9F957E775480022E030C17C1A20F6E75C
:1021200094480022017F1B20F1E703980022C1B2EE
:102130002020ECE702980028D2D12279E178012012
:1021400002F092F901980328CAD10298032807D116
:102150000C20E07588A0FEF75BF801980328BFD13A
:102160000298022807D10B20E07585A0FEF750F8F1
:1021700001980328B4D10298152807D182A0FEF750
:1021800047F80920E07501980328A9D1029816287C
:1021900007D182A0FEF73CF80A20E07501980328D9
:1021A0009ED10298172807D17FA0FEF731F80820AA
:1021B000E0750198032893D10298182806D17EA0D3
:1021C000FEF726F8E7750198032889D1029831288F
:1021D0000AD032280BD056280BD00D280BD00E2851
:1021E0000BD0C1280BD012E01720E075EAE61620CC
:1021F000FBE71020F9E71120F7E71220F5E771A0BF
:10220000FEF706F80D20E07501980328EED102983C
:10221000C22807D16DA0FDF7FBFF0E20E0750198E5
:102220000328E3D10298C82807D16BA0FDF7F0FF7F
:102230001320E07501980328D8D10298C92807D146
:1022400067A0FDF7E5FF1420E07501980328CDD1C4
:102250000298CB2807D165A0FDF7DAFF1520E075BD
:1022600001980328C2D10298622804D0632809D0BB
:1022700064280ED018E0002262210320FEF788FDBA
:102280005EA00CE0002263210320FEF781FD5FA029
:1022900005E0002264210320FEF77AFD60A0FDF72F
:1022A000B7FF01980328A1D10298CA289ED1207FA8
:1022B000002814D100F060FD5FA0FDF7A9FF03988E
:1022C0000009607703980007000FA07725775EA0CC
:1022D0000399FDF79DFFA17F60A0FDF799FF7D2188
:1022E0004901634801F0C4FA6CE60000AC08002024
:1022F0004D53475F34475F5359535F5354415445DF
:102300005F494E443A6D73672E706172616D302083
:102310003D2025782C206D73672E706172616D31C0
:10232000203D202578200A00307830372C206D732E
:10233000672E706172616D31203D202578200A0082
:10234000494E5F4B45595F5455524E4F46465F3498
:10235000475F4D4F55444C45200A000030783036D9
:102360002C206D73672E706172616D31203D2025C8
:1023700078200A00AC090020564F4C2D0A000000BE
:10238000564F4C2B0A000000466F7572475F574945
:1023900046495F4348414E4E454C0A0042545F4314
:1023A00048414E4E454C0A00415558494E5F4348FE
:1023B000414E4E454C0A0000464D5F4348414E4E4B
:1023C000454C0A00696E736964650A006F75747321
:1023D0006964650A00000000464D2055500A00005F
:1023E000464D20444F574E0A00000000464D204CF9
:1023F0004F4E472050524553530A00006D696320E9
:102400006B65792070726573730A00006D696320D3
:102410006B6579206C6F6E672070726573730A004C
:102420006D6963206B6579206C6F6E672072656CD7
:10243000656173650A00000053554220424F4152C6
:1024400044204F4E0A0000006D73672E7061726168
:102450006D31203D202564200A000000706C6179F8
:102460005F6D6F6465203D202564200A0000000038
:10247000600000208307FF22DB0E9A408907090EC7
:10248000994000280BDA0007000F08388308084835
:102490009B001818C36993430B43C36170478308BB
:1024A00004489B001818036893430B43036070476C
:1024B00000ED00E000E400E08307FF22DB0E9A401D
:1024C0008907090E994000280BDA0007000F083829
:1024D000830808489B001818C36993430B43C361E2
:1024E0007047830804489B001818036893430B4304
:1024F0000360704700ED00E000E400E010B505A0C7
:10250000FDF786FE01F0FCF90121074801F0ACFA65
:10251000002010BD70746520756172743020696E82
:102520006974210A000000000000054010B5012276
:1025300004210248FEF7D5FF10BD00008040005086
:10254000FEB50020F74C00902046803007460290F0
:10255000FF300130E037002620340190D0E1401EEA
:10256000C0B208700C21F04B4843C118185C4A787F
:102570008D780128F2D1130001F020FD29201621C9
:10258000282F3D454D68737F8790ABC4CBEFEEEDB0
:10259000ECEBEAE920E8E7E6E5E4E3E2E1E0DFDEB0
:1025A00020DDDCDB20DA2000E0A0FDF731FE002298
:1025B0001146012001F096FF01207871A0E1E0A012
:1025C000FDF726FE00220621022097E1E1A0FDF79B
:1025D0001FFE00220621032090E1E3A0FDF718FE74
:1025E000002D02D001F05AFD01E001F051FD002262
:1025F0002946042082E1E0A0FDF70AFE02980022AD
:10260000817C05207AE1E0A0FDF702FE029800221D
:10261000017C062072E1E1A0FDF7FAFD607E05284D
:102620009CD1002D06D0002263210320FEF7B0FBD1
:10263000DEA005E0002264210320FEF7A9FBE1A053
:10264000FDF7E6FD00222946072057E1E4A0FDF74B
:10265000DFFD00221146082001F044FF0820E0754C
:102660004EE1E4A0FDF7D4FD607E052801D00920ED
:10267000E07500221146092040E1E5A0FDF7C8FD04
:102680000A200022E075114638E1E6A0FDF7C0FD02
:1026900007200022E07511460B202FE1E6A0FDF790
:1026A000B7FD607E072889D1012D05D0022D05D008
:1026B000032D05D0009805E0E44802E0E44800E07E
:1026C000E448009002F098FEE348294602780C2086
:1026D00014E1E2A0FDF79CFD002D06D0E57428462C
:1026E000FEF766FD6675012006E03046E674FEF7EB
:1026F0005FFD01206075002001F004FE00222946E4
:102700000D20FBE0D9A0FDF783FD0022E17C0E2027
:10271000F4E0DBA0FDF77CFD2B0001F04FFC093657
:10272000061F2326292C2F333600DA4846632CE077
:1027300049E2EBE0DBE0D1E0C9E0C1E0B7E0AAE0CC
:102740009DE090E083E07CE075E06EE067E061E0B2
:102750005AE050E040E034E02BE01AE0CD48803011
:10276000C66312E0CB4806630FE0CA4886600CE0FF
:10277000C948866109E0C748466006E0012002F0CA
:102780007DF902E0012002F06FF9002229460F20B6
:10279000B4E0C2A0FDF73CFD002001F0ADFF002039
:1027A00002F06CF9002002F05FF9002211461020BF
:1027B000A4E0BFA0FDF72CFD01980022C17B1120F1
:1027C0009CE0BFA0FDF724FD00221146122001F07D
:1027D00089FEFEF741FC93E0E07E012805D0022847
:1027E00006D000221146132088E000220121FAE7DA
:1027F00000220221F7E7607E052801D11820E0754C
:1028000000221146142079E001200022B8711146FF
:10281000152073E00022BE71114616206EE0ACA0B8
:10282000FDF7F6FC0022012146E0ACA0FDF7F0FC2C
:102830000022022140E0ACA0FDF7EAFC00220321C7
:102840003AE0ADA0FDF7E4FC0022042134E0ADA0A5
:10285000FDF7DEFC002205211020FEF799FA002288
:1028600011461C204AE0ABA0FDF7D2FC0022062155
:102870001020FEF78DFA002211461D203EE0A8A090
:10288000FDF7C6FC002207211020FEF781FA002286
:1028900011461E2032E0A5A0FDF7BAFC0022082157
:1028A0001020FEF775FA002211461F2026E0A4A092
:1028B000FDF7AEFC002209211020FEF769FA1FE0A7
:1028C000A4A0FDF7A5FC00220C21212016E0A5A064
:1028D000FDF79EFC0022092122200FE0A5A0FDF7B4
:1028E00097FC65200022E0751146242006E0A5A093
:1028F000FDF78EFC00227E711146252001F0F2FDCD
:10290000A5490878002800D029E6FEBD002D08D092
:10291000019901200874A1A0FDF77AFC0022012191
:102920004FE147E18C08002050080020456E746597
:10293000722074657374206D6F64650A0000000076
:1029400052656164206D63752076657273696F6E80
:102950000A0000005265616420647370207665721D
:1029600073696F6E0A000000696E7465726E616C47
:10297000206261740A00000072656164206E7463F5
:102980002076616C75650A0072656164206261740D
:10299000746572792076616C75650A005054452023
:1029A0006D6963206D6F64650A0000005054452016
:1029B0006D6963206B6579206C6F6E67207072653E
:1029C00073730A00505445206D6963206B6579204C
:1029D0006C6F6E672072656C656173650A0000003C
:1029E00050544520656E74657220617578206D6F56
:1029F00064650A0050544520656E746572206D77D9
:102A000020726164696F206D6F64650A00000000C8
:102A100050544520656E746572204254206D6F6479
:102A2000650A000050544520656E74657220464D5D
:102A3000206D6F64650A0000505445207365742052
:102A4000666D20667265710A000000002E2200008B
:102A500048260000302A0000B403002050544520CE
:102A600073657420766F6C756D650A00505445204F
:102A70007265616420766F6C756D650A00000000F8
:102A8000505445207475726E206F6E206C65640A18
:102A900000000000004200504043005050544520C8
:102AA0006C656420616C6C206F66660A0000000033
:102AB000505445207265616420736E0A0000000066
:102AC00050544520777269746520736E0A000000C7
:102AD00047657442746D61630A0000004765744283
:102AE000744E616D650A00004765743447766572FF
:102AF00073696F6E0A0000004765743447206D618A
:102B0000630A000066616374726F79207265737482
:102B10000A000000627420746F6E650A00000000F5
:102B200062742070616972696E670A006274207253
:102B300065636F726420636C6561720A0000000057
:102B4000676574203447206D6F62696C6544626DFF
:102B50000A0000004765744275696C6444617465DD
:102B60000A0000004765744275696C6454696D65BC
:102B70000A000000706F776572206F6E2F6F6666B7
:102B80000A000000657869742070746520746573AC
:102B900074206D6F64650A0004040020656E74651E
:102BA00072206C65642074657374206D6F64650AAF
:102BB000000000000198067405A0FDF729FB002223
:102BC000114626209AE6227A617E282096E60000A9
:102BD00065786974206C65642074657374206D6F0A
:102BE00064650A000348C16A890701D50221C162F0
:102BF000704700000080004010B5FFF77FFC00F038
:102C000041FE01F00DF9FEF7FBFD10BDF8B5042003
:102C1000FDF7D6FF1020FEF7A5F800210720FEF7EC
:102C200037F80120FDF7CCFF0120FEF79BF81D4887
:102C3000FDF7EEFF1820FEF78BF81B4C2046FDF742
:102C4000DBFE651C2846FDF7D7FEA61C3046FDF7C7
:102C5000D3FE164F3846FDF7CFFE1548FDF7CCFEE4
:102C60001348401CFDF7C8FE1248FDF7C5FE124888
:102C7000FDF7C2FE1148FDF7BFFE002211462046B7
:102C8000FEF72CF8002211462846FEF727F800220E
:102C900011463046FEF722F8002211463846FEF76C
:102CA0001DF8F8BD00A24A04103D805708000080BE
:102CB000080000401400C0530200805E0100206341
:102CC00010B500F02DF8FFF7A1FF00F091FD01F025
:102CD000BFFF0B490020086000F0B2FD01F082FE4A
:102CE000FEF77CFAFFF788FFFEF70CFE00F06AFDA6
:102CF000FEF7DEF801F0E2FFFDF7F8FD10BD000081
:102D0000000100500521020E090751188B680122AD
:102D1000824013438B60886890438860704700004E
:102D200010B559210448162288230160026003600F
:102D30000468002CF9D010BD0001005010B55921D5
:102D40000448162288230160026003600468002C96
:102D5000F9D010BD0001005006498A691202FCD466
:102D600008600A2804D188690002FCD40D2008609C
:102D7000704700000040154010B50448006C010485
:102D8000C2B2090E722001F06FFB10BD8C0800204A
:102D900070B5154D0120687600242C722C756C726C
:102DA00012486C758471447120300474C0384470CA
:102DB000203084722030C4742030047701F096FCF7
:102DC0007D21C9000A4800F053FD29462C770948A7
:102DD000203908640846803004710476EC76FEF7EA
:102DE000ABF8FFF7C9FF70BDAC080020EC0900206C
:102DF000200000202E22000010B50122910303487C
:102E0000FEF76FFB002000F0E3FC10BD40400050D7
:102E1000F0B5FF4C87B0E67D0096002117221B25F8
:102E2000607E0127182E76D00FDC330001F0C6F843
:102E3000188C34388C73758C797B7E804240666D3B
:102E40008C52464CCAC6C05D548C6B2E30D018DCF8
:102E5000662E79D00CDC1B2E6ED004DC192E5CD0D3
:102E60001A2E71D166E01C2E26D0652E6CD117E08B
:102E7000672E11D0682E1DD0692E1BD06A2E63D10B
:102E800016E06C3E330001F099F80C1F5F195F25C6
:102E900059302739405F4A5F012855D0042252E05B
:102EA000012803D004284FD002224CE0A7764BE043
:102EB000062248E0052246E0072244E0072801D028
:102EC000082240E01D223EE0072801D009223AE016
:102ED0001E2238E00A2236E0052802D0072802D058
:102EE00032E00B222FE019222DE0052802D007281E
:102EF00002D029E00C2226E01A2224E00D22A2763C
:102F0000072821D1A5761FE005E00E22A27607282A
:102F10001AD11C2217E00F2215E0102213E0032221
:102F200011E0112200E01222A27610E01422FBE749
:102F30001322F9E7152206E0162204E0072802D042
:102F4000062833D000E0A276009A002A02D00022A0
:102F5000E2752774AE4BAE4D9C466035A27E9B7CDD
:102F600006932B7905935B1E0193EB790293AB7962
:102F700000932B46803B1B6C04936346DB7C2E4600
:102F80000393403E130001F019F81F51216B89FE95
:102F9000FDFCFBFAF9F8F7F6F5F4F3F2F1F0EFEED9
:102FA000ED52ECEBEAE9E8E7E6E551001822CAE762
:102FB0000728B9D00628CAD11822B5E70728C6D1F4
:102FC000A576C4E70728C2D11C22ADE7FF20F53063
:102FD00000F0E6FF012000F0FBFBFF20F53000F0E1
:102FE000DFFF022060762772A7740520E0740120BD
:102FF00000F0F6FB0120FEF7B7F80120FDF78CFC8E
:10300000677201F06DFB8349834800F031FC642155
:10301000824800F02DFCFEF745F90020607402465E
:103020001621702001F020FAFEF7E0F9D4E101202A
:1030300000F0CEFB0320607627720120FEF794F8A3
:10304000677201F04DFB7349734800F011FC642175
:10305000724800F00DFC0020607401F061FBBBE1E0
:1030600000221521702001F0FFF9002255210320D4
:10307000FDF78EFE01F0B6FCFEF736F9677468497D
:10308000664800F0F5FB0420607600202072207571
:10309000607501F02BFB002020779DE1002121725B
:1030A000217F002974D0032872D0132271210320BC
:1030B00001F0DAF9E17C0022072001F0D5F9A07FC8
:1030C000012806D002282ED003280ED0042867D16C
:1030D0001AE0002215210320FDF75AFE00221121DB
:1030E000702001F0C1F905200AE00022162103201A
:1030F000FDF74EFE00221021702001F0B5F90620E8
:10310000607601F00DFB23E0002217210320FDF77C
:103110003FFE00221221702001F0A6F908206076FF
:1031200001F002FB14E0072060760A202076EF71A0
:1031300000221321702001F097F9002218210320AA
:10314000FDF726FE02F098FB01F0F8FAFFF714FEF7
:10315000E07C1AE017E131E1DBE0F4E0C5E0CCE02F
:1031600037E1ABE08AE02AE027E022E023E082E0DA
:103170007EE06EE073E069E065E061E05AE056E011
:1031800021E02DE021E011E002E0FEF711F823E15B
:1031900024494979002903D00828F8D00728F6D017
:1031A000002215210320FDF7F3FD9CE702F0A2F9B0
:1031B000CEE7082004E0072002E0062000E005201A
:1031C00002F0FEF9C4E7082006E0002060750398CD
:1031D00010282BD2401CC0B2E074FDF7E9FF0DE0CF
:1031E0000398002822D0401EC0B2E074FDF7E0FF33
:1031F000E07C002802D1677501F084F8E27C0421AC
:103200000320FDF7C5FD0022E17C07200CE0000053
:10321000AC080020B80B000030000020380000206F
:1032200088130000EC09002001F01EF9D4E0002210
:103230000D2101E000220E210320FDF7A9FDCBE0C6
:1032400000225621F8E700223121F5E70022322141
:10325000F2E7069802280AD00220A07403E006983C
:10326000012804D0A77402F03CF9FDF7F7FFB3E0A2
:1032700000225021E0E700222121DDE700206072DA
:10328000A8A0FCF7C5FF0020FDF746FB607E0428E0
:1032900002D007280ED09FE00020FDF765FF002038
:1032A00000F09EFA002000F093FA6776002001F00B
:1032B00023FA91E00020FDF757FF8DE002980128E6
:1032C00002D004280FD087E00420E87100209B4A38
:1032D00068718B009B18491CC9B298640F29F8D3F8
:1032E0009748106478E0EF7176E00298012802D0E8
:1032F00003280BD070E0032006E00298012802D0DA
:10330000022803D068E00220E87165E0EF71777170
:1033100062E0072860D18B490498884202D8874927
:103320000A3001E08648854908647D2177710901EA
:10333000854800F09DFA8148006C02F05DF8FFF7C7
:103340001BFD82A01CE0072846D17D4904980A3164
:10335000884204D3049979480A39016403E0794822
:1033600076490A3008647D2177710901764800F0BA
:103370007FFA7248006C02F03FF8FFF7FDFC75A081
:10338000FCF746FF28E00598002825D00098002883
:1033900001D0401E00E00198A87100066749800D29
:1033A0004018806C086402F027F8FFF7E5FC7D21E7
:1033B00077710901644800F05BFA0DE00598002878
:1033C0000AD001990098884201DA401CE4E7002005
:1033D000E2E700224F212FE70020A076607E030065
:1033E00000F0ECFD084747474747474705475C481B
:1033F000FEF7AEFD002811D07D21C900584800F02D
:1034000037FA207E002809D0401E0006000E2076E4
:1034100004D1002255210320FDF7BAFC4A48FEF7EB
:1034200097FD002806D07079002803D00020707125
:10343000FDF712FEE879030000F0C0FD051B1B0438
:103440001D281B003D4C3F49206C884201D80A30A2
:1034500000E03B482064FFF78FFC206C01F0CCFFBC
:10346000002806D0EF717D2177710901364800F000
:10347000FFF907B0F0BD314C3149206C0A31884268
:1034800001D30A38E6E72F480A30E3E7FFF774FC78
:103490002A4C206C01F0B0FF002828D07D200001CC
:1034A00000F07EFD6979206C8900091988646879CB
:1034B0000E2801D2401C68712249206C88421AD91A
:1034C00068792871002804D0A06C20640020A871BD
:1034D00001E01B4820647D217771C9001A4800F083
:1034E000C7F9FFF749FC206C01F086FF17E015498A
:1034F000206C884202D80A302064BAE768792871C3
:10350000002804D0A06C20640020A87101E00C48C1
:103510002064FFF731FC206C01F06EFF7771EF71D2
:10352000A7E700000A5455524E204F464620344724
:10353000204D4F55444C450A000000008C080020E7
:103540002E220000262A000050000020464D205563
:10355000500A0000464D20444F574E0A000000001C
:1035600048000020F8B51C4D286944071BA00068DE
:103570000090296A640F2813014201D0002016E050
:10358000080301D5164800E016488A030FD40A0440
:10359000920F6B469B5CCA058904D20DC90E891C2B
:1035A0008008921C59435043FCF768FF80000E4E80
:1035B000022CB06002D00D49A0000858A969090783
:1035C000090F491CFCF75AFF094930604A1080185E
:1035D000FCF754FF7060F8BD0002005001020204C5
:1035E00000805101001BB70000000020B45800000B
:1035F00040420F0070470000F8B50C46074600F047
:103600005DF8054600200090264829460068FCF732
:1036100035FF461C00203860786123498D4205D86B
:103620007D20C000844205D2044606E0642C01D20D
:10363000642402E08C4200D90C461C488D4207D815
:103640002946FCF71BFF01467D20C000604317E0C0
:10365000174A954203D90722ED0800920CE0154A5B
:10366000954203D90322AD08009205E0124A954223
:1036700002D901226D080092FA2CE1D2204668435B
:10368000FCF7FCFE78600121009889070843386048
:10369000002E02D000BF761EFCD138688001FCD419
:1036A000F8BD00000000002040420F0000CA9A3B15
:1036B0000090D0030048E8010024F40010B588B061
:1036C0000446202211496846FCF76CFD1049114858
:1036D0008C4202D14069000A0CE00F498C4202D1B1
:1036E0004069000B06E00D4940698C4201D1000C95
:1036F00000E0000D4007400F022804D0800069461A
:10370000085808B010BD06480068FAE780E40000D9
:103710000000014000020050000101400000114083
:1037200000000020F7B517460646FFF7C7FF04461E
:1037300000254008B84201D2022014E00F498C4213
:1037400002D90725E4080AE00D498C4202D9032575
:10375000A40804E00B498C4201D9012504463946EE
:103760002046FCF78BFE01992943316070606D1C87
:10377000684301462046FCF781FEFEBD0090D00361
:103780000048E8010024F4000A490878401CC0B24F
:1037900008700A2805D3002008700748C16A491C30
:1037A000C16206490868401C08600549012088601C
:1037B00070470000140000208C0800204003002007
:1037C0000001014010B5FDF731FD01F0F9F810BD21
:1037D0000249002800D00120886370474042005011
:1037E0000249002800D001208860704780420050C4
:1037F0000F48416842041143416000210520000741
:1038000041630163C26B01231B071A43C263826BCE
:10381000084B1A4382633322074812014260016059
:103820003021C1608160054941610906016170472D
:103830004040005033880000400000501100440018
:1038400010B5FDF75DF8FDF7B7F8FDF781FCFEF761
:10385000D5FAFDF769F8054901200862FEF766FE12
:103860000020FFF7BDFFFFF7C7FA10BD80420050F0
:10387000034AD36A4360D26A51180160704700005E
:103880008C08002010B50AA0FCF7C2FC00F050F82C
:1038900000F062F80C4801680CA0FCF7B9FC0FA01E
:1038A000FCF7B6FC0121134800F0DEF8002010BD43
:1038B0007472616E73666572207561727420696ED0
:1038C0006974210A00000000000000200A0A435029
:1038D00055204020256420487A0A00000A554152AC
:1038E000542053616D706C652050726F6772616D0A
:1038F0000A0000000000154010B500F0CDF810BD22
:1039000005200007C268012109040A43C260C26899
:103910008A43C2600348024941620321C160704783
:10392000660000300000054010B500F035F810BD0D
:1039300005200007C268012149040A43C260C26829
:103940008A43C2600348024941620321C160704753
:103950006F0200300000154005200007C2680121F9
:1039600089040A43C260C2688A43C26008480749A2
:1039700041620321C160074800218175017681768B
:10398000C17541760121C1767047000066000030A4
:10399000004015408207002070B5234C01212046CD
:1039A00000F046F8E169C9070FD020681F4CC0B28B
:1039B000A27900250121130000F000FB0805080F83
:1039C000161A1D202725FF282BD070BD552802D0A0
:1039D000FF28FAD017E0022013E0042801D10320C9
:1039E0000FE0FF281DD00EE08028FAD1042008E067
:1039F0002070052005E06070062002E00028F0D16C
:103A00000720A07170BDA57170BDFF2809D0627834
:103A1000002321780120FDF765FAFF2020706070F7
:103A2000F1E7A17170BD0000000015407400002096
:103A30004A0501D5682282610A0503D5426901233E
:103A40001A4342618A0401D5064A82614A0401D5BB
:103A5000426C4264090403D58021C161816B81639A
:103A6000704700000100000142680A434260074BB2
:103A7000012212030649984201D10A607047054BA2
:103A80009842FAD1012040030860704700000540C9
:103A900000E100E000001540F8B5324DE86900246F
:103AA00001212846FFF7C4FFE869C00702D0284675
:103AB0000068C4B22C4D0026E8782C4F030000F0BB
:103AC0007DFA05040C181D381400214628A0FCF7C7
:103AD0009FFB5A2C3CD1012029E0214628A0FCF76D
:103AE00097FBA52C03D0FF2CF5D0EE7030E0022020
:103AF0001DE06C71AC602E71032018E06A792879A2
:103B0000521E904222493A7809DA0C235A4312187D
:103B10008C54A9680919401CA960287118E00C236D
:103B20005A4310180C54A8680019A8600420E870C3
:103B30000EE0214617A0FCF76BFBA868C143491CA7
:103B400018A0A960FCF764FBEE703878401C387050
:103B5000044881697122114203D009218902FFF7CB
:103B600067FFF8BD00000540740000200404002039
:103B7000494E44455820303A2025780A000000007C
:103B8000494E44455820313A2025780A000000006B
:103B900050080020494E44455820343A2025780AE0
:103BA000000000005243523A2025780A000000002D
:103BB00010B5052000070269FF2101310A430261A7
:103BC00002698A4302610B4C022020600A48E062CD
:103BD0001020206107484030C16942061143C1618D
:103BE0000648FFF78FF84B210902204600F040F904
:103BF00010BD000000000740010800000800000898
:103C000010B500F0C5F810BD10B50FA0FCF700FB13
:103C10001DA0FCF7FDFA0CA0FCF7FAFA2AA0FCF7AD
:103C2000F7FA39A0FCF7F4FA47A0FCF7F1FA06A07E
:103C3000FCF7EEFA544841681022114341605349A1
:103C40009004086010BD00002B2D2D2D2D2D2D2D45
:103C50002D2D2D2D2D2D2D2D2D2D2D2D2D2D2D2D94
:103C60002D2D2D2D2D2D2D2D2D2D2D2D2D2D2D2D84
:103C70002D2D2D2D2D2D2D2D2D2D2D2D2D2D2D2D74
:103C80002D2D2D2D2B0A00007C202055534349203B
:103C9000554152542046756E6374696F6E205465A9
:103CA000737420202020202020202020202020206D
:103CB0002020202020202020202020202020202004
:103CC000202020207C0A00007C2020446573637241
:103CD000697074696F6E203A2020202020202020F7
:103CE00020202020202020202020202020202020D4
:103CF00020202020202020202020202020202020C4
:103D0000202020207C0A00007C2020202054686590
:103D10002073616D706C6520636F64652077696CDA
:103D20006C207072696E7420696E7075742063689F
:103D30006172206F6E207465726D696E616C2020F7
:103D4000202020207C0A00007C20202020506C6550
:103D500061736520656E74657220616E7920746F81
:103D600020737461727420202020202850726573A3
:103D7000732027302720746F2065786974292020EC
:103D8000202020207C0A00000000074000E100E025
:103D900070B52148C16BC90739D1406B1F4CC0B207
:103DA000E27800250121130000F008F90805091048
:103DB000131A1D202430FF2829D1E17027E055284F
:103DC00002D0FF2823D021E0022011E003280FD0E9
:103DD00001E0802802D0FF28EFD017E0042007E0A0
:103DE0002070052004E06070062001E0A07007202C
:103DF000E0700CE0FF28E0D0A37862782178022000
:103E0000FDF770F8FF2020706070A070E570024927
:103E100010204031486270BD000007408000002043
:103E200010B5FFF7C5FE0648016806A0FCF7F0F9DB
:103E300008A0FCF7EDF9FFF7E7FE002010BD000039
:103E4000000000200A0A43505520402025642048E5
:103E50007A0A00000A5553434920554152542053D1
:103E6000616D706C652050726F6772616D0A000041
:103E7000F0B50646474885B00D46864202D0464812
:103E8000864202D1FCF7A4FE01E0FCF7B1FE294610
:103E90000290FCF7F3FA044601460298FCF7EEFAAA
:103EA000471B611C0298FCF7E9FA281A874200D3E5
:103EB000641C01200004844205D3102004250090D6
:103EC000800101903CE001218903012508466843F7
:103ED000A04203D26D1C042DF8D901E0042D00D9B5
:103EE000042529462046FCF7C9FA03900020002744
:103EF000FF4300900624019021460398FCF7BEFA88
:103F000001218902884205D908460399A2028A1A2A
:103F1000511C07E00146039A6143521A411C039B5E
:103F20006143C91A8A4201D3401C00E01146B942DC
:103F300003D20F000094019002D0641C102CDBD936
:103F40003068C008C0003060022030601348F06262
:103F500010203061009901988A020121401E8902D7
:103F60000004511A08432902FF3901390843B0609F
:103F7000F06D0121C9070843F06529460298FCF756
:103F80007DFA0099FCF77AFA0199FCF777FA05B007
:103F9000F0BD00000000074000400740010800009D
:103FA0000022054B04E00021491C9942FCD3521C1D
:103FB0008242F8D3704700001027000030B47446E6
:103FC000641E2578641CAB4200D21D46635D5B0015
:103FD000E31830BC184730380A2801D20120704756
:103FE0000020704770B51C4D0022AB78194C5B1C4B
:103FF000DBB21146AB70082B03D90023AB70012351
:10400000EB70AB789E00154B9851E87800281FD0D4
:1040100088001858491C8218C9B20829F8D3D10859
:104020000D4A00200C328300D3588B4203D8401C29
:10403000C0B20B28F7D3002801D0401EC0B22074B4
:1040400007A0A160FCF7E4F8217C0BA0FCF7E0F8E6
:1040500070BD00000C090020C8030020D00700201C
:1040600073616D706C655F6261745F646174613A05
:104070002025640A0000000073616D706C655F624A
:1040800061746C6576656C3A2025640A0000000056
:104090000149002008627047804200500149012018
:1040A00008627047804200500020401CC0B20528C2
:1040B000FBD37047074A0121516311635160064ADF
:1040C000002802D00020906100E09161014880301A
:1040D000C16370470042005040430050F3B50024D4
:1040E00081B0054626460FE06000295CFD2914D00A
:1040F000FE290DD0FF2906D04119002302229A2063
:104100000096FDF7BFFB641C02988442ECDBFEBD09
:1041100008490948FFF770FAF5E7471900967A78D9
:10412000B91C00239A20FDF7ADFB7878401C4008AD
:104130000419E8E78813000000000140F3B50024EB
:1041400081B0054626460FE06000295CFD2914D0A9
:10415000FE290DD0FF2906D0411900230222982004
:104160000096FDF78FFB641C02988442ECDBFEBDD9
:1041700008490948FFF740FAF5E7471900967A78A9
:10418000B91C00239820FDF77DFB7878401C40087F
:104190000419E8E7881300000000014070B500F042
:1041A00043F800F04BF813A0FCF732F8184C194D07
:1041B000A07C012802D002280BD014E000F048F8BF
:1041C00029461548FFF7BAFF29461448FFF786FF2E
:1041D00009E029461248FFF781FF00F039F8294627
:1041E0001048FFF7ABFFE07C00F0AEF800F030F8CD
:1041F00070BD00006472765F353832355F496E6994
:10420000742A2A2A2A2A2A2A2A2A2A2A0A00000062
:10421000AC0800202B0F000096A70000EA6A0000FF
:1042200040890000ECC5000010B5002204210248BE
:10423000FDF757F910BD00004041005010B50121B5
:104240000022C9020148FDF74CF910BDC0400050E2
:1042500038B502212448FFF741FF002422492346B4
:10426000022208399A200094FDF70CFB1E49002316
:104270000222891F9A200094FDF704FB1A490023AB
:104280000222091F9A200094FDF7FCFA1649002328
:104290000222891E9A200094FDF7F4FA02211248A6
:1042A000FFF74CFF104900230222083998200094A0
:1042B000FDF7E8FA0C4900230222891F9820009498
:1042C000FDF7E0FA084900230222091F9820009414
:1042D000FDF7D8FA044900230222891E9820009491
:1042E000FDF7D0FA38BD0000D86A000010B50122F1
:1042F00091020348FDF7F5F8002000F003F810BD27
:10430000C04000500249002800D001208862704758
:10431000C042005010B5012000F002F810BD0000AE
:1043200010B50446012211030548FDF7DAF80548E7
:10433000002C01D0012100E00021016310BD00002C
:10434000C0400050C0420050F8B5044610282BD899
:1043500003211648FFF7C2FEA000241814480025C8
:1043600021180E462B4605229A200095FDF78AFA61
:104370000F480023553021180C4605229A2000953D
:10438000FDF780FA03210948FFF7D8FE31460023E4
:10439000052298200095FDF775FA21460023052295
:1043A00098200095FDF76EFAF8BD0000DC6A000069
:1043B000E4010020F8B5044610282BD80321164844
:1043C000FFF78CFEA00024181448002521180E4683
:1043D0002B4605229A200095FDF754FA0F4800233A
:1043E000553021180C4605229A200095FDF74AFA0F
:1043F00003210948FFF7A2FE314600230522982039
:104400000095FDF73FFA21460023052298200095EC
:10441000FDF738FAF8BD0000DC6A00008E020020CB
:10442000F8B50BA0FBF7F4FEFDF7CCFC00240D4D16
:104430002646E000411900964A6829580023942036
:10444000FDF79EF9641CE4B2062CF2D3F8BD00001F
:104450004164635F70636D313836325F496E6974F1
:104460000A000000E0580000F8B507461B4CFF208A
:1044700015460E4620637D21C9001948FFF7BCF898
:10448000552020637D21C9001548FFF7B5F80320AA
:1044900020637D21C9001248FFF7AEF88020206319
:1044A0007D21C9000E48FFF7A7F827637D21C900C9
:1044B0000B48FFF7A1F826637D21C9000848FFF7E4
:1044C0009BF825637D21C9000548FFF795F8B819C9
:1044D000401983304042C0B22063F8BD000007405D
:1044E00000000140F8B506460D46002471485A21E7
:1044F000174601607D21C9006F48FFF77DF86D48C0
:10450000A52101607D21C9006B48FFF775F8694856
:10451000042101607D21C9006748FFF76DF86548F7
:10452000022101607D21C9006348FFF765F86148F9
:1045300006607D21C9006048FFF75EF85D480560B0
:104540007D21C9005C48FFF757F85A4807607D2174
:10455000C9005948FFF750F87019C019801D404232
:104560005449C0B20860182E06D0192E14D01A2E45
:1045700023D01B2E32D041E0504F0AE04D4938780D
:1045800008607D21C9004C48FFF736F8641CE4B28E
:104590007F1CAC42F2D331E0484F293F0AE0454945
:1045A000387808607D21C9004348FFF725F8641C6E
:1045B000E4B27F1CAC42F2D320E0404F29370AE03E
:1045C0003C49387808607D21C9003B48FFF714F862
:1045D000641CE4B27F1CAC42F2D30FE0374F523779
:1045E0000AE03449387808607D21C9003248FFF775
:1045F00003F8641CE4B27F1CAC42F2D3022E0FD14C
:104600002F4F00240AE02B49387808607D21C9002B
:104610002948FEF7F1FF641CE4B27F1CAC42F2D3E0
:10462000032E0FD1274F00240AE022493878086072
:104630007D21C9002048FEF7DFFF641CE4B27F1C27
:10464000AC42F2D3212E0FD11FA700240AE0194952
:10465000387808607D21C9001748FEF7CDFF641C3B
:10466000E4B27F1CAC42F2D3222E0FD119A7002452
:104670000AE01049387808607D21C9000E48FEF72D
:10468000BBFF641CE4B27F1CAC42F2D3112E10D1EC
:104690000A4E084FA536002409E0307838607D21A5
:1046A000C9000548FEF7A8FF641CE4B2761CAC42C2
:1046B000F3D3F8BD00000540000001404E09002082
:1046C000050400200B040020417567203139203299
:1046D0003032300031353A32353A3239000000009C
:1046E0000149012048617047004200500149002003
:1046F0004861704700420050074A07498032074B23
:10470000002801D0002000E00120486308634860D1
:10471000D063986188607047004200504043005069
:1047200010B5FDF741FB10BD10B5172000F0B0F932
:10473000012000F0D9F9FDF745FB10BD10B521208F
:1047400000F0A6F9022000F0CFF9FDF73BFB10BD09
:1047500010B5E82000F09CF9082000F0C5F9FDF73D
:1047600031FB10BD05490120486300220A634860FF
:1047700002498031C8630249886170470042005095
:1047800040430050074A012151631163002802D0C1
:104790000020506000E0516002488030C163024850
:1047A00081617047004200504043005010B510A096
:1047B000FBF72EFD012251031448FCF792FE144929
:1047C0000120486313491448FEF716FF134C14499F
:1047D000A07C012802D0022802D004E0114800E0A9
:1047E000114800F023F8E07C00F07CF810BD0000D8
:1047F0006472765F333235315F496E69742A2A2AD2
:104800002A2A2A2A2A2A2A2A0A000000C0400050FE
:10481000C04200508813000000000140AC08002096
:104820006B04000016590000EC610000F3B5002491
:1048300081B0054626460FE06000295CFD2915D0B1
:10484000FE290DD0FF2906D0411900230222942011
:104850000096FDF717F8641C02988442ECDBFEBD5D
:104860007D21C9000848FEF7C7FEF4E74719009606
:104870007A78B91C00239420FDF704F87878401C5E
:1048800040080419E7E7000000000140F8B50020E7
:1048900000F028F8012251030D48FCF722FE0D4CD0
:1048A000012565630C4E0D4F31463846FEF7A4FED8
:1048B0000B493846FEF7A0FE0020606331463846BB
:1048C000FEF79AFE06493846FEF796FE6563F8BD88
:1048D000C0400050C042005088130000000001405A
:1048E000B80B000038B5044603211048FFF79EFFBF
:1048F000A00024180E48002521182B4605229420DC
:104900000095FCF7BFFF03210848FFF78FFF084819
:10491000002355302118052294200095FCF7B2FFA2
:1049200007210448FFF782FF38BD0000105900003E
:1049300090000020C26A000038B5044603211048E8
:10494000FFF774FFA00024180E48002521182B46FD
:10495000052294200095FCF795FF03210848FFF7F6
:1049600065FF084800235530211805229420009542
:10497000FCF788FF07210448FFF758FF38BD000007
:10498000105900003A010020C26A000003490028C3
:1049900001D0002000E001208860704700420050F4
:1049A00005490120486308634860034A00218032BA
:1049B000D163024988617047004200504043005073
:1049C00010B5074C002208212046FCF78AFD002282
:1049D00040212046FCF785FDFDF706F810BD0000DC
:1049E0008040005070B51D4C012291032046FCF719
:1049F00078FD0122D50329462046FCF772FD0122ED
:104A000051032046FCF76DFD012211032046FCF7FF
:104A100068FD012202212046FCF763FD01220421EA
:104A20002046FCF75EFD0D48012229468030FCF748
:104A300058FD012240210A48FCF753FD0849012096
:104A4000C0318860486308634860064AD063054AFD
:104A5000C03290618863C86370BD000000400050A0
:104A600040410050804200500349002801D00020FE
:104A700000E00120C863704700420050034900284D
:104A800001D0002000E00120886370470042005000
:104A900038B5144900244870891C4870891C487036
:104AA000891C487023460222891F94200094FCF739
:104AB00067FE0C4900230222891C94200094FCF715
:104AC0005FFE084900230222091D94200094FCF790
:104AD00057FE044900230222891D94200094FCF70C
:104AE0004FFE38BD8800002038B5402108430A49F0
:104AF00000244870891C487023460222891E942095
:104B00000094FCF73DFE044900230222891C9420F6
:104B10000094FCF735FE38BD84000020074A0121CF
:104B2000002802D00020506300E0516311635160FF
:104B300002488030C16302488161704700420050E2
:104B4000404300500020C0437047000010B50749A3
:104B500020220A7000224A70030A8B70C8700A7102
:104B6000034B0122052000F071FC10BDC0030020A2
:104B7000BF07002010B51E4A222313700023537074
:104B8000002801D002205070002903D05078012164
:104B900008435070174B08221549022000F056FCBC
:104BA0001448134C0178183CC907C90F617141784A
:104BB000CA09E2718A07D20FC9072272C90F61724E
:104BC000C17882780902114349BA216102792273BE
:104BD00042796273C079606107A0FBF719FB617AC3
:104BE00009A0FBF715FB217B0BA0FBF711FB10BD08
:104BF000C0030020BF0700207265616420667265F3
:104C0000713A2025640A000049732076616C69645A
:104C10003A2025640A000000525353493A20256483
:104C20000A00000000B50346FEF796F8184600BDDE
:104C30001CB50020009001901420694608700122E4
:104C400001AB104600F002FC694608791CBD00006B
:104C500010B5174C2046FBF7CFFE032252040C215F
:104C60002046FCF73BF8134C002240212046FCF77D
:104C700038FC002280212046FCF733FC0520000789
:104C8000816B0902090A8163816B112212061143AB
:104C9000816360680121890508436060606849009C
:104CA000084360600448016801221143016010BD9F
:104CB0001CFE23564040005080000E4010B5FEF709
:104CC0003DF8FCF71BFB7F20C00200F085FA0028AE
:104CD00002DA03A0FBF79CFA0B490020086010BD24
:104CE0004661696C656420746F207365742044614B
:104CF000746120466C617368206261736520616431
:104D00006472657373210A000001005070B50C468F
:104D100005460121222000F037F804E0E8B200F057
:104D200007F82070641C6D1EF8D200F075F870BD95
:104D3000F1B50025134C2B462F460126E762A662EB
:104D4000012000F0ABFD022000F0A8FDE66201208A
:104D500000F0A4FDA16A680008435B1CDBB2C5B289
:104D6000082BEBD3E7620098002809D0A762022045
:104D700000F094FDE662012000F090FD2846F8BDA9
:104D8000A662F4E700420050F8B51B4B01240F4621
:104D90000646DC62204600F081FD00259D62012070
:104DA00000F07CFDDD62F807A643C00F064307272D
:104DB000DD62012000F072FD3046F840C007C00FF0
:104DC0009862012000F06AFDDC62012000F066FDBF
:104DD0007F1EEDD5DD629C62022000F05FFDDC628B
:104DE000012000F05BFD986A002804D0FFF75CF911
:104DF00002A0FBF70DFAF8BD00420050206469657F
:104E000020696E2073746172742066756E637469B4
:104E10006F6E200A0000000010B5084B0024DC6211
:104E2000022000F03BFD9C62012000F037FD0124D0
:104E3000DC62204600F032FD9C6210BD0042005052
:104E400070B50C46054600212220FFF79DFF03E0C8
:104E50002078641C00F006F86D1EF9D2FFF7DCFF25
:104E600070BD0000F8B507230026134C0746012546
:104E7000E662012000F012FD3846D840C007C00F9E
:104E8000A062022000F00AFDE562012000F006FDAC
:104E90005B1EEDD5E662A562022000F0FFFCE56234
:104EA000012000F0FBFCA06A002804D0FFF7FCF80A
:104EB00002A0FBF7ADF9F8BD00420050206469651F
:104EC00020696E2077726974652062797465206646
:104ED000756E6374696F6E200A0000000EB50020C5
:104EE000019003200090FDF7EBFEFDF751FF92A02B
:104EF000FBF78EF992A295A197A0FBF789F99C4F39
:104F00009CA03A46F97B193AFBF782F99F4C0026A0
:104F1000254680352846E030203402909C48FDF735
:104F200017F8002800D02E769A48FDF711F80028CF
:104F30003CD07D2109019748FEF79AFCFBF75EFC07
:104F4000FCF7F8F8FBF7FAFCE17C93A0FBF760F9BB
:104F5000E87C002810D0687C012802D002280BD100
:104F600004E00120FFF78AFD002003E00020FFF7A6
:104F700085FD0120FFF778FD287C00280DD0022850
:104F800014D28949A868096888420FD9E07C0828AA
:104F90000CD9E87C002807D008E0607E0228F0D910
:104FA000E87C002802D0ECE71C20E0757F48FCF785
:104FB000CFFF00283BD0FF21F5317C48FEF758FC9D
:104FC000387C002806D1607E02280ED003280CD041
:104FD00000F082FB7648FCF7BBFF002801D0FFF70A
:104FE00085FB607E042803D018E000F0C9FBF1E7E0
:104FF0007048FCF7ADFF002821D06F480121016304
:10500000416341600020FCF7AFF80020FEF7E8FBA9
:105010000020FEF7DDFB6674012060766748FCF730
:1050200097FF002803D0267765A0FBF7F1F8207CD6
:1050300000281CD02674387C002811D017E0019875
:10504000002806D05C4901200863486348600020BE
:1050500004E0594806634663466001200190DDE79D
:105060000120FFF793FC64215948FEF701FC5848E2
:10507000FCF76EFF002804D0387C002801D1FFF730
:1050800085FC207D002808D026750020FFF73AF91E
:105090007D21C9004F48FEF7EBFB4E48FCF758FF57
:1050A000002805D0607D002802D10120FFF72AF9F1
:1050B000E07D00283DD1FCF729FAE0750146029811
:1050C0008079002809D008466538112805D80022C3
:1050D0002720FFF707FAE67501E0002929D1FCF740
:1050E0006BFA02988079002804D0E07D012805D071
:1050F000042806D0E07D002809D01AE00022012112
:1051000001E0002202211520FFF7ECF9E675FCF71B
:105110002BFFE07D00280CD1FDF712FA0098002843
:1051200007D0401EC0B20022009011462320FFF796
:10513000D9F9FDF76DFEF1E60A6D61696E0A0000AE
:1051400031353A32353A3239000000004175672076
:105150003139203230323000636F6D70696C6520F8
:1051600074696D653A2025732025730D0A000000CF
:105170000C0A0020636F6D70696C652074696D6541
:105180003A2025642025730D0A0000008C080020B9
:105190005800002028000020766F6C756D65203D5A
:1051A000202564200A000000D403002020000020F5
:1051B0003000002038000020004200506000002035
:1051C00053554220424F415244204F46460A000068
:1051D00068000020400000207CB50446022168469B
:1051E000FCF7B0F80025ED43002803DA15A0FBF723
:1051F0000FF817E00098C00704D10198A04201D130
:1052000000207CBD164801681022114301600098FF
:10521000022140084000009001946846FCF7B2F873
:10522000002801DA28467CBD7F21C9020DA0FAF7CB
:10523000EFFFFCF769FE0028FBD0012005210907DC
:105240008860DDE70A52656164205573657220430A
:105250006F6E666967206661696C6564210A00008B
:1052600000C000500A536574204461746120466C8C
:1052700061736820626173652061732030782578DE
:105280002E0A000010B50521012000F003F91F21AE
:105290000A4800F0FFF809480921401C00F0FAF81C
:1052A0000321074800F0F6F805481021401C00F0E3
:1052B000F1F8002000F04EF810BD000002130000CD
:1052C0000314000010B505490020087000F024F810
:1052D00003A0FAF79DFFFFF7D5FF10BDA80300203C
:1052E000504F5745522055500A00000010B508484D
:1052F000017800290AD000210170054911201831D8
:1053000008700122034B104600F0A0F810BD000009
:10531000A8030020BF07002070B50C4D2878002896
:1053200012D12846012418300470D0214170052183
:1053300081700146064B0822032000F087F8FF2009
:10534000F530FEF72DFE2C7070BD0000A803002084
:10535000BF070020F8B51522120211261A4C951C21
:10536000360200280DD0194F022815D0042110460E
:1053700000F090F82146284600F08CF801213046D4
:105380001AE00421104600F085F82146284600F076
:1053900081F80221304613E00021284600F07AF817
:1053A0000121304600F076F805200949800200F01E
:1053B00071F806480749401E00F06CF80A2138468B
:1053C00000F068F8F8BD000001FF000002140000C2
:1053D000B01D00002823000010B504460021054838
:1053E00000F058F8A1060120890E800300F052F861
:1053F00010BD000001400000F8B5124E0125FF2449
:10540000B5702D347570FFF7A1FB6420FEF7C8FD61
:1054100000270D4D08E0FF20F53000F03FFA022C88
:1054200002DA012028713770641E03D3FFF700FCF5
:10543000C007F0D001210020FFF79CFBB770707A05
:10544000F8BD0000A8030020CC080020F8B51E46D7
:1054500014460D46074600F033F82946384600F05A
:105460000DF800F02DF8002C03D03146204600F056
:1054700001F8F8BD10B5FFF749FC10BD10B5FFF7F6
:10548000DFFC10BD08B569460120FFF7F3FF684651
:10549000007808BD10B5094A122313700023537019
:1054A000030A9370D070080A1071517100231A46D4
:1054B00002490620FFF7CAFF10BD0000C00300200C
:1054C00070B5FA24650002E0284600F0E7F92146AD
:1054D000641EE4B2002903D0FFF7D4FF0006F3D521
:1054E00070BD10B500231A46C2210220FBF7FAFC5A
:1054F00010BD0000F8B5314C607E05281ED006288E
:105500002BD0254601266035072835D0082814D130
:10551000072060760A202076EE7100221321702089
:10552000FEF7A2FF002218210320FBF731FC00F058
:10553000A3F9FDF721FCFFF701F9F8BD00221621C0
:105540000320FBF725FC06206076FFF7E9F8002230
:1055500010217020FEF788FFF8BD002217210320DC
:10556000FBF716FC08206076002212217020FEF75F
:105570007BFFFFF7D9F8F8BD607A0027002811D02B
:10558000FFF7B4FEEF71002215210320FBF700FCAA
:1055900005206076002211217020FEF765FFFFF7DD
:1055A000BFF8F8BDFFF7A2FEEF71002211217020B5
:1055B000FEF75AFF66761B20E075F8BDAC080020A8
:1055C000F8B5444C617E81421BD0254607220A2350
:1055D0000126603508290BD0062925D0052944D09D
:1055E00007290ED10027052860D006281FD149E0E1
:1055F00005282DD006283DD0072802D102E0FFF76C
:105600008FF8F8BD62762376EE71002213217020A8
:10561000FEF72AFF002218210320FBF7B9FB00F058
:105620002BF9FFF78BF8F8BD052820D110E00828EA
:10563000F9D1002217210320FBF7AAFB082060768E
:10564000002212217020FEF70FFFFFF76DF8F8BD62
:10565000002215210320FBF79BFB0520607600222A
:1056600011217020FEF700FFC9E7062802D00728A5
:10567000DDD1C7E7002216210320FBF789FB0620B6
:105680006076BCE7002216210320FBF781FB062091
:105690006076FFF745F8607A002803D0FFF726FE12
:1056A000EF71E7E7FFF722FEEF710EE0607A002866
:1056B00003D0FFF71BFEEF71CAE7FFF717FEEF718C
:1056C000002211217020FEF7CFFE66761B20E075C8
:1056D000F8BD0000AC08002010B50348007A00288F
:1056E00001D100F003F810BDAC08002070B5224ACB
:1056F0000024D0790123214902280DD005280BD0A0
:10570000072809D0082807D00A2805D00B704D7843
:10571000002D02D04C7001E00C704B70527E082AB4
:1057200015D0072A17D0012A19D002281BD001282A
:1057300019D0032817D0042819D0052817D0062817
:1057400001D0072802D14878FFF71CF870BD01206E
:10575000FFF708F870BD0120FFF722F970BD0020A7
:10576000FEF7CAFF70BD4878FFF7D8F970BD4878DA
:10577000FEF7A0FC70BD0000AC0800201104002062
:1057800010B512498878052801D2401C00E001209C
:105790008870C0B20300FEF711FC060704080C1065
:1057A00014070120FFF7BAF910BD0120FEF782FCB3
:1057B00010BD0120FEF7E6FF10BD0120FEF7D2FF6D
:1057C00010BD0120FFF7ECF810BD0000110400200F
:1057D00010B50446016810A0FAF71AFD11A061681F
:1057E000FAF716FD12A0A168FAF712FD13A0E168FE
:1057F000FAF70EFD14A02169FAF70AFD15A06169F8
:10580000FAF706FD16A0A169FAF702FD17A0E169F3
:10581000FAF7FEFC10BD0000723020203D203078E9
:1058200025780A00723120203D20307825780A0042
:10583000723220203D20307825780A0072332020F3
:105840003D20307825780A00723132203D203078B2
:1058500025780A006C7220203D20307825780A00D7
:10586000706320203D20307825780A007073722004
:105870003D20307825780A0010B5FFF723FD3F2042
:10588000FFF7AAFD0448006CFFF7B6FDFF202D309E
:10589000FEF786FB10BD00008C080020002205E00A
:1058A0000021491CC9B20A29FBD3521C8242F7D3FA
:1058B00070470000001BB7000080000000E04804B3
:1058C00010270000006CDC02000000000000000057
:1058D000008051010100020003000400201026078F
:1058E000D458000002000000D6580000020000005A
:1058F000D858000002000000DA5800000200000042
:10590000DC58000002000000DE5800000200000029
:1059100000007F8C001E00007F00021101110000BA
:1059200000000000000003112A0025180D100200DD
:1059300000007F00028000007F00220300007F0043
:10594000020000007F8C001EFD051C00000000000E
:10595000FD05280000000000FD05340000000000E7
:10596000FD05400000000000001FFD05240020C4CC
:105970009C00FD05307FFFFFFF0000007F8C001CB6
:10598000FD156C7FFFFFFF0000000000000000001D
:10599000000000000000000000007F8C001DFD15CD
:1059A000087FFFFFFF000000000000000000000073
:1059B00000000000000000007F8C001EFD051000AC
:1059C0000000000000007F8C0023FD051400000093
:1059D000010000007F8C0011FD15587FFFFFFF00C4
:1059E00000000000000000000000000000000000B7
:1059F00000007F8C0012FD1544FF845916FF845966
:105A000016FF84591670462B3B9D850DE200000061
:105A10007F8C0013FD15304F9DF9354F9DF9354FA3
:105A20009DF935B61962EAD55555560000007F8CB0
:105A30000013FD155805B75C1FFA48A3E105B75CD4
:105A40001FB61962EAD55555560000007F8C001428
:105A5000FD15087B1DFA7E84E205827B1DFA7E7BA4
:105A600011D2FE89ABBC030000007F8C0014FD1531
:105A70001C4F9DF9354F9DF9354F9DF935B619628B
:105A8000EAD55555560000007F8C0014FD15587F4F
:105A9000FFFFFF0000000000000000000000000009
:105AA0000000000000007F8C0014FD156C7FFFFFDC
:105AB000FF000000000000000000000000000000E7
:105AC000000000007F8C0015FD15087FFFFFFF0020
:105AD00000000000000000000000000000000000C6
