:020000040000FA
:10000000900E0020D1010000D90100007D01000008
:1000100000000000000000000000000000000000E0
:10002000000000000000000000000000DD010000F2
:100030000000000000000000DF010000E1010000FE
:10004000E3010000E3010000E3010000E301000020
:10005000E3010000D90E0000E3010000E30100000D
:10006000E301000005210000E3010000E3010000BE
:10007000A5240000D5240000E3010000E3010000F6
:10008000E3010000E30100009913000015150000D2
:10009000E3010000E301000025270000E301000068
:1000A000E3010000E3010000E3010000E3010000C0
:1000B000E3010000BD070000E3010000791B000020
:1000C00000F002F800F04BF80CA030C808382418F3
:1000D0002D18A246671EAB4654465D46AC4201D180
:1000E00000F03DF87E460F3E0FCCB6460126334267
:1000F00000D0FB1AA246AB4633431847C487000022
:10010000E4870000103A02D378C878C1FAD85207C1
:1001100001D330C830C101D504680C6070470000BD
:100120000023002400250026103A01D378C1FBD813
:10013000520700D330C100D50B60704710B5642959
:1001400002D100F095F810BD782902D100F0C6F870
:1001500010BD002010BD1FB51FBD10B510BD00F0B3
:10016000CDFA1146FFF7F7FF03F0AEF800F0E5FA1D
:1001700003B4FFF7F2FF03BC00F0ECFA0420714671
:10018000084202D0EFF3098001E0EFF308807146E6
:10019000004A10475913000070B505460C46164634
:1001A00002E00FCC0FC5103E102EFAD2082E02D35B
:1001B00003CC03C5083E042E07D301CC01C5361F6E
:1001C00003E021782970641C6D1C761EF9D270BD85
:1001D0000748804707480047FEE7FEE7FEE7FEE7DF
:1001E000FEE7FEE704480549034A054B7047000057
:1001F000711F0000C1000000900A0020900E002036
:10020000900A00200FB4054910B503AA029800F027
:1002100035FA10BC08BC04B0184700000C020020DE
:1002200070B5044685690068C10601D5302600E036
:100230002026C00707D070BD62683046A16890478D
:10024000206A401C20626D1EF6D570BD70B5044654
:1002500085690078C00707D170BD6268A168202059
:100260009047206A401C20626D1EF6D570BD0000CC
:10027000F7B5002575291068009914A611D0C0465D
:10028000C046002802DA404211A608E00099096839
:100290008A0701D50FA602E0490704D50EA601255D
:1002A00001E0C046C046009F0024243704E000F06F
:1002B000F9F930313955641C0028F8D12B46324603
:1002C0002146009800F082F9FEBD00000000000009
:1002D0002D0000002B0000002000000070B5044637
:1002E0000D4621461068C046C0462188090502D542
:1002F0000F4A7A4402E00E4A7A440E322346002125
:10030000243305E006070009360F965D5E54491C4C
:100310000028F7D120780023000705D5702D03D0E1
:10032000002901D002231132204600F04FF970BDA0
:100330008E850000F3B50446002081B0206220467F
:10034000E168884700287DD0252802D06268A1682E
:1003500083E0454F00257F442046E16888472028F8
:10036000064608DB312E06D2B8192038007800285E
:1003700001D00543F0E7A80701D5042085430020FC
:10038000E0610746A0612A2E0AD0304602F0A7FBA2
:10039000002827D0B8000019303E0090866119E08F
:1003A0000298BA00121902C8916102902046E168D1
:1003B0008847012F064617D1E06900281FDA202060
:1003C00085431CE000980A21806948430099801900
:1003D000303888612046E1688847064602F07FFB96
:1003E0000028EFD1012F0AD02E2E08D12046E16837
:1003F00088470646202005437F1C022FC3DBA069E7
:10040000002803DA4042A06101200543E80701D03B
:1004100010208543002E24D030464138192803D8B7
:100420000120C00205432036204625603146029A4D
:100430001546FFF783FE00280CD0012807D0ED1DDC
:10044000E80800E00DE0C0000830029077E72D1DBD
:10045000029574E762683046A1689047206A401CA4
:100460006CE7206AFEBD00005285000000220309EF
:100470008B422CD3030A8B4211D300239C464EE0BF
:1004800003460B433CD4002243088B4231D303097B
:100490008B421CD3030A8B4201D394463FE0C3092D
:1004A0008B4201D3CB01C01A524183098B4201D345
:1004B0008B01C01A524143098B4201D34B01C01A30
:1004C000524103098B4201D30B01C01A5241C308A8
:1004D0008B4201D3CB00C01A524183088B4201D317
:1004E0008B00C01A524143088B4201D34B00C01A03
:1004F0005241411A00D201465241104670475DE018
:10050000CA0F00D04942031000D34042534000229A
:100510009C4603098B422DD3030A8B4212D3FC2243
:10052000890112BA030A8B420CD3890192118B42C2
:1005300008D3890192118B4204D389013AD09211D8
:1005400000E08909C3098B4201D3CB01C01A524193
:1005500083098B4201D38B01C01A524143098B425C
:1005600001D34B01C01A524103098B4201D30B0145
:10057000C01A5241C3088B4201D3CB00C01A52416A
:1005800083088B4201D38B00C01A5241D9D2430851
:100590008B4201D34B00C01A5241411A00D201468E
:1005A000634652415B10104601D34042002B00D5F8
:1005B0004942704763465B1000D3404201B50020BA
:1005C000C046C04602BD704770477047FFB504463D
:1005D0000D4681B0243000902168880604D5102291
:1005E000E0699143216000E00120A84201DD471B42
:1005F00000E000270498A1697A191018081AA06170
:100600002078C00602D42046FFF70AFE002608E044
:1006100003986268A168805D9047206A401C761C40
:10062000206204988642F3DB2078C0060AD5204673
:10063000FFF7F6FD06E06268A16830209047206A67
:10064000401C206238467F1E0028F4DC07E000983A
:100650006268A168405D9047206A401C206228467D
:100660006D1E0028F3DC2046FFF7F0FD2078000621
:1006700002D5022005B0F0BD0120FBE7084B70B5A4
:100680000D467B4400F027F80446284602F012FE8F
:10069000002802D00020C04370BD204670BD00007D
:1006A000352C000001468008081A02091018020AB9
:1006B0001018020C1018C008820012185200891A73
:1006C00001E0401C0A390A29FBD2704701694A1C23
:1006D00002610878704700B58FB002910021059142
:1006E0000549019379440391114604906846FFF748
:1006F00021FE0FB000BD0000E5FFFFFF754600F0D2
:1007000025F8AE46050069465346C008C000854638
:1007100018B020B5FFF766FD60BC00274908B64653
:100720000026C0C5C0C5C0C5C0C5C0C5C0C5C0C500
:10073000C0C5403D49008D46704710B50446C046CF
:10074000C0462046FFF714FD10BD0000004870476A
:100750002C0A002001491820ABBEFEE7260002004B
:1007600070470000CB0709480222002B02D0036823
:10077000934303608B0702D58368934383604907E3
:1007800002D5C1689143C1607047000080000E40EF
:10079000CB0709480222002B02D0036813430360F1
:1007A0008B0702D5836813438360490702D5C1686C
:1007B0001143C1607047000080000E4010B50A4828
:1007C00001210161094A810511600069064C803CE4
:1007D000206B81B206A0FFF715FDE06B81B20EA081
:1007E000FFF710FD10BD000080000E4080E100E02A
:1007F000436F6E76657273696F6E20726573756C88
:1008000074206F66206368616E6E656C2031323AC9
:100810002030782558200A00436F6E766572736920
:100820006F6E20726573756C74206F6620636861EB
:100830006E6E656C2031353A2030782558200A00DC
:1008400030B505480468054D2C400C431443046042
:100850004168436030BD000080000E40F3FBFFFFA5
:100860000248016AC2011143016270470002005050
:100870000EB509490EC900910192810F8A000293B9
:1008800069468A58054951184A68C306DB0E01209B
:10089000984002434A600EBD4C88000000020050A0
:1008A000F0B585B00C460746FFF7DAFF5548544EC1
:1008B0000168002F13D0042211430160102000F0C2
:1008C0008DF90120C00402904F48042503904F4841
:1008D0004F49201888420DD8002004901CE00122C6
:1008E00011430160104600F079F9002002250396BB
:1008F0000290ECE7474848492018884203D8012075
:100900006400049008E04548444920184942884260
:1009100049D80320A40004900026F643002000904C
:10092000019021E029460398FFF7A0FD3C493D4A8C
:100930004118914217D20222344B014651435B1CAD
:10094000CF185B429F420AD8A14201D90B1B00E09D
:10095000631AB34203D21E000095019203D03249BC
:10096000521C8A42E8D96D1C212DDBD904980299CA
:10097000800308430099012249029202891A084320
:100980000199891E08431F490862042000F026F9D6
:1009900004990098491C41430398FFF767FD0199AA
:1009A000484305B0F0BD002F0FD020491548016223
:1009B000042000F013F91EA0006800901148016A9D
:1009C0000013014203D00020EBE71A49EEE70803C9
:1009D00000D50D4E880301D53046E2E70804800FAC
:1009E0006A46105CCA058904C90E891CD20D4143B0
:1009F000B008921C5043FFF739FD8000D1E700009A
:100A0000001BB7000002005000805101FF1E0AFACF
:100A1000FFE0F5057F0F05FD7FF0FA02C08782FE3B
:100A2000FF95E7FFFFB9DB0001020000324C080030
:100A3000010202042E44000002490A6802430A60CF
:100A4000704700000002005010B501F049FA044858
:100A5000006941060348006800D5400810BD000049
:100A6000000200500000002010B501F039FA0448DF
:100A7000006901060348006800D5400810BD000069
:100A80000002005000000020F8B51C4D0446EE683E
:100A9000102006401A48844202D81A48844200D2E4
:100AA00004462868042738432860102000F096F890
:100AB0002869072108432861A86900090001A86185
:100AC000E868C00705D061000020FFF7E9FE044692
:100AD00008E001206100C004FFF7E2FEEE68044672
:100AE000102006400121022000F00EF8002E02D155
:100AF0002868B84328606008F8BD00000002005074
:100B000000A24A0440787D01F3B5114C81B0E5683C
:100B10000F46102005402068042630432060102036
:100B200000F05CF82069072108432061A0690009F2
:100B300000013843A061206988430199084320617E
:100B400001F0CEF9002D02D12068B0432060FEBD37
:100B500000020050F0B51A4B86B01C460834F0CCA9
:100B6000009401ACE0C418CB05940493840A2306D6
:100B70001B0E0ED003039B0F9B0004ADEB58114DD1
:100B80005B19E5B28405E40EA5401C68AC43144330
:100B90001C60420E520710D08200920F92006B46EA
:100BA0009A58084B083BD21803015B0FC001C00ED6
:100BB0008340106898430843106006B0F0BD000001
:100BC0003488000018020050034A11693823994301
:100BD00001431161704700000002005010B5044647
:100BE0000749084B05E00A46491E002A01DC00209F
:100BF00010BDDA6820469043F5D1012010BD0000F9
:100C000080F5200000020050F8B507461B4CFF207D
:100C100015460E4620607D21C900194801F0AAF949
:100C2000552020607D21C900154801F0A3F903205B
:100C300020607D21C900124801F09CF980202060CD
:100C40007D21C9000E4801F095F927607D21C9007A
:100C50000B4801F08FF926607D21C900084801F09A
:100C600089F925607D21C900054801F083F9B8198B
:100C7000401983304042C0B22060F8BD00001540EA
:100C80000000014002480068024908607047000007
:100C900000E100E00C000020034800682021084328
:100CA00002490860704700000C00002000E100E0ED
:100CB00000B5FFF7E7FF0249FF20086000BD000014
:100CC00080E100E0F8B5044600200090FFF7F0FF57
:100CD00013480178134F00220B01F858DB195E68A6
:100CE0009D68DB6800280CD0A560E36041C401204A
:100CF0000022009008013A50C01942608260C26030
:100D000008E0491C521CC9B2D2B2202900D30021EC
:100D1000202AE1D302480170FFF7BEFF0098F8BD1A
:100D2000100000205002002010B5FFF7C1FF002086
:100D3000084B024601015A50C9184A608A60CA60CD
:100D4000401CC0B22028F5D303480270FFF7A4FF6F
:100D500010BD00005002002010000020F8B51C4615
:100D600015460E460746FFF7A3FF0F4800780F4AC7
:100D700000210301D358002B0AD0401C491CC0B2EB
:100D8000C9B2202800D300202029F2D3002406E095
:100D900000011750801846608560C4600124FFF789
:100DA0007BFF2046F8BD000010000020500200200C
:100DB00010B505A0FFF726FA01F078FB01210748DE
:100DC00001F028FC002010BD646562756720756124
:100DD000727420696E6974210A00000000000540E9
:100DE0000249002800D001204862704700420050AC
:100DF00010B501F06BFF02F0A3F80549054801F0BA
:100E0000B9F801F0E7FE012001F06CFF10BD000011
:100E1000881300000000014010B5044601F084FF73
:100E2000204602F031F910BD10B5104C01222021EE
:100E3000204600F096F801221021204600F091F89B
:100E4000012220210A4800F08CF80122510220469C
:100E500000F087F806480021C03001614161054972
:100E6000012048610020FFF7BBFF10BD004000508B
:100E7000404100504043005010B5094C0022012170
:100E8000204600F06EF801220021204600F05CF8B8
:100E9000012204492020086061691143616110BD8D
:100EA000C040005000E100E010B501F023FF01F068
:100EB00071FF0521024801F05DF8FFF799FF10BDB1
:100EC0000000014010B5002001F01AFF01F062FFA0
:100ED00002F0AEF810BD000030B51848016AC9072D
:100EE0000DD0012404621648002381680A46793A2D
:100EF000182A05D20470836003710361C37030BD8A
:100F00000A46183A602A08D283600169491C0161C7
:100F10000A29F4D9C470036130BD0278002A0AD0CE
:100F2000084D0279A954521CD1B20171202902D373
:100F3000037184700370836030BD0000C0400050B6
:100F4000B4010020DA09002010B58369140E8C402A
:100F500023438361C3691202120A8A401343C361A7
:100F600010BDF0B5002301273C469C400C4208D040
:100F700005685C000326A640B5431646A6403543E7
:100F800005605B1C102BEFD3F0BD000070B50A4C60
:100F90000025A078002806D008A0FFF733F900F05C
:100FA0002BFCA57070BDE078002803D0E57008A088
:100FB000FFF728F9002070BDB401002069725F645A
:100FC0006174615F72785F6F6B203D20310A0000B1
:100FD0004C6F6E6750726573730A0000F8B5002499
:100FE000404800F065FC002836D00A213D4801F059
:100FF0000FFA3D48C168002903D08069002802D05B
:1010000002E0012400E00224364D00270C3DA878C0
:10101000002807D001280FD0344E02281DD0042804
:1010200024D139E0002C17D02E486C7014210838D8
:1010300001F0EEF90120A8706878A04216D1294885
:10104000083800F035FC002806D026482849083822
:1010500001F0DEF90220A870F8BD6878A04207D040
:10106000410041182348081800782870AF70F8BD77
:101070001C48083800F01CFC0028F8D019481C490E
:10108000083801F0C5F90420A870687841004118BB
:1010900018480818407808E06878A04209D0410054
:1010A00041181448AF7008188078287001203073F8
:1010B000F8BD0C48083800F0FBFB0028F8D00948C0
:1010C0000B49083801F0A4F90420A870042C01D0C1
:1010D000052CEDD168784100411806480818407881
:1010E0002870F8BD04020020804200501C0A002035
:1010F000DC0500002688000038B5094D284600F0C0
:10110000C7FA284600F0C9FA002401231A462146EE
:101110002846009400F0FCFA02480482047538BDA9
:10112000000002405004002038B5094D284600F068
:10113000AFFA284600F0B1FA002401231A462146EE
:101140002846009400F0E4FA02480482047538BD91
:101150000000124050040020FFB51C4C81B0164620
:101160000746207D0028FCD1194D284600F0AFFA33
:10117000002809D117480178490705D401780422CD
:101180001143017005B0F0BDA77402982060049867
:10119000606026810A9860810026A681E681082089
:1011A000E074268201202075284600F071FA0123A0
:1011B000002219462846009600F0AAFA284600F0B8
:1011C00071FA207D0028FCD1DCE7000050040020EB
:1011D000000012404000002070B51848FFF748FB9F
:1011E000174800F021FE174C0121204600F05FFA5D
:1011F0001549204600F06EFA0120144C800420604E
:101200000221122000F082FB0C48401CFFF730FB4B
:101210000B48401C00F008FE0D4D0121284600F04F
:1012200046FA0C49284600F055FA0120C004206017
:101230000221132000F06AFB70BD0000080000408E
:101240000800000400000240400D030000E100E03F
:1012500000001240A0860100FFB51C4C81B016466C
:101260000746207D0028FCD1194D284600F02FFAB2
:10127000002809D117480178890705D4017802228E
:101280001143017005B0F0BDA77402982060049866
:10129000606026810A9860810026A681E681082088
:1012A000E074268201202075284600F0F1F9012320
:1012B000002219462846009600F02AFA284600F037
:1012C000F1F9207D0028FCD1DCE70000500400206B
:1012D000000002404000002010B51A4C2046FFF7E5
:1012E000C7FA0721002209022046FFF733FC174CFA
:1012F0000121154AC906204600F0D2FE206861058A
:10130000084320600815124908600121092000F0F7
:10131000DBFA2068A1050843206064210D4801F034
:1013200077F80C486421083001F072F8094864210C
:10133000103001F06DF807486421183001F068F8AA
:1013400010BD00000300C05E102700000001014036
:1013500000E100E018000020044603A0FEF752FF61
:10136000204602F035FEFEE7496E20486172642097
:101370004661756C742048616E646C65720A000089
:1013800010B504490020887002480A210C3001F091
:101390003FF810BDF8010020F8B5584EF06801275D
:1013A00000905749B80408607069C043C00726D050
:1013B000544CE17C0098814210D0208A401C20824D
:1013C000208A5149884209D950480178890703D4B5
:1013D0000178022211430170FFF78EFE0098410749
:1013E000490F33D1C01050210025030001F06AFBE2
:1013F0000C0B144A190B2F0B2E560B60822E304605
:1014000000F046F976E041480178890772D4027805
:1014100002210A4302706DE01820E0742582A17C4D
:1014200038E010213A4800F0A5FD2089002861D05D
:101430002820E074258220680178304600F066F9A3
:10144000A781009552E0304600F062F9F8BDA0890E
:10145000218981420BD92821E17425822168095C08
:10146000304600F053F9A189491CA181E9E7608960
:1014700000283FD01020E074258201230022194665
:101480000095E0E76089002834D04020E074258290
:10149000A17C3943304600F039F9D2E76089002851
:1014A00028D0E174258260890128CAD000971DE008
:1014B0002046E489426800924389A3421AD94289AE
:1014C000121B022A00D15821C17400210546018255
:1014D000304600F0F9F800990855E889401CE88189
:1014E0006889001B0228E1D100200090012300221E
:1014F0001146A8E7FFF700FEF8BD0000000002401B
:1015000080E200E05004002088130000400000202A
:1015100000000140F8B5594DE8680126009058498F
:10152000F00408606869C043C00726D0554CE17CD0
:101530000098554F81420FD0208A401C2082208A7B
:101540005249884208D93878400703D438780421B2
:1015500008433870FFF7E8FD00984107490F31D183
:10156000C21028210020130001F0ACFA0C0B134923
:101570001C0B2D0B2C570B65842C284600F088F88B
:1015800078E03878400775D43878042108433870FB
:1015900070E01821E17406462082A17C284600F004
:1015A000B5F81FE02289002A64D0E1740746208242
:1015B00020680178284600F0A9F8A6812BE028468B
:1015C00000F0A6F8F8BDA289238993420CD9E174F2
:1015D000064620822068815C284600F097F8A189A1
:1015E000491CA181009622E06189002942D0102186
:1015F000E17420820123002219460090DFE761890F
:10160000002937D04021E17407462082A17C28467A
:10161000314300F07BF8009709E06189002929D067
:101620005021E174208261890129DBD100900123DE
:1016300000221146C3E7E789616800916189B942D8
:1016400018D96189C91B022912D05021E1740020E8
:101650002082284600F038F801460098C155E089FC
:10166000401CE0816089C01B0228BBD10020DDE75F
:101670005821EBE7FFF758FDF8BD000000001240CD
:1016800080E200E0500400204000002088130000A9
:1016900041690122114341617047016880229143F1
:1016A0000160704701688022114301607047022287
:1016B0000029416901D0114300E091434161416932
:1016C00004221143416170478068C0B27047C0680E
:1016D0007047000070B50C4D044628680A22890046
:1016E0005043FEF7C3FE0A21401DFEF7BFFE401E19
:1016F000206121684022114321608100091D286872
:10170000FEF7B4FE70BD000000000020816070474D
:1017100030B50024039D002900D02024002A01D0E8
:1017200010210C43002B01D008210C43002D01D0C7
:1017300004210C4301683C2291432143016030BDE8
:1017400070B51B4C1B4D617928780E290AD00028F2
:1017500027D0F02815D0F12819D0F32805D0F42887
:101760001FD108E0F1281ED1F3E713A0FEF74AFDD0
:1017700001F084FD15E014A0FEF744FD01F01EFD0C
:101780000FE015A0FEF73EFD02F07CF909E016A07F
:10179000FEF738FD60790E2806D000F0D9F800F089
:1017A0008DFB0020287070BD00F04CFBF9E70000B5
:1017B0001C0A0020F801002070617269206B6579B5
:1017C0002073700A0000000070617269206B6579F7
:1017D0002063700A00000000706F776572206B65EF
:1017E000792073700A000000706F776572206B6556
:1017F000792063700A000000F8B50020264D274FBD
:101800000246034680260121AC5C0F2C00D93043F0
:10181000082900D24008521C491CC9B2D2B208297A
:10182000F2D9F8545B1C0020DBB2042BEBD31B492C
:1018300001200C3948703878122802D00C2811D0B9
:1018400027E07878342824D11448BA780021083069
:101850004B001B185B78934210D0491CC9B20B296E
:10186000F6D316E07878F32813D10C48BA78002123
:1018700020304B001B185B78934206D14A00845CF1
:1018800007A0FEF7BFFC2046F8BD491CC9B20B29D2
:10189000EFD30020F8BD0000DA090020C0010020CD
:1018A00069725F6B65795F6E756D3A25640A000039
:1018B00004490068896A814201D3012070470020F1
:1018C00070470000FC0900208307FF22DB0E9A40CE
:1018D0008907090E994000280BDA0007000F083825
:1018E000830808489B001818C36993430B43C361DE
:1018F0007047830804489B001818036893430B4300
:101900000360704700ED00E000E400E08307FF2281
:10191000DB0E9A408907090E994000280BDA000770
:10192000000F0838830808489B001818C3699343C0
:101930000B43C3617047830804489B001818036871
:1019400093430B430360704700ED00E000E400E0C8
:1019500010B500221521702001F040FA0022552117
:101960000320FFF751F901F0E5FBFFF7ABFA04485C
:10197000012141730349044800F04AFD10BD0000F5
:101980001C0A00208813000030000020F8B53C4EEF
:1019900004467069C007C00FE061B0694007400F9E
:1019A000E06000F09FF9306A364D0002000F2860B9
:1019B000306A0003000F6860306A0127C004C00F5E
:1019C000A860306A0005000FE860306A8006800F6A
:1019D0002861306A0007000F686100F083F9F06940
:1019E0008002800FA861F0690003000FE861F069D0
:1019F0004004400F2862F0690005000F6862F0693A
:101A00004006400FA862F0690007000FE8622868EE
:101A10000A214843696840187D2109014018206067
:101A2000A8680A214843E9684018606028690A21CB
:101A3000484369694018A060E0690028A86904D09B
:101A40000A214843E969401809E00A214843E96945
:101A500040182061152804D3022114382162206126
:101A600000E02762286A0A214843696A40186061D9
:101A7000A86A0A214843E96A4018A061F8BD00003D
:101A8000008000401002002030B5394A5169CB0770
:101A9000DB0FC36191694907490FC16011690902F0
:101AA0000C0F34490C6014692403240F4C60146932
:101AB000E5040124ED0F8D6015692D052D0FCD6016
:101AC0001569AD06AD0F0D6115692D072D0F4D611F
:101AD000D568AD02AD0F8D61D5682D032D0FCD6199
:101AE000D5686D046D0F0D62D5682D052D0F4D6203
:101AF000D5686D066D0F8D62D2681207120FCA622B
:101B00000A680A256A434D6852197D252D0152192C
:101B100002608A680A256A43CD68521942600A69E0
:101B20000A256A434D69521982608A69002B04D0E4
:101B30000A235A43CB69D21809E00A235A43CB69D6
:101B4000D2180261152A04D30223143A03620261F7
:101B500000E004620A6A0A235A434B6AD2184261BF
:101B60008A6A0A23C96A5A435118816130BD00004C
:101B700000800040100200200348C16A890701D597
:101B80000221C162704700000080004070B5154618
:101B90007D220E4612010A21801AFEF767FC0C0412
:101BA000000504430A213046FEF760FC0003204391
:101BB0000C0204430A212846FEF758FC000120438A
:101BC0000C46044300F08EF80148046270BD00002A
:101BD00000800040F8B50E4606991D00144602D15B
:101BE000022900D114300A21FEF740FC0F04000541
:101BF00007430A213046FEF739FC00030E02384342
:101C000006430A212046FEF731FC00013043014320
:101C10000C4600F067F80648002D416904D0012207
:101C200011434161C461F8BD49084900F9E700006A
:101C300000800040F8B516467D220F4612011D4671
:101C40000A21801AFEF712FC0C04000504430A2145
:101C50003846FEF70BFC000320430C0204430A2124
:101C60003046FEF703FC000120430C46044300F01D
:101C700039F869070248490F81610461F8BD000025
:101C800000800040F8B50E4606991D00144602D1AA
:101C9000022900D114300A21FEF7E8FB0F040005E9
:101CA00007430A213046FEF7E1FB00030E023843EA
:101CB00006430A212046FEF7D9FB000130430143C9
:101CC0000C4600F00FF80648002D416904D00122AF
:101CD00011434161C460F8BD49084900F9E70000BB
:101CE000008000400548002141604168C903FCD4E0
:101CF000034941604168C903FCD57047008000403A
:101D000065A9000010B5FFF753F800F08BFB00F059
:101D100019FEFFF761FA10BDF8B50420FEF78CFE3E
:101D20001020FEF75BFF00210720FEF7EDFE0320E9
:101D3000FEF782FE0320FEF751FF2248FEF7A4FEC5
:101D40001820FEF741FF204C2046FEF791FD651C50
:101D50002846FEF78DFDA61C3046FEF789FD1B4F79
:101D60003846FEF785FD1A48FEF782FD1848401CEC
:101D7000FEF77EFD1748FEF77BFD1748FEF778FD5E
:101D80001648FEF775FD1648FEF772FD0022114653
:101D90002046FEF7DFFE002211462846FEF7DAFE57
:101DA000002211463046FEF7D5FE00221146384685
:101DB000FEF7D0FE032252040C210648FEF7CAFEAD
:101DC000F8BD000000A24A04103D805708000080C2
:101DD000080000401CFE23561400C0530200805E21
:101DE0000100206310B559200E4C16228821206076
:101DF000226021602368002BF9D0FFF78DFF00F0EF
:101E000095FA0020206000F0F5FA01F093F9FFF751
:101E10000BF8FFF777FFFFF75FFA00F091F9FEF795
:101E200083FF10BD000100500521020E0907511863
:101E30008B680122824013438B60886890438860DE
:101E40007047000070B5104C002565710120A0712D
:101E500000F018FA0120FEF7C3FF01F01BF80B4950
:101E60000B4800F0D5FA64210A4800F0D1FAFFF7D8
:101E70001BF809490520087065730022162170209F
:101E800000F0ACFF70BD00001C0A0020B80B000081
:101E900028000020300000204100002006498A6907
:101EA0001202FCD408600A2804D188690002FCD41C
:101EB0000D200860704700000000054010B506487E
:101EC0000E2141710021817100F0EAFF7D21C900DE
:101ED000024800F09DFA10BD1C0A002020000020DE
:101EE000F8B51C4D286944071BA000680090296ABA
:101EF000640F2813014201D0002016E0080301D529
:101F0000164800E016488A030FD40A04920F6B4665
:101F10009B5CCA058904D20DC90E891C8008921CDD
:101F200059435043FEF7A2FA80000E4E022CB060D7
:101F300002D00D49A0000858A9690907090F491CDA
:101F4000FEF794FA094930604A108018FEF78EFABD
:101F50007060F8BD000200500102020400805101CF
:101F6000001BB700000000207840000040420F0036
:101F700070470000F8B50C46074600F05DF80546CE
:101F800000200090264829460068FEF76FFA461C9C
:101F900000203860786123498D4205D87D20C0003B
:101FA000844205D2044606E0642C01D2642402E097
:101FB0008C4200D90C461C488D4207D82946FEF7B2
:101FC00055FA01467D20C000604317E0174A95424C
:101FD00003D90722ED0800920CE0154A954203D977
:101FE0000322AD08009205E0124A954202D901226F
:101FF0006D080092FA2CE1D220466843FEF736FACB
:10200000786001210098890708433860002E02D0CB
:1020100000BF761EFCD138688001FCD4F8BD0000FA
:102020000000002040420F0000CA9A3B0090D003FD
:102030000048E8010024F40010B588B004462022CE
:1020400011496846FEF7A8F8104911488C4202D1A0
:102050004069000A0CE00F498C4202D14069000B34
:1020600006E00D4940698C4201D1000C00E0000DF2
:102070004007400F022804D080006946085808B085
:1020800010BD06480068FAE76488000000000140BF
:10209000000200500001014000001140000000203B
:1020A000F7B517460646FFF7C7FF04460025400868
:1020B000B84201D2022014E00F498C4202D9072510
:1020C000E4080AE00D498C4202D90325A40804E083
:1020D0000B498C4201D90125044639462046FEF7BA
:1020E000C5F901992943316070606D1C6843014650
:1020F0002046FEF7BBF9FEBD0090D0030048E80182
:102100000024F4000A490878401CC0B208700A286C
:1021100005D3002008700748816A491C816206497E
:102120000868401C0860054901208860704700006D
:1021300014000020FC090020BC0100200001014027
:1021400010B5FEF799FE00F0E3FF10BD10B5044690
:10215000012211020248FEF704FF0248046210BD8A
:10216000C0400050C042005070B516481E250446BD
:10217000455F20340121E078222D02DA2170884366
:102180001DE008432946104A2239E07091420DD8DB
:1021900007212170DF210840E07028467921FEF7F1
:1021A0006FF9217909090901084320711F20800175
:1021B000854205DD06202070E07820210843E0708C
:1021C00070BD0000FC0900209E07000010B5002033
:1021D00000F058F808490120886307490020403979
:1021E0000862054980318863034940314860012015
:1021F000FFF7ACFF10BD000040420050094A1369D0
:102200000948002BC17806D005238370FB231940B1
:10221000C170002004E0042383701943C1700120C1
:1022200050607047804200501C0A0020144B10B5CB
:10223000182218469A5E2030C178222A04DA032236
:102240004270FD22114018E002242143C1701E2477
:102250001C5F1F239B019C4208DC0A244470BF249E
:102260002140C17001790907090F01719A4205DD0A
:1022700009214170C17840221143C17010BD000096
:10228000FC0900200249002800D001208860704726
:1022900080420050F8B5234E054603460C2200212B
:1022A0003046FEF7CDFA1F4C8034206801273843B2
:1022B000206039463046FEF76BFA27612068F90244
:1022C000084320602069C007FCD001202061164A25
:1022D00029460020CB0704D083009B191B684700C8
:1022E000D353401C4908C0B21028F3D32069C0075B
:1022F000FCD020680121C9028843206000213046BB
:10230000EB0704D08B001B181B684E009353491C2D
:102310006D08C9B21029F3D301212161FEF722FA19
:10232000F8BD000000000E40FC0900200D48416887
:10233000420411434160002105200007416301630D
:102340005201C263084A8263332208481201426084
:1023500001603021C1608160054941610906016168
:1023600070470000404000500088001040000050BE
:1023700011004400F8B50122150229461C48FEF759
:10238000F0FD1B4C0022803410212046FEF7E9FDB1
:102390002946174D0122C0352846FEF7E2FD144EAE
:1023A00001214036002289023046FEF7DAFD012184
:1023B0000022C9023046FEF7D4FD012297033946B8
:1023C0002846FEF7CEFD002280212846FEF7C9FDF3
:1023D000012204212046FEF7C4FD01223946304681
:1023E000FEF7BFFD012202212046FEF7BAFDF8BD2F
:1023F0000040005010B5FFF7BDFFFFF7E7FE00F00B
:1024000031FF02480021C170017110BD1C0A00207B
:10241000034A936A4360926A511801607047000052
:10242000FC09002010B50CA0FDF7ECFE00F056F8FA
:1024300000F068F80E4801680EA0FDF7E3FE11A059
:10244000FDF7E0FE0121154800F0E4F801211448F1
:1024500000F0E0F8002010BD7472616E7366657262
:10246000207561727420696E6974210A0000000091
:10247000000000200A0A43505520402025642048CF
:102480007A0A00000A554152542053616D706C6500
:102490002050726F6772616D0A00000000401540A5
:1024A0000000154010B500F0CDF810BD0520000764
:1024B000C268012109040A43C260C2688A43C2603B
:1024C0000348024941620321C16070476600003041
:1024D0000000054010B500F035F810BD05200007DC
:1024E000C268012149040A43C260C2688A43C260CB
:1024F0000348024941620321C16070476F02003006
:102500000000154005200007C268012189040A4324
:10251000C260C2688A43C260084807494162032119
:10252000C16007480021817501768176C1754176C9
:102530000121C17670470000660000300040154060
:10254000BE09002070B5234C0121204600F046F85A
:10255000E169C9070FD020681F4CC0B2E27800259E
:102560000121130000F0AEFA0805080F161A1D200D
:102570002725FF282BD070BD552802D0FF28FAD080
:1025800017E0022013E0042801D103200FE0FF2808
:102590001DD00EE08028FAD1042008E0207005202C
:1025A00005E06070062002E00028F0D10720E0700E
:1025B00070BDE57070BDFF2809D0627800232178D6
:1025C0000120FEF7CBFBFF2020706070F1E7E17087
:1025D00070BD000000001540440000204A0501D5F0
:1025E000682282610A0503D5426901231A434261C8
:1025F0008A0401D5064A82614A0401D5426C4264CC
:10260000090403D58021C161816B8163704700009B
:102610000100000142680A434260074B0122120395
:102620000649984201D10A607047054B9842FAD199
:1026300001204003086070470000054000E100E011
:102640000000154070B51D4E01213046FFF7C6FF52
:102650001B4C01212046FFF7C1FFF0690025C00790
:10266000184B002818D03068C0B2302800D1DD6087
:1026700059680122920291420ED213499A688854F5
:1026800098681249884201D1002001E09868401CF6
:1026900098605868401C5860E069C0050DD50C4A28
:1026A000E069C00709D0206899785054491CC8B225
:1026B00098708C28F4D99D70F2E770BD0000054039
:1026C000004015404400002068040020FF03000083
:1026D0006808002010B5052000070269FF210131BC
:1026E0000A43026102698A4302610B4C02202060A6
:1026F0000A48E0621020206107484030C169420664
:102700001143C1610648FFF78FFB4B2109022046A8
:1027100000F040F910BD0000000007400108000073
:102720000800000810B500F0C5F810BD10B50FA0E6
:10273000FDF768FD1DA0FDF765FD0CA0FDF762FD2E
:102740002AA0FDF75FFD39A0FDF75CFD47A0FDF76E
:1027500059FD06A0FDF756FD54484168102211436B
:10276000416053499004086010BD00002B2D2D2DB1
:102770002D2D2D2D2D2D2D2D2D2D2D2D2D2D2D2D89
:102780002D2D2D2D2D2D2D2D2D2D2D2D2D2D2D2D79
:102790002D2D2D2D2D2D2D2D2D2D2D2D2D2D2D2D69
:1027A0002D2D2D2D2D2D2D2D2B0A00007C2020557B
:1027B00053434920554152542046756E6374696FE6
:1027C0006E2054657374202020202020202020209B
:1027D00020202020202020202020202020202020F9
:1027E00020202020202020207C0A00007C20204463
:1027F00065736372697074696F6E203A20202020BF
:1028000020202020202020202020202020202020C8
:1028100020202020202020202020202020202020B8
:1028200020202020202020207C0A00007C20202046
:10283000205468652073616D706C6520636F6465FA
:102840002077696C6C207072696E7420696E707587
:10285000742063686172206F6E207465726D696E9A
:10286000616C2020202020207C0A00007C20202079
:1028700020506C6561736520656E74657220616EB1
:102880007920746F207374617274202020202028B6
:1028900050726573732027302720746F2065786924
:1028A00074292020202020207C0A000000000740FE
:1028B00000E100E070B52148C16BC90739D1406B18
:1028C0001F4CC0B2E27800250121130000F0FAF895
:1028D00008050910131A1D202430FF2829D1E170A2
:1028E00027E0552802D0FF2823D021E0022011E064
:1028F00003280FD001E0802802D0FF28EFD017E096
:10290000042007E02070052004E06070062001E04C
:10291000A0700720E0700CE0FF28E0D0A378627878
:1029200021780220FEF71AFAFF2020706070A07054
:10293000E570024910204031486270BD0000074038
:102940005400002010B5FFF7C5FE0648016806A038
:10295000FDF758FC08A0FDF755FCFFF7E7FE002047
:1029600010BD0000000000200A0A435055204020FE
:10297000256420487A0A00000A55534349205541EE
:1029800052542053616D706C652050726F67726194
:102990006D0A0000F0B50646474885B00D468642F0
:1029A00002D04648864202D1FEF74EF801E0FEF71B
:1029B0005BF829460290FDF759FD0446014602984E
:1029C000FDF754FD471B611C0298FDF74FFD281AC7
:1029D000874200D3641C01200004844205D31020E8
:1029E00004250090800101903CE00121890301252C
:1029F00008466843A04203D26D1C042DF8D901E0BB
:102A0000042D00D9042529462046FDF72FFD03900B
:102A100000200027FF4300900624019021460398E0
:102A2000FDF724FD01218902884205D90846039952
:102A3000A2028A1A511C07E00146039A6143521A06
:102A4000411C039B6143C91A8A4201D3401C00E028
:102A50001146B94203D20F000094019002D0641CC9
:102A6000102CDBD93068C008C00030600220306014
:102A70001348F06210203061009901988A02012108
:102A8000401E89020004511A08432902FF39013906
:102A90000843B060F06D0121C9070843F06529467D
:102AA0000298FDF7E3FC0099FDF7E0FC0199FDF7C2
:102AB000DDFC05B0F0BD000000000740004007400D
:102AC0000108000030B47446641E2578641CAB42D3
:102AD00000D21D46635D5B00E31830BC18473038F8
:102AE0000A2801D20120704700207047074A0121BF
:102AF000516311635160064A002802D000209061A2
:102B000000E0916101488030C1637047004200508D
:102B100040430050F3B5002481B0054626460FE03F
:102B20006000295CFD2914D0FE290DD0FF2906D0B4
:102B300041190023022298200096FEF78DFB641CA9
:102B400002988442ECDBFEBD08490948FFF712FAFF
:102B5000F5E7471900967A78B91C00239820FEF70C
:102B60007BFB7878401C40080419E8E788130000D4
:102B700000000140F3B5002481B0054626460FE071
:102B80006000295CFD2914D0FE290DD0FF2906D054
:102B90004119002302229A200096FEF75DFB641C77
:102BA00002988442ECDBFEBD08490948FFF7E2F9D0
:102BB000F5E7471900967A78B91C00239A20FEF7AA
:102BC0004BFB7878401C40080419E8E788130000A4
:102BD0000000014010B500F047F800F04FF808A0E1
:102BE000FDF710FB7D21C9000C48FFF7C3F900F089
:102BF00017F8052000F098F800F04AF810BD000022
:102C00006472765F353832355F496E69742A2A2AD4
:102C10002A2A2A2A2A2A2A2A0A0000000000014019
:102C200010B5084C08A02146FDF7ECFA21460C48E7
:102C3000FFF770FF00F02CF821460A48FFF79AFFD3
:102C400010BD0000610F000073697A656F6628721D
:102C5000656769737465727329203D2025640A00D5
:102C6000A24A00006469000010B500220421024855
:102C7000FEF777F910BD00004041005010B501216A
:102C80000022C9020148FEF76CF910BDC040005097
:102C900038B503210C48FFF73DFF00240A492346BD
:102CA0000422891D98200094FEF7D6FA03210648D5
:102CB000FFF760FF044900230422891D9A20009435
:102CC000FEF7CAFA38BD0000944A000010B5012290
:102CD00091020348FEF745F9002000F003F810BD0B
:102CE000C04000500249002800D00120886270478F
:102CF000C042005010B5012000F002F810BD0000E5
:102D000010B50446012211030548FEF72AF90548CB
:102D1000002C01D0012100E00021016310BD000062
:102D2000C0400050C0420050F8B5044610282BD8CF
:102D300003211648FFF7EEFEA000241814480025D2
:102D400021180E462B46052298200095FEF784FA9E
:102D50000F480023553021180C4605229820009575
:102D6000FEF77AFA03210948FFF704FF31460023F2
:102D700005229A200095FEF76FFA214600230522CE
:102D80009A200095FEF768FAF8BD00008E4A000010
:102D90000A010020F8B50BA0FDF734FA00240E4D0F
:102DA0002646E000411900964A68295800239420DD
:102DB000FEF7D2F9641CE4B2062CF2D3042000F032
:102DC00005FAF8BD4164635F70636D313836325F78
:102DD000496E69740A000000A4400000F8B5074677
:102DE0001B4CFF2015460E4620637D21C900194863
:102DF000FFF7C0F8552020637D21C9001548FFF773
:102E0000B9F8032020637D21C9001248FFF7B2F80A
:102E1000802020637D21C9000E48FFF7ABF82763AF
:102E20007D21C9000B48FFF7A5F826637D21C90065
:102E30000848FFF79FF825637D21C9000548FFF783
:102E400099F8B819401983304042C0B22063F8BDE8
:102E5000000007400000014010B50122D1020A48DD
:102E6000FEF77FF8094A0123D3620949002000BF19
:102E7000401C8842FBDB0020D06200BF401C88421F
:102E8000FBDBD36210BD0000004100500043005046
:102E9000204E000001490120486170470042005067
:102EA000014900204861704700420050084A084923
:102EB0008032084B002801D0002000E00120486348
:102EC00008634860D06398618860C86070470000FC
:102ED000004200504043005010B5042000F076F945
:102EE00010BD10B5012000F071F910BD10B5022021
:102EF00000F06CF910BD0000054901204863002274
:102F00000A63486002498031C8630249886170479A
:102F10000042005040430050074A012151631163B1
:102F2000002802D00020506000E05160024880304C
:102F3000C163024881617047004200504043005025
:102F400010B50EA0FDF75EF9012251031248FEF7FD
:102F500008F812490120486311491248FFF70AF89E
:102F6000114C12A02146FDF74DF92146174800F0FB
:102F70002FF8052000F088F810BD00006472765F1D
:102F8000333235315F496E69742A2A2A2A2A2A2A5D
:102F90002A2A2A2A0A000000C0400050C0420050DD
:102FA0008813000000000140D304000033323531A3
:102FB0005F73697A656F662877665F7265676973A4
:102FC0007465727329203D2025640A00DA400000F0
:102FD000F3B5002481B0054626460FE06000295C69
:102FE000FD2915D0FE290DD0FF2906D04119002357
:102FF000022294200096FEF72FF9641C0298844266
:10300000ECDBFEBD7D21C9000848FEF7B3FFF4E705
:10301000471900967A78B91C00239420FEF71CF912
:103020007878401C40080419E7E7000000000140E0
:10303000F8B5002000F028F8012251030D48FDF7F3
:1030400090FF0D4C012565630C4E0D4F31463846FF
:10305000FEF790FF0B493846FEF78CFF00206063B7
:1030600031463846FEF786FF06493846FEF782FFAE
:103070006563F8BDC0400050C04200508813000096
:1030800000000140B80B000038B504460321104889
:10309000FFF79EFFA00024180E48002521182B469C
:1030A000052294200095FEF7D7F803210848FFF782
:1030B0008FFF0848002355302118052294200095E1
:1030C000FEF7CAF807210448FFF782FF38BD000069
:1030D000D440000060000020804A0000034900281E
:1030E00001D0002000E001208860704700420050BD
:1030F00005490120486308634860034A0021803283
:10310000D16302498861704700420050404300503B
:1031100010B5074C002208212046FDF722FF0022AF
:1031200040212046FDF71DFFFEF72AF910BD0000E3
:103130008040005070B51E4C012291032046FDF7DF
:1031400010FF0122D50329462046FDF70AFF012280
:1031500051032046FDF705FF012211032046FDF72C
:1031600000FF012202212046FDF7FBFE012204217F
:103170002046FDF7F6FE0E48012229468030FDF775
:10318000F0FE012240210B48FDF7EBFE094901202A
:10319000C0318860486308634860074AD063064AC4
:1031A000C03290618860C86088630020C86370BDC9
:1031B00000400050404100508042005010B50022B5
:1031C00021210320FDF720FD10BD000038B5044685
:1031D000014610A0FDF716F840200443124821468E
:1031E0004470851C6C7011A0FDF70CF8697816A06E
:1031F000FDF708F8002423460222A91E942000941B
:10320000FDF7AAFF00230222294694200094FDF72F
:10321000A3FF38BD70636D5F6368616E6E656C207F
:103220003D2025780A0000005800002070636D31B1
:103230003836325F6368616E6E656C5F4C5B315D22
:10324000203D2025780A000070636D313836325FEA
:103250006368616E6E656C5F525B315D203D202559
:10326000780A000010B509200003FFF713F8FEF7F5
:103270007BFFFEF7DBFFFEF7C1FF10BD10B500229C
:1032800050210320FDF7C0FC10BD0000074A0121BA
:10329000002802D00020506300E0516311635160A8
:1032A00002488030C163024881617047004200508B
:1032B000404300500020C043704700B50346FEF76E
:1032C000EDFD184600BD000088B0012700203E46F5
:1032D0003D460690FEF786FDFEF7F0FDFDA0FCF7EB
:1032E00091FFFE4CFE48FEF7E3FA002825D0FF21AF
:1032F000F531FB48FFF78CF8A079002803D00120B6
:10330000607100F091FCF748FEF7D2FA002801D076
:10331000FFF7C6FD60790E280FD1F348FEF7C8FA13
:10332000002829D0F1490120086348634860002043
:10333000FDF756FD0020FEF7A5FF207B002808D0F2
:10334000002020730120FFF7C9FE6421E848FFF741
:103350005FF8E748FEF7ACFA002802D00020FFF73C
:10336000BDFE01A8FDF7AEFC00287DD00198012824
:1033700014D0022878D13BE10698002806D0DB491A
:103380000120086348634860002005E0D749002019
:1033900008634863486001200690CEE70498C2B2F3
:1033A0000398C1B20298C0B2FFF718FDD1A0039AEA
:1033B0000299FCF727FF029808280FD103980028EC
:1033C000D8D10146D9A0FCF71DFF03980022C1B255
:1033D0000298C0B2FFF702FD0020A07102980928F0
:1033E0002AD103980128C5D1BC486B462038C08B30
:1033F0000104090E5970C2B21A702078012802D057
:10340000C809C001587059780920FDF7FDFBB34881
:103410002038028B1004010E68464170D2B202704F
:103420006078032803D060200140684641706846F8
:1034300041780920FDF7E8FB0298072803D1C1A0D5
:103440000399FCF7DFFE0298042803D1C3A0039977
:10345000FCF7D8FE02980F2813D10398192807D13A
:1034600009206071C3A000E0C1E00399FCF7CAFE27
:103470000398172805D108206071BEA00399FCF7B6
:10348000C1FE02980D2805D10020FDF7A9FC0020FF
:10349000FEF7F8FE0298062850D10398062804D1BA
:1034A00006216171B9A0FCF7ADFE0398072804D18D
:1034B00007216171B5A0FCF7A5FE0398022804D18D
:1034C00002216171B1A0FCF79DFE0398042805D18B
:1034D00001206071ADA00399FCF794FE03980528C4
:1034E00005D103206071A9A00399FCF78BFE039816
:1034F000112805D105206071A4A00399FCF782FE74
:103500000398122805D104206071A0A00399FCF74C
:1035100079FE03980B2804D10B2161719BA0FCF765
:1035200071FE0398092803D0082801D0162805D178
:103530000C20607195A00399FCF764FE0298112895
:1035400005D10498C1B20398C0B200F013FD0298EF
:10355000122805D10498C1B20398C0B200F086FCCD
:103560000298132805D10498C1B20398C0B200F0A4
:10357000A7FC0298142805D10498C1B20398C0B2E0
:1035800000F0CAFC0298152805D10498C1B203982E
:10359000C0B200F019FC0298162805D10498C1B2F7
:1035A0000398C0B200F08EFB0298172805D104984A
:1035B000C1B20398C0B200F0ADFB0298182805D143
:1035C0000498C1B20398C0B200F0D0FB0298192849
:1035D00001D100F025FC02981A2801D100F04CFB23
:1035E0000298202803D101220021FDF70DFB31E1D3
:1035F0000298032802D103985528F8D00498C2B243
:103600000398C1B20298C0B2FDF7FEFA02980128F1
:1036100007D103980028EAD12279E1780120FFF749
:10362000DDFB0298032853D1039803280ED15D498E
:10363000087800284CD0401EC0B20870FDF7ECFBA3
:1036400059A0FCF7DFFD0298032841D10398022816
:103650000ED1544908780F283AD2401CC0B20870E5
:10366000FDF7DAFB56A0FCF7CDFD029803282FD119
:103670000398152807D10120607158A0FCF7C2FDFE
:103680000298032824D10398162807D106206071D8
:1036900057A0FCF7B7FD0298032819D10398172803
:1036A00007D10820607157A0FCF7ACFD02980328F1
:1036B0000ED10398182807D10A20607151A0FCF799
:1036C000A1FD0298032803D10398C02801D1A1E0ED
:1036D000C0E0A7E00A6D61696E0A00001C0A0020C4
:1036E0002000002028000020300000200042005070
:1036F000380000204D53475F34475F5359535F53A1
:10370000544154455F494E443A6D73672E7061725F
:10371000616D30203D2025782C206D73672E7061FF
:1037200072616D31203D202578200A0030783038D4
:103730002C206D73672E706172616D31203D2025E4
:1037400078200A00307830372C206D73672E706136
:1037500072616D31203D202578200A0030783034A8
:103760002C206D73672E706172616D31203D2025B4
:1037700078200A00307830462C206D73672E7061F7
:1037800072616D31203D202578200A003078303676
:103790002C206D73672E706172616D31203D202584
:1037A00078200A004100002048616C5F4461705F2E
:1037B0004C6F61645F766F6C5F6164640A00000047
:1037C00048616C5F4461705F4C6F61645F766F6CE1
:1037D0005F7265647563650A00000000466F75726C
:1037E000475F574946495F4348414E4E454C0A00A2
:1037F000466F7572475F42545F4348414E4E454C99
:103800000A000000415558494E5F4348414E4E451D
:103810004C0A0000FFF720FB28A0FCF7F3FC0298FD
:10382000032817D10398C12805D127A0FCF7EAFC8B
:10383000029803280ED10398C22805D124A0FCF7D2
:10384000E1FC0298032805D10398C32802D123A0E4
:10385000FCF7D8FC00F0D0F8FDF7C0FBFDF770FFD7
:1038600005980003000FB84207D10F2F02D27F1C2A
:10387000FFB200E0002700F071F805984003000F48
:10388000B0420BD10F2E02D2761CF6B200E0002619
:10389000FFF7E8FC00F072F900F05CF80598000210
:1038A000000FA84205D10F2D02D26D1CEDB200E031
:1038B00000250598401C059014E50000666D2072F7
:1038C000657365740A000000696E736964650A00B7
:1038D0006F7574736964650A000000006175746F28
:1038E000736964650A00000000B50A4841790A4816
:1038F0000B00FFF7E7F80B0D09090909090909078A
:10390000070B0D00012102E0042100E00521016008
:1039100000BD00001C0A00204802002010B5FFF77F
:10392000E3FF0B4C03CC083C814210D00300FFF7AF
:10393000C9F8060C040707070A0CFFF7D2FA04E0DF
:10394000FFF7CAFA01E0FFF7D1FA2068606010BD06
:103950004802002010B5FFF7E1FF10BDF8B51F4881
:10396000E722C178837800251D4C0A40042B01D042
:10397000A56321E01A4E03780127C03E072B02D031
:10398000062B07D019E0A7633762F762EF221140D8
:1039900008220BE043780A2B02D0092B09D00CE057
:1039A000A7633562F562F722114010221143C170FE
:1039B00003E0A5633562F762C270C1780948074A1F
:1039C00003781279994202D143789A4204D0017067
:1039D00042700120FFF702FAF8BD00001C0A002027
:1039E000C04200504002002010B500231A46C121F9
:1039F0000220FDF7B3F910BD10B5FDF7C7FA01229B
:103A00001F490300FFF75EF80E100814181C24204D
:103A1000282C3034101038100A7348790E2804D03E
:103A2000FDF796FFFEF74AFA10BDFEF70BFA10BD40
:103A30000A7300F027F810BD0A7300F097F810BD64
:103A40000A7300F08BF810BD0A7300F05FF810BD28
:103A50000A7300F073F810BD0A7300F067F810BD28
:103A60000A7300F073F810BD0A7300F057F810BD28
:103A70000A73FFF7B9FF10BD0A7300F03FF810BDDD
:103A80001C0A002010B51C4C60790300FFF71AF8DF
:103A90000B25101010101019190707192500002305
:103AA000162203210220FDF759F90022102110E00F
:103AB0000023172203210220FDF750F900221221D2
:103AC00007E00023152203210220FDF747F9002219
:103AD00011217020FFF782F910BD00231722032166
:103AE0000220FDF73BF9002212217020FFF776F942
:103AF0000820607110BD00001C0A002010B50023D2
:103B0000212203210220FDF729F910BD10B5002361
:103B10000D2203210220FDF721F910BD10B500236D
:103B2000312203210220FDF719F910BD10B5002341
:103B3000562203210220FDF711F910BD10B5002314
:103B40000E2203210220FDF709F910BD10B5002354
:103B5000322203210220FDF701F910BD10B5032226
:103B6000002311460220FDF7F9F810BD10B502221E
:103B7000002303211046FDF7F1F810BD10B50348EE
:103B80008079002801D100F003F810BD1C0A002044
:103B900010B52348002340790122224902280DD084
:103BA00005280BD0072809D0082807D00A2805D0F7
:103BB0000A704C78002C06D04B7005E00B704A70F0
:103BC000022819D000E04A70012815D0032813D02C
:103BD000042815D0052813D0062815D0072813D09F
:103BE000082815D0092813D00A2815D00D2802D18D
:103BF0000020FFF75BF910BD4878FFF747FB10BDC9
:103C00004878FEF773FF10BD4878FFF785F910BDBF
:103C10000120FFF771F910BD0120FFF769FA10BD0F
:103C20001C0A00204202002010B51249887805289D
:103C300001D2401C00E001208870C0B20300FEF7F2
:103C400041FF060704080C1014070120FFF71EFBB4
:103C500010BD0120FEF74AFF10BD0120FFF75CF9FF
:103C600010BD0120FFF748F910BD0120FFF740FA11
:103C700010BD00004202002000B589B06846FDF783
:103C800085FE01987D21C2B200980901401AC1B297
:103C90001520FCF7B9FF0398C2B20298C1B21620F2
:103CA000FCF7B2FF0598C2B20498C1B21720FCF726
:103CB000ABFF0798C2B20698C1B21820FCF7A4FF68
:103CC00009B000BD70B58CB0044603A8FDF75EFED8
:103CD000049E039D0097019723463246294605A07E
:103CE0000297FCF78FFA224631462846FDF74EFF31
:103CF0000CB070BD0925642F253032642F25303279
:103D00006420253032643A253032643A25303264FA
:103D10000A000000F0B591B004460D4603A8FDF777
:103D200035FE0B980C900A9F099E684670C00DA93D
:103D30000EC906A0FCF766FA0C9800903B46324686
:103D400029462046FDF746FF11B0F0BD0925642F36
:103D5000253032642F2530326420253032643A25F4
:103D60003032643A253032640A000000F0B591B078
:103D700004460F4603A8FDF709FEF807079DC00F8C
:103D80000294089E0C90019600950DA90EC97F081B
:103D900005A0FCF737FA22463146284600970C9BCF
:103DA000FDF718FF11B0F0BD0925642F25303264EE
:103DB0002F2530326420253032643A253032643A7F
:103DC000253032640A00000070B58CB005460C4600
:103DD00003A8FDF7DBFD7D2000012D18059E00974F
:103DE000019733462946224605A00297FCF70AFAB6
:103DF000324628462146FDF7C9FE0CB070BD0000D2
:103E00000925642F253032642F2530326420253077
:103E100032643A253032643A253032640A000000B8
:103E200000B589B06846FDF72FFE01987D21C2B22A
:103E300000980901401AC1B21120FCF7E5FE039871
:103E4000C2B20298C1B21220FCF7DEFE0598C2B2DF
:103E50000498C1B21320FCF7D7FE0798C2B20698A7
:103E6000C1B21420FCF7D0FE09B000BDF0B58FB090
:103E700004460F4605A8FDF707FE03A866C8009292
:103E8000019132462946234605A0FCF7BBF93B4683
:103E9000224631462846FDF7CDFE0FB0F0BD0000AA
:103EA0000925642F253032642F25303264202530D7
:103EB00032643A253032643A253032640A00000018
:103EC000F0B591B004460D4603A8FDF7DDFD0B9853
:103ED0000C900A9F099E684670C00DA90EC906A0E5
:103EE000FCF790F90C9800903B4632462946204654
:103EF000FDF7C8FE11B0F0BD0925642F25303264EE
:103F00002F2530326420253032643A253032643A2D
:103F1000253032640A000000F0B591B004460F4627
:103F200003A8FDF7B1FDF807079DC00F0294089E96
:103F30000C90019600950DA90EC97F0805A0FCF70D
:103F400061F922463146284600970C9BFDF79AFE00
:103F500011B0F0BD0925642F253032642F25303291
:103F60006420253032643A253032643A2530326498
:103F70000A000000F0B58DB005460C4603A8FDF719
:103F800083FD7D2000012D1802990198069F059E52
:103F90000191029029463346224605A0FCF732F9EA
:103FA0003B46324628462146FDF744FE0DB0F0BDA3
:103FB0000925642F253032642F25303264202530C6
:103FC00032643A253032643A253032640A00000007
:103FD00010B50446016810A0FCF714F911A061683F
:103FE000FCF710F912A0A168FCF70CF913A0E16826
:103FF000FCF708F914A02169FCF704F915A0616920
:10400000FCF700F916A0A169FCF7FCF817A0E1691C
:10401000FCF7F8F810BD0000723020203D20307809
:1040200025780A00723120203D20307825780A005A
:10403000723220203D20307825780A00723320200B
:104040003D20307825780A00723132203D203078CA
:1040500025780A006C7220203D20307825780A00EF
:10406000706320203D20307825780A00707372201C
:104070003D20307825780A00001BB7000080000042
:1040800000E0480410270000006CDC020000000083
:104090000000000000805101010002000300040044
:1040A0002010260798400000020000009A400000FF
:1040B000020000009C400000020000009E40000042
:1040C00002000000A040000002000000A24000002A
:1040D0000200000000007F8C001E00007F00021123
:1040E0000111000000000000000003112A00251843
:1040F0000D10020000007F00028000007F002203FC
:1041000000007F00020000007F8C001EFD051C00E7
:1041100000000000FD05280000000000FD0534003F
:1041200000000000FD05400000000000001FFD052C
:10413000240020C49C00FD05307FFFFFFF0000002D
:104140007F8C001CFD0B6C7FFFFFFF000000000058
:104150000000FD0B760000000000000000000000E1
:1041600000007F8C001DFD0B087FFFFFFF0000009B
:1041700000000000FD0B1200000000000000000025
:10418000000000007F8C001EFD05100000000000F4
:1041900000007F8C0023FD051400000001000000DA
:1041A0007F8C0011FD0B587FFFFFFF000000000017
:1041B0000000FD0B62000000000000000000000095
:1041C00000007F8C0012FD0B44FF845916FF8459B8
:1041D00016FF8400FD0B4E591670462B3B9D850D36
:1041E000E20000007F8C0013FD0B3001BB7CF4016A
:1041F000BB7CF401BB00FD0B3A7CF46237C54FB4C5
:10420000A281920000007F8C0013FD0B584F9DF996
:1042100035B06206CB4F9D00FD0B62F93549E69D36
:1042200016D55555560000007F8C0014FD0B087CF8
:10423000B6A4BC83495B447CB600FD0B12A4BC7CD5
:10424000B12C1E8687C5490000007F8C0014FD0B31
:104250001C05B75C1F05B75C1F05B700FD0B265C8E
:104260001F49E69D16D55555560000007F8C001459
:10427000FD0B587FFFFFFF00000000000000FD0B5A
:1042800062000000000000000000000000007F8CC1
:104290000014FD0B6C7FFFFFFF000000000000001A
:1042A000FD0B760000000000000000000000000090
:1042B0007F8C0015FD0B087FFFFFFF000000000052
:1042C0000000FD0B120000000000000000000000D4
:1042D00000007F8C0015FD0B1C7FFFFFFF0000001E
:1042E00000000000FD0B26000000000000000000A0
:1042F000000000007F8C0015FD0B307FFFFFFF00EA
:10430000000000000000FD0B3A000000000000006B
:104310000000000000007F8C0015FD0B447FFFFFB4
:10432000FF00000000000000FD0B4E000000000038
:1043300000000000000000007F8C0015FD0B587F7E
:10434000FFFFFF80A59DA27EB700FD0B6220FA7FD4
:10435000A2251080B9584D0000007F8C0015FD0B80
:104360006C7F9604378069FBC97F9600FD0B76044D
:10437000377F95D85780D39FD00000007F8C0016E0
:10438000FD0B087F9604378069FBC97F9600FD0B03
:104390001204377F95D85780D39FD00000007F8CC0
:1043A0000016FD0B1C7F77CC69808833977F7700E0
:1043B000FD0B26CC697F7783F2810FD64000000089
:1043C0007F8C0016FD0B307F77CC69808833977F18
:1043D0007700FD0B3ACC697F7783F2810FD64000DE
:1043E00000007F8C0016FD0B440021875F002187B1
:1043F0005F002100FD0B4E875F7A1481B28B50DF86
:104400001E0000007F8C0016FD0B580021875F0006
:1044100021875F002100FD0B62875F7A1481B28BD8
:1044200050DF1E0000007F8C0016FD0B6C78572CAF
:10443000EC8B3C83E5733300FD0B76A8B374C37C2F
:104440001B94752A5F0000007F8C0017FD0B087F0E
:10445000327C9D8237EB837C7300FD0B12BFCB7DDA
:10446000C8147D8459C3970000007F8C0017FD0B92
:104470001C7FFFFFFF00000000000000FD0B260076
:104480000000000000000000000000007F8C00170A
:10449000FD0B307FFFFFFF00000000000000FD0B60
:1044A0003A000000000000000000000000007F8CC7
:1044B0000017FD0B447FFFFFFF000000000000001D
:1044C000FD0B4E0000000000000000000000000096
:1044D0007F8C0017FD0B587FFFFFFF0000000000DE
:1044E0000000FD0B62000000000000000000000062
:1044F00000007F8C0017FD0B6C7FFFFFFF000000AA
:1045000000000000FD0B760000000000000000002D
:10451000000000007F8C0018FD0B080804820000DA
:10452000000000000000FD0B120000000000000071
:104530000000000000007F8C0018FD0B1C7FFFFFB7
:10454000FF00000000000000FD0B2600000000003E
:1045500000000000000000007F8C0018FD0B307F81
:10456000FFFFFF00000000000000FD0B3A0000000C
:10457000000000000000000000007F8C0018FD0B10
:10458000447FFFFFFF00000000000000FD0B4E0015
:104590000000000000000000000000007F8C0018F8
:1045A000FD0B587FFFFFFF00000000000000FD0B27
:1045B00062000000000000000000000000007F8C8E
:1045C0000018FD0B6C7FFFFFFF00000000000000E3
:1045D000FD0B76000000000000000000000000005D
:1045E0007F8C0019FD0B087FFFFFFF00000000001B
:1045F0000000FD0B120000000000000000000000A1
:1046000000007F8C0019FD0B1C7FFFFFFF000000E6
:1046100000000000FD0B260000000000000000006C
:10462000000000007F8C0019FD0B307FFFFFFF00B2
:10463000000000000000FD0B3A0000000000000038
:104640000000000000007F8C0019FD0B447FFFFF7D
:10465000FF00000000000000FD0B4E000000000005
:1046600000000000000000007F8C0019FD0B587F47
:10467000FFFFFF00000000000000FD0B62000000D3
:10468000000000000000000000007F8C0019FD0BFE
:104690006C7FFFFFFF00000000000000FD0B7600B4
:1046A0000000000000000000000000007F8C001AE5
:1046B000FD0B087FFFFFFF00000000000000FD0B66
:1046C00012000000000000000000000000007F8CCD
:1046D000001AFD0B1C7FFFFFFF0000000000000020
:1046E000FD0B26000000000000000000000000009C
:1046F0007F8C001AFD0B307FFFFFFF0000000000E1
:104700000000FD0B3A000000000000000000000067
:1047100000007F8C001AFD0B440800000000000020
:1047200000000000FD0B4E00000000000000000033
:10473000000000007F8C001AFD055800E2C46B00E9
:1047400000007F8C001AFD0B6C00221D9500443286
:1047500013000D00FD0B76A686000000000000008F
:10476000000000007F8C001BFD0B08FF8147AEF9A5
:10477000DABC21FD4200FD0B1268A700000000001A
:104780000000000000007F8C001BFD0B1C0006D306
:10479000720002BB06000300FD0B2669C500000085
:1047A000000000000000FD0B3000000000F9DABC42
:1047B00021FC5800FD0B3A8B89000000000000002E
:1047C000000000007F8C001BFD0B440006D372002C
:1047D00002BB06000300FD0B4E69C500000000008F
:1047E00000000000FD0B5800000000F9DABC21FCBD
:1047F0005800FD0B628B89000000000000000000E3
:1048000000007F8C001DFD051C0006D37200000017
:104810007F8C001DFD05201C1BF0410000007F8CDB
:10482000001DFD0524040C37140000007F8C001DC2
:10483000FD052C008000000000007F8C001DFD05A0
:1048400034400000000000007F8C001DFD05384052
:104850000000000000007F8C001DFD05400080006E
:10486000000000007F8C001DFD05440000000000DA
:1048700000007F8C001DFD054800000000000000C6
:104880007F8C001DFD0558000000010000007F8C9A
:10489000001DFD055C004026E70000007F8C001D28
:1048A000FD0560004026E70000007F8C001DFD052F
:1048B00064000000000000007F8C001DFD05680002
:1048C0000000000000007F8C001DFD05740000004A
:1048D000000000007F8C001DFD0578000000000036
:1048E00000007F8C001DFD057C00800000000000A2
:1048F0007F8C001EFD0508008000000000007F8CFA
:10490000001EFD050C000000000000007F8C001E52
:10491000FD0514008000000000007F8C001EFD05D6
:1049200018000000000000007F8C001EFD051C0028
:104930000000000000007F8C001EFD05200000002C
:10494000000000007F8C001EFD0524000000000018
:1049500000007F8C001EFD05280000000000000004
:104960007F8C001EFD052C008000000000007F8C65
:10497000001EFD0530000000000000007F8C001EBE
:10498000FD0534000000000000007F8C001EFD05C6
:1049900038000000000000007F8C001EFD053C0078
:1049A0000000000000007F8C001EFD05400000009C
:1049B000000000007F8C001EFD0544028185080078
:1049C00000007F8C001EFD05480281850800000064
:1049D0007F8C001EFD0550400000000000007F8C11
:1049E000001EFD0554040000000000007F8C001E26
:1049F000FD0558040000000000007F8C001FFD052D
:104A00001400CEC08A0000007F8C001FFD05180A2C
:104A10000AAED20000007F8C001FFD051C00036958
:104A2000D00000007F8C001FFD052040000000002A
:104A300000007F8C001FFD052875F5512E00000039
:104A40007F8C001FFD052C000057620000007F8C4A
:104A50000023FD0514000000010000007F0000009D
:104A600007000820550700007F0000003D303E3061
:104A700000007F000001020000007F0003002A11F7
:104A800000007F8C002314001500160017010000A1
:104A90007F8C000B00007F0000006005610B630845
:104AA000640200007F00030201110000000000000A
:104AB000000000007F000302FE050000000000006F
:104AC000000000007F000312000000000000000052
:104AD00000007F00480C00007F640001FD790800A1
:104AE000FE004000FC000000FC000000FC00000094
:104AF000FC000000FC000000FC000000FC000000C6
:104B0000FC500000FC000000FC000000FC00000065
:104B1000FC000000FC000000FC000000FC000000A5
:104B2000FC000000FC000000FC000000FC00000095
:104B3000FC000000FC000000FC000000FC00000085
:104B400082009300FC000084C902BC84C102BD8FB6
:104B500000FFEE08FC3810000002FD790884020412
:104B60000684C303DB024002C3024803DD00FF10DA
:104B70009A00FC0000E41012CD024002BD886013D0
:104B8000DC025802BC02D3001084C902BC10001A17
:104B9000030270000484C902BD0C201849026000A1
:104BA0000184C102BC845103DE08FC0C9802780029
:104BB0000384C240E002680002845903ED08FC2C23
:104BC00099022800030211FFFC024802BCE0101207
:104BD000CEF01C52CF000003FD7908F01C52D0F03B
:104BE0001C52D1F01F52D286A102D3802780EA84C2
:104BF000830445E0000000848260E0845303DE8487
:104C00005103F5F01C72D4F01C72D584CA40E0F058
:104C10001C72D6F01F72D786A102CE802780EB844B
:104C2000830445E0102000845B03ED845903FDF00C
:104C30001C52CFF01C52D0F01C52D1F01F52D28621
:104C4000A102D3802780EA84830446E00000008428
:104C50008260E0000004FD7908845303F584510369
:104C6000EEF01C72D4F01C72D5F01C72D6F01F72DC
:104C7000D786A102D8802780EB845B03FD8459038B
:104C8000DF84830446E257800084C902BD848260C9
:104C9000E0F01C72D9F01C72DAF01C72DBF01F72AB
:104CA000DC86A102DD802780EB84830447E00000DE
:104CB00000848240E0845B03DF845903F6F01C52D9
:104CC000DEF01C52DF84CA60E0F01C52E0F01F529C
:104CD000E1000005FD790886A102D8802780EA84DA
:104CE000830447E0102000845303EE845103FEF058
:104CF0001C72D9F01C72DAF01C72DBF01F72DC86B9
:104D0000A102DD802780EB84830448E0000000845A
:104D10008240E0845B03F6845903EFF01C52DEF01E
:104D20001C52DFF01C52E0F01F52E186A102E2802B
:104D30002780EA845303FE845103E784830448E216
:104D400057800084C902BD848240E0F01C52E30019
:104D50000006FD7908F01C52E4F01C52E5F01F52E9
:104D6000E686A102E7802780EA84830449E0000008
:104D700000848260E0845303E7845103F7F01C72DF
:104D8000E8F01C72E984CA40E0F01C72EAF01F727D
:104D9000EB86A102E2802780EB84830449E01020A7
:104DA00000845B03EFF01C52E3F01C52E4F01C5251
:104DB000E5F01F52E686A102E7802780EA845303CC
:104DC000F7845103FF8483044AE0000000000007D9
:104DD000FD7908848240E0F01C52E8F01C52E9F0B2
:104DE0001C52EAF01F52EB86A102EC802780EA8475
:104DF00083044A845303FF6688C000EE80C000022B
:104E0000CB00106288A000EA80A00002D3001088C6
:104E10004700800907082108FC08530D001038845A
:104E2000CB04060860085184800200E400008186FB
:104E3000C902EE884720800D001008848204070014
:104E4000FC0000004220D784DB0405000008FD7947
:104E50000808FC183186A102EDE410200000FE20B5
:104E6000D8886C00000280000084A10449E400009E
:104E70000084A1044A84C90447E0000000EC00005B
:104E8000818847008284A1044810001A01E80000CC
:104E90000002D30014880700810C2008480270002B
:104EA00006844903478459034FE25791B4027800BE
:104EB00005848220E010001A03022800020250023A
:104EC000BCF01C31B5F01C31B6000009FD7908F0CA
:104ED0001C31B7F01F31B8E40011BB802780E1F42A
:104EE0000011B9F41D31BAF41C31BCF41F31BD8678
:104EF000A101B4806780E902CB001084830377E0CE
:104F000010000008000A21844B0347F01C71B5F023
:104F10001C71B6F01C71B7F01F71B8E40011BB80B2
:104F20002780E3F40011B9F41D71BAF41C71BCF4CC
:104F30001F71BD86A101DC806780EB02C300108475
:104F4000C3037F08000A0000000AFD7908845B03A0
:104F50004FE4100000E0102000EA6D800002CB005A
:104F600010EE6DA00002C3001088470082090709F7
:104F70001008FC48330D00101884C3036D08604806
:104F80003084DB036C86D101E284800407E40000F6
:104F90008086C101E34D4722008048008108FC3C27
:104FA000130D00103084A2040884DA040200622188
:104FB0002E86D901E50D00102086C101E186C901C8
:104FC000E00844061100000BFD790800FE213202C2
:104FD000A3001908FC3C5184CA040286D901E48666
:104FE000A101DFE48040008840008108FC287102B4
:104FF00028000102830019E400020088C8008084B0
:10500000C9036E86D901DE86D101DD0D00100808C6
:1050100044667284A204098459036A8449036B00BC
:10502000FC0000E4100082EC10200088470080089B
:10503000FC0830E25791BE84C902BD84C3036E846C
:105040008260E000000CFD7908F01C71BFF01C715B
:10505000C0F01C71C1F01F71C2E40011C58027802F
:10506000E3F40011C3F41D71C4F41C71C6F41F7184
:10507000C786C301B284CA20E086A101BE806780D2
:10508000EB02C300108483038FE0102000F01C317A
:10509000BFF01C31C0F01C31C1F01F31C2E400115F
:1050A000C5802780E1F40011C3F41D31C4F41C3124
:1050B000C6F41F31C708000A01806780E902C300F7
:1050C0001000000DFD790884C3039F08000A00E466
:1050D0001031F0E0100000EA73800002CB0010EE07
:1050E00073600002D3001088070080094708210878
:1050F000FC08530D00103884CB039C0860085184D1
:10510000800407E400008184A004084D472000804B
:1051100048008186D101F686C101F784DB039B0D2F
:1051200000103008FC3C13845B036A844B036B84DF
:10513000DA04030062218B86D901F90D00102000EA
:10514000000EFD790886C101F586C901F408440600
:105150001100FE218F02A3001908FC3C5184CA04EF
:105160000386D901F886A101F3E48060008840003D
:105170008108FC287184A00409E410200088C8007C
:105180008084C9039D86D901F286D101F10D0010FA
:1051900008084466720270000AE4100082EC1020D5
:1051A00000884700808459035708FC0830E2579173
:1051B000C884C902BD84C3039D848260E000000FDF
:1051C000FD7908F01C71C9F01C71CA02780009F061
:1051D0001C71CBF01F71CCE40011CF802780E3F469
:1051E0000011CDF41D71CEF41C71D0F41F71D1E00B
:1051F0000011D4806780E3F00011D2F01D71D3F06C
:105200001C71D5F01F71D6E40011D9802780E3F41A
:105210000011D7F41D71D8F41C71DAF41F71DB860C
:10522000C301B184490365806780EB02C300108429
:105230008303A7E01031C884CA20E0000010FD7984
:1052400008F01C31C9F01C31CAF01C31CBF01F3101
:10525000CCE40011CF802780E1F40011CDF41D31A2
:10526000CEF41C31D0F41F31D1E00011D48067801E
:10527000E1F00011D2F01D31D3F01C31D5F01F3117
:10528000D6E40011D9802780E1F40011D7F41D3154
:10529000D8F41C31DAF41F31DB08000A0180678082
:1052A000E902C3001084C303AF08000A00E4103110
:1052B000E6E0100000EA718000000011FD790802AC
:1052C000CB0010EE71600002D30010880700800947
:1052D00047082108FC08530D00103884CB038C08C4
:1052E00060085184800407E400008184A004084D14
:1052F00047200084DB038B8048008186D901EC863F
:10530000C101ED0D00103808FC3C12845B0357848A
:105310004B036584D20404006221FF86D101EF0DA6
:1053200000102086C101EB86C901EA08440611027B
:1053300070000600FE2204000012FD790802A3009E
:105340001908FC3C7184CA040486D101EE86A101CF
:10535000E902700006E480800088400081E66EF17A
:10536000B2E26FE0004D4011FA484000008840135F
:105370005F88001362E271F1B1E673E0004840110A
:10538000FC08FC28514D4000008800136184A004F3
:1053900009E01020008888008084C9038D86D90127
:1053A000E886D101E70D00100808446672884013B2
:1053B00064E4100082000013FD7908EC10200088DE
:1053C00047008008FC0831848103A7E0000081E6E3
:1053D00075E000484011FB4D4000008800136084D8
:1053E000CB038D86CB01B384490337886013638474
:1053F000C1035F84C9036008FC083184D10362845F
:10540000D9036110001A2202C3001008FC4812845C
:10541000C103640C20081186A101A7E25780000295
:10542000DB001084DA20E0F01C31A8F01C31A90266
:10543000780005000014FD7908F01C31AAF01F3136
:10544000ABE40011AE802780E1F40011ACF41D3113
:10545000ADF41C31AF8451033FF41F31B086A1017C
:10546000A7806780E91000180202C30010E0102036
:1054700000F01C51A8F01C51A9F01C51AAF01F51BA
:10548000ABE40011AE802780E2F40011ACF41D51B2
:10549000ADF41C51AFF41F51B008FC187080678048
:1054A000EA02D3001084CA040D84C2040A08FC581E
:1054B00031000015FD790808000A0084CA040C08B0
:1054C000000A21E410119DE0102000EA652000028E
:1054D000CB0010EE65000088070080094708218492
:1054E000DA040B84CB0329844B03378453033F0234
:1054F0005802BC02D3001008FC08530D00103808F5
:1055000060085184800407E400008184A004084DF1
:105510004720008048008186D101A386C101A48470
:10552000DB03280D00103008FC3C1384DA0405006E
:105530000016FD79080062227E86D901A60D0010B2
:105540002086C101A286C901A10844061100FE22DD
:105550008202A3001908FC3C5184CA040586D901C3
:10556000A586A101A0E480A0008840008108FC2855
:105570007184A00409E410200088C8008284C90353
:105580002A0D00104886D9019F86C1019E084466F5
:105590007086D902C08451032D8449032C00FC007D
:1055A00000E4104080EC10200088470080000017C5
:1055B000FD79080481692184A0040AE41020008494
:1055C000A0040C84CB032A8840008110001A03E455
:1055D0000000008840008084C8040D0C2008098465
:1055E0004103BF86C102C1848102BC848200E0867F
:1055F000C902C2E0001298848240E08482040FF065
:105600001C5299F01C529AF01C529BF01F529CE4C1
:1056100000129F802780E2F400129DF41D529EF438
:105620001C52A0F41F52A18F780000000018FD79D1
:1056300008806780E102D300100C1D5144086446C5
:10564000500D0010180844667084C26100E010120A
:10565000A2F01C32A3F01C32A4F01C32A5F01F32C1
:10566000A6E40012A9802780E1F40012A7F41D32FD
:10567000A8F41C32AAF41F32AB845903B7806780A8
:10568000E9E00012AC84826100848260E0F01C7268
:10569000ADF01C72AEF01C72AFF01F72B0E40012DD
:1056A000B3802780E3F40012B1000019FD7908F4FB
:1056B0001D72B2F41C72B486C102B5E081F2B6F478
:1056C0001F608086A102B7806780EB8482040EF0A1
:1056D0001C0000F01C12B8F01C12B9F01F12BAE442
:1056E0000012BD802780E0F40012BBE081C081F48D
:1056F0001D12BCF41C12BEF41F12BF844B032C8875
:1057000007008108FC2D19806780E802D300108E05
:10571000FD02BC10001A0186D102C086C902C186F2
:10572000C102C2E257B29800001AFD790886A102B0
:10573000998453032D845B03B78451032F84590349
:10574000CF84820410844303BF848240E0844103F9
:105750002E848260E0F01C4000F01C529AF01C5233
:105760009BF01F529CE400129F802780E2F40012FD
:105770009DF41D529EF41C52A0F41F52A186A1025A
:10578000A2806780EA8453032F8EFD02BD8F300014
:105790000002DB00100C1C116C086466710D001017
:1057A000300844465100001BFD790884CA4100E0DE
:1057B000102000F01C12A3F01C12A4F01C12A5F083
:1057C0001F12A6E40012A9802780E0F40012A7F4BB
:1057D0001D12A8F41C12AAF41F12AB845103C78037
:1057E0006780E8E00012AC84824100848240E0F0EF
:1057F0001C52ADF01C52AEF01C52AFF01F52B0E480
:105800000012B3802780E2F40012B1F41D52B2F40A
:105810001C52B486C902B5E08212B6F41F408186DC
:10582000A102B700001CFD7908806780EA84820429
:1058300011F01C6000F01C72B8F01C72B9F01F72FD
:10584000BAE40012BD802780E3F40012BBF41D729D
:10585000BCF41C72BEF41F72BFE08220808067809F
:10586000EB8807008008FC0D1802D300100C6008BC
:10587000408443032E848102BC02A30010E4000094
:10588000000283001802A3001088471323E40000DD
:10589000008847132486C9029584C10323845303D7
:1058A000C700001DFD7908845B03CF024003260278
:1058B00011FFF800FF114E00FC0000024003278694
:1058C000C9029584C1032400FF114E00FC0000862C
:1058D000C901FD84CB03D002C8032784CA04000297
:1058E000C803240240032602480323025003D08445
:1058F000CA040100FF238A00FC000084A102BCE668
:1059000064600002280000855A008084A002000222
:1059100028000102CB001484A0020002D30014006E
:10592000001EFD790808FC0031884712BC08FC0005
:105930005084A1032408FC267A08FC06F8E657A048
:105940000086C9029684C303D184D303D288471248
:10595000BD024003D400FF114E00FC0000024003D2
:10596000D384C103D286C9029700FF114E00FC0008
:1059700000024003D4024803D3025003DA00FF11AF
:105980005500FC0000025002BD02C803DA84520434
:10599000008EFD02BC84CA040100FF10B000001F8D
:1059A000FD79088CFE21008400040600FC00000242
:1059B000C0000000FC50008F00001284A10366E0CC
:1059C00020000002D260004040A0008000C080089B
:1059D000FC083808FC58118F00FFFFE010200084FD
:1059E00058040184A1036884C10367E4E0000086D1
:1059F000C9019B4540A0008040C08308FC683B086B
:105A0000FC587284400402E410400084A04100402D
:105A100047200002D3001008002843000020FD7931
:105A2000088000C0820D0010404147200084DB0345
:105A30006686D9019C08FC5C120844667184820465
:105A40000000FC00000283001A8000C082E0000019
:105A50008184C903690D00104808FC5C3200FC0019
:105A60000002A3001A86D1019B08446672800700D9
:105A7000830C600C1884D80400E0104000800700FC
:105A800082080028630C200C3184DB036884CB037C
:105A90006984C3036700FC5000000021FD05088FE6
:105AA0000000010000007F780018FD1530000000A4
:105AB00000000000000000000000000000000000E6
:105AC000000000007F78001BFD0978000000000046
:105AD00000000000001CFD350800800000000000F0
