:020000040000FA
:10000000B80E0020D1010000D90100007D010000E0
:1000100000000000000000000000000000000000E0
:10002000000000000000000000000000DD010000F2
:100030000000000000000000DF010000E1010000FE
:10004000E3010000E3010000E3010000E301000020
:10005000E3010000450F0000E3010000E3010000A0
:10006000E301000029220000E3010000E301000099
:10007000A5250000D5250000E3010000E3010000F4
:10008000E3010000E3010000911400000D160000E0
:10009000E3010000E301000025280000E301000067
:1000A000E3010000E3010000E3010000E3010000C0
:1000B000E3010000BD070000E3010000811C000017
:1000C00000F002F800F04BF80CA030C808382418F3
:1000D0002D18A246671EAB4654465D46AC4201D180
:1000E00000F03DF87E460F3E0FCCB6460126334267
:1000F00000D0FB1AA246AB46334318470CD1000090
:100100002CD10000103A02D378C878C1FAD852072F
:1001100001D330C830C101D504680C6070470000BD
:100120000023002400250026103A01D378C1FBD813
:10013000520700D330C100D50B60704710B5642959
:1001400002D100F095F810BD782902D100F0C6F870
:1001500010BD002010BD1FB51FBD10B510BD00F0B3
:10016000CDFA1146FFF7F7FF03F090F900F0E5FA3A
:1001700003B4FFF7F2FF03BC00F0ECFA0420714671
:10018000084202D0EFF3098001E0EFF308807146E6
:10019000004A10475114000070B505460C4616463B
:1001A00002E00FCC0FC5103E102EFAD2082E02D35B
:1001B00003CC03C5083E042E07D301CC01C5361F6E
:1001C00003E021782970641C6D1C761EF9D270BD85
:1001D0000748804707480047FEE7FEE7FEE7FEE7DF
:1001E000FEE7FEE704480549034A054B7047000057
:1001F00095200000C1000000B80A0020B80E0020C1
:10020000B80A00200FB4054910B503AA029800F0FF
:1002100035FA10BC08BC04B01847000038020020B2
:1002200070B5044685690068C10601D5302600E036
:100230002026C00707D070BD62683046A16890478D
:10024000206A401C20626D1EF6D570BD70B5044654
:1002500085690078C00707D170BD6268A168202059
:100260009047206A401C20626D1EF6D570BD0000CC
:10027000F7B5002575291068009914A611D0C0465D
:10028000C046002802DA404211A608E00099096839
:100290008A0701D50FA602E0490704D50EA601255D
:1002A00001E0C046C046009F0024243704E000F06F
:1002B000F9F930313955641C0028F8D12B46324603
:1002C0002146009800F082F9FEBD00000000000009
:1002D0002D0000002B0000002000000070B5044637
:1002E0000D4621461068C046C0462188090502D542
:1002F0000F4A7A4402E00E4A7A440E322346002125
:10030000243305E006070009360F965D5E54491C4C
:100310000028F7D120780023000705D5702D03D0E1
:10032000002901D002231132204600F04FF970BDA0
:10033000D6CE0000F3B50446002081B020622046EE
:10034000E168884700287DD0252802D06268A1682E
:1003500083E0454F00257F442046E16888472028F8
:10036000064608DB312E06D2B8192038007800285E
:1003700001D00543F0E7A80701D5042085430020FC
:10038000E0610746A0612A2E0AD0304602F027FC21
:10039000002827D0B8000019303E0090866119E08F
:1003A0000298BA00121902C8916102902046E168D1
:1003B0008847012F064617D1E06900281FDA202060
:1003C00085431CE000980A21806948430099801900
:1003D000303888612046E1688847064602F0FFFB16
:1003E0000028EFD1012F0AD02E2E08D12046E16837
:1003F00088470646202005437F1C022FC3DBA069E7
:10040000002803DA4042A06101200543E80701D03B
:1004100010208543002E24D030464138192803D8B7
:100420000120C00205432036204625603146029A4D
:100430001546FFF783FE00280CD0012807D0ED1DDC
:10044000E80800E00DE0C0000830029077E72D1DBD
:10045000029574E762683046A1689047206A401CA4
:100460006CE7206AFEBD00009ACE0000002203095E
:100470008B422CD3030A8B4211D300239C464EE0BF
:1004800003460B433CD4002243088B4231D303097B
:100490008B421CD3030A8B4201D394463FE0C3092D
:1004A0008B4201D3CB01C01A524183098B4201D345
:1004B0008B01C01A524143098B4201D34B01C01A30
:1004C000524103098B4201D30B01C01A5241C308A8
:1004D0008B4201D3CB00C01A524183088B4201D317
:1004E0008B00C01A524143088B4201D34B00C01A03
:1004F0005241411A00D201465241104670475DE018
:10050000CA0F00D04942031000D34042534000229A
:100510009C4603098B422DD3030A8B4212D3FC2243
:10052000890112BA030A8B420CD3890192118B42C2
:1005300008D3890192118B4204D389013AD09211D8
:1005400000E08909C3098B4201D3CB01C01A524193
:1005500083098B4201D38B01C01A524143098B425C
:1005600001D34B01C01A524103098B4201D30B0145
:10057000C01A5241C3088B4201D3CB00C01A52416A
:1005800083088B4201D38B00C01A5241D9D2430851
:100590008B4201D34B00C01A5241411A00D201468E
:1005A000634652415B10104601D34042002B00D5F8
:1005B0004942704763465B1000D3404201B50020BA
:1005C000C046C04602BD704770477047FFB504463D
:1005D0000D4681B0243000902168880604D5102291
:1005E000E0699143216000E00120A84201DD471B42
:1005F00000E000270498A1697A191018081AA06170
:100600002078C00602D42046FFF70AFE002608E044
:1006100003986268A168805D9047206A401C761C40
:10062000206204988642F3DB2078C0060AD5204673
:10063000FFF7F6FD06E06268A16830209047206A67
:10064000401C206238467F1E0028F4DC07E000983A
:100650006268A168405D9047206A401C206228467D
:100660006D1E0028F3DC2046FFF7F0FD2078000621
:1006700002D5022005B0F0BD0120FBE7084B70B5A4
:100680000D467B4400F027F80446284602F0F4FEAD
:10069000002802D00020C04370BD204670BD00007D
:1006A000F92D000001468008081A02091018020AF4
:1006B0001018020C1018C008820012185200891A73
:1006C00001E0401C0A390A29FBD2704701694A1C23
:1006D00002610878704700B58FB002910021059142
:1006E0000549019379440391114604906846FFF748
:1006F00021FE0FB000BD0000E5FFFFFF754600F0D2
:1007000025F8AE46050069465346C008C000854638
:1007100018B020B5FFF766FD60BC00274908B64653
:100720000026C0C5C0C5C0C5C0C5C0C5C0C5C0C500
:10073000C0C5403D49008D46704710B50446C046CF
:10074000C0462046FFF714FD10BD0000004870476A
:10075000540A002001491820ABBEFEE72600020023
:1007600070470000CB0709480222002B02D0036823
:10077000934303608B0702D58368934383604907E3
:1007800002D5C1689143C1607047000080000E40EF
:10079000CB0709480222002B02D0036813430360F1
:1007A0008B0702D5836813438360490702D5C1686C
:1007B0001143C1607047000080000E4010B50A4828
:1007C00001210161094A810511600069064C803CE4
:1007D000206B81B206A0FFF715FDE06B81B20EA081
:1007E000FFF710FD10BD000080000E4080E100E02A
:1007F000436F6E76657273696F6E20726573756C88
:1008000074206F66206368616E6E656C2031323AC9
:100810002030782558200A00436F6E766572736920
:100820006F6E20726573756C74206F6620636861EB
:100830006E6E656C2031353A2030782558200A00DC
:1008400030B505480468054D2C400C431443046042
:100850004168436030BD000080000E40F3FBFFFFA5
:100860000248016AC2011143016270470002005050
:100870000EB509490EC900910192810F8A000293B9
:1008800069468A58054951184A68C306DB0E01209B
:10089000984002434A600EBD94D10000000200500F
:1008A000F0B585B00C460746FFF7DAFF5548544EC1
:1008B0000168002F13D0042211430160102000F0C2
:1008C0008DF90120C00402904F48042503904F4841
:1008D0004F49201888420DD8002004901CE00122C6
:1008E00011430160104600F079F9002002250396BB
:1008F0000290ECE7474848492018884203D8012075
:100900006400049008E04548444920184942884260
:1009100049D80320A40004900026F643002000904C
:10092000019021E029460398FFF7A0FD3C493D4A8C
:100930004118914217D20222344B014651435B1CAD
:10094000CF185B429F420AD8A14201D90B1B00E09D
:10095000631AB34203D21E000095019203D03249BC
:10096000521C8A42E8D96D1C212DDBD904980299CA
:10097000800308430099012249029202891A084320
:100980000199891E08431F490862042000F026F9D6
:1009900004990098491C41430398FFF767FD0199AA
:1009A000484305B0F0BD002F0FD020491548016223
:1009B000042000F013F91EA0006800901148016A9D
:1009C0000013014203D00020EBE71A49EEE70803C9
:1009D00000D50D4E880301D53046E2E70804800FAC
:1009E0006A46105CCA058904C90E891CD20D4143B0
:1009F000B008921C5043FFF739FD8000D1E700009A
:100A0000001BB7000002005000805101FF1E0AFACF
:100A1000FFE0F5057F0F05FD7FF0FA02C08782FE3B
:100A2000FF95E7FFFFB9DB0001020000324C080030
:100A3000010202042E44000002490A6802430A60CF
:100A4000704700000002005010B501F0DBFA0448C6
:100A5000006941060348006800D5400810BD000049
:100A6000000200500000002010B501F0CBFA04484D
:100A7000006901060348006800D5400810BD000069
:100A80000002005000000020F8B51C4D0446EE683E
:100A9000102006401A48844202D81A48844200D2E4
:100AA00004462868042738432860102000F096F890
:100AB0002869072108432861A86900090001A86185
:100AC000E868C00705D061000020FFF7E9FE044692
:100AD00008E001206100C004FFF7E2FEEE68044672
:100AE000102006400121022000F00EF8002E02D155
:100AF0002868B84328606008F8BD00000002005074
:100B000000A24A0440787D01F3B5114C81B0E5683C
:100B10000F46102005402068042630432060102036
:100B200000F05CF82069072108432061A0690009F2
:100B300000013843A061206988430199084320617E
:100B400001F060FA002D02D12068B0432060FEBDA4
:100B500000020050F0B51A4B86B01C460834F0CCA9
:100B6000009401ACE0C418CB05940493840A2306D6
:100B70001B0E0ED003039B0F9B0004ADEB58114DD1
:100B80005B19E5B28405E40EA5401C68AC43144330
:100B90001C60420E520710D08200920F92006B46EA
:100BA0009A58084B083BD21803015B0FC001C00ED6
:100BB0008340106898430843106006B0F0BD000001
:100BC0007CD1000018020050034A11693823994370
:100BD00001431161704700000002005010B5044647
:100BE0000749084B05E00A46491E002A01DC00209F
:100BF00010BDDA6820469043F5D1012010BD0000F9
:100C000080F5200000020050F8B507461B4CFF207D
:100C100015460E4620607D21C900194801F03CFAB6
:100C2000552020607D21C900154801F035FA0320C8
:100C300020607D21C900124801F02EFA802020603A
:100C40007D21C9000E4801F027FA27607D21C900E7
:100C50000B4801F021FA26607D21C900084801F007
:100C60001BFA25607D21C900054801F015FAB81965
:100C7000401983304042C0B22060F8BD00001540EA
:100C80000000014002480068024908607047000007
:100C900000E100E00C000020034800682021084328
:100CA00002490860704700000C00002000E100E0ED
:100CB00000B5FFF7E7FF0249FF20086000BD000014
:100CC00080E100E0F8B5044600200090FFF7F0FF57
:100CD00013480178134F00220B01F858DB195E68A6
:100CE0009D68DB6800280CD0A560E36041C401204A
:100CF0000022009008013A50C01942608260C26030
:100D000008E0491C521CC9B2D2B2202900D30021EC
:100D1000202AE1D302480170FFF7BEFF0098F8BD1A
:100D2000100000207402002010B5FFF7C1FF002062
:100D3000084B024601015A50C9184A608A60CA60CD
:100D4000401CC0B22028F5D303480270FFF7A4FF6F
:100D500010BD00007402002010000020F8B51C46F1
:100D600015460E460746FFF7A3FF0F4800780F4AC7
:100D700000210301D358002B0AD0401C491CC0B2EB
:100D8000C9B2202800D300202029F2D3002406E095
:100D900000011750801846608560C4600124FFF789
:100DA0007BFF2046F8BD00001000002074020020E8
:100DB00010B505A0FFF726FA01F0F8FB012107485E
:100DC00001F0A8FC002010BD6465627567207561A4
:100DD000727420696E6974210A00000000000540E9
:100DE0000249002800D001204862704700420050AC
:100DF00010B502F01DF802F091F90549054801F01F
:100E00004BF901F067FF012002F01EF810BD000051
:100E1000881300000000014010B5044602F036F8C7
:100E2000204602F019FA10BD10B5104C0122202105
:100E3000204600F0DAF801221021204600F0D5F813
:100E4000012220210A4800F0D0F801225102204658
:100E500000F0CBF806480021C0300161416105492E
:100E6000012048610020FFF7BBFF10BD004000508B
:100E7000404100504043005010B5094C0022012170
:100E8000204600F0B2F801220021204600F0A0F830
:100E9000012204492020086061691143616110BD8D
:100EA000C040005000E100E070B502F00BF90D4CBD
:100EB0000D4D2146284601F0EFF8FFF799FF214636
:100EC000284601F0E9F8094840790A2804D00828A2
:100ED00005D002F0DFF870BD02F0ECF870BD02F052
:100EE000E1F870BD3075000000000140400A0020AC
:100EF00010B502F0E7F801F0AFFF01F0FDFF0521AA
:100F0000094801F0C9F8FFF773FF084840790A283B
:100F100004D0082805D002F0BDF810BD02F0CAF8D0
:100F200010BD02F0BFF810BD00000140400A0020D3
:100F300010B5002001F096FF01F0DEFF02F060F92D
:100F400010BD000030B51F48016AC9070ED001224C
:100F500002621D4900208B681C46793C182C06D281
:100F60000A70886048710861C870087130BD1C46FD
:100F7000183C602C15D2886013480B790469601CFA
:100F80000C2B08D0012B06D008610A28EED3C0072D
:100F9000ECD0CA7030BD0F2CFCD208610F28F8D0FD
:100FA00030BD0C78002C0AD0084D4C792B55641CB0
:100FB000E3B24B71202B02D348718A7008708860AD
:100FC00030BD0000C0400050C8010020FE090020D4
:100FD00010B58369140E8C4023438361C3691202E8
:100FE000120A8A401343C36110BDF0B500230127E4
:100FF0003C469C400C4208D005685C000326A64095
:10100000B5431646A640354305605B1C102BEFD355
:10101000F0BD000070B51F4D0024A878002813D043
:101020001DA0FFF7EFF800F067FC0021A9701F4931
:101030004A790E2A01D0002A01D1012802D1497B28
:10104000002900D0002070BDE9780029FAD018A04E
:10105000FFF7D8F8E878401EE8702879082813D000
:1010600006DC01280AD004280CD006280FD107E09E
:101070000A280BD00C280AD10D2408E0022406E02F
:10108000072404E0052402E0092400E00B242046A4
:1010900070BD0000C801002069725F646174615F07
:1010A00072785F6F6B203D20310A0000400A0020FB
:1010B0006C6F6E6770726573733A25640A00000086
:1010C000F8B50024404800F077FC002836D00A210B
:1010D0003D4801F01DFA3D48C168002903D08069F0
:1010E000002802D002E0012400E00224364D00274F
:1010F0000C3DA878002807D001280FD0344E0228D4
:101100001DD0042824D139E0002C17D02E486C7053
:101110001421083801F0FCF90120A8706878A04279
:1011200016D12948083800F047FC002806D0264888
:101130002849083801F0ECF90220A870F8BD687859
:10114000A04207D0410041182348081800782870B1
:10115000AF70F8BD1C48083800F02EFC0028F8D00D
:1011600019481C49083801F0D3F90420A8706878A0
:101170004100411818480818407808E06878A042F3
:1011800009D0410041181448AF70081880782870C1
:1011900001203073F8BD0C48083800F00DFC002821
:1011A000F8D009480B49083801F0B2F90420A870BA
:1011B000042C01D0052CEDD1687841004118064877
:1011C000081840782870F8BD300200208042005096
:1011D000400A0020DC0500006ED1000038B5094D42
:1011E000284600F0D1FA284600F0D3FA0024012363
:1011F0001A4621462846009400F006FB0248048265
:10120000047538BD000002407404002038B5094D53
:10121000284600F0B9FA284600F0BBFA0024012362
:101220001A4621462846009400F0EEFA024804824D
:10123000047538BD0000124074040020FFB51C4C3A
:1012400081B016460746207D0028FCD1194D28465E
:1012500000F0B9FA002809D117480178490705D4E8
:10126000017804221143017005B0F0BDA774029803
:1012700020600498606026810A9860810026A6811B
:10128000E6810820E074268201202075284600F0BF
:101290007BFA0123002219462846009600F0B4FA92
:1012A000284600F07BFA207D0028FCD1DCE7000016
:1012B00074040020000012405000002070B518484F
:1012C000FFF7D6FA174800F02DFE174C01212046F3
:1012D00000F069FA1549204600F078FA0120144C14
:1012E000800420600221122000F094FB0C48401C76
:1012F000FFF7BEFA0B48401C00F014FE0D4D012113
:10130000284600F050FA0C49284600F05FFA012008
:10131000C00420600221132000F07CFB70BD00009F
:10132000080000400800000400000240400D0300D7
:1013300000E100E000001240A0860100FFB51C4C57
:1013400081B016460746207D0028FCD1194D28465D
:1013500000F039FA002809D117480178890705D427
:10136000017802221143017005B0F0BDA774029804
:1013700020600498606026810A9860810026A6811A
:10138000E6810820E074268201202075284600F0BE
:10139000FBF90123002219462846009600F034FA92
:1013A000284600F0FBF9207D0028FCD1DCE7000096
:1013B00074040020000002405000002010B51F4CB3
:1013C0002046FFF755FA0721002209022046FFF7C1
:1013D000C1FB1C4C01211A4AC906204600F0F2FE4E
:1013E000206861050843206008151749086001213D
:1013F000092000F0EDFA2068A1050843206064216F
:10140000124801F085F811486421083001F080F895
:101410000E486421103001F07BF80C48642118302C
:1014200001F076F809486421283001F071F8074886
:101430006421203001F06CF810BD00000300C05E94
:10144000102700000001014000E100E0180000202A
:10145000044603A0FEF7D6FE204602F02DFFFEE76D
:10146000496E2048617264204661756C7420486141
:101470006E646C65720A000010B504490020887023
:1014800002480A210C3001F043F810BD240200206C
:10149000F8B5584EF068012700905749B804086025
:1014A0007069C043C00726D0544CE17C009881424B
:1014B00010D0208A401C2082208A5149884209D9B4
:1014C00050480178890703D4017802221143017042
:1014D000FFF784FE00984107490F33D1C010502117
:1014E0000025030001F06EFB0C0B144A190B2F0BA7
:1014F0002E560B60822E304600F046F976E04148C9
:101500000178890772D4027802210A4302706DE0E3
:101510001820E0742582A17C38E010213A4800F0C0
:10152000BBFD2089002861D02820E0742582206836
:101530000178304600F066F9A781009552E0304608
:1015400000F062F9F8BDA089218981420BD92821D8
:10155000E17425822168095C304600F053F9A189C5
:10156000491CA181E9E7608900283FD01020E07480
:1015700025820123002219460095E0E760890028B2
:1015800034D04020E0742582A17C3943304600F0FD
:1015900039F9D2E76089002828D0E1742582608972
:1015A0000128CAD000971DE02046E48942680092D5
:1015B0004389A3421AD94289121B022A00D1582119
:1015C000C174002105460182304600F0F9F8009907
:1015D0000855E889401CE8816889001B0228E1D190
:1015E00000200090012300221146A8E7FFF7F6FD36
:1015F000F8BD00000000024080E200E0740400201A
:10160000881300005000002000000140F8B5594D3B
:10161000E868012600905849F00408606869C043F2
:10162000C00726D0554CE17C0098554F81420FD021
:10163000208A401C2082208A5249884208D9387862
:10164000400703D43878042108433870FFF7DEFDE3
:1016500000984107490F31D1C21028210020130002
:1016600001F0B0FA0C0B13491C0B2D0B2C570B651A
:10167000842C284600F088F878E03878400775D444
:10168000387804210843387070E01821E174064668
:101690002082A17C284600F0B5F81FE02289002AAC
:1016A00064D0E1740746208220680178284600F063
:1016B000A9F8A6812BE0284600F0A6F8F8BDA2897B
:1016C000238993420CD9E174064620822068815C0C
:1016D000284600F097F8A189491CA181009622E0D4
:1016E0006189002942D01021E17420820123002267
:1016F00019460090DFE76189002937D04021E17465
:1017000007462082A17C2846314300F07BF80097F1
:1017100009E06189002929D05021E1742082618982
:101720000129DBD10090012300221146C3E7E7899C
:10173000616800916189B94218D96189C91B022980
:1017400012D05021E17400202082284600F038F8A1
:1017500001460098C155E089401CE0816089C01BAA
:101760000228BBD10020DDE75821EBE7FFF74EFD53
:10177000F8BD00000000124080E200E07404002088
:10178000500000208813000041690122114341618B
:101790007047016880229143016070470168802290
:1017A00011430160704702220029416901D01143B1
:1017B00000E0914341614169042211434161704756
:1017C0008068C0B27047C0687047000070B50C4DAB
:1017D000044628680A2289005043FEF747FE0A2182
:1017E000401DFEF743FE401E206121684022114348
:1017F00021608100091D2868FEF738FE70BD0000D9
:10180000000000208160704730B50024039D00294E
:1018100000D02024002A01D010210C43002B01D03D
:1018200008210C43002D01D004210C4301683C2207
:1018300091432143016030BD70B51D4C1D4D617950
:1018400028780E2901D0002901D1F1282BD1617B04
:10185000002928D1002824D0F02812D0F12816D051
:10186000F32802D0F4281CD105E013A0FEF7CAFC2F
:1018700001F0E6FD15E014A0FEF7C4FC01F086FDC2
:101880000FE015A0FEF7BEFC02F038FA09E016A042
:10189000FEF7B8FC60790E2806D000F0DDF800F005
:1018A0009BFB0020287070BD00F04AFBF9E70000A8
:1018B000400A00202402002070617269206B657963
:1018C0002073700A0000000070617269206B6579F6
:1018D0002063700A00000000706F776572206B65EE
:1018E000792073700A000000706F776572206B6555
:1018F000792063700A000000F8B50020284D294FB8
:101900000246034680260121AC5C0F2C00D93043EF
:10191000082900D24008521C491CC9B2D2B2082979
:10192000F2D9F8545B1C0020DBB2042BEBD31D4C26
:1019300001200C3C60703878122802D00C2812D09C
:101940002BE07878342828D11648BA78002108305E
:101950004B00CB181B185B78934211D0491CC9B2BD
:101960000B29F5D319E07878F32816D10D48BA7809
:1019700000212C304B00CB181B185B78934208D108
:101980004A008A18855C08A0FEF73CFC25712846B1
:10199000F8BD491CC9B20B29ECD30020F8BD0000EA
:1019A000FE090020D401002069725F6B65795F6ECB
:1019B000756D3A25640A000004490068896A81420D
:1019C00001D301207047002070470000200A00204A
:1019D0008307FF22DB0E9A408907090E99400028F1
:1019E0000BDA0007000F0838830808489B00181816
:1019F000C36993430B43C3617047830804489B004A
:101A00001818036893430B430360704700ED00E030
:101A100000E400E08307FF22DB0E9A408907090EED
:101A2000994000280BDA0007000F0838830808489F
:101A30009B001818C36993430B43C3617047830825
:101A400004489B001818036893430B4303607047D6
:101A500000ED00E000E400E010B500221521702048
:101A600001F06EFA002255210320FFF7CDF801F0B6
:101A700049FCFFF75DFA044801214173034904481A
:101A800000F046FD10BD0000400A00208813000051
:101A900030000020F8B53C4E04467069C007C00F06
:101AA000E061B0694007400FE06000F09FF9306AE4
:101AB000364D0002000F2860306A0003000F686096
:101AC000306A0127C004C00FA860306A0005000F0B
:101AD000E860306A8006800F2861306A0007000FD6
:101AE000686100F083F9F0698002800FA861F069F5
:101AF0000003000FE861F0694004400F2862F069BC
:101B00000005000F6862F0694006400FA862F069A6
:101B10000007000FE86228680A21484369684018F6
:101B20007D21090140182060A8680A214843E9681E
:101B30004018606028690A21484369694018A0601C
:101B4000E0690028A86904D00A214843E9694018DF
:101B500009E00A214843E96940182061152804D3A7
:101B6000022114382162206100E02762286A0A21DC
:101B70004843696A40186061A86A0A214843E96AD3
:101B80004018A061F8BD0000008000403C02002029
:101B900030B5394A5169CB07DB0FC36191694907F9
:101BA000490FC160116909020C0F34490C601469B6
:101BB0002403240F4C601469E5040124ED0F8D60AB
:101BC00015692D052D0FCD601569AD06AD0F0D61A1
:101BD00015692D072D0F4D61D568AD02AD0F8D61D3
:101BE000D5682D032D0FCD61D5686D046D0F0D6285
:101BF000D5682D052D0F4D62D5686D066D0F8D6270
:101C0000D2681207120FCA620A680A256A434D6831
:101C100052197D252D01521902608A680A256A43EE
:101C2000CD68521942600A690A256A434D69521902
:101C300082608A69002B04D00A235A43CB69D218E8
:101C400009E00A235A43CB69D2180261152A04D34A
:101C50000223143A0362026100E004620A6A0A2362
:101C60005A434B6AD21842618A6A0A23C96A5A43A4
:101C70005118816130BD0000008000403C0200200E
:101C80000348C16A890701D50221C162704700007B
:101C90000080004070B515467D220E4612010A21D3
:101CA000801AFEF7E3FB0C04000504430A213046CA
:101CB000FEF7DCFB000320430C0204430A21284604
:101CC000FEF7D4FB000120430C46044300F08EF8DD
:101CD0000148046270BD000000800040F8B50E4667
:101CE00006991D00144602D1022900D114300A21A0
:101CF000FEF7BCFB0F04000507430A213046FEF740
:101D0000B5FB00030E02384306430A212046FEF7C6
:101D1000ADFB0001304301430C4600F067F8064874
:101D2000002D416904D0012211434161C461F8BD15
:101D300049084900F9E7000000800040F8B5164660
:101D40007D220F4612011D460A21801AFEF78EFBE6
:101D50000C04000504430A213846FEF787FB000304
:101D600020430C0204430A213046FEF77FFB0001AA
:101D700020430C46044300F039F869070248490F34
:101D800081610461F8BD000000800040F8B50E4696
:101D900006991D00144602D1022900D114300A21EF
:101DA000FEF764FB0F04000507430A213046FEF7E7
:101DB0005DFB00030E02384306430A212046FEF76E
:101DC00055FB0001304301430C4600F00FF8064874
:101DD000002D416904D0012211434161C460F8BD66
:101DE00049084900F9E7000000800040054800214B
:101DF00041604168C903FCD4034941604168C9039B
:101E0000FCD570470080004065A9000010B5FEF7C2
:101E1000CFFF00F087FB00F015FEFFF74FFA10BD73
:101E2000F8B50420FEF708FE1020FEF7D7FE0021CB
:101E30000720FEF769FE0320FEF7FEFD0320FEF7F4
:101E4000CDFE2248FEF720FE1820FEF7BDFE204CF6
:101E50002046FEF70DFD651C2846FEF709FDA61C71
:101E60003046FEF705FD1B4F3846FEF701FD1A48C8
:101E7000FEF7FEFC1848401CFEF7FAFC1748FEF778
:101E8000F7FC1748FEF7F4FC1648FEF7F1FC16487D
:101E9000FEF7EEFC002211462046FEF75BFE002214
:101EA00011462846FEF756FE002211463046FEF740
:101EB00051FE002211463846FEF74CFE0322520422
:101EC0000C210648FEF746FEF8BD000000A24A04B9
:101ED000103D805708000080080000401CFE23567B
:101EE0001400C0530200805E0100206310B500F0B2
:101EF00055F8FFF795FF00F0ABFA0949002008609C
:101F000000F0F8FA01F0FEF9FEF78EFFFFF77EFF12
:101F1000FFF754FA00F0A6F9FEF706FF10BD000027
:101F2000000100500521020E090751188B6801229B
:101F3000824013438B60886890438860704700003C
:101F400070B5012000F094F9104C00256571012056
:101F5000A071A0730820E073012000F025FA012091
:101F6000FEF73EFF01F048F809490A4800F0D0FAB0
:101F70006421094800F0CCFAFEF7BAFF657300222D
:101F80001621702000F0DCFF70BD0000400A002028
:101F9000B80B0000280000203000002010B55921A7
:101FA0000448162288230160026003600468002C44
:101FB000F9D010BD0001005006498A691202FCD414
:101FC00008600A2804D188690002FCD40D2008604A
:101FD000704700000000054070B5084C0E2060718D
:101FE0000025A5716574A574E57401F00BF87D21D9
:101FF000C900034800F08CFA257470BD400A002027
:1020000020000020F8B51C4D286944071BA000687B
:102010000090296A640F2813014201D0002016E0C5
:10202000080301D5164800E016488A030FD40A04B5
:10203000920F6B469B5CCA058904D20DC90E891CA0
:102040008008921C59435043FEF710FA80000E4E50
:10205000022CB06002D00D49A0000858A9690907F8
:10206000090F491CFEF702FA094930604A1080182E
:10207000FEF7FCF97060F8BD000200500102020496
:1020800000805101001BB7000000002060430000E9
:1020900040420F0070470000F8B50C46074600F0BC
:1020A0005DF8054600200090264829460068FEF7A6
:1020B000DDF9461C00203860786123498D4205D83F
:1020C0007D20C000844205D2044606E0642C01D283
:1020D000642402E08C4200D90C461C488D4207D88B
:1020E0002946FEF7C3F901467D20C000604317E092
:1020F000174A954203D90722ED0800920CE0154AD1
:10210000954203D90322AD08009205E0124A954298
:1021100002D901226D080092FA2CE1D220466843D0
:10212000FEF7A4F978600121009889070843386018
:10213000002E02D000BF761EFCD138688001FCD48E
:10214000F8BD00000000002040420F0000CA9A3B8A
:102150000090D0030048E8010024F40010B588B0D6
:102160000446202211496846FEF716F81049114826
:102170008C4202D14069000A0CE00F498C4202D126
:102180004069000B06E00D4940698C4201D1000C0A
:1021900000E0000D4007400F022804D0800069468F
:1021A000085808B010BD06480068FAE7ACD1000036
:1021B00000000140000200500001014000001140F9
:1021C00000000020F7B517460646FFF7C7FF044694
:1021D00000254008B84201D2022014E00F498C4289
:1021E00002D90725E4080AE00D498C4202D90325EB
:1021F000A40804E00B498C4201D901250446394664
:102200002046FEF733F901992943316070606D1C57
:10221000684301462046FEF729F9FEBD0090D00331
:102220000048E8010024F4000A490878401CC0B2C4
:1022300008700A2805D3002008700748816A491CE5
:10224000816206490868401C0860054901208860D1
:102250007047000014000020200A0020D001002058
:102260000001014010B5FEF707FE01F039F810BD7E
:102270000249002800D00120886370474042005086
:1022800010B50446012211020248FEF7AEFE0248D4
:10229000046210BDC0400050C042005070B51648E6
:1022A0001E250446455F20340121E078222D02DA04
:1022B000217088431DE008432946104A2239E07006
:1022C00091420DD807212170DF210840E070284697
:1022D0007921FEF7D5F82179090909010843207110
:1022E0001F208001854205DD06202070E078202136
:1022F0000843E07070BD0000200A00209E07000027
:1023000010B5002000F050F804490020886303490C
:10231000403908620120FFF7B3FF10BD4042005072
:10232000094A13690948002BC17806D00523837038
:10233000FB231940C170002004E00423837019437B
:10234000C17001205060704780420050400A002058
:10235000144B10B5182218469A5E2030C178222AF4
:1023600004DA03224270FD22114018E002242143C6
:10237000C1701E241C5F1F239B019C4208DC0A24A1
:102380004470BF242140C17001790907090F017110
:102390009A4205DD09214170C17840221143C17084
:1023A00010BD0000200A00200249002800D00120B2
:1023B0008860704780420050F8B5234E05460346BA
:1023C0000C2200213046FEF73BFA1F4C8034206877
:1023D00001273843206039463046FEF7D9F9276196
:1023E0002068F902084320602069C007FCD0012062
:1023F0002061164A29460020CB0704D083009B1990
:102400001B684700D353401C4908C0B21028F3D3BF
:102410002069C007FCD020680121C90288432060E0
:1024200000213046EB0704D08B001B181B684E00C0
:102430009353491C6D08C9B21029F3D301212161BE
:10244000FEF790F9F8BD000000000E40200A0020C1
:102450000D484168420411434160002105200007F6
:10246000416301635201C263084A82633322084810
:102470001201426001603021C16081600549416103
:1024800009060161704700004040005000880010BC
:10249000400000501100440070B501221502294689
:1024A0001348FEF7A2FD124C002280341021204672
:1024B000FEF79BFD0E4801222946C030FEF795FD30
:1024C000A9000B4D002240352846FEF78EFD012164
:1024D0000022C9022846FEF788FD01220421204679
:1024E000FEF783FD012291032846FEF77EFD70BDB5
:1024F0000040005010B5FFF7CFFFFFF701FF00F0DD
:1025000093FF02480021C170017110BD400A0020F4
:10251000034A936A4360926A511801607047000051
:10252000200A002010B50CA0FDF76CFE00F056F854
:1025300000F068F80E4801680EA0FDF763FE11A0D8
:10254000FDF760FE0121154800F0E4F80121144870
:1025500000F0E0F8002010BD7472616E7366657261
:10256000207561727420696E6974210A0000000090
:10257000000000200A0A43505520402025642048CE
:102580007A0A00000A554152542053616D706C65FF
:102590002050726F6772616D0A00000000401540A4
:1025A0000000154010B500F0CDF810BD0520000763
:1025B000C268012109040A43C260C2688A43C2603A
:1025C0000348024941620321C16070476600003040
:1025D0000000054010B500F035F810BD05200007DB
:1025E000C268012149040A43C260C2688A43C260CA
:1025F0000348024941620321C16070476F02003005
:102600000000154005200007C268012189040A4323
:10261000C260C2688A43C260084807494162032118
:10262000C16007480021817501768176C1754176C8
:102630000121C1767047000066000030004015405F
:10264000E209002070B5234C0121204600F046F835
:10265000E169C9070FD020681F4CC0B2E27800259D
:102660000121130000F0AEFA0805080F161A1D200C
:102670002725FF282BD070BD552802D0FF28FAD07F
:1026800017E0022013E0042801D103200FE0FF2807
:102690001DD00EE08028FAD1042008E0207005202B
:1026A00005E06070062002E00028F0D10720E0700D
:1026B00070BDE57070BDFF2809D0627800232178D5
:1026C0000120FEF74BFBFF2020706070F1E7E17006
:1026D00070BD000000001540540000204A0501D5DF
:1026E000682282610A0503D5426901231A434261C7
:1026F0008A0401D5064A82614A0401D5426C4264CB
:10270000090403D58021C161816B8163704700009A
:102710000100000142680A434260074B0122120394
:102720000649984201D10A607047054B9842FAD198
:1027300001204003086070470000054000E100E010
:102740000000154070B51D4E01213046FFF7C6FF51
:102750001B4C01212046FFF7C1FFF0690025C0078F
:10276000184B002818D03068C0B2302800D1DD6086
:1027700059680122920291420ED213499A688854F4
:1027800098681249884201D1002001E09868401CF5
:1027900098605868401C5860E069C0050DD50C4A27
:1027A000E069C00709D0206899785054491CC8B224
:1027B00098708C28F4D99D70F2E770BD0000054038
:1027C00000401540540000208C040020FF0300004E
:1027D0008C08002010B5052000070269FF21013197
:1027E0000A43026102698A4302610B4C02202060A5
:1027F0000A48E0621020206107484030C169420663
:102800001143C1610648FFF78DFB4B2109022046A9
:1028100000F040F910BD0000000007400108000072
:102820000800000810B500F0C5F810BD10B50FA0E5
:10283000FDF7E8FC1DA0FDF7E5FC0CA0FDF7E2FCB0
:102840002AA0FDF7DFFC39A0FDF7DCFC47A0FDF76F
:10285000D9FC06A0FDF7D6FC54484168102211436C
:10286000416053499004086010BD00002B2D2D2DB0
:102870002D2D2D2D2D2D2D2D2D2D2D2D2D2D2D2D88
:102880002D2D2D2D2D2D2D2D2D2D2D2D2D2D2D2D78
:102890002D2D2D2D2D2D2D2D2D2D2D2D2D2D2D2D68
:1028A0002D2D2D2D2D2D2D2D2B0A00007C2020557A
:1028B00053434920554152542046756E6374696FE5
:1028C0006E2054657374202020202020202020209A
:1028D00020202020202020202020202020202020F8
:1028E00020202020202020207C0A00007C20204462
:1028F00065736372697074696F6E203A20202020BE
:1029000020202020202020202020202020202020C7
:1029100020202020202020202020202020202020B7
:1029200020202020202020207C0A00007C20202045
:10293000205468652073616D706C6520636F6465F9
:102940002077696C6C207072696E7420696E707586
:10295000742063686172206F6E207465726D696E99
:10296000616C2020202020207C0A00007C20202078
:1029700020506C6561736520656E74657220616EB0
:102980007920746F207374617274202020202028B5
:1029900050726573732027302720746F2065786923
:1029A00074292020202020207C0A000000000740FD
:1029B00000E100E070B52148C16BC90739D1406B17
:1029C0001F4CC0B2E27800250121130000F0FAF894
:1029D00008050910131A1D202430FF2829D1E170A1
:1029E00027E0552802D0FF2823D021E0022011E063
:1029F00003280FD001E0802802D0FF28EFD017E095
:102A0000042007E02070052004E06070062001E04B
:102A1000A0700720E0700CE0FF28E0D0A378627877
:102A200021780220FEF79AF9FF2020706070A070D4
:102A3000E570024910204031486270BD0000074037
:102A40006400002010B5FFF7C5FE0648016806A027
:102A5000FDF7D8FB08A0FDF7D5FBFFF7E7FE002048
:102A600010BD0000000000200A0A435055204020FD
:102A7000256420487A0A00000A55534349205541ED
:102A800052542053616D706C652050726F67726193
:102A90006D0A0000F0B50646474885B00D468642EF
:102AA00002D04648864202D1FDF7CEFF01E0FDF795
:102AB000DBFF29460290FDF7D9FC04460146029847
:102AC000FDF7D4FC471B611C0298FDF7CFFC281AC8
:102AD000874200D3641C01200004844205D31020E7
:102AE00004250090800101903CE00121890301252B
:102AF00008466843A04203D26D1C042DF8D901E0BA
:102B0000042D00D9042529462046FDF7AFFC03908B
:102B100000200027FF4300900624019021460398DF
:102B2000FDF7A4FC01218902884205D908460399D2
:102B3000A2028A1A511C07E00146039A6143521A05
:102B4000411C039B6143C91A8A4201D3401C00E027
:102B50001146B94203D20F000094019002D0641CC8
:102B6000102CDBD93068C008C00030600220306013
:102B70001348F06210203061009901988A02012107
:102B8000401E89020004511A08432902FF39013905
:102B90000843B060F06D0121C9070843F06529467C
:102BA0000298FDF763FC0099FDF760FC0199FDF7C1
:102BB0005DFC05B0F0BD000000000740004007408C
:102BC0000108000030B47446641E2578641CAB42D2
:102BD00000D21D46635D5B00E31830BC18473038F7
:102BE0000A2801D20120704700207047074A0121BE
:102BF000516311635160064A002802D000209061A1
:102C000000E0916101488030C1637047004200508C
:102C100040430050F3B5002481B0054626460FE03E
:102C20006000295CFD2914D0FE290DD0FF2906D0B3
:102C300041190023022298200096FEF77FFB641CB6
:102C400002988442ECDBFEBD08490948FFF724FAEC
:102C5000F5E7471900967A78B91C00239820FEF70B
:102C60006DFB7878401C40080419E8E788130000E1
:102C700000000140F3B5002481B0054626460FE070
:102C80006000295CFD2914D0FE290DD0FF2906D053
:102C90004119002302229A200096FEF74FFB641C84
:102CA00002988442ECDBFEBD08490948FFF7F4F9BD
:102CB000F5E7471900967A78B91C00239A20FEF7A9
:102CC0003DFB7878401C40080419E8E788130000B1
:102CD0000000014010B500F049F800F051F806A0DE
:102CE000FDF790FA00F018F80A48C07B00F0CEF823
:102CF00000F050F810BD00006472765F3538323550
:102D00005F496E69742A2A2A2A2A2A2A2A2A2A2A02
:102D10000A000000400A002010B50E480E4C807BCF
:102D200001280CD0022809D121460C48FFF772FF78
:102D300000F030F821460A48FFF79CFF10BD00F074
:102D400029F821460748FFF795FF21460648FFF777
:102D500061FF10BD400A0020610F000028750000CF
:102D6000ACB20000EA9300006656000010B50022E5
:102D700004210248FEF739F910BD0000404100501F
:102D800010B501210022C9020148FEF72EF910BD3D
:102D9000C040005038B502212448FFF73BFF002413
:102DA000224923460222083998200094FEF7C6FAE9
:102DB0001E4900230222891F98200094FEF7BEFAC4
:102DC0001A4900230222091F98200094FEF7B6FA40
:102DD000164900230222891E98200094FEF7AEFABD
:102DE00002211248FFF746FF10490023022208394A
:102DF0009A200094FEF7A2FA0C4900230222891FB0
:102E00009A200094FEF79AFA084900230222091F2B
:102E10009A200094FEF792FA044900230222891EA8
:102E20009A200094FEF78AFA38BD0000545600003C
:102E300010B5012291020348FEF7D7F8002000F0F8
:102E400003F810BDC04000500249002800D0012006
:102E500088627047C042005010B5012000F002F8AF
:102E600010BD000010B50446012211030548FEF70D
:102E7000BCF80548002C01D0012100E000210163CD
:102E800010BD0000C0400050C0420050F8B50446DC
:102E900010282BD803211648FFF7BCFEA0002418E9
:102EA0001448002521180E462B460522982000952F
:102EB000FEF744FA0F480023553021180C4605222E
:102EC00098200095FEF73AFA03210948FFF7D2FE51
:102ED0003146002305229A200095FEF72FFA21465D
:102EE000002305229A200095FEF728FAF8BD00007D
:102EF000585600001E010020F8B50BA0FDF782F91E
:102F000000240E4D2646E000411900964A682958D3
:102F100000239420FEF792F9641CE4B2062CF2D34D
:102F200000F0B8F8F8BD00004164635F70636D3174
:102F30003836325F496E69740A0000008C43000025
:102F4000F8B507461B4CFF2015460E4620637D2131
:102F5000C9001948FFF7A0F8552020637D21C9005A
:102F60001548FFF799F8032020637D21C900124816
:102F7000FFF792F8802020637D21C9000E48FFF7FB
:102F80008BF827637D21C9000B48FFF785F826637E
:102F90007D21C9000848FFF77FF825637D21C9001E
:102FA0000548FFF779F8B819401983304042C0B29C
:102FB0002063F8BD000007400000014010B5012269
:102FC000D1020A48FEF711F8094A0123D3620949E0
:102FD000002000BF401C8842FBDB0020D06200BF05
:102FE000401C8842FBDBD36210BD00000041005052
:102FF00000430050204E0000014901204861704705
:1030000000420050014900204861704700420050D2
:1030100010B5144841790B00FFF7D4FD0F231212AD
:1030200012151518181E231B23232309230080794A
:10303000002802D00022122110E0002211210DE010
:10304000002215210AE00022162107E000221421A7
:1030500004E00022182101E0002217217120FFF76F
:103060006FFF10BD400A0020084A08498032084B13
:10307000002801D0002000E0012048630863486078
:10308000D06398618860C8607047000000420050BB
:103090004043005010B5E82000F080F9042000F013
:1030A000A9F910BD10B5002000F078F9012000F05A
:1030B000A1F910BD10B5002000F070F9022000F059
:1030C00099F910BD10B5E82000F068F9082000F06B
:1030D00091F910BD05490120486300220A63486048
:1030E00002498031C863024988617047004200503C
:1030F00040430050074A012151631163002802D068
:103100000020506000E0516002488030C1630248F6
:1031100081617047004200504043005010B511A03B
:10312000FDF770F8012251031548FDF75EFF1549C0
:103130000120486314491548FEF7AEFF144CA07BEC
:10314000012802D0022803D007E01249124802E009
:1031500010491248683900F023F8E07B00F07CF851
:1031600010BD00006472765F333235315F496E699D
:10317000742A2A2A2A2A2A2A2A2A2A2A0A00000003
:10318000C0400050C04200508813000000000140C1
:10319000400A0020D3040000C2430000684D000034
:1031A000F3B5002481B0054626460FE06000295C97
:1031B000FD2915D0FE290DD0FF2906D04119002385
:1031C000022294200096FEF7B9F8641C029884420B
:1031D000ECDBFEBD7D21C9000848FEF75DFFF4E78A
:1031E000471900967A78B91C00239420FEF7A6F8B8
:1031F0007878401C40080419E7E70000000001400F
:10320000F8B5002000F028F8012251030D48FDF721
:10321000ECFE0D4C012565630C4E0D4F31463846D2
:10322000FEF73AFF0B493846FEF736FF0020606391
:1032300031463846FEF730FF06493846FEF72CFF88
:103240006563F8BDC0400050C042005088130000C4
:1032500000000140B80B000038B5044603211048B7
:10326000FFF79EFFA00024180E48002521182B46CA
:10327000052294200095FEF761F803210848FFF726
:103280008FFF08480023553021180522942000950F
:10329000FEF754F807210448FFF782FF38BD00000D
:1032A000BC430000740000203E5600000349002883
:1032B00001D0002000E001208860704700420050EB
:1032C00005490120486308634860034A00218032B1
:1032D000D16302498861704700420050404300506A
:1032E00010B5074C002208212046FDF77EFE002283
:1032F00040212046FDF779FEFEF7BEF810BD000024
:103300008040005070B51E4C012291032046FDF70D
:103310006CFE0122D50329462046FDF766FE0122F8
:1033200051032046FDF761FE012211032046FDF7FF
:103330005CFE012202212046FDF757FE01220421F6
:103340002046FDF752FE0E48012229468030FDF747
:103350004CFE012240210B48FDF747FE09490120A0
:10336000C0318860486308634860074AD063064AF2
:10337000C03290618860C86088630020C86370BDF7
:1033800000400050404100508042005010B50022E3
:1033900021210320FDF738FC10BD000038B5144989
:1033A00000244870891C4870891C4870891C48702A
:1033B00023460222891F94200094FDF73FFF0C4909
:1033C00000230222891C94200094FDF737FF08494E
:1033D00000230222091D94200094FDF72FFF0449C9
:1033E00000230222891D94200094FDF727FF38BD99
:1033F0006C00002038B5402108430A490024487079
:10340000891C487023460222891E94200094FDF7EF
:1034100015FF044900230222891C94200094FDF723
:103420000DFF38BD6800002010B509200003FEF72D
:10343000C3FFFEF733FFFEF78BFFFEF771FF10BDF2
:1034400010B5002250210320FDF7DEFB10BD000067
:10345000074A0121002802D00020506300E0516398
:103460001163516002488030C16302488161704736
:1034700000420050404300500020C043704700B558
:103480000346FEF799FD184600BD000088B00020F5
:103490000126354606900590FEF728FDFEF79CFDB7
:1034A000FDA0FCF7AFFEFE4C0127FE48FEF784FAB4
:1034B000002840D0FF21F531FA48FFF729F8E07CD9
:1034C00000280BD00598401CC0B20590082805D9EB
:1034D0000020E0740590E07BFDF79EFCA0790028B9
:1034E00002D000F015FD01E000F0BCFCEE48FEF754
:1034F00063FA002801D0FFF785FD60790E2813D10B
:10350000EA48FEF759FA00283ED0E94807634763C6
:1035100047600020FDF764FC0020FEF745FF002017
:10352000FEF7A6FE00206073E248FEF745FA002889
:1035300001D000202074207B002808D000202073B8
:103540000120FFF7B3FE6421DB48FEF7E1FFDA4814
:10355000FEF732FA002802D00020FFF7A7FE607CB9
:10356000002808D000206074FFF76EFC7D21C900A0
:10357000D248FEF7CDFFD148FEF71EFA002817D03B
:10358000A07C002811D013E00698002805D0C84878
:10359000076347634760002005E0C54900200863D2
:1035A0004863486001200690BEE70120FFF74CFC0D
:1035B00001A8FDF787FB00287ED00198012802D0E2
:1035C000022879D142E10498C2B20398C1B20298AC
:1035D000C0B2FFF7B5FCBAA0039A0299FCF712FE3D
:1035E0000298082813D103980028EAD10146C2A006
:1035F000FCF708FE03980022C1B20298C0B2FFF7A0
:103600009FFC0020A0716771C1A0FCF7FBFD029830
:1036100009282AD103980128D3D1A1486B46203824
:10362000C08B0104090E5970C2B21A7020780128AB
:1036300002D0C809C001587059780920FDF7E4FA92
:1036400097482038028B1004010E68464170D2B2B0
:1036500002706078032803D0602001406846417002
:10366000684641780920FDF7CFFA0298072816D15D
:10367000B1A00399FCF7C6FD0398002807D0C0B29B
:10368000E073FDF7C9FB0020A074012005E00020D5
:10369000E073FDF7C1FBA7740020FFF7D5FB02988C
:1036A000042803D1AAA00399FCF7ACFD02980F28C7
:1036B00013D10398192800E0C7E005D109206071F3
:1036C000A9A00399FCF79EFD0398172805D10820AF
:1036D0006071A5A00399FCF795FD02980D2808D10B
:1036E0000020FDF77DFB0020FEF75EFE0020FEF7C8
:1036F000BFFD029806284FD10398062804D1062161
:1037000061719FA0FCF77EFD0398072804D1072173
:1037100061719BA0FCF776FD0398022804D1022179
:10372000617197A0FCF76EFD0398042804D101464F
:10373000677193A0FCF766FD0398052805D1032067
:1037400060718FA00399FCF75DFD0398112805D1E6
:10375000052060718AA00399FCF754FD0398122894
:1037600005D10420607186A00399FCF74BFD0398F6
:103770000B2804D10B21617181A0FCF743FD039854
:10378000092803D0082801D0162805D10C20607123
:103790007BA00399FCF736FD0298112805D1049807
:1037A000C1B20398C0B200F059FD0298122805D1A9
:1037B0000498C1B20398C0B200F0CCFC0298132860
:1037C00005D10498C1B20398C0B200F0EDFC029894
:1037D000142805D10498C1B20398C0B200F010FDBE
:1037E0000298152805D10498C1B20398C0B200F020
:1037F0005FFC0298162805D10498C1B20398C0B2A4
:1038000000F0D4FB0298172805D10498C1B20398A0
:10381000C0B200F0F3FB0298182805D10498C1B299
:103820000398C0B200F016FC0298192801D100F0EC
:103830006BFC02981A2801D100F092FB0298202814
:1038400003D104220021FDF7DFF94AE102980328A1
:1038500006D103985528F8D002281AD0032819D089
:103860000498C2B20398C1B20298C0B2FDF7CCF975
:103870000298012807D103980028E6D12279E1783F
:103880000120FFF75DFB02980328DED1039803288F
:1038900082E09BE081E000000A6D61696E0A000031
:1038A000400A0020200000202800002030000020D6
:1038B0000042005040000020480000203800002056
:1038C0004D53475F34475F5359535F5354415445F9
:1038D0005F494E443A6D73672E706172616D30209E
:1038E0003D2025782C206D73672E706172616D31DB
:1038F000203D202578200A00307830382C206D7348
:10390000672E706172616D31203D202578200A009C
:103910000A204141414141414141414141414141EF
:103920004141414141414141414141414141414187
:10393000414141410A000000307830372C206D733E
:10394000672E706172616D31203D202578200A005C
:10395000307830342C206D73672E706172616D3158
:10396000203D202578200A00307830462C206D73C9
:10397000672E706172616D31203D202578200A002C
:10398000307830362C206D73672E706172616D3126
:10399000203D202578200A0015D1E07B00287DD02D
:1039A000401EC0B2E073FDF737FAE07B002802D179
:1039B000A774FFF749FAE27B04210320FDF724F9FD
:1039C000029803286AD10398022811D10020A0741C
:1039D000E07B102862D2401CC0B2E073FDF71CFAF5
:1039E000E27B04210320FDF70FF90298032878D128
:1039F000039815280CD10020FFF726FA6774677129
:103A0000FFF748FB49A0FCF7FDFB0298032868D1AB
:103A1000039816280DD10020FFF716FA67740620C8
:103A20006071FFF737FB46A0FCF7ECFB0298032818
:103A300057D1039817280DD10020FFF705FA6774B6
:103A400008206071FFF72EFB40A0FCF7DBFB02981B
:103A5000032846D1039818280DD10020FFF7F4F968
:103A600067740A206071FFF725FB3CA0FCF7CAFBD6
:103A70000298032835D10398C02807D1FFF79EFA92
:103A800039A0FCF7BFFB029803282AD10398C1286C
:103A900007D138A0FCF7B6FB029800E021E003282C
:103AA0001FD10398C22805D134A0FCF7ABFB0298C4
:103AB000032816D10398C32805D133A0FCF7A2FB35
:103AC000029803280DD10398CA280AD1207C002827
:103AD00001D1FFF79DFA7D21277449012D48FEF79A
:103AE00017FD00F0AFF8FDF7EBFAFDF7A5FE07981C
:103AF0000003000FB04207D10F2E02D2761CF6B29F
:103B000000E0002600F048F807984003000FA842A4
:103B100007D10F2D02D26D1CEDB200E00025FFF79A
:103B200083FC0798401C0790BFE40000466F757245
:103B3000475F574946495F4348414E4E454C0A004E
:103B400042545F4348414E4E454C0A004155584946
:103B50004E5F4348414E4E454C0A0000464D5F4380
:103B600048414E4E454C0A00666D2072657365747F
:103B70000A000000696E736964650A006F757473EA
:103B80006964650A000000006175746F736964659B
:103B90000A00000040000020F8B51F48E722C17865
:103BA000837800251D4C0A40042B01D0A56321E039
:103BB0001A4E03780127C03E072B02D0062B07D0F0
:103BC00019E0A7633762F762EF22114008220BE089
:103BD00043780A2B02D0092B09D00CE0A763356289
:103BE000F562F722114010221143C17003E0A56372
:103BF0003562F762C270C1780948074A03781279C2
:103C0000994202D143789A4204D001704270012057
:103C1000FFF796F9F8BD0000400A0020C0420050AE
:103C20006C02002010B500231A46C1210220FDF7C6
:103C300095F810BD10B500231A46C2210220FDF7E9
:103C40008DF810BD10B5FDF7E5F901222A490300F2
:103C5000FEF7B8FF14130B13171F1F23232B132773
:103C6000132F133337133B434E130A7348790E282F
:103C700004D0FDF7F1FEFEF7AFF910BDFEF760F9D5
:103C800010BD0A734A740020FFF7DEF800F036F822
:103C900010BD0A7300F0DDF810BD0A7300F0D1F812
:103CA00010BD0A7300F08CF810BD0A7300F0AFF875
:103CB00010BD0A7300F09EF810BD0A7300F0B4F84E
:103CC00010BD0A7300F089F810BD0A73887B0128C3
:103CD000FAD08A73FFF7A6FF07E00A73887B0228F1
:103CE000F2D002208873FFF7A5FFFDF7DDF810BDC5
:103CF0000A7300F05DF810BD400A002070B52B4C2F
:103D00000825607901260300FEF75CFF0B4324249D
:103D1000242424343407431A4300207C00280FD085
:103D20000023182203210220FDF718F80A206071F1
:103D3000002213217020FFF703F9FFF7BBF970BDD4
:103D40000023152203210220FDF708F800226671E6
:103D5000112109E00023162203210220FCF7FEFFB7
:103D600006200022607110217020FFF7E9F8FFF7AC
:103D700091F970BD0023172203210220FCF7EEFF0A
:103D80006571002212217020FFF7DAF8FFF78AF937
:103D900070BD0023172203210220FCF7DFFF002261
:103DA00012217020FFF7CCF86571EFE7400A002080
:103DB00010B50023212203210220FCF7CFFF10BD04
:103DC00010B500230D2203210220FCF7C7FF0022BB
:103DD00019217020FFF7B4F810BD10B5002331226F
:103DE00003210220FCF7BAFF00221B217020FFF7FD
:103DF000A7F810BD10B50023562203210220FCF7BE
:103E0000ADFF002217217020FFF79AF810BD10B502
:103E100000230E2203210220FCF7A0FF002218211C
:103E20007020FFF78DF810BD10B50023322203215A
:103E30000220FCF793FF00221A217020FFF780F880
:103E400010BD10B50322002311460220FCF786FFA7
:103E500010BD10B50222002303211046FCF77EFF9F
:103E600010BD000010B503488079002801D100F092
:103E700003F810BD400A002010B523480023407904
:103E80000122224902280DD005280BD0072809D08D
:103E9000082807D00A2805D00A704C78002C06D0D4
:103EA0004B7005E00B704A70022819D000E04A7090
:103EB000012815D0032813D0042815D0052813D0C5
:103EC000062815D0072813D0082815D0092813D0A4
:103ED0000A2815D00D2802D10020FFF7C5F810BD23
:103EE0004878FFF7B5FA10BD4878FEF77FFE10BDA1
:103EF0004878FFF7FFF810BD0120FFF7EBF810BD81
:103F00000120FFF7DDF910BD400A00206E020020FD
:103F100010B512498878052801D2401C00E0012024
:103F20008870C0B20300FEF74DFE060704080C10AF
:103F300014070120FFF78CFA10BD0120FEF756FE92
:103F400010BD0120FFF7D6F810BD0120FFF7C2F821
:103F500010BD0120FFF7B4F910BD00006E02002073
:103F600000B589B06846FDF795FD01987D21C2B284
:103F700000980901401AC1B21520FCF745FE0398CC
:103F8000C2B20298C1B21620FCF73EFE0598C2B23A
:103F90000498C1B21720FCF737FE0798C2B2069802
:103FA000C1B21820FCF730FE09B000BD70B58CB06E
:103FB000044603A8FDF76EFD049E039D009701973C
:103FC00023463246294605A00297FCF71BF92246F4
:103FD00031462846FDF75EFE0CB070BD0925642F02
:103FE000253032642F2530326420253032643A2562
:103FF0003032643A253032640A000000F0B591B0E6
:1040000004460D4603A8FDF745FD0B980C900A9F4A
:10401000099E684670C00DA90EC906A0FCF7F2F80B
:104020000C9800903B46324629462046FDF756FE46
:1040300011B0F0BD0925642F253032642F253032B0
:104040006420253032643A253032643A25303264B7
:104050000A000000F0B591B004460F4603A8FDF732
:1040600019FDF807079DC00F0294089E0C90019659
:1040700000950DA90EC97F0805A0FCF7C3F82246DC
:104080003146284600970C9BFDF728FE11B0F0BD85
:104090000925642F253032642F25303264202530E5
:1040A00032643A253032643A253032640A00000026
:1040B00070B58CB005460C4603A8FDF7EBFC7D20DF
:1040C00000012D18059E0097019733462946224688
:1040D00005A00297FCF796F8324628462146FDF7E0
:1040E000D9FD0CB070BD00000925642F2530326465
:1040F0002F2530326420253032643A253032643A3C
:10410000253032640A00000000B589B06846FDF72A
:104110003FFD01987D21C2B200980901401AC1B249
:104120001120FCF771FD0398C2B20298C1B21220AF
:10413000FCF76AFD0598C2B20498C1B21320FCF7DF
:1041400063FD0798C2B20698C1B21420FCF75CFD6B
:1041500009B000BDF0B58FB004460F4605A8FDF7C5
:1041600017FD03A866C800920191324629462346EE
:1041700005A0FCF747F83B46224631462846FDF7A6
:10418000DDFD0FB0F0BD00000925642F253032643D
:104190002F2530326420253032643A253032643A9B
:1041A000253032640A000000F0B591B004460D4697
:1041B00003A8FDF7EDFC0B980C900A9F099E68463A
:1041C00070C00DA90EC906A0FCF71CF80C98009051
:1041D0003B46324629462046FDF7D8FD11B0F0BDDA
:1041E0000925642F253032642F2530326420253094
:1041F00032643A253032643A253032640A000000D5
:10420000F0B591B004460F4603A8FDF7C1FCF807CE
:10421000079DC00F0294089E0C90019600950DA971
:104220000EC97F0805A0FBF7EDFF22463146284660
:1042300000970C9BFDF7AAFD11B0F0BD0925642F76
:10424000253032642F2530326420253032643A25FF
:104250003032643A253032640A000000F0B58DB087
:1042600005460C4603A8FDF793FC7D2000012D18A0
:1042700002990198069F059E0191029029463346B6
:10428000224605A0FBF7BEFF3B46324628462146A4
:10429000FDF754FD0DB0F0BD0925642F25303264C3
:1042A0002F2530326420253032643A253032643A8A
:1042B000253032640A00000010B50446016810A0E1
:1042C000FBF7A0FF11A06168FBF79CFF12A0A1689B
:1042D000FBF798FF13A0E168FBF794FF14A0216996
:1042E000FBF790FF15A06169FBF78CFF16A0A16991
:1042F000FBF788FF17A0E169FBF784FF10BD000002
:10430000723020203D20307825780A00723120203C
:104310003D20307825780A00723220203D20307808
:1043200025780A00723320203D20307825780A0055
:10433000723132203D20307825780A006C722020BE
:104340003D20307825780A00706320203D203078A9
:1043500025780A00707372203D20307825780A0095
:10436000001BB7000080000000E048041027000098
:10437000006CDC0200000000000000000080510121
:104380000100020003000400201026078043000003
:10439000020000008243000002000000844300008D
:1043A0000200000086430000020000008843000075
:1043B000020000008A4300000200000000007F8C21
:1043C000001E00007F00021101110000000000002B
:1043D000000003112A0025180D10020000007F00C4
:1043E000028000007F00220300007F000200000026
:1043F0007F8C001EFD051C0000000000FD0528004C
:1044000000000000FD05340000000000FD05400034
:1044100000000000001FFD05240020C49C00FD05D5
:10442000307FFFFFFF0000007F8C001CFD0B6C7FC6
:10443000FFFFFF00000000000000FD0B7600000001
:10444000000000000000000000007F8C001DFD0B3C
:10445000087FFFFFFF00000000000000FD0B1200BE
:104460000000000000000000000000007F8C001E23
:10447000FD0510000000000000007F8C0023FD05FA
:1044800014000000010000007F8C0011FD0B587F1C
:10449000FFFFFF00000000000000FD0B62000000B5
:1044A000000000000000000000007F8C0012FD0BE7
:1044B00044FF845916FF845916FF8400FD0B4E59A2
:1044C0001670462B3B9D850DE20000007F8C00138B
:1044D000FD0B3001BB7CF401BB7CF401BB00FD0B88
:1044E0003A7CF46237C54FB4A281920000007F8C01
:1044F0000013FD0B584F9DF935B06206CB4F9D0060
:10450000FD0B62F93549E69D16D55555560000005C
:104510007F8C0014FD0B087CB6A4BC83495B447CF3
:10452000B600FD0B12A4BC7CB12C1E8687C54900C9
:1045300000007F8C0014FD0B1C05B75C1F05B75CE9
:104540001F05B700FD0B265C1F49E69D16D5555586
:10455000560000007F8C0014FD0B587FFFFFFF000A
:10456000000000000000FD0B6200000000000000E1
:104570000000000000007F8C0014FD0B6C7FFFFF2B
:10458000FF00000000000000FD0B760000000000AE
:1045900000000000000000007F8C0015FD0B087F6C
:1045A000FFFFFF00000000000000FD0B12000000F4
:1045B000000000000000000000007F8C0015FD0BD3
:1045C0001C7FFFFFFF00000000000000FD0B260025
:1045D0000000000000000000000000007F8C0015BB
:1045E000FD0B307FFFFFFF00000000000000FD0B0F
:1045F0003A000000000000000000000000007F8C76
:104600000015FD0B447FFFFFFF00000000000000CD
:10461000FD0B4E0000000000000000000000000044
:104620007F8C0015FD0B587FFFFFFF80A59DA27EAC
:10463000B700FD0B6220FA7FA2251080B9584D000B
:1046400000007F8C0015FD0B6C7F9604378069FBA2
:10465000C97F9600FD0B7604377F95D85780D39F8E
:10466000D00000007F8C0016FD0B087F9604378079
:1046700069FBC97F9600FD0B1204377F95D85780E0
:10468000D39FD00000007F8C0016FD0B1C7F77CCE1
:1046900069808833977F7700FD0B26CC697F77830D
:1046A000F2810FD6400000007F8C0016FD0B307F9A
:1046B00077CC69808833977F7700FD0B3ACC697F90
:1046C0007783F2810FD6400000007F8C0016FD0B2F
:1046D000440021875F0021875F002100FD0B4E878A
:1046E0005F7A1481B28B50DF1E0000007F8C0016B1
:1046F000FD0B580021875F0021875F002100FD0B23
:1047000062875F7A1481B28B50DF1E0000007F8CBD
:104710000016FD0B6C78572CEC8B3C83E573330053
:10472000FD0B76A8B374C37C1B94752A5F00000050
:104730007F8C0017FD0B087F327C9D8237EB837CDA
:104740007300FD0B12BFCB7DC8147D8459C3970045
:1047500000007F8C0017FD0B1C7FFFFFFF00000097
:1047600000000000FD0B260000000000000000001B
:10477000000000007F8C0017FD0B307FFFFFFF0063
:10478000000000000000FD0B3A00000000000000E7
:104790000000000000007F8C0017FD0B447FFFFF2E
:1047A000FF00000000000000FD0B4E0000000000B4
:1047B00000000000000000007F8C0017FD0B587FF8
:1047C000FFFFFF00000000000000FD0B6200000082
:1047D000000000000000000000007F8C0017FD0BAF
:1047E0006C7FFFFFFF00000000000000FD0B760063
:1047F0000000000000000000000000007F8C001896
:10480000FD0B080804820000000000000000FD0B02
:1048100012000000000000000000000000007F8C7B
:104820000018FD0B1C7FFFFFFF00000000000000D0
:10483000FD0B26000000000000000000000000004A
:104840007F8C0018FD0B307FFFFFFF000000000091
:104850000000FD0B3A000000000000000000000016
:1048600000007F8C0018FD0B447FFFFFFF0000005D
:1048700000000000FD0B4E000000000000000000E2
:10488000000000007F8C0018FD0B587FFFFFFF0029
:10489000000000000000FD0B6200000000000000AE
:1048A0000000000000007F8C0018FD0B6C7FFFFFF4
:1048B000FF00000000000000FD0B7600000000007B
:1048C00000000000000000007F8C0019FD0B087F35
:1048D000FFFFFF00000000000000FD0B12000000C1
:1048E000000000000000000000007F8C0019FD0B9C
:1048F0001C7FFFFFFF00000000000000FD0B2600F2
:104900000000000000000000000000007F8C001983
:10491000FD0B307FFFFFFF00000000000000FD0BDB
:104920003A000000000000000000000000007F8C42
:104930000019FD0B447FFFFFFF0000000000000096
:10494000FD0B4E0000000000000000000000000011
:104950007F8C0019FD0B587FFFFFFF000000000057
:104960000000FD0B620000000000000000000000DD
:1049700000007F8C0019FD0B6C7FFFFFFF00000023
:1049800000000000FD0B76000000000000000000A9
:10499000000000007F8C001AFD0B087FFFFFFF0066
:1049A000000000000000FD0B1200000000000000ED
:1049B0000000000000007F8C001AFD0B1C7FFFFF31
:1049C000FF00000000000000FD0B260000000000BA
:1049D00000000000000000007F8C001AFD0B307FFB
:1049E000FFFFFF00000000000000FD0B3A00000088
:1049F000000000000000000000007F8C001AFD0B8A
:104A0000440800000000000000000000FD0B4E0004
:104A10000000000000000000000000007F8C001A71
:104A2000FD055800E2C46B0000007F8C001AFD0BEE
:104A30006C00221D9500443213000D00FD0B76A67C
:104A40008600000000000000000000007F8C001BBA
:104A5000FD0B08FF8147AEF9DABC21FD4200FD0BDA
:104A60001268A700000000000000000000007F8C1A
:104A7000001BFD0B1C0006D3720002BB06000300E6
:104A8000FD0B2669C5000000000000000000FD0BC2
:104A90003000000000F9DABC21FC5800FD0B3A8B15
:104AA0008900000000000000000000007F8C001B57
:104AB000FD0B440006D3720002BB06000300FD0B91
:104AC0004E69C5000000000000000000FD0B58000A
:104AD000000000F9DABC21FC5800FD0B628B890054
:104AE000000000000000000000007F8C001DFD059C
:104AF0001C0006D3720000007F8C001DFD05201CE9
:104B00001BF0410000007F8C001DFD0524040C37C4
:104B1000140000007F8C001DFD052C0080000000AB
:104B200000007F8C001DFD053440000000000000E7
:104B30007F8C001DFD0538400000000000007F8CC8
:104B4000001DFD0540008000000000007F8C001D5E
:104B5000FD0544000000000000007F8C001DFD05E5
:104B600048000000000000007F8C001DFD0558007B
:104B70000000010000007F8C001DFD055C00402648
:104B8000E70000007F8C001DFD0560004026E70067
:104B900000007F8C001DFD05640000000000000087
:104BA0007F8C001DFD0568000000000000007F8C68
:104BB000001DFD0574000000000000007F8C001D3A
:104BC000FD0578000000000000007F8C001DFD0541
:104BD0007C008000000000007F8C001EFD050800A6
:104BE0008000000000007F8C001EFD050C0000000E
:104BF000000000007F8C001EFD05140080000000F6
:104C000000007F8C001EFD05180000000000000061
:104C10007F8C001EFD051C000000000000007F8C42
:104C2000001EFD0520000000000000007F8C001E1B
:104C3000FD0524000000000000007F8C001EFD0523
:104C400028000000000000007F8C001EFD052C00E5
:104C50008000000000007F8C001EFD053000000079
:104C6000000000007F8C001EFD05340000000000E5
:104C700000007F8C001EFD053800000000000000D1
:104C80007F8C001EFD053C000000000000007F8CB2
:104C9000001EFD0540000000000000007F8C001E8B
:104CA000FD0544028185080000007F8C001EFD0583
:104CB00048028185080000007F8C001EFD055040E1
:104CC0000000000000007F8C001EFD055404000061
:104CD000000000007F8C001EFD055804000000004D
:104CE00000007F8C001FFD051400CEC08A0000006C
:104CF0007F8C001FFD05180A0AAED20000007F8CD1
:104D0000001FFD051C000369D00000007F8C001F00
:104D1000FD0520400000000000007F8C001FFD0505
:104D20002875F5512E0000007F8C001FFD052C001A
:104D30000057620000007F8C0023FD051400000076
:104D4000010000007F000000070008205507000058
:104D50007F0000003D303E3000007F000001020077
:104D600000007F0003002A1100007F0002110111E2
:104D7000000000000000000003112A0025180D109B
:104D8000020000007F00028000007F00220300007C
:104D90007F00020000007F8C001EFD051C0000004B
:104DA0000000FD05280000000000FD0534000000A3
:104DB0000000FD05400000000000001FFD0524006C
:104DC00020C49C00FD05307FFFFFFF0000007F8CAA
:104DD000001CFD156C7FFFFFFF00000000000000BD
:104DE0000000000000000000000000007F8C001D9B
:104DF000FD15087FFFFFFF0000000000000000001D
:104E0000000000000000000000007F8C001EFD0577
:104E100010000000000000007F8C0023FD0514003E
:104E20000000010000007F8C0011FD15587FFFFF7E
:104E3000FF00000000000000000000000000000073
:104E4000000000007F8C0012FD1544FF845916FFFE
:104E5000845916FF84591670462B3B9D850DE20040
:104E600000007F8C0013FD153001BB7CF401BB7C7E
:104E7000F401BB7CF46237C54FB4A28192000000FC
:104E80007F8C0013FD15584F9DF935B06206CB4F4E
:104E90009DF93549E69D16D55555560000007F8C85
:104EA0000014FD15087CB6A4BC83495B447CB6A401
:104EB000BC7CB12C1E8687C5490000007F8C001485
:104EC000FD151C05B75C1F05B75C1F05B75C1F49C6
:104ED000E69D16D55555560000007F8C0014FD1533
:104EE000587FFFFFFF0000000000000000000000EE
:104EF00000000000000000007F8C0014FD156C7F96
:104F0000FFFFFF00000000000000000000000000A4
:104F10000000000000007F8C0015FD15087FFFFFDA
:104F2000FF00000000000000000000000000000082
:104F3000000000007F8C0015FD151C7FFFFFFF00A7
:104F40000000000000000000000000000000000061
:104F500000007F8C0015FD15307FFFFFFF00000073
:104F60000000000000000000000000000000000041
:104F70007F8C0015FD15447FFFFFFF00000000003F
:104F800000000000000000000000000000007F8C16
:104F90000015FD15587FFFFFFF8075C3A57F16D54F
:104FA000D67FA2251080B9584D0000007F8C0015D7
:104FB000FD156C7F77CC69808833977F77CC697FCC
:104FC0007783F2810FD6400000007F8C0016FD151C
:104FD000087F77CC69808833977F77CC697F778328
:104FE000F2810FD6400000007F8C0016FD151C7F5B
:104FF00077CC69808833977F77CC697F7783F2811C
:105000000FD6400000007F8C0016FD15307F77CC56
:1050100069808833977F77CC697F7783F2810FD659
:10502000400000007F8C0016FD15440021875F00C2
:1050300021875F0021875F7A1481B28B50DF1E00C9
:1050400000007F8C0016FD15580021875F00218726
:105050005F0021875F7A1481B28B50DF1E00000051
:105060007F8C0016FD156C78572CEC8B3C83E57318
:1050700033A8B374C37C1B94752A5F0000007F8C37
:105080000017FD15087F327C9D8237EB837C73BF50
:10509000CB7DC8147D8459C3970000007F8C001716
:1050A000FD151C7FFFFFFF00000000000000000056
:1050B000000000000000000000007F8C0017FD15BC
:1050C000307FFFFFFF000000000000000000000034
:1050D00000000000000000007F8C0017FD15447FD9
:1050E000FFFFFF00000000000000000000000000C3
:1050F0000000000000007F8C0017FD15587FFFFFA7
:10510000FF000000000000000000000000000000A0
:10511000000000007F8C0017FD156C7FFFFFFF0073
:10512000000000000000000000000000000000007F
:1051300000007F8C0018FD150808017FEC000000BE
:10514000000000000000000000000000000000005F
:105150007F8C0018FD151C7FFFFFFF000000000082
:1051600000000000000000000000000000007F8C34
:105170000018FD15307FFFFFFF0000000000000059
:105180000000000000000000000000007F8C0018FC
:10519000FD15447FFFFFFF0000000000000000003D
:1051A000000000000000000000007F8C0018FD15CA
:1051B000587FFFFFFF00000000000000000000001B
:1051C00000000000000000007F8C0018FD156C7FBF
:1051D000FFFFFF00000000000000000000000000D2
:1051E0000000000000007F8C0019FD15087FFFFF04
:1051F000FF000000000000000000000000000000B0
:10520000000000007F8C0019FD151C7FFFFFFF00D0
:10521000000000000000000000000000000000008E
:1052200000007F8C0019FD15307FFFFFFF0000009C
:10523000000000000000000000000000000000006E
:105240007F8C0019FD15447FFFFFFF000000000068
:1052500000000000000000000000000000007F8C43
:105260000019FD15587FFFFFFF000000000000003F
:105270000000000000000000000000007F8C00190A
:10528000FD156C7FFFFFFF00000000000000000024
:10529000000000000000000000007F8C001AFD15D7
:1052A000087FFFFFFF00000000000000000000007A
:1052B00000000000000000007F8C001AFD151C7F1C
:1052C000FFFFFF00000000000000000000000000E1
:1052D0000000000000007F8C001AFD15307FFFFFEA
:1052E000FF000000000000000000000000000000BF
:1052F000000000007F8C001AFD154408000000002B
:10530000000000000000000000000000000000009D
:1053100000007F8C001AFD055800E2C46B000000FD
:105320007F8C001AFD156C00221D9500443213007D
:105330000DA68600000000000000000000007F8C29
:10534000001BFD1508FF8147AEF9DABC21FD2D26B3
:105350000100000000000000000000007F8C001B26
:10536000FD291C0006D3720002BB06000369C500BC
:105370000000000000000000000000F9DABC21FC81
:10538000588B8900000000000000000000007F8CA6
:10539000001BFD29440006D3720002BB060003690E
:1053A000C5000000000000000000000000F9DABCA9
:1053B00021FC588B89000000000000000000000064
:1053C0007F8C001DFD051C0006D3720000007F8C41
:1053D000001DFD05201C1BF0410000007F8C001DFE
:1053E000FD0524040C37140000007F8C001DFD0512
:1053F0002C008000000000007F8C001DFD05344063
:105400000000000000007F8C001DFD0538400000FA
:10541000000000007F8C001DFD05400080000000A2
:1054200000007F8C001DFD0544000000000000000E
:105430007F8C001DFD0548000000000000007F8CEF
:10544000001DFD0558000000010000007F8C001DBC
:10545000FD055C004026E70000007F8C001DFD0577
:1054600060004026E70000007F8C001DFD05640001
:105470000000000000007F8C001DFD05680000009A
:10548000000000007F8C001DFD057400000000007E
:1054900000007F8C001DFD0578000000000000006A
:1054A0007F8C001DFD057C008000000000007F8CCB
:1054B000001EFD0508008000000000007F8C001E1B
:1054C000FD050C000000000000007F8C001EFD05A3
:1054D00014008000000000007F8C001EFD051800F5
:1054E0000000000000007F8C001EFD051C00000075
:1054F000000000007F8C001EFD0520000000000061
:1055000000007F8C001EFD0524000000000000004C
:105510007F8C001EFD0528000000000000007F8C2D
:10552000001EFD052C008000000000007F8C001E86
:10553000FD0530000000000000007F8C001EFD050E
:1055400034000000000000007F8C001EFD053800C4
:105550000000000000007F8C001EFD053C000000E4
:10556000000000007F8C001EFD05400000000000D0
:1055700000007F8C001EFD0544038A2BAD00000057
:105580007F8C001EFD0548038A2BAD0000007F8C38
:10559000001EFD0550400000000000007F8C001E32
:1055A000FD0554040000000000007F8C001EFD0576
:1055B00058040000000000007F8C001FFD0514004F
:1055C000CEC08A0000007F8C001FFD05180A0AAEBD
:1055D000D20000007F8C001FFD051C000369D00075
:1055E00000007F8C001FFD0520400000000000002F
:1055F0007F8C001FFD052875F5512E0000007F8C63
:10560000001FFD052C000057620000007F8C002366
:10561000FD0514000000010000007F0000000700ED
:105620000820550700007F0000003D303E3000009C
:105630007F000001020000007F0003002A1100002B
:105640007F8C002314001500160017016005610B04
:105650006308640200007F0000007F8C000B60057F
:10566000610B6308640200007F0003020111000067
:1056700000000000000000007F000302FE050000A3
:1056800000000000000000007F0003120000000086
:105690000000000000007F00480C00007F64000153
:1056A000FD790800FE004000FC000000FC00000046
:1056B000FC000000FC000000FC000000FC000000FA
:1056C000FC000000FC500000FC000000FC0000009A
:1056D000FC000000FC000000FC000000FC000000DA
:1056E000FC000000FC000000FC000000FC000000CA
:1056F000FC000000FC000000FC000000FC000000BA
:10570000FC00000082009300FC000084C902BC84FD
:10571000C102BD8F00FFEE08FC3810000002FD79C9
:10572000088402040684C303DB024002C302480368
:10573000DD00FF109A00FC0000E41012CD024002D0
:10574000BD886013DC025802BC02D3001084C90279
:10575000BC10001A030270000484C902BD0C20189A
:10576000490260000184C102BC845103DE08FC0CC4
:10577000980278000384C240E00268000284590362
:10578000ED08FC2C99022800030211FFFC024802DC
:10579000BCE01012CEF01C52CF000003FD7908F0DF
:1057A0001C52D0F01C52D1F01F52D286A102D380DD
:1057B0002780EA84830445E0000000848260E0845E
:1057C0005303DE845103F5F01C72D4F01C72D584AF
:1057D000CA40E0F01C72D6F01F72D786A102CE80BC
:1057E0002780EB84830445E0102000845B03ED8474
:1057F0005903FDF01C52CFF01C52D0F01C52D1F0D6
:105800001F52D286A102D3802780EA84830446E017
:10581000000000848260E0000004FD7908845303E6
:10582000F5845103EEF01C72D4F01C72D5F01C729A
:10583000D6F01F72D786A102D8802780EB845B0345
:10584000FD845903DF84830446E257800084C90243
:10585000BD848260E0F01C72D9F01C72DAF01C7218
:10586000DBF01F72DC86A102DD802780EB848304DD
:1058700047E0000000848240E0845B03DF8459033A
:10588000F6F01C52DEF01C52DF84CA60E0F01C52BD
:10589000E0F01F52E1000005FD790886A102D880E2
:1058A0002780EA84830447E0102000845303EE84B9
:1058B0005103FEF01C72D9F01C72DAF01C72DBF09E
:1058C0001F72DC86A102DD802780EB84830448E020
:1058D000000000848240E0845B03F6845903EFF00B
:1058E0001C52DEF01C52DFF01C52E0F01F52E18629
:1058F000A102E2802780EA845303FE845103E784F7
:10590000830448E257800084C902BD848240E0F0ED
:105910001C52E3000006FD7908F01C52E4F01C5212
:10592000E5F01F52E686A102E7802780EA8483041F
:1059300049E0000000848260E0845303E78451035F
:10594000F7F01C72E8F01C72E984CA40E0F01C72A7
:10595000EAF01F72EB86A102E2802780EB848304C9
:1059600049E0102000845B03EFF01C52E3F01C526E
:10597000E4F01C52E5F01F52E686A102E780278082
:10598000EA845303F7845103FF8483044AE0000050
:1059900000000007FD7908848240E0F01C52E8F026
:1059A0001C52E9F01C52EAF01F52EB86A102EC8077
:1059B0002780EA8483044A845303FF6688C000EE8C
:1059C00080C00002CB00106288A000EA80A0000224
:1059D000D30010884700800907082108FC08530DF0
:1059E00000103884CB04060860085184800200E46B
:1059F00000008186C902EE884720800D00100884CF
:105A000082040700FC0000004220D784DB0405006C
:105A10000008FD790808FC183186A102EDE4102089
:105A20000000FE20D8886C00000280000084A104E1
:105A300049E400000084A1044A84C90447E000004E
:105A400000EC0000818847008284A1044810001AFD
:105A500001E800000002D30014880700810C200830
:105A60004802700006844903478459034FE2579166
:105A7000B402780005848220E010001A0302280096
:105A800002025002BCF01C31B5F01C31B600000916
:105A9000FD7908F01C31B7F01F31B8E40011BB806C
:105AA0002780E1F40011B9F41D31BAF41C31BCF4C3
:105AB0001F31BD86A101B4806780E902CB0010844C
:105AC000830377E010000008000A21844B0347F0AD
:105AD0001C71B5F01C71B6F01C71B7F01F71B8E401
