:020000040000FA
:10000000E80F0020D1010000D90100007D010000AF
:1000100000000000000000000000000000000000E0
:10002000000000000000000000000000DD010000F2
:100030000000000000000000DF010000E1010000FE
:10004000E3010000E3010000E3010000E301000020
:10005000E3010000E9120000E3010000E3010000F9
:10006000E3010000952D0000E3010000E301000022
:100070000D2F00003D2F0000E3010000E301000010
:10008000E3010000E301000051180000CD19000059
:10009000E3010000E30100008D310000E3010000F6
:1000A000E3010000E3010000E3010000E3010000C0
:1000B000E301000029080000E3010000C122000064
:1000C00000F002F800F04BF80CA030C808382418F3
:1000D0002D18A246671EAB4654465D46AC4201D180
:1000E00000F03DF87E460F3E0FCCB6460126334267
:1000F00000D0FB1AA246AB463343184730D7000066
:1001000050D70000103A02D378C878C1FAD8520705
:1001100001D330C830C101D504680C6070470000BD
:100120000023002400250026103A01D378C1FBD813
:10013000520700D330C100D50B60704710B5642959
:1001400002D100F06DF810BD782902D100F09EF8C0
:1001500010BD002010BD1FB51FBD10B510BD00F0B3
:10016000A5FA1146FFF7F7FF04F01CF800F0BDFAFE
:1001700003B4FFF7F2FF03BC00F0C4FA0420714699
:10018000084202D0EFF3098001E0EFF308807146E6
:10019000004A10471118000070B505460C46164677
:1001A00002E00FCC0FC5103E102EFAD2082E02D35B
:1001B00003CC03C5083E042E07D301CC01C5361F6E
:1001C00003E021782970641C6D1C761EF9D270BD85
:1001D0000748804707480047FEE7FEE7FEE7FEE7DF
:1001E000FEE7FEE704480549034A054B7047000057
:1001F000012C0000C1000000E80B0020E80F0020E7
:10020000E80B00200FB4054910B503AA029800F0CE
:100210000DFA10BC08BC04B018470000A80200206A
:10022000F7B5002575291068009914A611D0C046AD
:10023000C046002802DA404211A608E00099096889
:100240008A0701D50FA602E0490704D50EA60125AD
:1002500001E0C046C046009F0024243704E000F0BF
:10026000F9F930313955641C0028F8D12B46324653
:100270002146009800F082F9FEBD00000000000059
:100280002D0000002B0000002000000070B5044687
:100290000D4621461068C046C0462188090502D592
:1002A0000F4A7A4402E00E4A7A440E322346002175
:1002B000243305E006070009360F965D5E54491C9D
:1002C0000028F7D120780023000705D5702D03D032
:1002D000002901D002231132204600F04FF970BDF1
:1002E0004AD50000F3B50446002081B020622046C4
:1002F000E168884700287DD0252802D06268A1687F
:1003000083E0454F00257F442046E1688847202848
:10031000064608DB312E06D2B819203800780028AE
:1003200001D00543F0E7A80701D50420854300204C
:10033000E0610746A0612A2E0AD0304603F011F989
:10034000002827D0B8000019303E0090866119E0DF
:100350000298BA00121902C8916102902046E16821
:100360008847012F064617D1E06900281FDA2020B0
:1003700085431CE000980A21806948430099801950
:10038000303888612046E1688847064603F0E9F87E
:100390000028EFD1012F0AD02E2E08D12046E16887
:1003A00088470646202005437F1C022FC3DBA06937
:1003B000002803DA4042A06101200543E80701D08C
:1003C00010208543002E24D030464138192803D808
:1003D0000120C00205432036204625603146029A9E
:1003E0001546FFF7ABFE00280CD0012807D0ED1D05
:1003F000E80800E00DE0C0000830029077E72D1D0E
:10040000029574E762683046A1689047206A401CF4
:100410006CE7206AFEBD00000ED500000022030933
:100420008B422CD3030A8B4211D300239C464EE00F
:1004300003460B433CD4002243088B4231D30309CB
:100440008B421CD3030A8B4201D394463FE0C3097D
:100450008B4201D3CB01C01A524183098B4201D395
:100460008B01C01A524143098B4201D34B01C01A80
:10047000524103098B4201D30B01C01A5241C308F8
:100480008B4201D3CB00C01A524183088B4201D367
:100490008B00C01A524143088B4201D34B00C01A53
:1004A0005241411A00D201465241104670475DE068
:1004B000CA0F00D04942031000D3404253400022EB
:1004C0009C4603098B422DD3030A8B4212D3FC2294
:1004D000890112BA030A8B420CD3890192118B4213
:1004E00008D3890192118B4204D389013AD0921129
:1004F00000E08909C3098B4201D3CB01C01A5241E4
:1005000083098B4201D38B01C01A524143098B42AC
:1005100001D34B01C01A524103098B4201D30B0195
:10052000C01A5241C3088B4201D3CB00C01A5241BA
:1005300083088B4201D38B00C01A5241D9D24308A1
:100540008B4201D34B00C01A5241411A00D20146DE
:10055000634652415B10104601D34042002B00D548
:100560004942704763465B1000D3404201B500200A
:10057000C046C04602BD704770477047FFB504468D
:100580000D4681B0243000902168880604D51022E1
:10059000E0699143216000E00120A84201DD471B92
:1005A00000E000270498A1697A191018081AA061C0
:1005B0002078C00602D42046C046C046002608E087
:1005C00003986268A168805D9047206A401C761C91
:1005D000206204988642F3DB2078C0060AD52046C4
:1005E000C046C04606E06268A16830209047206A95
:1005F000401C206238467F1E0028F4DC07E000988B
:100600006268A168405D9047206A401C20622846CD
:100610006D1E0028F3DC2046C046C0462078000648
:1006200002D5022005B0F0BD0120FBE7084B70B5F4
:100630000D467B4400F027F80446284603F0E6FB0D
:10064000002802D00020C04370BD204670BD0000CD
:10065000B738000001468008081A02091018020A7B
:100660001018020C1018C008820012185200891AC3
:1006700001E0401C0A390A29FBD2704701694A1C73
:1006800002610878704700B58FB002910021059192
:100690000549019379440391114604906846FFF798
:1006A00021FE0FB000BD0000E5FFFFFF754600F022
:1006B00025F8AE46050069465346C008C000854689
:1006C00018B020B5FFF78EFD60BC00274908B6467C
:1006D0000026C0C5C0C5C0C5C0C5C0C5C0C5C0C551
:1006E000C0C5403D49008D46704710B50446C04620
:1006F000C0462046FFF73CFD10BD00000048704793
:10070000840B002001491820ABBEFEE72600020042
:1007100070470000CB0709480222002B02D0036873
:10072000934303608B0702D5836893438360490733
:1007300002D5C1689143C1607047000080000E403F
:10074000CB0709480222002B02D003681343036041
:100750008B0702D5836813438360490702D5C168BC
:100760001143C1607047000080000E40F8B52B4C6B
:1007700000262078401CC0B22070022800D12670CC
:10078000274D28680127384328602178002922D086
:1007900023480022FB031146803800F04FF82F61F8
:1007A0001F4801218038FFF7CBFF1E48A9050160D3
:1007B000A6602868891408432860A0680028FCD037
:1007C000174C0121803C2046FFF7A4FFE06B80B26C
:1007D00002F0CEFEF8BD1248012300229B03114611
:1007E000803800F02BF82F610D4801218038FFF789
:1007F000A7FF01200B4940070860A6602968801404
:1008000001432960A0680028FCD0054C0121803CF0
:100810002046FFF77FFFA06BF8BD000070020020AC
:1008200080000E4000E100E002490120886002499A
:10083000086170477002002080000E4030B5054806
:100840000468054D2C400C43144304604168436028
:1008500030BD000080000E40F3FBFFFF10B500220A
:100860000421024800F093FD10BD000040410050FB
:1008700010B501221102024800F089FD10BD0000F0
:100880008040005010B51248836A01210022114CAB
:10089000C06A002B06D0002801D0032000E002200F
:1008A000607404E0002801D0617400E062740848BC
:1008B000C0308068002801D0617500E06275617CFD
:1008C00005A0FFF79FFC617D08A0FFF79BFC10BD12
:1008D000404200506C0B00206368617267652073B2
:1008E00074617465203D202564200A00706F77656F
:1008F0007220676F6F642020203D202564200A004D
:1009000010B50A4C012100228902204600F03FFD6B
:1009100001210022C902204600F039FD03480022CF
:100920000421C03000F033FD10BD000040400050F5
:100930000248016AC201114301627047000200507F
:100940000EB509490EC900910192810F8A000293E8
:1009500069468A58054951184A68C306DB0E0120CA
:10096000984002434A600EBDB8D700000002005014
:10097000F0B585B00C460746FFF7DAFF5548544EF0
:100980000168002F13D0042211430160102000F0F1
:100990008DF90120C00402904F48042503904F4870
:1009A0004F49201888420DD8002004901CE00122F5
:1009B00011430160104600F079F9002002250396EA
:1009C0000290ECE7474848492018884203D80120A4
:1009D0006400049008E04548444920184942884290
:1009E00049D80320A40004900026F643002000907C
:1009F000019021E029460398FFF710FD3C493D4A4C
:100A00004118914217D20222344B014651435B1CDC
:100A1000CF185B429F420AD8A14201D90B1B00E0CC
:100A2000631AB34203D21E000095019203D03249EB
:100A3000521C8A42E8D96D1C212DDBD904980299F9
:100A4000800308430099012249029202891A08434F
:100A50000199891E08431F490862042000F026F905
:100A600004990098491C41430398FFF7D7FC01996A
:100A7000484305B0F0BD002F0FD020491548016252
:100A8000042000F013F91EA0006800901148016ACC
:100A90000013014203D00020EBE71A49EEE70803F8
:100AA00000D50D4E880301D53046E2E70804800FDB
:100AB0006A46105CCA058904C90E891CD20D4143DF
:100AC000B008921C5043FFF7A9FC8000D1E700005A
:100AD000001BB7000002005000805101FF1E0AFAFF
:100AE000FFE0F5057F0F05FD7FF0FA02C08782FE6B
:100AF000FF95E7FFFFB9DB0001020000324C080060
:100B0000010202042E44000002490A6802430A60FE
:100B1000704700000002005010B502F029F80448A8
:100B2000006941060348006800D5400810BD000078
:100B3000000200500000002010B502F019F804482F
:100B4000006901060348006800D5400810BD000098
:100B50000002005000000020F8B51C4D0446EE686D
:100B6000102006401A48844202D81A48844200D213
:100B700004462868042738432860102000F096F8BF
:100B80002869072108432861A86900090001A861B4
:100B9000E868C00705D061000020FFF7E9FE0446C1
:100BA00008E001206100C004FFF7E2FEEE680446A1
:100BB000102006400121022000F00EF8002E02D184
:100BC0002868B84328606008F8BD000000020050A3
:100BD00000A24A0440787D01F3B5114C81B0E5686C
:100BE0000F46102005402068042630432060102066
:100BF00000F05CF82069072108432061A069000922
:100C000000013843A06120698843019908432061AD
:100C100001F0AEFF002D02D12068B0432060FEBD80
:100C200000020050F0B51A4B86B01C460834F0CCD8
:100C3000009401ACE0C418CB05940493840A230605
:100C40001B0E0ED003039B0F9B0004ADEB58114D00
:100C50005B19E5B28405E40EA5401C68AC4314435F
:100C60001C60420E520710D08200920F92006B4619
:100C70009A58084B083BD21803015B0FC001C00E05
:100C80008340106898430843106006B0F0BD000030
:100C9000A0D7000018020050034A11693823994375
:100CA00001431161704700000002005010B5044676
:100CB0000749084B05E00A46491E002A01DC0020CE
:100CC00010BDDA6820469043F5D1012010BD000028
:100CD00080F5200000020050F8B507461B4CFF20AD
:100CE00015460E4620607D21C900194801F08AFF93
:100CF000552020607D21C900154801F083FF0320A5
:100D000020607D21C900124801F07CFF8020206016
:100D10007D21C9000E4801F075FF27607D21C900C3
:100D20000B4801F06FFF26607D21C900084801F0E3
:100D300069FF25607D21C900054801F063FFB819EE
:100D4000401983304042C0B22060F8BD0000154019
:100D50000000014002480068024908607047000036
:100D600000E100E00C000020034800682021084357
:100D700002490860704700000C00002000E100E01C
:100D800000B5FFF7E7FF0249FF20086000BD000043
:100D900080E100E0F8B5044600200090FFF7F0FF86
:100DA00013480178134F00220B01F858DB195E68D5
:100DB0009D68DB6800280CD0A560E36041C4012079
:100DC0000022009008013A50C01942608260C2605F
:100DD00008E0491C521CC9B2D2B2202900D300211C
:100DE000202AE1D302480170FFF7BEFF0098F8BD4A
:100DF00010000020B002002010B5FFF7C1FF002056
:100E0000084B024601015A50C9184A608A60CA60FC
:100E1000401CC0B22028F5D303480270FFF7A4FF9E
:100E200010BD0000B002002010000020F8B51C46E4
:100E300015460E460746FFF7A3FF0F4800780F4AF6
:100E400000210301D358002B0AD0401C491CC0B21A
:100E5000C9B2202800D300202029F2D3002406E0C4
:100E600000011750801846608560C4600124FFF7B8
:100E70007BFF2046F8BD000010000020B0020020DB
:100E8000F8B501F0C9FA7F20C00200F09FF9224CAA
:100E90002071224800F09AF9A0712048001D00F04E
:100EA00095F9274680B2803F1C4E386420791C3665
:100EB0000F280CD2002507E0304600F087F9A90082
:100EC000C9196D1C361D88642079A842F4D800F039
:100ED00041FF0025002807D000F04EFF002803D076
:100EE00000F022FF002813D10DA0FFF78BF9104965
:100EF00039640A482571A571001D00F095F97F201D
:100F00002179C00200F090F9A179044800F08CF931
:100F100008480560F8BD00006C0B002004F80300D1
:100F2000496E697420464D20706172616D210A001E
:100F30002E22000000010050F8B501F06DFA7F216B
:100F4000C9022448224E2222C2604160012101616F
:100F500001690029FCD10168490603D501684022D6
:100F6000114301601C4F00253C46803407E0A80077
:100F7000C019816C304600F057F96D1C361D207980
:100F8000A842F4D800F0E6FE114E0025183E0028D5
:100F900009D000F0F1FE002805D000F0C5FE0028C1
:100FA00001D0396C03E00D4939642571A5713046D3
:100FB00000F03AF97F202179C00200F035F90448A9
:100FC000A1791C3800F030F905480560F8BD000033
:100FD00020F8030000C00050EC0A00202E22000080
:100FE00000010050044801690448002901D0002193
:100FF00000E00121C1747047804200506C0B00205A
:1010000010B500221021034800F0C1F9FFF7EAFFF4
:1010100010BD00008040005010B505A0FFF7F2F8A9
:1010200001F078FF0121074802F028F8002010BDE8
:101030006465627567207561727420696E697421D8
:101040000A000000000005400249002800D00120ED
:10105000486270470042005010B500F0E9FD02F010
:1010600001FC02F02DFD084C0649204601F0CAFDA6
:1010700002F04EFB012002F001FC0449204601F081
:10108000C1FD10BD881300000000014050C30000E6
:1010900010B5044602F014FC204602F0AFFD10BD6E
:1010A00010B5104C01222021204600F070F90122D9
:1010B0001021204600F06BF9012220210A4800F09F
:1010C00066F901225102204600F061F9064800212C
:1010D000C030016141610549012048610020FFF7EE
:1010E000B3FF10BD0040005040410050404300504D
:1010F00010B5094C00220121204600F048F90122D8
:101100000021204600F036F9012204492020086021
:1011100061691143616110BDC040005000E100E011
:1011200070B502F09FFC0D4C0D4D2146284601F094
:1011300069FDFFF791FF2146284601F063FD09484C
:10114000407E072804D0082805D000F055FD70BD6A
:1011500002F07EFC70BD02F071FC70BD30750000C5
:10116000000001400C0B002010B502F08FFB02F0D4
:10117000DDFB02F077FC0521094801F043FDFFF794
:101180006BFF0848407E072804D0082805D000F0EF
:1011900033FD10BD02F05CFC10BD02F04FFC10BD31
:1011A000000001400C0B002010B5002002F074FB81
:1011B00002F0BCFB02F0F6FC10BD00000248016822
:1011C000012211430160704700C000500549002210
:1011D000CA6048608A600120086108690028FCD163
:1011E0008868704700C0005005490022CA60486006
:1011F0008A600120086108690028FCD1886870476E
:1012000000C00050F8B50E460746002407E0032052
:10121000A50000052818FFF7E7FF7851641CB442C9
:10122000F5D30020F8BD0000054A2123D3605060AB
:1012300091600120106110690028FCD17047000006
:1012400000C00050F3B581B0074600240E4D16E0F3
:10125000A600032000053018B9592122EA60686011
:10126000A9600121296129690029FCD1FFF7BCFF90
:10127000B959884202D00020C043FEBD641C0298C8
:101280008442E5D30020FEBD00C0005010B5064CDE
:101290000122D102204600F07AF8012103228902BE
:1012A000204600F074F810BD0040005010B5012237
:1012B000D1020A4800F06BF8094A0123D3620949B8
:1012C000002000BF401C8842FBDB0020D06200BF32
:1012D000401C8842FBDBD36210BD0000004100507F
:1012E00000430050400D030030B51F48016AC90794
:1012F0000ED0012202621D4900208B681C46793CF9
:10130000182C06D20A70886048710861C87008718C
:1013100030BD1C46183C602C15D2886013480B79F0
:101320000469601C282B08D01D2B06D008610A28F0
:10133000EED3C007ECD0CA7030BD0F2CFCD20861D0
:101340000F28F8D030BD0C78002C0AD0084D4C790D
:101350002B55641CE3B24B71202B02D348718A7069
:101360000870886030BD0000C0400050E0010020DF
:101370003A0A002010B58369140E8C402343836120
:10138000C3691202120A8A401343C36110BDF0B54B
:10139000002301273C469C400C4208D005685C00B5
:1013A0000326A640B5431646A640354305605B1CA0
:1013B000102BEFD3F0BD000070B51E4D0024A878AF
:1013C000002812D01CA0FEF71DFF00F04DFC0021EC
:1013D000A9701E49497E012901D0022901D11D2889
:1013E00001D1042900D1002070BDE9780029FAD08C
:1013F00017A0FEF707FFE878401EE8702879242838
:1014000013D006DC1D280AD020280CD022280FD1AA
:1014100007E026280BD028280AD1292408E01E241A
:1014200006E0232404E0212402E0252400E0272410
:10143000204670BDE001002069725F646174615FE5
:1014400072785F6F6B203D20310A00000C0B00208A
:101450006C6F6E6770726573733A25640A000000E2
:10146000F8B50024404800F091FC002836D00A214D
:101470003D4801F001FD3D48C168002903D0806965
:10148000002802D002E0012400E00224364E0027AA
:101490000C3E7078002807D001280FD0344D022868
:1014A0001DD0042824D139E0002C17D02E483470E8
:1014B0001421083801F0E0FC012070703078A0425F
:1014C00016D12948083800F061FC002806D02648CB
:1014D0002849083801F0D0FC02207070F8BD30783F
:1014E000A04207D041004118234808180078E87549
:1014F0007770F8BD1C48083800F048FC0028F8D088
:1015000019481C49083801F0B7FC04207070307885
:101510004100411818480818407808E03078A04287
:1015200009D0410041181448777008188078E87590
:1015300001202874F8BD0C48083800F027FC00286A
:10154000F8D009480B49083801F096FC0420707067
:10155000042C01D0052CEDD130784100411806480B
:1015600008184078E875F8BD480200208042005015
:101570000C0B0020DC05000092D7000038B5094DA7
:10158000284600F0E1FA284600F0E3FA002401239F
:101590001A4621462846009400F016FB02480482B1
:1015A000047538BD00000240B004002038B5094D74
:1015B000284600F0C9FA284600F0CBFA002401239F
:1015C0001A4621462846009400F0FEFA024804829A
:1015D000047538BD00001240B0040020FFB51C4C5B
:1015E00081B016460746207D0028FCD1194D2846BB
:1015F00000F0C9FA002809D117480178490705D435
:10160000017804221143017005B0F0BDA77402985F
:1016100020600498606026810A9860810026A68177
:10162000E6810820E074268201202075284600F01B
:101630008BFA0123002219462846009600F0C4FACE
:10164000284600F08BFA207D0028FCD1DCE7000062
:10165000B0040020000012406800002070B5194856
:10166000FFF76EF9184800F0BBFE184C0121204628
:1016700000F079FA1649204600F088FA0120154C4E
:10168000800420600221122000F0EEFD0D48401C75
:10169000FFF756F90C48401C00F0A2FE0E4D012148
:1016A000284600F060FA0D49284600F06FFA012044
:1016B000C00420600221132000F0D6FDFFF7E6FDF4
:1016C00070BD000008000040080000040000024057
:1016D000400D030000E100E000001240A086010080
:1016E000FFB51C4C81B016460746207D0028FCD172
:1016F000194D284600F047FA002809D1174801780B
:10170000890705D4017802221143017005B0F0BDAC
:10171000A774029820600498606026810A9860810E
:101720000026A681E6810820E0742682012020752B
:10173000284600F009FA012300221946284600969F
:1017400000F042FA284600F009FA207D0028FCD17A
:10175000DCE70000B0040020000002406800002028
:1017600010B5264C2046FFF7EBF8072100220902AE
:101770002046FFF757FA234C0121214AC90620468B
:1017800001F0D6FA206861050843206008151E495B
:1017900008600121092000F045FD2068A1050843EB
:1017A00020606421194801F067FB18486421083063
:1017B00001F062FB15486421183001F05DFB13480D
:1017C0006421203001F058FB10486421403001F0C2
:1017D00053FB0E486421283001F04EFB0B48642176
:1017E000303001F049FB09486421383001F044FBF6
:1017F00006486421103001F03FFB10BD0300C05EBD
:10180000102700000001014000E100E01800002066
:10181000044603A0FEF7F6FC204603F0B3F8FEE70B
:10182000496E2048617264204661756C742048617D
:101830006E646C65720A000010B50449002048709F
:1018400002480A210C3001F017FB10BD3C020020B9
:10185000F8B5584EF068012700905749B804086061
:101860007069C043C00726D0544CE17C0098814287
:1018700010D0208A401C2082208A5149884209D9F0
:1018800050480178890703D401780222114301707E
:10189000FFF774FE00984107490F33D1C010502163
:1018A0000025030001F050FE0C0B144A190B2F0BFE
:1018B0002E560B60822E304600F046F976E0414805
:1018C0000178890772D4027802210A4302706DE020
:1018D0001820E0742582A17C38E010213A4801F0FC
:1018E00091F92089002861D02820E07425822068A1
:1018F0000178304600F066F9A781009552E0304645
:1019000000F062F9F8BDA089218981420BD9282114
:10191000E17425822168095C304600F053F9A18901
:10192000491CA181E9E7608900283FD01020E074BC
:1019300025820123002219460095E0E760890028EE
:1019400034D04020E0742582A17C3943304600F039
:1019500039F9D2E76089002828D0E17425826089AE
:101960000128CAD000971DE02046E4894268009211
:101970004389A3421AD94289121B022A00D1582155
:10198000C174002105460182304600F0F9F8009943
:101990000855E889401CE8816889001B0228E1D1CC
:1019A00000200090012300221146A8E7FFF7E6FD82
:1019B000F8BD00000000024080E200E0B00400201A
:1019C000881300006800002000000140F8B5594D60
:1019D000E868012600905849F00408606869C0432F
:1019E000C00726D0554CE17C0098554F81420FD05E
:1019F000208A401C2082208A5249884208D938789F
:101A0000400703D43878042108433870FFF7CEFD2F
:101A100000984107490F31D1C2102821002013003E
:101A200001F092FD0C0B13491C0B2D0B2C570B6571
:101A3000842C284600F088F878E03878400775D480
:101A4000387804210843387070E01821E1740646A4
:101A50002082A17C284600F0B5F81FE02289002AE8
:101A600064D0E1740746208220680178284600F09F
:101A7000A9F8A6812BE0284600F0A6F8F8BDA289B7
:101A8000238993420CD9E174064620822068815C48
:101A9000284600F097F8A189491CA181009622E010
:101AA0006189002942D01021E174208201230022A3
:101AB00019460090DFE76189002937D04021E174A1
:101AC00007462082A17C2846314300F07BF800972E
:101AD00009E06189002929D05021E17420826189BF
:101AE0000129DBD10090012300221146C3E7E789D9
:101AF000616800916189B94218D96189C91B0229BD
:101B000012D05021E17400202082284600F038F8DD
:101B100001460098C155E089401CE0816089C01BE6
:101B20000228BBD10020DDE75821EBE7FFF73EFD9F
:101B3000F8BD00000000124080E200E0B004002088
:101B400068000020881300004169012211434161AF
:101B500070470168802291430160704701688022CC
:101B600011430160704702220029416901D01143ED
:101B700000E0914341614169042211434161704792
:101B80008068C0B27047C0687047000070B50C4DE7
:101B9000044628680A2289005043FEF73FFC0A21C8
:101BA000401DFEF73BFC401E20612168402211438E
:101BB00021608100091D2868FEF730FC70BD00001F
:101BC000000000208160704730B50024039D00298B
:101BD00000D02024002A01D010210C43002B01D07A
:101BE00008210C43002D01D004210C4301683C2244
:101BF00091432143016030BD10B5012251020348D9
:101C0000FFF7C5FB02490020486210BD404000506C
:101C10004042005010B5012251020348FFF7B7FBC4
:101C200002490120486210BD40400050404200502F
:101C300010B5012251020348FFF7A9FB0249012018
:101C4000486210BD404000504042005010B5012293
:101C500011020348FFF79BFB02490120086210BDF7
:101C6000C0400050C0420050F8B50020284D294F18
:101C70000246034680260121AC5C0F2C00D930437C
:101C8000082900D24008521C491CC9B2D2B2082906
:101C9000F2D9F8545B1C0020DBB2042BEBD31D4CB3
:101CA00001200C3C60703878122802D00C2812D029
:101CB0002BE07878342828D11648BA7800210830EB
:101CC0004B00CB181B185B78934211D0491CC9B24A
:101CD0000B29F5D319E07878F32816D10D48BA7896
:101CE00000212C304B00CB181B185B78934208D195
:101CF0004A008A18855C08A0FEF784FA25712846F8
:101D0000F8BD491CC9B20B29ECD30020F8BD000076
:101D10003A0A0020EC01002069725F6B65795F6E02
:101D2000756D3A25640A0000054988790F2804D8A2
:101D30000979884201D801207047002070470000CF
:101D40006C0B002002488069C000C00F7047000083
:101D50000000054005480649006C401805498842C6
:101D600001D801207047002070470000EC0A0020D5
:101D7000D2DDFFFF02080000034800790F2801D8D8
:101D800001207047002070476C0B00200449006858
:101D9000C96A814201D301207047002070470000CA
:101DA000EC0A0020F0B585B06846FEF7F3FF002886
:101DB00024D00098012507260B27B94C012805D00F
:101DC00002281BD1019801287ED097E0B5A0029A85
:101DD0000199FEF717FA0198082811D009280DD0AB
:101DE000072812D0042809D00D2826D006282AD08A
:101DF000202803D101220021FEF76EFF05B0F0BDBF
:101E000002980028FAD12F20CAE0B4A00299FEF768
:101E1000F9F902980026002806D0C0B2E074FFF756
:101E200037F96675012005E03046E674FFF730F9B2
:101E30006575002001F022FDE0E71A20E075ADA0F5
:101E4000FEF7E0F9DAE70298062804D10621E171ED
:101E5000AFA0FEF7D7F90298072804D13146E67102
:101E6000ABA0FEF7CFF90298022804D10221E1715C
:101E7000A7A0FEF7C7F90298042804D10146E5712E
:101E8000A3A0FEF7BFF90298052805D10320E07151
:101E90009FA00299FEF7B6F90298112805D10520F6
:101EA000E0719BA00299FEF7ADF90298122805D1C6
:101EB0000420E07196A00299FEF7A4F902980B287D
:101EC00006D13946E77100E010E091A0FEF79AF9DB
:101ED0000298092803D0082801D016288ED10C209A
:101EE000E0718BA00299FEF78DF987E70298002830
:101EF00084D12279E178012001F03CFD019803288A
:101F00009AD10298032807D10C20E07586A0FEF72D
:101F100079F9019803288FD10298022806D1E77534
:101F200083A0FEF76FF90198032885D10298152840
:101F300007D181A0FEF766F90920E0750198032812
:101F4000D3D10298162807D180A0FEF75BF90A20AA
:101F5000E07501980328C8D10298172807D17EA000
:101F6000FEF750F90820E07501980328BDD10298CA
:101F7000182806D17CA0FEF745F9E67501980328DC
:101F8000B3D1029831280AD032280BD056280BD072
:101F90000D280BD00E280BD0C1280BD012E0172033
:101FA000E0752BE71620FBE71020F9E71120F7E793
:101FB0001220F5E76FA0FEF725F90D20E0750198D6
:101FC000032892D10298C22807D16CA0FEF71AF913
:101FD0000E20E0750198032887D10298C82807D100
:101FE00069A0FEF70FF91320E07501980328D8D1F6
:101FF0000298C92807D166A0FEF704F91420E075FD
:1020000001980328CDD10298CB2807D163A0FEF711
:10201000F9F81520E07501980328C2D102986228CA
:1020200004D0632809D064280ED018E00022622171
:102030000320FEF751FE5DA00CE000226321032087
:10204000FEF74AFE5DA005E0002264210320FEF7B2
:1020500043FE5FA0FEF7D6F801980328A1D10298AD
:10206000CA289ED1E07E002814D100F0F3F95EA0CA
:10207000FEF7C8F803980009207703980007000FBF
:102080006077E5765CA00399FEF7BCF8617F5FA0FE
:10209000FEF7B8F87D214901614800F0EDFEADE69C
:1020A0000C0B00204D53475F34475F5359535F5328
:1020B000544154455F494E443A6D73672E706172C6
:1020C000616D30203D2025782C206D73672E706166
:1020D00072616D31203D202578200A00307830373C
:1020E0002C206D73672E706172616D31203D20254B
:1020F00078200A00494E5F4B45595F5455524E4F68
:1021000046465F34475F4D4F55444C45200A00001A
:10211000307830362C206D73672E706172616D31AE
:10212000203D202578200A00564F4C2D0A00000043
:10213000564F4C2B0A000000466F7572475F574997
:1021400046495F4348414E4E454C0A0042545F4366
:1021500048414E4E454C0A00415558494E5F434850
:10216000414E4E454C0A0000464D5F4348414E4E9D
:10217000454C0A00696E736964650A006F75747373
:102180006964650A00000000464D2055500A0000B1
:10219000464D20444F574E0A00000000464D204C4B
:1021A0004F4E472050524553530A00006D6963203B
:1021B0006B65792070726573730A00006D69632026
:1021C0006B6579206C6F6E672070726573730A009F
:1021D0006D6963206B6579206C6F6E672072656C2A
:1021E000656173650A00000053554220424F415219
:1021F00044204F4E0A0000006D73672E70617261BB
:102200006D31203D202564200A000000706C61794A
:102210005F6D6F6465203D202564200A000000008A
:10222000580000208307FF22DB0E9A408907090E21
:10223000994000280BDA0007000F08388308084887
:102240009B001818C36993430B43C361704783080D
:1022500004489B001818036893430B4303607047BE
:1022600000ED00E000E400E08307FF22DB0E9A406F
:102270008907090E994000280BDA0007000F08387B
:10228000830808489B001818C36993430B43C36134
:102290007047830804489B001818036893430B4356
:1022A0000360704700ED00E000E400E010B501229B
:1022B00004210248FFF76BF810BD00008040005079
:1022C0000348C16A890701D50221C1627047000035
:1022D0000080004010B5FEF79FFE00F0D7FD01F032
:1022E00065F8FFF7BBF910BDF8B50420FEF70CFC4C
:1022F0001020FEF7DBFC00210720FEF76DFC032019
:10230000FEF702FC0320FEF7D1FC1D48FEF724FC7B
:102310001820FEF7C1FC1B4C2046FEF711FB651C84
:102320002846FEF70DFBA61C3046FEF709FB164FAC
:102330003846FEF705FB1548FEF702FB1348401C24
:10234000FEF7FEFA1248FEF7FBFA1248FEF7F8FA1B
:102350001148FEF7F5FA002211462046FEF762FC0E
:10236000002211462846FEF75DFC00221146304649
:10237000FEF758FC002211463846FEF753FCF8BD24
:1023800000A24A04103D8057080000800800004069
:102390001400C0530200805E0100206310B500F0FD
:1023A0002DF8FFF7A1FF00F029FD01F0B5FD0B4965
:1023B0000020086000F04AFD01F076FCFEF770FE98
:1023C000FFF788FFFFF7CCF900F002FDFEF714FDE0
:1023D00001F0D8FDFEF742FA10BD000000010050E8
:1023E0000521020E090751188B6801228240134310
:1023F0008B608868904388607047000010B5592151
:102400000448162288230160026003600468002CDF
:10241000F9D010BD0001005010B559210448162212
:1024200088230160026003600468002CF9D010BDAD
:102430000001005006498A691202FCD408600A288B
:1024400004D188690002FCD40D20086070470000A8
:102450000000054010B50448006C0104C2B2090E2A
:10246000722001F087FA10BDEC0A002070B50E4C06
:10247000012060760025257225756572657501F06D
:10248000BDFA7D21C900094800F0F6FC2146E57639
:10249000074820390864084680300571FEF7F0FCD3
:1024A000FFF7D8FF70BD00000C0B002020000020BB
:1024B0002E22000010B5012291030348FEF767FFAA
:1024C000002000F08BFC10BD40400050F0B5F94CEE
:1024D00087B0E27D00211C261725607E01271300AE
:1024E00001F032F83057191D57888A578F9193950C
:1024F00027254B5257372B31AAA6A34239888A97F2
:1025000099291D57192727252531572B57379B42C6
:10251000394B52578C5701283BD0042332E0012815
:1025200003D0042835D002232CE0A77631E006231F
:1025300028E0052326E0072261E0072801D00823D0
:1025400020E01D231EE0072801D009231AE01E23E6
:1025500018E00A2316E0052802D0072802D018E068
:102560000B230FE019230DE0052802D0072802D025
:102570000FE00C2306E01A2304E00D23A3760728BE
:1025800007D11B23A37604E00E23A376072800D1EE
:10259000A676002A02D00022E2752774C54BC54DED
:1025A0009C466035A27E9B7C06932B7905935B1E2F
:1025B0000193EB790493AB7900932B46803B1B6C22
:1025C00003936346DB7C2E460293403E130000F0EB
:1025D000BBFF1F5C377492F5F4F3F2F1F0EFEEED10
:1025E000ECEBEAE9E8E7E6E5E45DE3E2E1E0DFDE23
:1025F000DDDC5C000F23C5E71023C3E70322A276CE
:10260000C9E71122FBE71222F9E71422F7E71322A8
:10261000F5E71522F3E71622F1E7072803D006288D
:10262000B9D11822EBE7A576B5E70728FBD0B2E7CA
:102630000728B0D11B22E2E70728ACD1A676AAE78B
:10264000012000F0CBFB022060762772A7740520E2
:10265000E074012000F0CAFB0120FEF7F5FC677270
:1026600001F0C6F99449954800F006FC64219448AD
:1026700000F002FCFEF778FD00206074024616218F
:10268000702001F077F9FEF711FEBBE1012000F0A8
:10269000A5FB0320607627720120FEF7D5FC677248
:1026A00001F0A6F98449854800F0E6FB64218448DE
:1026B00000F0E2FB00206074A4E1002215217020EC
:1026C00001F058F9002255210320FEF705FB01F027
:1026D000EBFAFEF769FD67747A49794800F0CCFBA4
:1026E00004206076002020722075607501F086F964
:1026F0000020E07686E100212172E17E002914D0DD
:10270000032812D013227121032001F033F9E17C58
:102710000022072001F02EF9607F01280BD002284B
:102720004DD0032816D0042820D0002215210320E4
:10273000FEF7D2FA09E0002215210320FEF7CCFAB9
:1027400000221121702001F015F90520607601F0BA
:1027500071F957E1002216210320FEF7BDFA00228D
:102760001021702001F006F90620EFE70022172162
:102770000320FEF7B1FA00221221702001F0FAF8CE
:102780000820607601F05AF93CE112E12CE1D8E032
:10279000F1E0CBE0CFE032E1B1E080E030E02DE0ED
:1027A00026E027E078E074E064E069E05FE05BE069
:1027B00057E050E04CE025E031E025E015E007204F
:1027C00060760A202076EF7100221321702001F03C
:1027D000D1F8002218210320FEF77EFA02F026F934
:1027E00001F036F9FFF736FE0CE101F05DFF09E17B
:1027F000082000E0072001F0BDFF03E10620FAE712
:102800000520F8E7082006E00020607502981028EF
:102810009FD2401CC0B2E074FEF73AFC0DE0029873
:10282000002814D0401EC0B2E074FEF731FCE07CFA
:10283000002802D1677501F021F8E27C0421032011
:10284000FEF74AFAE17C0022072001F093F8D9E074
:1028500000220D2101E000220E210320FEF73CFAA8
:10286000D0E000225621F8E700223121F5E70022CE
:102870003221F2E7069802280AD00220A07403E071
:102880000698012804D0A77401F005FFFEF748FC64
:10289000B8E000225021E0E700222121DDE70020FE
:1028A000607209A0FDF7AEFC607E042818D00728EE
:1028B00021D0A7E00C0B0020B80B00003000002056
:1028C00038000020881300000A5455524E204F460D
:1028D00046203447204D4F55444C450A0000000027
:1028E0000020FEF7B1FB002000F080FA002000F08D
:1028F00075FA677686E00020FEF7A6FB82E0049872
:10290000012802D004280FD07CE00420E8710020C8
:102910008C4A68718B009B18491CC9B298640F29B6
:10292000F8D3894810646DE0EF716BE004980128DA
:1029300068D1032003E00498012863D10220E871E4
:1029400060E007285ED181490398884202D87D491A
:102950000A3001E07C487B4908647D2177710901D8
:102960007B4800F089FA7748006C01F01FFEFFF702
:1029700071FD78A01AE0072844D1734903980A3101
:10298000884203D36F490A38086402E06D487349EE
:1029900001647D21777109016D4800F06DFA694885
:1029A000006C01F003FEFFF755FD6DA0FDF72AFC5A
:1029B00028E00598002825D00098002801D0401E66
:1029C00000E00198A87100065E49800D4018806CF7
:1029D000086401F0EBFDFFF73DFD7D2177710901F2
:1029E0005B4800F049FA0DE0059800280AD00199EB
:1029F0000098884201DA401CE4E70020E2E7002268
:102A00004F212AE70020A076607E030000F09CFDA5
:102A1000085252525252525205525448FFF7B6F9D8
:102A2000002811D07D21C900504800F025FA207EF1
:102A3000002809D0401E0006000E207604D1002296
:102A400055210320FEF748F94148FFF79FF9002878
:102A500006D07079002803D000207071FEF76CFA60
:102A6000E879030000F070FD052626040E282600F4
:102A70003449364A086C904201D80A3009E033489C
:102A80000A3009E02F49304A086C0A32904202D3DA
:102A90000A38086403E02C480864EF71086C01F000
:102AA00085FD002806D0EF717D2177710901284846
:102AB00000F0E2F907B0F0BD224C206C01F076FD89
:102AC000002823D07D20000100F030FD6979206CC2
:102AD00089000919886468790E2801D2401C687140
:102AE0001A49206C884215D968792871002804D0C9
:102AF000A06C20640020A87101E0134820647D21AF
:102B00007771C900124800F0B7F913E00F49206C43
:102B1000884202D80A302064CCE7687928710028FE
:102B200004D0A06C20640020A87101E00648206455
:102B3000FEF702FA206C01F039FDFFF78BFCEF7114
:102B4000B8E70000EC0A00202E220000262A000030
:102B500050000020464D2055500A0000602700001C
:102B6000464D20444F574E0A000000004800002008
:102B7000F8B51C4D286944071BA000680090296A1D
:102B8000640F2813014201D0002016E0080301D58C
:102B9000164800E016488A030FD40A04920F6B46C9
:102BA0009B5CCA058904D20DC90E891C8008921C41
:102BB00059435043FDF732FC80000E4E022CB060AA
:102BC00002D00D49A0000858A9690907090F491C3E
:102BD000FDF724FC094930604A108018FDF71EFCFF
:102BE0007060F8BD00020050010202040080510133
:102BF000001BB700000000205C4A000040420F00AC
:102C000070470000F8B50C46074600F05DF8054631
:102C100000200090264829460068FDF7FFFB461C6F
:102C200000203860786123498D4205D87D20C0009E
:102C3000844205D2044606E0642C01D2642402E0FA
:102C40008C4200D90C461C488D4207D82946FDF716
:102C5000E5FB01467D20C000604317E0174A95421E
:102C600003D90722ED0800920CE0154A954203D9DA
:102C70000322AD08009205E0124A954202D90122D2
:102C80006D080092FA2CE1D220466843FDF7C6FB9E
:102C9000786001210098890708433860002E02D02F
:102CA00000BF761EFCD138688001FCD4F8BD00005E
:102CB0000000002040420F0000CA9A3B0090D00361
:102CC0000048E8010024F40010B588B00446202232
:102CD00011496846FDF760FA104911488C4202D14B
:102CE0004069000A0CE00F498C4202D14069000B98
:102CF00006E00D4940698C4201D1000C00E0000D56
:102D00004007400F022804D080006946085808B0E8
:102D100010BD06480068FAE7D0D700000000014067
:102D2000000200500001014000001140000000209E
:102D3000F7B517460646FFF7C7FF044600254008CB
:102D4000B84201D2022014E00F498C4202D9072573
:102D5000E4080AE00D498C4202D90325A40804E0E6
:102D60000B498C4201D90125044639462046FDF71E
:102D700055FB01992943316070606D1C6843014621
:102D80002046FDF74BFBFEBD0090D0030048E80154
:102D90000024F4000A490878401CC0B208700A28D0
:102DA00005D3002008700748C16A491CC162064962
:102DB0000868401C086005490120886070470000D1
:102DC00014000020EC0A0020E8010020000101406E
:102DD00010B5FEF78DF900F055FF10BD024900282F
:102DE00000D001208863704740420050024900280B
:102DF00000D0012088607047804200501048416830
:102E00004204114341600021052000074163016332
:102E1000C26B01231B071A43C263826B1123DB02BF
:102E20001A43826333220748120142600160302155
:102E3000C160816004494161090601617047000079
:102E400040400050400000501100440010B5FDF714
:102E500057FDFEF7D5F8FEF7F9FEFDF709FD054928
:102E600001200862FFF722FA0020FFF7BFFFFFF7FB
:102E700021FB10BD80420050034AD36A4360D26AEE
:102E80005118016070470000EC0A002010B50CA03A
:102E9000FDF7B8F900F056F800F068F80E48016840
:102EA0000EA0FDF7AFF911A0FDF7ACF9012115480F
:102EB00000F0E4F80121144800F0E0F8002010BD13
:102EC0007472616E73666572207561727420696ECA
:102ED0006974210A00000000000000200A0A435023
:102EE00055204020256420487A0A00000A554152A6
:102EF000542053616D706C652050726F6772616D04
:102F00000A000000004015400000154010B500F018
:102F1000CDF810BD05200007C268012109040A434D
:102F2000C260C2688A43C260034802494162032109
:102F3000C1607047660000300000054010B500F029
:102F400035F810BD05200007C268012149040A4375
:102F5000C260C2688A43C2600348024941620321D9
:102F6000C16070476F020030000015400520000767
:102F7000C268012189040A43C260C2688A43C260F0
:102F80000848074941620321C16007480021817553
:102F900001768176C17541760121C17670470000C6
:102FA00066000030004015401E0A002070B5234C1A
:102FB0000121204600F046F8E169C9070FD02068DA
:102FC0001F4CC0B2E27800250121130000F0BCFACA
:102FD0000805080F161A1D202725FF282BD070BDC5
:102FE000552802D0FF28FAD017E0022013E0042869
:102FF00001D103200FE0FF281DD00EE08028FAD178
:10300000042008E02070052005E06070062002E042
:103010000028F0D10720E07070BDE57070BDFF287A
:1030200009D06278002321780120FDF7FFFEFF2000
:1030300020706070F1E7E17070BD00000000154085
:103040006C0000204A0501D5682282610A0503D57B
:10305000426901231A4342618A0401D5064A82610A
:103060004A0401D5426C4264090403D58021C16140
:10307000816B8163704700000100000142680A43D0
:103080004260074B012212030649984201D10A60AF
:103090007047054B9842FAD1012040030860704701
:1030A0000000054000E100E00000154070B51D4E35
:1030B00001213046FFF7C6FF1B4C01212046FFF7D8
:1030C000C1FFF0690025C007184B002818D03068F0
:1030D000C0B2302800D1DD605968012292029142CD
:1030E0000ED213499A68885498681249884201D1CF
:1030F000002001E09868401C98605868401C5860A7
:10310000E069C0050DD50C4AE069C00709D0206808
:1031100099785054491CC8B298708C28F4D99D7085
:10312000F2E770BD00000540004015406C00002033
:10313000C8040020FF030000C808002010B50520C7
:1031400000070269FF2101310A43026102698A43D3
:1031500002610B4C022020600A48E06210202061CE
:1031600007484030C16942061143C1610648FFF774
:1031700037F94B210902204600F040F910BD00004C
:1031800000000740010800000800000810B500F02A
:10319000C5F810BD10B50FA0FDF734F81DA0FDF760
:1031A00031F80CA0FDF72EF82AA0FDF72BF839A076
:1031B000FDF728F847A0FDF725F806A0FDF722F84F
:1031C00054484168102211434160534990040860FB
:1031D00010BD00002B2D2D2D2D2D2D2D2D2D2D2D08
:1031E0002D2D2D2D2D2D2D2D2D2D2D2D2D2D2D2D0F
:1031F0002D2D2D2D2D2D2D2D2D2D2D2D2D2D2D2DFF
:103200002D2D2D2D2D2D2D2D2D2D2D2D2D2D2D2DEE
:103210002B0A00007C20205553434920554152542D
:103220002046756E6374696F6E2054657374202038
:10323000202020202020202020202020202020208E
:10324000202020202020202020202020202020207E
:103250007C0A00007C202044657363726970746985
:103260006F6E203A202020202020202020202020A7
:10327000202020202020202020202020202020204E
:10328000202020202020202020202020202020203E
:103290007C0A00007C202020205468652073616D2A
:1032A000706C6520636F64652077696C6C20707248
:1032B000696E7420696E7075742063686172206F26
:1032C0006E207465726D696E616C20202020202054
:1032D0007C0A00007C20202020506C6561736520F2
:1032E000656E74657220616E7920746F20737461ED
:1032F000727420202020202850726573732027309C
:103300002720746F206578697429202020202020D0
:103310007C0A00000000074000E100E070B5214891
:10332000C16BC90739D1406B1F4CC0B2E278002590
:103330000121130000F008F908050910131A1D20D7
:103340002430FF2829D1E17027E0552802D0FF283A
:1033500023D021E0022011E003280FD001E08028D3
:1033600002D0FF28EFD017E0042007E020700520EE
:1033700004E06070062001E0A0700720E0700CE01F
:10338000FF28E0D0A378627821780220FDF74EFD77
:10339000FF2020706070A070E5700249102040315D
:1033A000486270BD000007407C00002010B5FFF7A8
:1033B000C5FE0648016806A0FCF724FF08A0FCF73C
:1033C00021FFFFF7E7FE002010BD000000000020F5
:1033D0000A0A435055204020256420487A0A0000FC
:1033E0000A5553434920554152542053616D706C26
:1033F000652050726F6772616D0A0000F0B5064675
:10340000474885B00D46864202D04648864202D1E2
:10341000FDF782FB01E0FDF78FFB29460290FCF7E8
:10342000FDFF044601460298FCF7F8FF471B611CAC
:103430000298FCF7F3FF281A874200D3641C01208E
:103440000004844205D310200425009080010190DF
:103450003CE001218903012508466843A04203D2CC
:103460006D1C042DF8D901E0042D00D9042529464E
:103470002046FCF7D3FF039000200027FF43009075
:103480000624019021460398FCF7C8FF0121890218
:10349000884205D908460399A2028A1A511C07E0FE
:1034A0000146039A6143521A411C039B6143C91AA6
:1034B0008A4201D3401C00E01146B94203D20F00FA
:1034C0000094019002D0641C102CDBD93068C00835
:1034D000C0003060022030601348F062102030617C
:1034E000009901988A020121401E89020004511AA4
:1034F00008432902FF3901390843B060F06D01210A
:10350000C9070843F06529460298FCF787FF009930
:10351000FCF784FF0199FCF781FF05B0F0BD0000C6
:103520000000074000400740010800000022054B52
:1035300004E00021491C9942FCD3521C8242F8D37A
:10354000704700001027000030B47446641E2578D0
:10355000641CAB4200D21D46635D5B00E31830BCC7
:10356000184730380A2801D20120704700207047E0
:1035700070B51C4D0022AB78194C5B1CDBB21146B8
:10358000AB70082B03D90023AB700123EB70AB7831
:103590009E00154B9851E87800281FD088001858D5
:1035A000491C8218C9B20829F8D3D1080D4A002055
:1035B0000C328300D3588B4203D8401CC0B20B2876
:1035C000F7D3002801D0401EC0B2207407A0A1602C
:1035D000FCF718FE217C0BA0FCF714FE70BD000068
:1035E0006C0B0020700200206C0A002073616D706B
:1035F0006C655F6261745F646174613A2025640A7E
:103600000000000073616D706C655F6261746C65D1
:1036100076656C3A2025640A000000000020401CFA
:10362000C0B20528FBD37047074A012151631163DB
:103630005160064A002802D00020906100E09161AC
:1036400001488030C1637047004200504043005041
:10365000F3B5002481B0054626460FE06000295CE2
:10366000FD2914D0FE290DD0FF2906D041190023D1
:10367000022298200096FEF733F8641C02988442D8
:10368000ECDBFEBD08490948FFF7BCFAF5E747192E
:1036900000967A78B91C00239820FEF721F87878F4
:1036A000401C40080419E8E78813000000000140AE
:1036B000F3B5002481B0054626460FE06000295C82
:1036C000FD2914D0FE290DD0FF2906D04119002371
:1036D00002229A200096FEF703F8641C02988442A6
:1036E000ECDBFEBD08490948FFF78CFAF5E74719FE
:1036F00000967A78B91C00239A20FDF7F1FF7878BC
:10370000401C40080419E8E788130000000001404D
:1037100070B500F045F800F04DF814A0FCF772FD0C
:10372000194CA07C012802D002280CD017E000F030
:103730004BF8164D16482946FFF7BAFF294615489B
:10374000FFF786FF0BE0114D1348363D2946FFF782
:103750007FFF00F039F829461048FFF7A9FFE07C09
:1037600000F0AEF800F030F870BD00006472765FD3
:10377000353832355F496E69742A2A2A2A2A2A2A5C
:103780002A2A2A2A0A0000000C0B0020610F0000E0
:103790007A9A0000625D0000247C00003CB90000C1
:1037A00010B5002204210248FDF7F1FD10BD000014
:1037B0004041005010B501210022C9020148FDF727
:1037C000E6FD10BDC040005038B502212448FFF787
:1037D0003FFF002422492346022208399820009402
:1037E000FDF77EFF1E4900230222891F98200094C6
:1037F000FDF776FF1A4900230222091F9820009442
:10380000FDF76EFF164900230222891E98200094BE
:10381000FDF766FF02211248FFF74AFF1049002317
:10382000022208399A200094FDF75AFF0C49002320
:103830000222891F9A200094FDF752FF08490023B5
:103840000222091F9A200094FDF74AFF0449002331
:103850000222891E9A200094FDF742FF38BD000025
:10386000505D000010B5012291020348FDF78FFD65
:10387000002000F003F810BDC040005002490028AD
:1038800000D0012088627047C042005010B501206E
:1038900000F002F810BD000010B50446012211032B
:1038A0000548FDF774FD0548002C01D0012100E01A
:1038B0000021016310BD0000C0400050C042005014
:1038C000F8B5044610282BD803211648FFF7C0FE90
:1038D000A00024181448002521180E462B46052266
:1038E00098200095FDF7FCFE0F4800235530211865
:1038F0000C46052298200095FDF7F2FE03210948A9
:10390000FFF7D6FE3146002305229A200095FDF7E9
:10391000E7FE2146002305229A200095FDF7E0FEF0
:10392000F8BD0000545D000036010020F8B50BA082
:10393000FCF768FCFEF76EF900240D4D2646E0000A
:10394000411900964A68295800239420FDF746FE45
:10395000641CE4B2062CF2D3F8BD00004164635F3E
:1039600070636D313836325F496E69740A00000049
:10397000884A0000F8B507461B4CFF2015460E4646
:1039800020637D21C9001948FFF73CF955202063C9
:103990007D21C9001548FFF735F9032020637D21FB
:1039A000C9001248FFF72EF9802020637D21C9004D
:1039B0000E48FFF727F927637D21C9000B48FFF761
:1039C00021F926637D21C9000848FFF71BF925630B
:1039D0007D21C9000548FFF715F9B8194019833052
:1039E0004042C0B22063F8BD000007400000014023
:1039F0000149012048617047004200500149002000
:103A00004861704700420050084A08498032084B1C
:103A1000002801D0002000E00120486308634860CE
:103A2000D06398618860C860704700000042005011
:103A30004043005010B5FEF7DFF810BD10B521204F
:103A400000F08AF9012000F0B3F9FEF7E3F810BDA9
:103A500010B52B2000F080F9022000F0A9F9FEF744
:103A6000D9F810BD10B5E82000F076F9082000F074
:103A70009FF9FEF7CFF810BD0549012048630022E9
:103A80000A63486002498031C8630249886170470F
:103A90000042005040430050074A01215163116326
:103AA000002802D00020506000E0516002488030C1
:103AB000C16302488161704700420050404300509A
:103AC00010B511A0FCF79EFB012251031548FDF72C
:103AD0005EFC15490120486314491548FFF792F828
:103AE000144CA07C012802D0022803D007E0124920
:103AF000124802E010491248683900F023F8E07CCF
:103B000000F07CF810BD00006472765F333235310E
:103B10005F496E69742A2A2A2A2A2A2A2A2A2A2AE4
:103B20000A000000C0400050C0420050881300004E
:103B3000000001400C0B0020D3040000BE4A00002E
:103B400064540000F3B5002481B0054626460FE01A
:103B50006000295CFD2915D0FE290DD0FF2906D073
:103B600041190023022294200096FDF7B9FD641C40
:103B700002988442ECDBFEBD7D21C9000848FFF7B6
:103B800041F8F4E7471900967A78B91C002394208D
:103B9000FDF7A6FD7878401C40080419E7E700000F
:103BA00000000140F8B5002000F028F80122510380
:103BB0000D48FDF7ECFB0D4C012565630C4E0D4FD8
:103BC00031463846FFF71EF80B493846FFF71AF81A
:103BD0000020606331463846FFF714F8064938463E
:103BE000FFF710F86563F8BDC0400050C0420050B8
:103BF0008813000000000140B80B000038B50446EF
:103C000003211048FFF79EFFA00024180E4800254E
:103C100021182B46052294200095FDF761FD032114
:103C20000848FFF78FFF0848002355302118052268
:103C300094200095FDF754FD07210448FFF782FF0B
:103C400038BD0000B84A00008C0000203A5D00003A
:103C50000349002801D0002000E00120886070475F
:103C60000042005005490120486308634860034A48
:103C700000218032D16302498861704700420050C0
:103C80004043005010B5074C002208212046FDF7A4
:103C90007EFB002240212046FDF779FBFDF7CCFD9D
:103CA00010BD00008040005070B51E4C01229103F1
:103CB0002046FDF76CFB0122D50329462046FDF77F
:103CC00066FB012251032046FDF761FB012211032F
:103CD0002046FDF75CFB012202212046FDF757FB41
:103CE000012204212046FDF752FB0E4801222946FD
:103CF0008030FDF74CFB012240210B48FDF747FBCC
:103D000009490120C0318860486308634860074A58
:103D1000D063064AC03290618860C8608863C86317
:103D200070BD0000004000504041005080420050F3
:103D30000349002801D0002000E00120C86370473B
:103D4000004200500349002801D0002000E001207B
:103D5000886370470042005038B514490024487009
:103D6000891C4870891C4870891C487023460222AF
:103D7000891F94200094FDF731FC0C490023022296
:103D8000891C94200094FDF729FC08490023022295
:103D9000091D94200094FDF721FC04490023022210
:103DA000891D94200094FDF719FC38BD8400002083
:103DB00038B5402108430A4900244870891C4870DE
:103DC00023460222891E94200094FDF707FC044933
:103DD00000230222891C94200094FDF7FFFB38BDCC
:103DE00080000020074A0121002802D000205063F3
:103DF00000E051631163516002488030C1630248A2
:103E00008161704700420050404300500020C04391
:103E10007047000010B5074920220A7000224A703E
:103E2000030A8B70C8700A71034B0122052000F051
:103E3000E7FB10BD680200205B0A002010B51E4A97
:103E40002223137000235370002801D002205070E9
:103E5000002903D05078012108435070174B0822E5
:103E60001549022000F0CCFB1448134C0178183C93
:103E7000C907C90F61714178CA09E2718A07D20F77
:103E8000C9072272C90F6172C17882780902114391
:103E900049BA21610279227342796273C079606103
:103EA00007A0FCF7AFF9617A09A0FCF7ABF9217B19
:103EB0000BA0FCF7A7F910BD680200205B0A0020E8
:103EC0007265616420667265713A2025640A00009B
:103ED00049732076616C69643A2025640A00000009
:103EE000525353493A2025640A00000000B50346A6
:103EF000FEF7A0FA184600BD1CB500200090019006
:103F0000142069460870012201AB104600F078FBCE
:103F1000694608791CBD000010B5174C2046FCF717
:103F20000FFD032252040C212046FCF77BFE134CAC
:103F3000002240212046FDF72AFA00228021204657
:103F4000FDF725FA05200007816B0902090A816344
:103F5000816B11221206114381636068012189057A
:103F60000843606060684900084360600448016875
:103F700001221143016010BD1CFE23564040005039
:103F800080000E4010B5FEF747FAFDF717F97F20C5
:103F9000C00200F0FBF9002802DA03A0FCF732F9B6
:103FA0000B490020086010BD4661696C656420748F
:103FB0006F20736574204461746120466C6173687E
:103FC00020626173652061646472657373210A0005
:103FD0000001005070B50C4605460121222000F07A
:103FE00037F804E0E8B200F007F82070641C6D1E9A
:103FF000F8D200F075F870BDF0B50024134B0746F9
:10400000224626460125DE629D62012000F020FD49
:10401000022000F01DFDDD62012000F019FD996A0B
:1040200060000843521CD2B2C4B2082AEBD3DE624D
:10403000002F09D09E62022000F00AFDDD620120FF
:1040400000F006FD2046F0BD9D62F4E700420050FE
:1040500070B51B4B01260A460446DE62304600F06E
:10406000F7FC00259D62012000F0F2FCDD62D00724
:10407000B443C00F04430722DD62012000F0E8FCD6
:104080002046D040C007C00F9862012000F0E0FC3D
:10409000DE62012000F0DCFC521EEDD5DD629E6286
:1040A000022000F0D5FCDE62012000F0D1FC986A0D
:1040B000002804D0FFF7B2FA02A0FCF7A3F870BD05
:1040C000004200502064696520696E20737461723B
:1040D000742066756E6374696F6E200A00000000BC
:1040E00000B5084A0023D362022000F0B1FC9362BD
:1040F000012000F0ADFC0123D362184600F0A8FCBB
:10410000936200BD0042005070B50C460546002188
:104110002220FFF79DFF03E02078641C00F006F8E2
:104120006D1EF9D2FFF7DCFF70BD000070B50722ED
:104130000026134B04460125DE62012000F088FCB6
:104140002046D040C007C00F9862022000F080FCDB
:10415000DD62012000F07CFC521EEDD5DE629D6226
:10416000022000F075FCDD62012000F071FC986A0D
:10417000002804D0FFF752FA02A0FCF743F870BD04
:10418000004200502064696520696E20777269746E
:104190006520627974652066756E6374696F6E2040
:1041A0000A0000000026FEF7F9F8FEF75FF967A0A5
:1041B000FCF728F8674C01272546803520346648EF
:1041C000FDF7E4FD002839D07D2109016248FEF7A2
:1041D00053FEFCF7CBFAFCF705FFFCF753FBE87C3A
:1041E000002810D0687C012802D002280BD104E0FE
:1041F0000120FFF7A7FD002003E00020FFF7A2FD4C
:104200000120FFF795FD287C00280DD0022815D24B
:104210005249A8680968884210D9E07C08280DD95D
:10422000E87C002808D009E0607E0228F0D9E87C0C
:104230000028EDD1022000E01C20E0754848FDF781
:10424000A5FD002835D0FF21F5314548FEF714FEC5
:10425000207A002802D000F06DFB01E000F016FB90
:104260004048FDF793FD002801D0FFF7C7FB607EB3
:10427000042814D13C48FDF789FD002842D03B4872
:104280000763476347600020FCF7DEFE0020FEF76F
:10429000ADFD0020FEF7A2FD002060746776344873
:1042A000FDF774FD002804D00020E07631A0FBF774
:1042B000A9FF207C002808D0002020740120FFF7EF
:1042C000C7FC64212F48FEF7D7FD2E48FDF75EFDA1
:1042D000002802D00020FFF7BBFC207D002808D07A
:1042E00000202075FFF7CAFA7D21C9002648FEF795
:1042F000C3FD2548FDF74AFD002815D0607D002844
:104300000FD011E0002E05D01848076347634760BF
:104310000026C4E71548002101634163416001267E
:10432000BDE70120FFF7AAFAE07D00280BD1FDF7D9
:1043300043F8E075002806D1FDF792F8E07D0028EB
:1043400001D1FDF72FFDFEF7C1F838E70A6D61696D
:104350006E0A0000EC0A0020280000207C020020E9
:1043600020000020300000203800002000420050D3
:104370005800002053554220424F415244204F469E
:10438000460A000060000020400000207CB5044682
:1043900002216846FCF736FF0025ED43002803DACA
:1043A00015A0FBF72FFF17E00098C00704D1019874
:1043B000A04201D100207CBD1648016810221143A3
:1043C0000160009802214008400000900194684676
:1043D000FCF738FF002801DA28467CBD7F21C9029E
:1043E0000DA0FBF70FFFFDF7ADFC0028FBD001206F
:1043F000052109078860DDE70A526561642055736D
:10440000657220436F6E666967206661696C6564DA
:10441000210A000000C000500A53657420446174F2
:104420006120466C6173682062617365206173204E
:10443000307825782E0A000010B50521012000F003
:1044400003F91F210A4800F0FFF809480921401C20
:1044500000F0FAF80321074800F0F6F805481021AB
:10446000401C00F0F1F8002000F04EF810BD0000F4
:10447000021300000314000010B505490020087065
:1044800000F024F803A0FBF7BDFEFFF7D5FF10BD39
:1044900050020020504F5745522055500A0000004E
:1044A00010B50848017800290AD00021017005499B
:1044B0001120183108700122034B104600F0A0F8BB
:1044C00010BD0000500200205B0A002070B50C4DAA
:1044D0002878002812D12846012418300470C02101
:1044E0004170052181700146064B0822032000F02F
:1044F00087F8FF20F530FFF719F82C7070BD000029
:10450000500200205B0A0020F8B515221202112685
:104510001A4C951C360200280DD0194F022815D0D0
:104520000421104600F090F82146284600F08CF84F
:10453000012130461AE00421104600F085F821469A
:10454000284600F081F80221304613E00021284679
:1045500000F07AF80121304600F076F8052009498C
:10456000800200F071F806480749401E00F06CF820
:104570000A21384600F068F8F8BD000001FF00008D
:1045800002140000B01D00002823000010B50446EE
:104590000021054800F058F8A1060120890E80038B
:1045A00000F052F810BD000001400000F8B5124EB6
:1045B0000125FF24B5702D347570FFF72BFC6420A6
:1045C000FEF7B4FF00270D4D08E0FF20F53000F0A6
:1045D0003FFA022C02DA012028713770641E03D3DF
:1045E000FFF78AFCC007F0D001210020FFF726FC6E
:1045F000B770707AF8BD0000500200202C0B00202C
:10460000F8B51E4614460D46074600F033F8294615
:10461000384600F00DF800F02DF8002C03D031469C
:10462000204600F001F8F8BD10B5FFF7D3FC10BD2F
:1046300010B5FFF769FD10BD08B569460120FFF709
:10464000F3FF6846007808BD10B5094A12231370BD
:1046500000235370030A9370D070080A10715171CF
:1046600000231A4602490620FFF7CAFF10BD0000CA
:104670006802002070B5FA24650002E0284600F0C8
:10468000E7F92146641EE4B2002903D0FFF7D4FF06
:104690000006F3D570BD10B500231A46C2210220D2
:1046A000FCF7C4FB10BD0000F8B5314C607E052856
:1046B0001ED006282BD0254601266035072835D088
:1046C000082814D1072060760A202076EE71002297
:1046D00013217020FFF74EF9002218210320FCF768
:1046E000FBFA00F0A3F9FDF7B5FEFFF7B1F9F8BD4D
:1046F000002216210320FCF7EFFA06206076FFF770
:1047000099F9002210217020FFF734F9F8BD00223A
:1047100017210320FCF7E0FA08206076002212211E
:104720007020FFF727F9FFF789F9F8BD607A0027B5
:10473000002811D0FFF7B4FEEF71002215210320ED
:10474000FCF7CAFA05206076002211217020FFF7DD
:1047500011F9FFF76FF9F8BDFFF7A2FEEF71002224
:1047600011217020FFF706F966761B20E075F8BD71
:104770000C0B0020F8B5444C617E81421BD02546CD
:1047800007220A230126603508290BD0062925D0E7
:10479000052944D007290ED10027052860D0062816
:1047A0001FD149E005282DD006283DD0072802D189
:1047B00002E0FFF73FF9F8BD62762376EE71002242
:1047C00013217020FFF7D6F8002218210320FCF7F0
:1047D00083FA00F02BF9FFF73BF9F8BD052820D14B
:1047E00010E00828F9D1002217210320FCF774FA01
:1047F00008206076002212217020FFF7BBF8FFF737
:104800001DF9F8BD002215210320FCF765FA0520EB
:104810006076002211217020FFF7ACF8C9E7062866
:1048200002D00728DDD1C7E7002216210320FCF7BC
:1048300053FA06206076BCE7002216210320FCF71D
:104840004BFA06206076FFF7F5F8607A002803D06F
:10485000FFF726FEEF71E7E7FFF722FEEF710EE0AC
:10486000607A002803D0FFF71BFEEF71CAE7FFF75D
:1048700017FEEF71002211217020FFF77BF866769A
:104880001B20E075F8BD00000C0B002010B503489C
:10489000007A002801D100F003F810BD0C0B0020B5
:1048A00070B5224A0024D0790123214902280DD075
:1048B00005280BD0072809D0082807D00A2805D0DA
:1048C0000B704D78002D02D04C7001E00C704B70D5
:1048D000527E082A15D0072A17D0012A19D002289B
:1048E0001BD0012819D0032817D0042819D0052877
:1048F00017D0062801D0072802D14878FFF7CCF856
:1049000070BD0120FFF7B8F870BD0120FFF7AAF9CC
:1049100070BD0020FFF778F870BD4878FFF762FAA5
:1049200070BD4878FEF780FE70BD00000C0B0020C3
:10493000AC02002010B512498878052801D2401C2D
:1049400000E001208870C0B20300FEF7FDFD0607FD
:1049500004080C1014070120FFF744FA10BD0120D1
:10496000FEF762FE10BD0120FFF796F810BD012092
:10497000FFF782F810BD0120FFF774F910BD0000A9
:10498000AC02002010B50446016810A0FBF73AFC09
:1049900011A06168FBF736FC12A0A168FBF732FC9E
:1049A00013A0E168FBF72EFC14A02169FBF72AFC99
:1049B00015A06169FBF726FC16A0A169FBF722FC94
:1049C00017A0E169FBF71EFC10BD0000723020202B
:1049D0003D20307825780A00723120203D20307843
:1049E00025780A00723220203D20307825780A0090
:1049F000723320203D20307825780A007231322031
:104A00003D20307825780A006C7220203D203078D7
:104A100025780A00706320203D20307825780A0030
:104A2000707372203D20307825780A0010B5FFF7AA
:104A300023FD3F20FFF7AAFD0448006CFFF7B6FDF9
:104A4000FF202D30FEF772FD10BD0000EC0A0020A3
:104A5000002100E0491C8142FCD37047001BB700D5
:104A60000080000000E0480410270000006CDC0219
:104A70000000000000000000008051010100020061
:104A800003000400201026077C4A000002000000FA
:104A90007E4A000002000000804A00000200000080
:104AA000824A000002000000844A00000200000068
:104AB000864A00000200000000007F8C001E0000FB
:104AC0007F0002110111000000000000000003112E
:104AD0002A0025180D10020000007F00028000004F
:104AE0007F00220300007F00020000007F8C001E78
:104AF000FD051C0000000000FD052800000000006E
:104B0000FD05340000000000FD054000000000002D
:104B1000001FFD05240020C49C00FD05307FFFFF21
:104B2000FF0000007F8C001CFD0B6C7FFFFFFF006F
:104B3000000000000000FD0B7600000000000000F7
:104B40000000000000007F8C001DFD0B087FFFFFB0
:104B5000FF00000000000000FD0B1200000000003C
:104B600000000000000000007F8C001EFD0510000A
:104B70000000000000007F8C0023FD0514000000F1
:104B8000010000007F8C0011FD0B587FFFFFFF002C
:104B9000000000000000FD0B6200000000000000AB
:104BA0000000000000007F8C0012FD0B44FF8459C0
:104BB00016FF845916FF8400FD0B4E591670462BC4
:104BC0003B9D850DE20000007F8C0013FD0B300142
:104BD000BB7CF401BB7CF401BB00FD0B3A7CF462AE
:104BE00037C54FB4A281920000007F8C0013FD0BEB
:104BF000584F9DF935B06206CB4F9D00FD0B62F911
:104C00003549E69D16D55555560000007F8C001499
:104C1000FD0B087CB6A4BC83495B447CB600FD0B4D
:104C200012A4BC7CB12C1E8687C5490000007F8C75
:104C30000014FD0B1C05B75C1F05B75C1F05B70012
:104C4000FD0B265C1F49E69D16D555555600000004
:104C50007F8C0014FD0B587FFFFFFF000000000059
:104C60000000FD0B620000000000000000000000DA
:104C700000007F8C0014FD0B6C7FFFFFFF00000025
:104C800000000000FD0B76000000000000000000A6
:104C9000000000007F8C0015FD0B087FFFFFFF0068
:104CA000000000000000FD0B1200000000000000EA
:104CB0000000000000007F8C0015FD0B1C7FFFFF33
:104CC000FF00000000000000FD0B260000000000B7
:104CD00000000000000000007F8C0015FD0B307FFD
:104CE000FFFFFF00000000000000FD0B3A00000085
:104CF000000000000000000000007F8C0015FD0B8C
:104D0000447FFFFFFF00000000000000FD0B4E008D
:104D10000000000000000000000000007F8C001573
:104D2000FD0B587FFFFFFF80A59DA27EB700FD0B06
:104D30006220FA7FA2251080B9584D0000007F8CB8
:104D40000015FD0B6C7F9604378069FBC97F9600C8
:104D5000FD0B7604377F95D85780D39FD000000095
:104D60007F8C0016FD0B087F9604378069FBC97F96
:104D70009600FD0B1204377F95D85780D39FD00043
:104D800000007F8C0016FD0B1C7F77CC6980883378
:104D9000977F7700FD0B26CC697F7783F2810FD652
:104DA000400000007F8C0016FD0B307F77CC6980BF
:104DB0008833977F7700FD0B3ACC697F7783F28148
:104DC0000FD6400000007F8C0016FD0B44002187A9
:104DD0005F0021875F002100FD0B4E875F7A148101
:104DE000B28B50DF1E0000007F8C0016FD0B5800B8
:104DF00021875F0021875F002100FD0B62875F7ABA
:104E00001481B28B50DF1E0000007F8C0016FD0B5A
:104E10006C78572CEC8B3C83E5733300FD0B76A844
:104E2000B374C37C1B94752A5F0000007F8C00174D
:104E3000FD0B087F327C9D8237EB837C7300FD0B7A
:104E400012BFCB7DC8147D8459C3970000007F8CAE
:104E50000017FD0B1C7FFFFFFF000000000000009B
:104E6000FD0B260000000000000000000000000014
:104E70007F8C0017FD0B307FFFFFFF00000000005C
:104E80000000FD0B3A0000000000000000000000E0
:104E900000007F8C0017FD0B447FFFFFFF00000028
:104EA00000000000FD0B4E000000000000000000AC
:104EB000000000007F8C0017FD0B587FFFFFFF00F4
:104EC000000000000000FD0B620000000000000078
:104ED0000000000000007F8C0017FD0B6C7FFFFFBF
:104EE000FF00000000000000FD0B76000000000045
:104EF00000000000000000007F8C0018FD0B080877
:104F000004820000000000000000FD0B1200000001
:104F1000000000000000000000007F8C0018FD0B66
:104F20001C7FFFFFFF00000000000000FD0B2600BB
:104F30000000000000000000000000007F8C00184E
:104F4000FD0B307FFFFFFF00000000000000FD0BA5
:104F50003A000000000000000000000000007F8C0C
:104F60000018FD0B447FFFFFFF0000000000000061
:104F7000FD0B4E00000000000000000000000000DB
:104F80007F8C0018FD0B587FFFFFFF000000000022
:104F90000000FD0B620000000000000000000000A7
:104FA00000007F8C0018FD0B6C7FFFFFFF000000EE
:104FB00000000000FD0B7600000000000000000073
:104FC000000000007F8C0019FD0B087FFFFFFF0031
:104FD000000000000000FD0B1200000000000000B7
:104FE0000000000000007F8C0019FD0B1C7FFFFFFC
:104FF000FF00000000000000FD0B26000000000084
:1050000000000000000000007F8C0019FD0B307FC5
:10501000FFFFFF00000000000000FD0B3A00000051
:10502000000000000000000000007F8C0019FD0B54
:10503000447FFFFFFF00000000000000FD0B4E005A
:105040000000000000000000000000007F8C00193C
:10505000FD0B587FFFFFFF00000000000000FD0B6C
:1050600062000000000000000000000000007F8CD3
:105070000019FD0B6C7FFFFFFF0000000000000027
:10508000FD0B7600000000000000000000000000A2
:105090007F8C001AFD0B087FFFFFFF00000000005F
:1050A0000000FD0B120000000000000000000000E6
:1050B00000007F8C001AFD0B1C7FFFFFFF0000002B
:1050C00000000000FD0B26000000000000000000B2
:1050D000000000007F8C001AFD0B307FFFFFFF00F7
:1050E000000000000000FD0B3A000000000000007E
:1050F0000000000000007F8C001AFD0B4408000037
:105100000000000000000000FD0B4E000000000049
:1051100000000000000000007F8C001AFD05580010
:10512000E2C46B0000007F8C001AFD0B6C00221D96
:105130009500443213000D00FD0B76A6860000009A
:1051400000000000000000007F8C001BFD0B08FF2A
:105150008147AEF9DABC21FD4200FD0B1268A700C1
:10516000000000000000000000007F8C001BFD0B11
:105170001C0006D3720002BB06000300FD0B26696B
:10518000C5000000000000000000FD0B3000000022
:1051900000F9DABC21FC5800FD0B3A8B89000000B5
:1051A00000000000000000007F8C001BFD0B44008D
:1051B00006D3720002BB06000300FD0B4E69C5005A
:1051C0000000000000000000FD0B5800000000F986
:1051D000DABC21FC5800FD0B628B89000000000046
:1051E0000000000000007F8C001DFD051C0006D3A0
:1051F000720000007F8C001DFD05201C1BF041008B
:1052000000007F8C001DFD0524040C3714000000F5
:105210007F8C001DFD052C008000000000007F8CAD
:10522000001DFD0534400000000000007F8C001DC3
:10523000FD0538400000000000007F8C001DFD05CA
:1052400040008000000000007F8C001DFD05440030
:105250000000000000007F8C001DFD0548000000DC
:10526000000000007F8C001DFD05580000000100BB
:1052700000007F8C001DFD055C004026E70000005B
:105280007F8C001DFD0560004026E70000007F8C3C
:10529000001DFD0564000000000000007F8C001D63
:1052A000FD0568000000000000007F8C001DFD056A
:1052B00074000000000000007F8C001DFD057800D8
:1052C0000000000000007F8C001DFD057C008000B8
:1052D000000000007F8C001EFD050800800000001B
:1052E00000007F8C001EFD050C0000000000000087
:1052F0007F8C001EFD0514008000000000007F8CE4
:10530000001EFD0518000000000000007F8C001E3C
:10531000FD051C000000000000007F8C001EFD0544
:1053200020000000000000007F8C001EFD0524000E
:105330000000000000007F8C001EFD05280000001A
:10534000000000007F8C001EFD052C008000000086
:1053500000007F8C001EFD053000000000000000F2
:105360007F8C001EFD0534000000000000007F8CD3
:10537000001EFD0538000000000000007F8C001EAC
:10538000FD053C000000000000007F8C001EFD05B4
:1053900040000000000000007F8C001EFD0544025C
:1053A0008185080000007F8C001EFD054802818574
:1053B000080000007F8C001EFD055040000000002A
:1053C00000007F8C001EFD0554040000000000005A
:1053D0007F8C001EFD0558040000000000007F8C3B
:1053E000001FFD051400CEC08A0000007F8C001F46
:1053F000FD05180A0AAED20000007F8C001FFD05D3
:105400001C000369D00000007F8C001FFD052040B8
:105410000000000000007F8C001FFD052875F5517D
:105420002E0000007F8C001FFD052C00005762003D
:1054300000007F8C0023FD05140000000100000027
:105440007F00000007000820550700007F000000D3
:105450003D303E3000007F000001020000007F0070
:1054600003002A1100007F0002110111000000005A
:105470000000000003112A0025180D100200000092
:105480007F00028000007F00220300007F000200F6
:1054900000007F8C001EFD051C0000000000FD05C3
:1054A000280000000000FD05340000000000FD059C
:1054B000400000000000001FFD05240020C49C00E7
:1054C000FD05307FFFFFFF0000007F8C001CFD15F5
:1054D0006C7FFFFFFF0000000000000000000000E4
:1054E00000000000000000007F8C001DFD15087FFB
:1054F000FFFFFF00000000000000000000000000AF
:105500000000000000007F8C001EFD051000000060
:10551000000000007F8C0023FD0514000000010046
:1055200000007F8C0011FD15587FFFFFFF00000079
:10553000000000000000000000000000000000006B
:105540007F8C0012FD1544FF845916FF845916FF05
:1055500084591670462B3B9D850DE20000007F8C20
:105560000013FD153005B75C1F05B75C1F05B75C60
:105570001F49E69D16D55555560000007F8C001337
:10558000FD15584F9DF935B06206CB4F9DF9354951
:10559000E69D16D55555560000007F8C0014FD156C
:1055A000084F9DF935B06206CB4F9DF93549E69D10
:1055B00016D55555560000007F8C0014FD151C05AE
:1055C000B75C1F05B75C1F05B75C1F49E69D16D584
:1055D0005555560000007F8C0014FD15587FFFFFC5
:1055E000FF000000000000000000000000000000BC
:1055F000000000007F8C0014FD156C7FFFFFFF0092
:10560000000000000000000000000000000000009A
:1056100000007F8C0015FD15087FFFFFFF000000D4
:10562000000000000000000000000000000000007A
:105630007F8C0015FD151C7FFFFFFF0000000000A0
:1056400000000000000000000000000000007F8C4F
:105650000015FD15307FFFFFFF0000000000000077
:105660000000000000000000000000007F8C00151A
:10567000FD15447FFFFFFF00000000000000000058
:10568000000000000000000000007F8C0015FD15E8
:10569000587FFFFFFF807EE2DE7F04F7E07F9AD92C
:1056A0006480C78F0F0000007F8C0015FD156C7F94
:1056B00068B33080974CD07F68B3307F6859C5811C
:1056C0002DE6C70000007F8C0016FD15087F68B32B
:1056D0003080974CD07F68B3307F6859C5812DE604
:1056E000C70000007F8C0016FD151C7F68B330805A
:1056F000974CD07F68B3307F6859C5812DE6C700CD
:1057000000007F8C0016FD15307F68B33080974C09
:10571000D07F68B3307F6859C5812DE6C70000008F
:105720007F8C0016FD15440021875F0021875F00F4
:1057300021875F7A1481B28B50DF1E0000007F8CBE
:105740000016FD15580021875F0021875F00218723
:105750005F7A1481B28B50DF1E0000007F8C001630
:10576000FD156C78572CEC8B3C83E57333A8B37430
:10577000C37C1B94752A5F0000007F8C0017FD1509
:10578000087F8A7E8681E0E4597CC9DB7B7E1F1B13
:10579000A783ABA5FE0000007F8C0017FD151C7FC2
:1057A000FFFFFF00000000000000000000000000FC
:1057B0000000000000007F8C0017FD15307FFFFF08
:1057C000FF000000000000000000000000000000DA
:1057D000000000007F8C0017FD15447FFFFFFF00D5
:1057E00000000000000000000000000000000000B9
:1057F00000007F8C0017FD15587FFFFFFF000000A1
:105800000000000000000000000000000000000098
:105810007F8C0017FD156C7FFFFFFF00000000006C
:1058200000000000000000000000000000007F8C6D
:105830000018FD150808019D5E0000000000000032
:105840000000000000000000000000007F8C001835
:10585000FD151C7FFFFFFF0000000000000000009E
:10586000000000000000000000007F8C0018FD1503
:10587000307FFFFFFF00000000000000000000007C
:1058800000000000000000007F8C0018FD15447F20
:10589000FFFFFF000000000000000000000000000B
:1058A0000000000000007F8C0018FD15587FFFFFEE
:1058B000FF000000000000000000000000000000E9
:1058C000000000007F8C0018FD156C7FFFFFFF00BB
:1058D00000000000000000000000000000000000C8
:1058E00000007F8C0019FD15087FFFFFFF000000FE
:1058F00000000000000000000000000000000000A8
:105900007F8C0019FD151C7FFFFFFF0000000000C9
:1059100000000000000000000000000000007F8C7C
:105920000019FD15307FFFFFFF00000000000000A0
:105930000000000000000000000000007F8C001943
:10594000FD15447FFFFFFF00000000000000000085
:10595000000000000000000000007F8C0019FD1511
:10596000587FFFFFFF000000000000000000000063
:1059700000000000000000007F8C0019FD156C7F06
:10598000FFFFFF000000000000000000000000001A
:105990000000000000007F8C001AFD15087FFFFF4B
:1059A000FF000000000000000000000000000000F8
:1059B000000000007F8C001AFD151C7FFFFFFF0018
:1059C00000000000000000000000000000000000D7
:1059D00000007F8C001AFD15307FFFFFFF000000E4
:1059E00000000000000000000000000000000000B7
:1059F0007F8C001AFD154408000000000000000024
:105A000000000000000000000000000000007F8C8B
:105A1000001AFD055800E2C46B0000007F8C001ADC
:105A2000FD156C00221D9500443213000DA6860062
:105A3000000000000000000000007F8C001BFD152E
:105A400008FF8147AEF9DABC21FD2D2601000000D8
:105A500000000000000000007F8C001BFD291C00DE
:105A600006D3720002BB06000369C50000000000F7
:105A700000000000000000F9DABC21FC588B89000E
:105A8000000000000000000000007F8C001BFD29CA
:105A9000440006D3720002BB06000369C500000083
:105AA000000000000000000000F9DABC21FC588B67
:105AB0008900000000000000000000007F8C001D35
:105AC000FD051C0006D3720000007F8C001DFD0543
:105AD000201C1BF0410000007F8C001DFD052404EC
